:020000040800F2
:10000000800C0020450100084D0F00084F0F00082C
:10001000530F0008570F00085B0F00080000000096
:100020000000000000000000000000005F0F00085A
:10003000610F000800000000630F0008650F000852
:100040005F0100085F0100085F0100085F01000810
:100050005F0100085F0100085F0100085F01000800
:100060005F0100085F0100085F0100085F010008F0
:100070005F0100085F0100085F0100085F010008E0
:100080005F0100085F0100085F0100085F010008D0
:100090005F0100085F0100085F0100085F010008C0
:1000A0005F0100085F0100085F0100085F010008B0
:1000B0005F0100085F0100085F0100085F010008A0
:1000C0005F0100085F0100085F0100085F01000890
:1000D0005F010008811C00086D0F00085F01000827
:1000E0005F0100085F0100085F0100085F01000870
:1000F0005F0100085F0100085F0100085F01000860
:100100005F0100085F0100085F0100085F0100084F
:100110005F0100085F0100085F0100085F0100083F
:100120005F0100085F0100085F0100085F0100082F
:10013000DFF80CD001F012FE004800472D0F000838
:10014000800C00200648804706480047FEE7FEE78F
:10015000FEE7FEE7FEE7FEE7FEE7FEE7FEE7FEE777
:1001600047020008310100080CB500200190009002
:100170006C48006840F480306A49086000BF6948F4
:10018000006800F4003000900198401C0190009835
:1001900018B90198B0F5A06FF1D16248006800F479
:1001A000003010B10120009001E000200090009884
:1001B000012843D15C48006840F010005A490860AB
:1001C0000846006820F0030008600846006840F018
:1001D0000200086053484068524948600846406839
:1001E00048600846406840F48060486008464068BF
:1001F00020F47C1048600846406840F4E8104860ED
:100200000846006840F08070086000BF45480068FC
:1002100000F000700028F9D04248406820F0030048
:10022000404948600846406840F00200486000BF0E
:100230003C48406800F00C000828F9D10CBD10B50E
:10024000FFF792FF10BD10B53648006840F001007E
:1002500034490860084640683449084031494860DC
:1002600008460068324908402E4908600846006880
:1002700020F4802008600846406820F4FE004860B2
:100280004FF41F008860FFF7DAFF4FF00060294944
:10029000086010BD10B5002100200022214B5B68D2
:1002A00003F00C0121B1042906D0082928D107E068
:1002B000214B224C236027E01F4B204C236023E07E
:1002C000184B5B6803F47010164B5B6803F48032C4
:1002D000022303EB904022B9194B4343174C236090
:1002E0000DE0104B5B6803F4003323B1144B434320
:1002F000124C236003E0104B4343104C236003E097
:100300000D4B0E4C236000BF00BF064B5B68C3F370
:1003100003130C4CE15C094B1B68CB40074C23607A
:1003200010BD000000100240002002400000FFF855
:10033000FFFFF6FE08ED00E000127A00000000204A
:1003400000093D000400002031490143314A116099
:10035000704770B5002100230F22C47804B32D4CE0
:10036000246804F4E064C4F5E064210AC1F10403E4
:10037000CA40447804FA03F1847814402143090107
:10038000254C0678A155047804F01F050124AC40E3
:1003900005786D11AD0005F1E025C5F8004109E0D3
:1003A000047804F01F050124AC401C4D067876113A
:1003B00045F8264070BD1A4A0A400243154B1B1FE0
:1003C0001A60704739B1134A121D12680243114B6B
:1003D0001B1D1A6006E00F4A121D126882430D4B66
:1003E0001B1D1A607047042808D14FF0E0210969ED
:1003F00041F004014FF0E022116107E04FF0E021ED
:10040000096921F004014FF0E022116170470000FA
:100410000000FA050CED00E000E400E080E100E0FF
:1004200080FFFF1F10B50446CC48844208D101214B
:10043000042000F02DFB0021042000F029FB46E001
:10044000C748844208D10121082000F021FB002187
:10045000082000F01DFB3AE0C248844208D1012187
:10046000102000F015FB0021102000F011FB2EE001
:10047000BD48844208D10121202000F009FB002161
:10048000202000F005FB22E0B848844208D1012179
:10049000402000F0FDFA0021402000F0F9FA16E0BB
:1004A000B348844208D10121802000F0F1FA0021F4
:1004B000802000F0EDFA0AE0AE48844207D1012125
:1004C000801500F0E5FA0021A01500F0E1FA10BD5A
:1004D00010B50121084600F0DBFA0021012000F0F0
:1004E000D7FA10BD2DE9F041024600250026002074
:1004F00000230024002791F803C00CF00F0591F8A9
:1005000003C00CF0100CBCF1000F03D091F802C036
:100510004CEA050591F800C0BCF1000F31D0146819
:1005200000202BE04FF0010C0CFA00F3B1F800C0F2
:100530000CEA03069E4220D183004FF00F0C0CFA08
:1005400003F7BC4305FA03FC4CEA040491F803C02A
:10055000BCF1280F06D14FF0010C0CFA00FCC2F8D8
:1005600014C00AE091F803C0BCF1480F05D14FF068
:10057000010C0CFA00FCC2F810C0401C0828D1D3B2
:100580001460B1F800C0BCF1FF0F34DD54680020E6
:100590002EE000F1080C4FF0010808FA0CF3B1F856
:1005A00000C00CEA03069E4221D183004FF00F0CDD
:1005B0000CFA03F7BC4305FA03FC4CEA040491F877
:1005C00003C0BCF1280F05D100F1080C08FA0CF8A3
:1005D000C2F8148091F803C0BCF1480F07D100F1B4
:1005E000080C4FF0010808FA0CF8C2F81080401C03
:1005F0000828CED35460BDE8F0814FF6FF7101802A
:10060000022181700421C170704702460020936866
:100610000B400BB1012000E00020704701468868C4
:1006200080B2704702460020D3680B400BB1012016
:1006300000E0002070470146C86880B27047016141
:100640007047416170470AB1016100E04161704744
:10065000C16070474FF480320A43826181618261D8
:1006600082698269704702460020434B18684FF642
:100670008073184040EA021008433F4B18607047EF
:100680003E49C8617047F0B50A46002300240021A6
:10069000002500F00046B6F1004F02D1364EF16958
:1006A00001E0354E7168C0F3034583B200F4401693
:1006B000B6F5401F08D121F070612F4E766826F004
:1006C00070662D4F7E6012E000F48016B6F5801F34
:1006D00006D1032606FA05F4A14341F0706106E055
:1006E000460D360103FA06F6B14341F0706122B1BE
:1006F000460D360103FA06F6314300F00046B6F126
:10070000004F02D11C4EF16101E01B4E7160F0BD43
:1007100030B500228B071C0F0F2303FA04F2164B8F
:1007200008338C1053F824309343134C08348D1045
:1007300044F8253023468C1053F824308C07240FBE
:1007400000FA04F423430C4C08348D1044F825308F
:1007500030BD0A49DC3108607047000000080140E4
:10076000000C01400010014000140140001801403D
:10077000001C014000200140000001400000204218
:10078000DF48006840F00100DD4908600846406825
:10079000DC490840DA49486008460068DA49084000
:1007A000D74908600846006820F4802008600846A1
:1007B000406820F4FE0048604FF41F0088607047D6
:1007C000CF49096821F48031CD4A1160114609688A
:1007D00021F480211160B0F5803F03D0B0F5802F67
:1007E0000ED106E0C649096841F48031C44A11605F
:1007F00007E0C349096841F4A021C14A116000E043
:1008000000BF00BF704710B5014600220023002042
:100810004A11012A02D1BA4C236806E0022A02D109
:10082000B74C236A01E0B64C636A01F01F02012451
:1008300094401C400CB1012000E0002010BD38B5F0
:10084000002000900024002500BF3120FFF7DBFFCF
:1008500005460098401C00900098B0F5A06F01D0AC
:10086000002DF2D03120FFF7CEFF08B1012400E0C7
:100870000024204638BD01460020A14A106820F01F
:10088000F80040EAC10010607047A0490860704756
:10089000024600209A4B586820F47C1042EA01037B
:1008A0001843974B5860704798490866704701464F
:1008B0000020934A506820F00300084350607047BE
:1008C0008F48406800F00C007047014600208C4AB9
:1008D000506820F0F0000843506070470146002047
:1008E000874A506820F4E060084350607047014632
:1008F0000020834A506820F4605040EAC1005060F4
:10090000704729B17E4A527A02437D4B5A7204E005
:100910007B4A527A82437A4B5A7270477B49D8316C
:100920000860704701460020754A506820F4404036
:100930000843506070470021714A20321170704A9C
:1009400082F82010012802D004280AD104E00121F5
:100950006B4A2032117005E00521694A203211707E
:1009600000E000BF00BF70476949086070476449F4
:10097000096A0143624A1162704765494439086057
:10098000704730B500210022002400235C4D6D68C3
:1009900005F00C0121B1042905D0082923D105E077
:1009A0005C4D056022E05B4D05601FE0544D6D68B5
:1009B00005F47012524D6D6805F48034022505EB84
:1009C00092421CB9544D554305600BE04C4D6D6887
:1009D00005F400351DB1504D5543056002E04D4D05
:1009E0005543056002E04B4D056000BF00BF444D1C
:1009F0006D6805F0F0010909484D6B5C0568DD4044
:100A000045603F4D6D6805F4E061090A434D6B5C3C
:100A10004568DD4085603A4D6D6805F46051C90A4E
:100A20003E4D6B5C4568DD40C560354D6D6805F435
:100A30004041890B3A4D6B5CC568B5FBF3F5056128
:100A400030BD29B12E4A526902432D4B5A6104E050
:100A50002B4A526982432A4B5A61704729B1284A6E
:100A600092690243264B9A6104E0254A92698243C7
:100A7000234B9A61704729B1214AD2690243204B26
:100A8000DA6104E01E4AD26982431D4BDA61704785
:100A900029B11B4AD2680243194BDA6004E0184AB4
:100AA000D2688243164BDA60704729B1144A126942
:100AB0000243134B1A6104E0114A12698243104B3E
:100AC0001A61704712494039086070470F49C8647D
:100AD00070470B49C87170470948406A40F0807000
:100AE00007494862704701460020054A92680A405B
:100AF0000AB1012000E00020704701498872704768
:100B0000001002400000FFF8FFFFF6FE0000424226
:100B10008004424200127A0000093D0014000020C7
:100B20002400002010B50446FB48844209D101216D
:100B30008803FFF7ADFF00214FF48040FFF7A8FFC7
:100B400032E0F648844209D101214804FFF7ADFFA5
:100B500000214FF40030FFF7A8FF25E0F048844261
:100B600009D101218804FFF7A0FF00214FF4802064
:100B7000FFF79BFF18E0EB48844209D10121C8042C
:100B8000FFF793FF00214FF40020FFF78EFF0BE0EB
:100B9000E548844208D101210805FFF786FF0021BE
:100BA0004FF48010FFF781FF10BD2DE9F04786B0AC
:100BB00005460E460024A24600BFA1460027B08984
:100BC00000B100BF2F462C8A4CF6FF700440F0881D
:100BD00004432C82AC894EF6F3100440B08831896E
:100BE0000843718908430443AC81AC8A4FF6FF4047
:100BF0000440B0890443AC8201A8FFF7C2FEC64896
:100C0000874202D1DDF810A001E0DDF80CA0A88930
:100C100000F4004040B10AEBCA0000EB0A10316852
:100C20004900B0FBF1F807E00AEBCA0000EB0A103C
:100C300031688900B0FBF1F86420B8FBF0F00401E2
:100C40002009642101FB1089A88900F4004040B10B
:100C5000322000EBC900B0FBF1F000F007000443C4
:100C600008E0322000EB09106421B0FBF1F000F045
:100C70000F0004432C8106B0BDE8F0874FF41651F5
:100C8000016000218180C18001810C21418100210E
:100C90008181704710B502460020108A4FF2FF0391
:100CA00018400B884C8823438C882343CC882343EB
:100CB0001843108210BD0021018041808180C180D5
:100CC000704721B1828942F40052828104E0828916
:100CD0004DF6FF731A4082817047F0B50346002439
:100CE00000260025002040F66A17B94200D100BF57
:100CF0001846C1F3421401F01F06012707FA06F552
:100D0000012C01D10C3004E0022C01D1103000E0A4
:100D100014301AB107682F43076002E00768AF4339
:100D20000760F0BD1AB1838A0B43838202E0838A95
:100D30008B4383827047028A4FF6F0731A40028217
:100D4000028A0A430282704782894FF2FF731A4077
:100D5000828182890A438281704721B1828942F06F
:100D60000202828104E082894FF6FD731A4082817B
:100D70007047028A4FF6DF731A400282028A0A43E2
:100D80000282704721B1028A42F48042028204E06A
:100D9000028A4BF6FF731A4002827047C1F30802C1
:100DA0008280704701468888C0F3080070478189B7
:100DB00041F0010181817047028BD2B20283028B24
:100DC00042EA012202837047028B02F47F420283CF
:100DD000028B0A430283704721B1828A42F02002CB
:100DE000828204E0828A4FF6DF731A408282704763
:100DF00021B1828A42F01002828204E0828A4FF698
:100E0000EF731A408282704721B1828A42F0080251
:100E1000828204E0828A4FF6F7731A40828270471A
:100E200021B1828942F40042828103E08289C2F3C7
:100E30000E028281704721B1828A42F4006282826E
:100E400004E0828A4FF2FF731A4082827047828ADE
:100E50004FF6FB731A408282828A0A43828270476D
:100E600021B1828A42F00202828204E0828A4FF635
:100E7000FD731A408282704702460020B1F5007F60
:100E800000D100BF13880B400BB1012000E000200F
:100E9000704701F40072B2F5007F00D100BFCA4371
:100EA0000280704770B50246002400230025002010
:100EB00040F66A16B14200D100BFC1F3421501F0FD
:100EC0001F03012606FA03F3012D02D19689334050
:100ED00006E0022D02D1168A334001E0968A3340A3
:100EE0000C12012606FA04F41688344013B10CB132
:100EF000012000E0002070BD10B50022002340F664
:100F00006A14A14200D100BF0A1201249440A3B286
:100F1000DC43048010BD0000003801400044004064
:100F200000480040004C00400050004010B500F068
:100F3000F1FD00F063FD00F0F7FB00F0CDF900F0EB
:100F400071F900F080FA002010BD0000704700BF6A
:100F5000FEE700BFFEE700BFFEE700BFFEE7704709
:100F60007047704710B500F0A5F910BD10B540F2FC
:100F700025511B48FFF796FFD8B11948FFF712FF1C
:100F8000C4B21848B0F80004C0F30E0040F2FF31BC
:100F900088420EDA1349B1F80014C1F30E00411C67
:100FA000104AB2F8002461F30E020E49A1F80024A1
:100FB0000C5440F224410A48FFF774FF01280DD178
:100FC0000848B0F8000420F4004000F5004005494E
:100FD000A1F800040248FFF7E5FEC4B210BD00000E
:100FE00000440040B403002000B585B00121042076
:100FF000FFF734FD01214804FFF73DFD0420ADF863
:10100000100018208DF8130003208DF8120004A999
:101010007248FFF767FA0820ADF8100004208DF839
:10102000130004A96D48FFF75DFA4FF4E13000901A
:101030000020ADF80400ADF80600ADF80800ADF8EA
:101040000C000C20ADF80A0069466548FFF7ADFDBD
:10105000012240F225516248FFF73FFE012240F293
:1010600024415F48FFF739FE01215D48FFF729FE63
:1010700005B000BDF0B503460D46164600272946CB
:101080000A2E03D0002008702846F0BD33B9302066
:1010900001F8010B002008702846F6E7002B03DA60
:1010A0002D2001F8010B5B4242F210720DE093FB20
:1010B000F2F404B937B104F1300001F8010B04FB7C
:1010C000123301270A2092FBF0F2002AEFDC002005
:1010D00008702846D9E70FB470B586B006460CA84C
:1010E000019073E00B9800785C281CD10B98401C91
:1010F0000B9000786E2809D072280FD10D21304650
:10110000FFF74CFE0B98401C0B900BE00A21304679
:10111000FFF744FE0B98401C0B9003E00B98401C1B
:101120000B9000BF4BE00B980078252840D10B981E
:10113000401C0B900078642818D0732833D1019894
:1011400010C801900BE021783046FFF727FE00BF62
:1011500080213046FFF790FE0028F9D0641C2078EB
:101160000028F0D10B98401C0B9020E0019820C87B
:1011700001900A2202A92846FFF77CFF02AC0BE08F
:1011800021783046FFF70AFE00BF80213046FFF786
:1011900073FE0028F9D0641C20780028F0D10B9849
:1011A000401C0B9003E00B98401C0B9000BF06E026
:1011B0000B9810F8011B0B903046FFF7EFFD00BFB6
:1011C00080213046FFF758FE0028F9D00B980078B0
:1011D000002887D106B070BC5DF814FB0008014000
:1011E0000044004008B501210420FFF737FC4FF40C
:1011F0008170ADF8000010208DF8030003208DF8F9
:10120000020069460648FFF76DF902210448FFF71E
:1012100018FA4FF480710248FFF711FA08BD000078
:101220000008014030B5284800684FF47A72B0FBDE
:10123000F2F1B1F1807F01D301201DE021F07F4068
:10124000401E4FF0E022506150170F22002807DAAD
:1012500013071D0E1D4B00F00F04241F1D5503E046
:1012600013071C0E1A4B1C5400BF00204FF0E02245
:10127000906107201061002008B100BFFEE74FF029
:10128000E020006920F001004FF0E021086130BD4E
:1012900001B51049009808604FF0E020006940F067
:1012A00001004FF0E021086100BF0A4800680028F3
:1012B000FBD108BD0748006820B106480068401E01
:1012C00004490860704700000000002018ED00E0AD
:1012D00000E400E02800002010B5FFF783FFFFF7CF
:1012E00083FE10BD08B54FF4A060FFF72DF826204F
:1012F0008DF8000000208DF801008DF8020001201B
:101300008DF803006846FFF724F808BD2DE9F04189
:1013100006460C4615461F465E48B0F800046FF3BB
:101320000E005C49A1F8000432465BA15C48FFF75F
:10133000D2FE1CB915B90120BDE8F0813846FFF78F
:10134000A7FF00205349B1F80014C1F30E01514A20
:101350005054B4B1ADB12146104600F0D7FC08B1ED
:10136000012000E0002040B929464A4800F0CEFCA8
:1013700008B1012000E0002008B10120DCE70020D6
:10138000DAE744B12146434800F0C0FC08B101202F
:10139000D2E70020D0E729463E4800F0B7FC08B16C
:1013A0000120C9E70020C7E710B501233DA241A1F4
:1013B00041A0FFF7ABFF10BD00B585B00D2248A1DD
:1013C000684600F009FD0123002249A16846FFF7A5
:1013D0009DFF0123002237A146A0FFF797FF0120C0
:1013E00005B000BD70B5044600252A48B0F80004D9
:1013F0006FF30E002749A1F800040846B0F8000476
:1014000020F40040A1F8000400BF2248B0F8000416
:10141000C00B0028F9D000201E49B1F80014C1F318
:101420000E011C4A505434B136A1104600F06EFC37
:1014300038B1184D05E034A1164800F067FC00B142
:10144000144D284670BD8CB031A103C9CDE90A0105
:1014500031A2D2E900109268CDE90802079131A3C8
:101460000FCBCDE90523CDE9030132A103C9CDE9B5
:10147000010102213148FFF7E2F8314800F087FB13
:1014800007E0002301AA03A91846FFF78DFFFFF725
:1014900093FFF6E7B403002025730D0A0000000057
:1014A00000440040414C5245415920434F4E4E4567
:1014B000435400004F4B000041542B4349505354B8
:1014C0004152543D22544350222C2232332E323288
:1014D000342E3133312E313138222C363030300039
:1014E00041542B43495053454E443D256400000070
:1014F0003E20000068656C6C6F79616E67796F6E75
:10150000670000003E0000002B495044000000002E
:10151000313730320000000031323334353637385D
:101520000000000032332E3232342E3133312E316E
:101530003138000036303030000000000008014033
:1015400000350C0010B54021F948FFF778F88021EC
:10155000F748FFF774F88021F548FFF772F840214B
:10156000F348FFF76EF810BD10B54021F048FFF7C3
:1015700066F88021EE48FFF764F88021EC48FFF719
:101580005EF810BD10B54021E948FFF758F840213A
:10159000E748FFF756F810BD2DE9F04105462C4607
:1015A0004021E348FFF74DF8002619E0274607F0F1
:1015B0008007802F04D18021DD48FFF740F803E049
:1015C0008021DB48FFF73DF86006040E4021D84833
:1015D000FFF735F84021D648FFF733F8701CC6B244
:1015E000082EE3DBBDE8F08110B50446FFF7AAFF43
:1015F0007820FFF7D1FFFFF7C5FF0020FFF7CCFFF2
:10160000FFF7C0FF2046FFF7C7FFFFF7BBFFFFF75D
:10161000ABFF10BD10B50446FFF794FF7820FFF72D
:10162000BBFFFFF7AFFF4020FFF7B6FFFFF7AAFFB2
:101630002046FFF7B1FFFFF7A5FFFFF795FF10BDAD
:1016400070B504460D461DB1E0B2FFF7E3FF02E0BE
:10165000E0B2FFF7C9FF70BD70B50646002418E080
:1016600004F1B0000021FFF7EBFF00210846FFF76F
:10167000E7FF00211020FFF7E3FF002505E001212F
:101680003046FFF7DDFF681CC5B2802DF7DB601C1C
:10169000C4B2082CE4DB70BD06E041F6650100E051
:1016A000491E0029FCD1401E0028F6D17047014692
:1016B00005E0002001E0421CD0B27B28FBDB0A00E1
:1016C000A1F10101F5D1704770B504460D4605F151
:1016D000B0000021FFF7B4FF102141EA14100021EF
:1016E000FFF7AEFF04F00F000021FFF7A9FF70BD68
:1016F00010B500218D20FFF7A3FF00211420FFF774
:101700009FFF0021AF20FFF79BFF10BD10B5002108
:101710008D20FFF795FF00211020FFF791FF00219A
:10172000AE20FFF78DFF10BD70B5002418E004F166
:10173000B0000021FFF784FF00210846FFF780FF7B
:1017400000211020FFF77CFF002505E0012100208B
:10175000FFF776FF681CC5B2802DF7DB601CC4B2B2
:10176000082CE4DB70BD70B5002418E004F1B00073
:101770000021FFF765FF00210846FFF761FF002108
:101780001020FFF75DFF002505E001210846FFF767
:1017900057FF681CC5B2802DF7DB601CC4B2082C53
:1017A000E4DB70BD2DE9F04707460E4690469946AA
:1017B00000250024A8F12000C5B27F2F02DD0027FC
:1017C000B01CC6B2B9F1100F24D131463846FFF72C
:1017D0007BFF002408E004EB0511564A505C012110
:1017E000FFF72EFF601CC4B2082CF4DB701CC1B2E2
:1017F0003846FFF769FF002409E004EB05110831C2
:101800004C4A505C0121FFF71BFF601CC4B2082C3E
:10181000F3DB12E031463846FFF756FF00240AE0BA
:1018200005EB4501444A02EB4101085D0121FFF748
:1018300007FF601CC4B2062CF2DBBDE8F08710B5D0
:101840000246012000E050430B00A1F10104E1B287
:10185000F9D110BD2DE9FF5F074691461E460E9D4A
:101860004FF0000A002435E0301B401EC1B20A20B0
:10187000FFF7E5FFB9FBF0F00A21B0FBF1F201FB45
:101880001208BAF1000F14D1701EA04211DDB8F198
:10189000000F0CD1AB4605EBDB71491001FB047165
:1018A000C8B22B4620220199FFF77CFF10E04FF0D1
:1018B000010AAB4605EBDB71491001FB0471C8B2AC
:1018C00008F13001CAB22B460199FFF76BFF00BF48
:1018D000601CC4B2B442C7DBBDE8FF9F2DE9F041F4
:1018E00004460F461546984600260FE0AA5D43467B
:1018F00039462046FFF756FF04F10800C4B2782CA1
:1019000002DD0024B81CC7B2701CC6B2A85D002856
:10191000ECD1BDE8F0812DE9F04180460E46154638
:10192000002731464046FFF7CFFE002411E00000BB
:10193000000C0140A62100087E1F0008734A02EB3C
:101940008511085D0121FFF77BFE781CC7B2601C82
:10195000C4B2102CF2DB701CC1B24046FFF7B4FEDB
:1019600000240CE06900491C684A02EB4111085D43
:101970000121FFF765FE781CC7B2601CC4B2102CB1
:10198000F0DBBDE8F0812DE9F05F06460F4690469A
:101990001C46DDF828A04FF0000BE11704EB517155
:1019A000C910A4EBC10131B92046E11704EB517114
:1019B000C1F3C70506E02046E11704EB5171C910D9
:1019C000491CCDB23D4615E029463046FFF77CFE66
:1019D000B1460BE059460BF1010B1AF80100012149
:1019E000FFF72EFE09F1010000F0FF09C145F1DB10
:1019F000681CC5B2A542E7DBBDE8F09F08B5012130
:101A00000820FFF72BF8C020ADF8000010208DF85B
:101A1000030003208DF8020069463D48FEF762FD91
:101A2000C0213B48FEF70BFE4FF4487000F0AFF8C2
:101A30000021AE20FFF704FE00210846FFF700FE5C
:101A400000211020FFF7FCFD00214020FFF7F8FDEA
:101A50000021B020FFF7F4FD00218120FFF7F0FD09
:101A60000021FF20FFF7ECFD0021A120FFF7E8FD9A
:101A70000021A620FFF7E4FD0021A820FFF7E0FDEC
:101A800000213F20FFF7DCFD0021C820FFF7D8FD33
:101A90000021D320FFF7D4FD00210846FFF7D0FD39
:101AA0000021D520FFF7CCFD00218020FFF7C8FDE5
:101AB0000021D820FFF7C4FD00210520FFF7C0FD5D
:101AC0000021D920FFF7BCFD0021F120FFF7B8FD70
:101AD0000021DA20FFF7B4FD00211220FFF7B0FD4E
:101AE0000021DB20FFF7ACFD00213020FFF7A8FD2F
:101AF00000218D20FFF7A4FD00211420FFF7A0FD99
:101B00000021AF20FFF79CFD08BD00002C00002045
:101B1000000C014010B56FF00400FEF764FC2E4885
:101B200000682E49B0FBF1F02D4908700846007896
:101B300000EB4001C1EBC0104FF6FF7101EAC0009D
:101B40002849088010BD0146254A12784A434FF0C3
:101B5000E0235A6100229A611A46126942F001029A
:101B60001A6100BF4FF0E022106900F001021AB1C3
:101B700000F48032002AF5D04FF0E022126922F002
:101B800001024FF0E0231A6100229A61704701467A
:101B9000144A12884A434FF0E0235A6100229A61A6
:101BA0001A46126942F001021A6100BF4FF0E022AA
:101BB000106900F001021AB100F48032002AF5D059
:101BC0004FF0E022126922F001024FF0E0231A6187
:101BD00000229A61704700000000002000127A0085
:101BE000AC030020AE03002010B586B004460121EE
:101BF00044F20500FEF732FF4FF40070ADF8140018
:101C000003208DF8160018208DF8170005A93B4811
:101C1000FEF768FC4FF48060ADF8140004208DF8E6
:101C2000170005A93548FEF75DFC25208DF800005A
:101C300003208DF801008DF8020001208DF80300CB
:101C40006846FEF786FB01940020ADF80800ADF869
:101C50000A00ADF80C00ADF810000C20ADF80E0035
:101C600001A92748FEF7A1FF012240F2255124488F
:101C7000FFF733F801212248FFF723F806B010BD23
:101C800010B540F225511E48FFF70CF910B31C485F
:101C9000FFF788F8C4B21B48008800F40040C8B9B8
:101CA0001848008800F4804060B10A2C03D000205E
:101CB0001449088020E01348008840F4004011498E
:101CC000088019E00D2C06D10E48008840F48040B1
:101CD0000C49088010E00B480088C0F30D000A4949
:101CE0000C5408480088401C0649088008460088B3
:101CF000C72801DD0020088010BD00000008014059
:101D000000380140B0030020B607002030B505467A
:101D10002A460B4612F8010B13F8014B08B1A042FA
:101D2000F8D01CB1002802D06D1CF1E7284630BD68
:101D300030B50B46014600202022012409E021FA9B
:101D400002F59D4205D303FA02F5491B04FA02F598
:101D50002844151EA2F10102F1DC30BD064C074DEE
:101D600006E0E06840F0010394E80700984710346B
:101D7000AC42F6D3FEF7E0F998270008B827000830
:101D800070B58C1810F8015B15F0070301D110F83D
:101D9000013B2A1106D110F8012B03E010F8016B6A
:101DA00001F8016B5B1EF9D12B0705D40023521EED
:101DB0000DD401F8013BFAE710F8013BCB1A921C55
:101DC00003E013F8015B01F8015B521EF9D5A14253
:101DD000D8D3002070BD00000FB4084B10B504A983
:101DE00002AA039800F01CF8044602A9002000F0A3
:101DF000C1F8204610BC5DF814FB0000751F0008F8
:101E000002E008C8121F08C1002AFAD170477047C3
:101E1000002001E001C1121F002AFBD17047000021
:101E20002DE9FF4F89B09B460446002506E0252892
:101E30000BD05A460B999047641C6D1C20780028E3
:101E4000F5D10DB02846BDE8F08F0027B846012235
:101E5000474900E0074314F8013F203B02FA03F032
:101E60000842F7D120782E2819D114F8010F47F035
:101E700004072A280ED06FF02F022078A0F130013D
:101E800009290CD808EB880102EB410100EB01089D
:101E9000641CF2E70A98641C50F8048B0A902078BE
:101EA0000028CED0642808D0692806D075281ED016
:101EB0005A460B9990476D1C58E00A994FF00A0951
:101EC00001C90A91002802DA40422D2102E03905B9
:101ED00004D52B218DF82010012103E0F90704D04F
:101EE0002021F7E78A4608AE0DE00021FAE70A99BB
:101EF0004FF00A0901C90A91F7E74946FFF718FFB1
:101F0000303106F8011D0028F7D1ADEB060000F1D5
:101F10002009780701D44FF00108C84502DDA8EB7D
:101F2000090000E000208046002706E008A85A4685
:101F3000C05D0B9990476D1C7F1C5745F6DB04E094
:101F400030205A460B9990476D1CB8F10001A8F15A
:101F50000108F5DC05E016F8010B5A460B9990478D
:101F60006D1CB9F10001A9F10109F4DC641C65E7FD
:101F7000092801000A68531C0B60107070470000AC
:101F8000000000000000002F000000000700070014
:101F900000147F147F1400242A7F2A120062640830
:101FA00013230036495522500000050300000000AD
:101FB0001C224100000041221C000014083E0814AD
:101FC0000008083E0808000000A06000000808089B
:101FD0000808000060600000002010080402003EB5
:101FE0005149453E0000427F400000426151494650
:101FF000002141454B31001814127F100027454540
:102000004539003C4A494930000171090503003651
:102010004949493600064949291E00003636000064
:102020000000563600000008142241000014141469
:102030001414000041221408000201510906003264
:102040004959513E007C1211127C007F49494936A2
:10205000003E41414122007F4141221C007F49490D
:102060004941007F09090901003E4149497A007F41
:102070000808087F0000417F4100002040413F01E7
:10208000007F08142241007F40404040007F020C46
:10209000027F007F0408107F003E4141413E007FE7
:1020A00009090906003E4151215E007F09192946B0
:1020B0000046494949310001017F0101003F40408C
:1020C000403F001F2040201F003F4038403F00633A
:1020D000140814630007087008070061514945435C
:1020E00000007F41410000552A552A55000041411A
:1020F0007F00000402010204004040404040000014
:1021000001020400002054545478007F48444438AD
:1021100000384444442000384444487F0038545434
:10212000541800087E0901020018A4A4A47C007FB2
:10213000080404780000447D4000004080847D0055
:10214000007F102844000000417F4000007C0418FC
:102150000478007C0804047800384444443800FCC7
:10216000242424180018242418FC007C08040408E3
:1021700000485454542000043F444020003C404058
:10218000207C001C2040201C003C4030403C00448F
:1021900028102844001CA0A0A07C004464544C4497
:1021A00014141414141400000000000000000000B7
:1021B000000000000000000000F800000000000027
:1021C00000333000000000100C06100C0600000068
:1021D00000000000000040C07840C0784000043F8C
:1021E00004043F040400007088FC0830000000185C
:1021F00020FF211E0000F008F000E0180000002180
:102200001C031E211E0000F00888700000001E2123
:1022100023241927211010160E00000000000000D2
:10222000000000000000000000E0180402000000B0
:1022300000071820400000020418E00000000040E1
:10224000201807000000404080F08040400002025B
:10225000010F01020200000000F000000000010177
:10226000011F01010100000000000000000080B01B
:1022700070000000000000000000000000000001ED
:102280000101010101010000000000000000003018
:1022900030000000000000000000806018040060B2
:1022A00018060100000000E010080810E000000F10
:1022B000102020100F00001010F800000000002077
:1022C000203F2020000000700808088870000030BF
:1022D0002824222130000030088888483000001867
:1022E000202020110E000000C02010F80000000780
:1022F0000424243F240000F80888880808000019F6
:10230000212020110E0000E0108888180000000F26
:10231000112020110E0000380808C83808000000FD
:10232000003F000000000070880808887000001C52
:10233000222121221C0000E010080810E00000000B
:10234000312222110F00000000C0C0000000000078
:10235000003030000000000000800000000000009D
:102360008060000000000000804020100800000194
:102370000204081020004040404040404000040457
:102380000404040404000008102040800000002021
:10239000100804020100007048080808F00000005E
:1023A000003036010000C030C828E810E0000718EF
:1023B000272423140B000000C038E0000000203C5C
:1023C00023020227382008F8888888700000203F00
:1023D000202020110E00C030080808083800071817
:1023E00020202010080008F808080810E000203F0E
:1023F000202020100F0008F88888E8081000203FEF
:1024000020202320180008F88888E8081000203FC2
:10241000200003000000C03008080838000007183A
:102420002020221E020008F808000008F808203FBB
:10243000210101213F20000808F8080800000020C1
:10244000203F2020000000000808F8080800C08095
:1024500080807F00000008F888C028180800203F0E
:1024600020012638200008F8080000000000203F66
:1024700020202020300008F8F800F8F80800203F5D
:10248000003F003F200008F830C00008F808203F57
:10249000200007183F00E01008080810E0000F10A7
:1024A000202020100F0008F808080808F000203F3E
:1024B000210101010000E01008080810E0000F18D9
:1024C000242438504F0008F8888888887000203FFE
:1024D0002000030C302000708808080838000038FD
:1024E000202121221C00180808F808081800000004
:1024F000203F2000000008F808000008F808001F2E
:10250000202020201F000878880000C8380800001C
:1025100007380E010000F80800F80008F800033C36
:102520000700073C030008186880806818082030FE
:102530002C03032C30200838C800C83808000000DD
:10254000203F2000000010080808C8380800203884
:10255000262120201800000000FE020202000000D8
:10256000007F40404000000C30C000000000000030
:1025700000010638C00000020202FE000000004018
:1025800040407F000000000004020202040000003E
:10259000000000000000000000000000000080803B
:1025A0008080808080800002020400000000000023
:1025B0000000000000000000808080800000001902
:1025C000242222223F2008F8008080000000003FE3
:1025D000112020110E000000008080800000000EFD
:1025E000112020201100000000808088F800000EDB
:1025F000112020103F200000808080800000001FFC
:10260000222222221300008080F08888881800206F
:10261000203F202000000000808080808000006B30
:1026200094949493600008F8008080800000203F1C
:10263000210000203F20008098980000000000202A
:10264000203F20200000000000809898000000C07B
:102650008080807F000008F8000080808000203F9C
:1026600024022D302000000808F80000000000209F
:10267000203F202000008080808080808000203FDC
:1026800020003F20003F8080008080800000203FAD
:10269000210000203F200000808080800000001F7B
:1026A000202020201F00808000808000000080FF0C
:1026B000A12020110E000000008080808000000E0C
:1026C000112020A0FF80808080008080800020205A
:1026D0003F212000010000008080808080000033C6
:1026E000242424241900008080E080800000000061
:1026F000001F202000008080000000808000001F5C
:10270000202020103F2080808000008080800001F9
:102710000E300806010080800080008080800F302D
:102720000C030C300F0000808000808080000020AF
:10273000312E0E31200080808000008080808081DA
:102740008E7018060100008080808080800000214B
:10275000302C2221300000000000807C02020000AA
:102760000000003F404000000000FF0000000000AB
:102770000000FF0000000002027C8000000000401A
:10278000403F0000000000060101020204040000B6
:102790000000000000000000B82700080000002032
:1027A000B4030000801D000844290008B403002081
:1027B000CC080000101E00081184A24A0468090118
:1027C000020304060708090C6910450204060818EC
:1027D0000C1060028C20908E8888FF880102118086
:1027E0002504047E012BFC44010213FC1F404454C9
:1027F00064457E1D07147E45645444404BFF4901E7
:102800000216FF2AF879397E0215F81B1F08012AE3
:102810007F2004119F80F03B808201080810E2A213
:10282000928A868280C049A50319807F3A04014AB2
:10283000FC0701124A20015A3F0801123808806043
:10284000F80740300FC603110808220139F82AFFA3
:10285000C609101F111809100C2424A4642526068B
:102860000D102424140CBB1C404849011A7F040D90
:10287000124B484040201E4848C8784F060A12486C
:1028800020410009150312122222528A063C1060D0
:1028900080A219040312C0301F40404043407F060D
:1028A0001C7F42410609103F1F1010FF109008FDC9
:1028B0001AFF040910E10810110444827F0180808E
:1028C00040432C1028468180801901080A11D0301D
:1028D000FF30D0121C10101F3D080402019E0D1184
:1028E00001020408211116FE222222FE0712FE8296
:1028F0008292A29E100880601F0242827F0F11FF09
:10290000402F102C438011000B1490884C57A424A6
:1029100054548C84180801018042221A07441D4235
:102920003E01018AF9E1000D14E4242CB42526248B
:10293000B42C24E404180AFF02011E1212121E41D4
:0429400086011A00F2
:0400000508000131BD
:00000001FF
