:020000040800F2
:10000000780E002045010008D9280008DB280008E8
:10001000DF280008E3280008E728000800000000A7
:10002000000000000000000000000000EB280008B5
:10003000ED28000800000000EF280008F128000863
:100040005F0100085F0100085F0100085F01000810
:100050005F0100085F0100085F0100085F01000800
:100060005F0100085F0100085F0100085F010008F0
:100070005F0100085F0100085F0100085F010008E0
:100080005F0100085F0100085F0100085F010008D0
:10009000773400085F0100085F0100085F01000875
:1000A0005F0100085F0100085F0100085F010008B0
:1000B000958B01085F0100085F0100085F010008DF
:1000C0005F0100085F0100085F0100085F01000890
:1000D0005F0100085F010008F92800085F010008BF
:1000E0005F0100085F0100085F0100085F01000870
:1000F0005F0100085F0100085F0100085F01000860
:100100005F0100085F0100085F0100085F0100084F
:100110005F0100085F0100085F0100085F0100083F
:100120005F0100085F0100085F0100085F0100082F
:10013000DFF80CD019F0C6F8004800472F28000857
:10014000780E00200648804706480047FEE7FEE795
:10015000FEE7FEE7FEE7FEE7FEE7FEE7FEE7FEE777
:1001600047020008310100080CB500200190009002
:100170006C48006840F480306A49086000BF6948F4
:10018000006800F4003000900198401C0190009835
:1001900018B90198B0F5A06FF1D16248006800F479
:1001A000003010B10120009001E000200090009884
:1001B000012843D15C48006840F010005A490860AB
:1001C0000846006820F0030008600846006840F018
:1001D0000200086053484068524948600846406839
:1001E00048600846406840F48060486008464068BF
:1001F00020F47C1048600846406840F4E8104860ED
:100200000846006840F08070086000BF45480068FC
:1002100000F000700028F9D04248406820F0030048
:10022000404948600846406840F00200486000BF0E
:100230003C48406800F00C000828F9D10CBD10B50E
:10024000FFF792FF10BD10B53648006840F001007E
:1002500034490860084640683449084031494860DC
:1002600008460068324908402E4908600846006880
:1002700020F4802008600846406820F4FE004860B2
:100280004FF41F008860FFF7DAFF4FF00060294944
:10029000086010BD10B5002100200022214B5B68D2
:1002A00003F00C0121B1042906D0082928D107E068
:1002B000214B224C236027E01F4B204C236023E07E
:1002C000184B5B6803F47010164B5B6803F48032C4
:1002D000022303EB904022B9194B4343174C236090
:1002E0000DE0104B5B6803F4003323B1144B434320
:1002F000124C236003E0104B4343104C236003E097
:100300000D4B0E4C236000BF00BF064B5B68C3F370
:1003100003130C4CE15C094B1B68CB40074C23607A
:1003200010BD000000100240002002400000FFF855
:10033000FFFFF6FE08ED00E000127A00000000204A
:1003400000093D000400002031490143314A116099
:10035000704770B5002100230F22C47804B32D4CE0
:10036000246804F4E064C4F5E064210AC1F10403E4
:10037000CA40447804FA03F1847814402143090107
:10038000254C0678A155047804F01F050124AC40E3
:1003900005786D11AD0005F1E025C5F8004109E0D3
:1003A000047804F01F050124AC401C4D067876113A
:1003B00045F8264070BD1A4A0A400243154B1B1FE0
:1003C0001A60704739B1134A121D12680243114B6B
:1003D0001B1D1A6006E00F4A121D126882430D4B66
:1003E0001B1D1A607047042808D14FF0E0210969ED
:1003F00041F004014FF0E022116107E04FF0E021ED
:10040000096921F004014FF0E022116170470000FA
:100410000000FA050CED00E000E400E080E100E0FF
:1004200080FFFF1F10B50446FE48844209D1012118
:10043000480601F032F800214FF0007001F02DF86D
:1004400008E00121880601F028F800214FF08060C3
:1004500001F023F810BD30B50246002000231468D7
:1004600024F002041460146844F00104146000E0F5
:100470005B1C546804F001041CB94FF6FF74A342DE
:10048000F6D1546804F001040CB900206CE08C79BA
:10049000012C04D1146844F08004146003E0146853
:1004A00024F080041460CC79012C04D1146844F049
:1004B0004004146003E0146824F0400414600C7AD3
:1004C000012C04D1146844F02004146003E0146883
:1004D00024F0200414604C7A012C04D1146844F0F8
:1004E0001004146003E0146824F0100414608C7A83
:1004F000012C04D1146844F00804146003E014686B
:1005000024F008041460CC7A012C04D1146844F05F
:100510000404146003E0146824F0040414608C786C
:10052000A407CD7844EA05640D7944EA05444D7981
:1005300044EA05540D886D1E2C43D461146824F0E0
:1005400001041460002300E05B1C546804F0010403
:100550001CB14FF6FF74A342F6D1546804F00104B5
:100560000CB1002000E0012030BD10B50021837ADD
:10057000012202FA03F1AC4A126842F00102AA4BCE
:100580001A60A94A1C3212688A43A74B1C331A60AE
:10059000027BCAB9A44A0C3212688A43A24B0C33BC
:1005A0001A604288C38842EA03439F4A4032847AF1
:1005B00042F834300288838842EA03439A4A403240
:1005C000847A02EBC4025360027B012A19D1964A55
:1005D0000C3212680A43944B0C331A604288038829
:1005E00042EA0343904A4032847A42F83430C28867
:1005F000838842EA03438C4A4032847A02EBC40285
:100600005360C27A3AB9884A121D12688A43864BEF
:100610001B1D1A6006E0844A121D12680A43824BB1
:100620001B1D1A60028932B97F4A143212688A434C
:100630007D4B14331A600289012A06D17A4A14329A
:1006400012680A43784B14331A60427B012A06D1A0
:10065000754A1C3212680A43734B1C331A60724A83
:10066000126822F00102704B1A6010BD00218171E6
:10067000C171017241728172C1728170C1700321B6
:1006800001710221417101210180704766490968A9
:1006900041F00101644A11601146096843F60E7287
:1006A0009143614A11601146096841EA00211160D5
:1006B0001146096821F001011160704721B10268FB
:1006C00042F48032026003E0026822F48032026069
:1006D0007047E1B1026842F0800202604FF4C272DA
:1006E000125842F480734FF4C27213504FF4CA721E
:1006F000125842F480734FF4CA7213504FF4D272FE
:10070000125842F480734FF4D27213501BE0026807
:1007100022F0800202604FF4C272125822F48073F9
:100720004FF4C27213504FF4CA72125822F48073FD
:100730004FF4CA7213504FF4D272125822F48073DD
:100740004FF4D2721350704710B5024600209368E0
:1007500003F08063B3F1806F00D110E0936803F081
:100760000063B3F1006F01D1012008E0936803F04A
:100770008053B3F1805F01D1022000E004200428FF
:1007800079D002F5C07303EB00131B6803F001047A
:1007900002F5C07303EB00131C600B7A7BB94B7A34
:1007A0000C8843EA445302F5C07404EB0014246837
:1007B000234302F5C07404EB0014236010E00B7AAD
:1007C0004C6843EAC4034C7A234302F5C07404EB3B
:1007D00000142468234302F5C07404EB0014236062
:1007E0008B7A03F00F038B7202F5C07303EB0013D7
:1007F0005B6823F00F0402F5C07303EB00135C6029
:1008000002F5C07303EB00135B688C7A234302F597
:10081000C07404EB001463608B7B1C064B7B44EAC2
:10082000034403E000640040006600400B7B44EAA0
:100830000323CC7A234302F5C07404EB0014A360B5
:100840008B7C1C064B7C44EA03440B7C44EA032368
:10085000CC7B234302F5C07404EB0014E36002F583
:10086000C07303EB00131B6843F0010402F5C0736F
:1008700003EB00131C6010BD10B50246002321B12C
:10088000012907D002290FD109E09068F94C00EA4C
:1008900004030BE09068F84C00EA040306E090685B
:1008A000F64C00EA040301E0002300BF00BFF44C53
:1008B000181BA34216D007DC83B16FF08060184488
:1008C00070B1022818D111E0B0F5007F10D0ED4CC6
:1008D000204448B1B0F5003F0ED10BE002230DE0FB
:1008E00000230BE0002309E0002307E0012305E0DB
:1008F000012303E0012301E0002300BF00BFD8B2C1
:1009000010BD21B1012907D002290FD109E0826869
:1009100042F0800282600AE0826842F40042826013
:1009200005E0826842F40002826000E000BF00BF80
:10093000704710B500F5D87303EB01131B6803F083
:1009400004031372137A53B900F5D87303EB011340
:100950001B6840F2FF7404EA5353136009E000F58A
:10096000D87303EB01131B686FF0604404EAD303F0
:10097000536000F5D87303EB01131B6803F0020307
:10098000537200F5D87303EB01135B6803F00F0398
:10099000937200F5D87303EB01135B681B0AD374E1
:1009A00000F5D87303EB01139B68D37200F5D8737D
:1009B00003EB01139B681C0A147300F5D87303EB57
:1009C00001139B681C0C547300F5D87303EB0113DF
:1009D0009B681B0E937300F5D87303EB0113DB6860
:1009E000D37300F5D87303EB0113DB681C0A14748E
:1009F00000F5D87303EB0113DB681C0C547400F58D
:100A0000D87303EB0113DB681B0E937421B9C36821
:100A100043F02003C36003E0036943F02003036154
:100A200010BD21B9C26842F02002C26003E0026931
:100A300042F02002026170470246002019B9D368D3
:100A400003F0030006E0012903D1136903F003005A
:100A500000E00020704710B502460B4600204FF61C
:100A6000FF71BBB9146824F0020444F0010414605F
:100A700000E0491E546804F00304012C01D0002951
:100A8000F7D1546804F00304012C01D0002032E0B7
:100A9000012030E0012B13D1146824F0030414600A
:100AA00000E0491E546804F003040CB10029F8D199
:100AB000546804F003040CB100201CE001201AE08B
:100AC000022B17D1146824F0010444F002041460CE
:100AD00000E0491E546804F00304022C01D00029F0
:100AE000F7D1546804F00304022C01D0002002E086
:100AF000012000E0002010BD014600200A6822F01D
:100B0000010242F002020A604A6802F00302022A6D
:100B100000D10120704701464FF6FF7200200B689C
:100B200023F002030B6000E0521E4B6803F0020347
:100B3000022B01D1002AF7D14B6803F00203022BEC
:100B400000D001207047014600208A6902F0700041
:100B50007047014600208A69100E70470146002048
:100B60008A69C2F3074070471AB143690B43436176
:100B700002E043698B434361704710B50246002091
:100B800001F4700343B19369C1F3130423400BB123
:100B900001202DE000202BE001F0807343B1536869
:100BA000C1F3130423400BB1012021E000201FE01A
:100BB00001F0006343B19368C1F3130423400BB108
:100BC000012015E0002013E001F0007343B1D36869
:100BD000C1F3130423400BB1012009E0002007E01A
:100BE0001369C1F3130423400BB1012000E000207E
:100BF00010BD0022244B994202D10023836111E0F1
:100C0000C1F3130201F000730BB1C2600AE001F0FE
:100C100080630BB1026105E001F000630BB18260FB
:100C200000E0426070470246002002EA01030BB177
:100C3000012000E00020704770B504460D460026F4
:100C400060692840002872D0B5F5807F69D01DDC2E
:100C5000082D42D006DC012D2DD0022D31D0042DDF
:100C60007FD134E0102D3ED0202D42D0402D78D1C0
:100C700045E000000300000400030008000003102A
:100C8000000100080001FFF77000F030B5F5004FDB
:100C900061D009DCB5F5007F4AD0B5F5806F4DD045
:100CA000B5F5006F5DD150E0B5F5803F2DD0B5F5BD
:100CB000003F56D12FE0A0685549FFF7B4FF064624
:100CC00051E0E0680321FFF7AEFF06464BE0E06825
:100CD0000821FFF7A8FF064645E0E0681021FFF76E
:100CE000A2FF06463FE020690321FFF79CFF06466E
:100CF00039E020690821FFF796FF064633E02069B6
:100D00001021FFF790FF06462DE060680821FFF7ED
:100D10008AFF064627E060681021FFF784FF064639
:100D200021E0A0690121FFF77EFF06461BE01BE0E2
:100D3000A0690221FFF777FF064614E0A0690421AD
:100D4000FFF771FF06460EE00BE0A0697021FFF788
:100D50006AFF064607E060680421FFF764FF064665
:100D600001E0002600BF00E00026304670BDB1F56E
:100D7000007F3AD00FDC202928D006DC01291CD0C6
:100D800004291DD0082940D11DE0402921D0B1F50A
:100D9000807F3AD126E0B1F5004F31D006DCB1F5C5
:100DA000806F25D0B1F5006F2FD124E0B1F5803FE1
:100DB00012D0B1F5003F28D111E0154A826025E03C
:100DC0000822C26022E01022C2601FE008220261F5
:100DD0001CE01022026119E00822426016E0102295
:100DE000426013E00422426010E0042242600DE001
:100DF000042242600AE0002282610422426005E08F
:100E0000002282610422426000E000BF00BF704700
:100E10000101010010B50446CC48844208D10121EB
:100E2000042000F02DFB0021042000F029FB46E007
:100E3000C748844208D10121082000F021FB00218D
:100E4000082000F01DFB3AE0C248844208D101218D
:100E5000102000F015FB0021102000F011FB2EE007
:100E6000BD48844208D10121202000F009FB002167
:100E7000202000F005FB22E0B848844208D101217F
:100E8000402000F0FDFA0021402000F0F9FA16E0C1
:100E9000B348844208D10121802000F0F1FA0021FA
:100EA000802000F0EDFA0AE0AE48844207D101212B
:100EB000801500F0E5FA0021A01500F0E1FA10BD60
:100EC00010B50121084600F0DBFA0021012000F0F6
:100ED000D7FA10BD2DE9F04102460025002600207A
:100EE00000230024002791F803C00CF00F0591F8AF
:100EF00003C00CF0100CBCF1000F03D091F802C03D
:100F00004CEA050591F800C0BCF1000F31D014681F
:100F100000202BE04FF0010C0CFA00F3B1F800C0F8
:100F20000CEA03069E4220D183004FF00F0C0CFA0E
:100F300003F7BC4305FA03FC4CEA040491F803C030
:100F4000BCF1280F06D14FF0010C0CFA00FCC2F8DE
:100F500014C00AE091F803C0BCF1480F05D14FF06E
:100F6000010C0CFA00FCC2F810C0401C0828D1D3B8
:100F70001460B1F800C0BCF1FF0F34DD54680020EC
:100F80002EE000F1080C4FF0010808FA0CF3B1F85C
:100F900000C00CEA03069E4221D183004FF00F0CE3
:100FA0000CFA03F7BC4305FA03FC4CEA040491F87D
:100FB00003C0BCF1280F05D100F1080C08FA0CF8A9
:100FC000C2F8148091F803C0BCF1480F07D100F1BA
:100FD000080C4FF0010808FA0CF8C2F81080401C09
:100FE0000828CED35460BDE8F0814FF6FF71018030
:100FF000022181700421C17070470246002093686D
:101000000B400BB1012000E00020704701468868CA
:1010100080B2704702460020D3680B400BB101201C
:1010200000E0002070470146C86880B27047016147
:101030007047416170470AB1016100E0416170474A
:10104000C16070474FF480320A43826181618261DE
:1010500082698269704702460020434B18684FF648
:101060008073184040EA021008433F4B18607047F5
:101070003E49C8617047F0B50A46002300240021AC
:10108000002500F00046B6F1004F02D1364EF1695E
:1010900001E0354E7168C0F3034583B200F4401699
:1010A000B6F5401F08D121F070612F4E766826F00A
:1010B00070662D4F7E6012E000F48016B6F5801F3A
:1010C00006D1032606FA05F4A14341F0706106E05B
:1010D000460D360103FA06F6B14341F0706122B1C4
:1010E000460D360103FA06F6314300F00046B6F12C
:1010F000004F02D11C4EF16101E01B4E7160F0BD4A
:1011000030B500228B071C0F0F2303FA04F2164B95
:1011100008338C1053F824309343134C08348D104B
:1011200044F8253023468C1053F824308C07240FC4
:1011300000FA04F423430C4C08348D1044F8253095
:1011400030BD0A49DC3108607047000000080140EA
:10115000000C014000100140001401400018014043
:10116000001C01400020014000000140000020421E
:10117000DF48006840F00100DD490860084640682B
:10118000DC490840DA49486008460068DA49084006
:10119000D74908600846006820F4802008600846A7
:1011A000406820F4FE0048604FF41F0088607047DC
:1011B000CF49096821F48031CD4A11601146096890
:1011C00021F480211160B0F5803F03D0B0F5802F6D
:1011D0000ED106E0C649096841F48031C44A116065
:1011E00007E0C349096841F4A021C14A116000E049
:1011F00000BF00BF704710B5014600220023002049
:101200004A11012A02D1BA4C236806E0022A02D10F
:10121000B74C236A01E0B64C636A01F01F02012457
:1012200094401C400CB1012000E0002010BD38B5F6
:10123000002000900024002500BF3120FFF7DBFFD5
:1012400005460098401C00900098B0F5A06F01D0B2
:10125000002DF2D03120FFF7CEFF08B1012400E0CD
:101260000024204638BD01460020A14A106820F025
:10127000F80040EAC10010607047A049086070475C
:10128000024600209A4B586820F47C1042EA010381
:101290001843974B58607047984908667047014655
:1012A0000020934A506820F00300084350607047C4
:1012B0008F48406800F00C007047014600208C4ABF
:1012C000506820F0F000084350607047014600204D
:1012D000874A506820F4E060084350607047014638
:1012E0000020834A506820F4605040EAC1005060FA
:1012F000704729B17E4A527A02437D4B5A7204E00C
:101300007B4A527A82437A4B5A7270477B49D83172
:101310000860704701460020754A506820F440403C
:101320000843506070470021714A20321170704AA2
:1013300082F82010012802D004280AD104E00121FB
:101340006B4A2032117005E00521694A2032117084
:1013500000E000BF00BF70476949086070476449FA
:10136000096A0143624A116270476549443908605D
:10137000704730B500210022002400235C4D6D68C9
:1013800005F00C0121B1042905D0082923D105E07D
:101390005C4D056022E05B4D05601FE0544D6D68BB
:1013A00005F47012524D6D6805F48034022505EB8A
:1013B00092421CB9544D554305600BE04C4D6D688D
:1013C00005F400351DB1504D5543056002E04D4D0B
:1013D0005543056002E04B4D056000BF00BF444D22
:1013E0006D6805F0F0010909484D6B5C0568DD404A
:1013F00045603F4D6D6805F4E061090A434D6B5C43
:101400004568DD4085603A4D6D6805F46051C90A54
:101410003E4D6B5C4568DD40C560354D6D6805F43B
:101420004041890B3A4D6B5CC568B5FBF3F505612E
:1014300030BD29B12E4A526902432D4B5A6104E056
:101440002B4A526982432A4B5A61704729B1284A74
:1014500092690243264B9A6104E0254A92698243CD
:10146000234B9A61704729B1214AD2690243204B2C
:10147000DA6104E01E4AD26982431D4BDA6170478B
:1014800029B11B4AD2680243194BDA6004E0184ABA
:10149000D2688243164BDA60704729B1144A126948
:1014A0000243134B1A6104E0114A12698243104B44
:1014B0001A61704712494039086070470F49C86483
:1014C00070470B49C87170470948406A40F0807006
:1014D00007494862704701460020054A92680A4061
:1014E0000AB1012000E0002070470149887270476E
:1014F000001002400000FFF8FFFFF6FE000042422D
:101500008004424200127A0000093D0014000020CD
:101510002400002010B50446FE48844208D1012171
:10152000C014FFF7ADFF0021E014FFF7A9FFC4E0EE
:10153000B4F1804F08D101210846FFF7AEFF00212A
:101540000120FFF7AAFFB8E0F348844208D1012147
:101550000220FFF7A2FF00210220FFF79EFFACE070
:10156000EE48844208D101210420FFF796FF0021B4
:101570000420FFF792FFA0E0E948844208D101214E
:101580000820FFF78AFF00210820FFF786FF94E07C
:10159000E448844208D101211020FFF77EFF00219A
:1015A0001020FFF77AFF88E0DF48844208D101214C
:1015B0002020FFF772FF00212020FFF76EFF7CE064
:1015C000DA48844208D101214014FFF759FF002175
:1015D0006014FFF755FF70E0D548844209D101211E
:1015E000C804FFF74DFF00214FF40020FFF748FF2C
:1015F00063E0D048844209D101210805FFF740FF8C
:1016000000214FF48010FFF73BFF56E0CA488442A8
:1016100009D101214805FFF733FF00214FF40010E5
:10162000FFF72EFF49E0C548844208D10121402040
:10163000FFF733FF00214020FFF72FFF3DE0C048B8
:10164000844208D101218020FFF727FF002180205C
:10165000FFF723FF31E0BB48844208D10121801508
:10166000FFF71BFF0021A015FFF717FF25E0B64885
:10167000844209D101210804FFF702FF00214FF441
:101680008030FFF7FDFE18E0B048844209D1012107
:101690004804FFF7F5FE00214FF40030FFF7F0FE9D
:1016A0000BE0AB48844208D101218804FFF7E8FE33
:1016B00000214FF48020FFF7E3FE10BD00220288D6
:1016C000944B98420ED0994B98420BD0B0F1804F7A
:1016D00008D0914B984205D0904B984202D0904B45
:1016E000984204D14FF68F731A404B881A438D4BA2
:1016F000984207D08C4B984204D04FF6FF431A40D3
:10170000CB881A4302808B8883850B880385814BA5
:1017100098420BD0854B984208D08B4B984205D00D
:101720008A4B984202D08A4B984201D10B7A0386A9
:1017300001238382704770B5002400220023058CAA
:101740004FF6FE7635400584028C8388048B4FF675
:101750008F752C40B51E2C400D882C43751E2A40D9
:101760000D892A434D882A436A4DA8420BD06F4DFC
:10177000A84208D0744DA84205D0744DA84202D0AA
:10178000734DA84213D14FF6F7752A404D892A436D
:101790004FF6FB752A408D882A434FF6FF652B4094
:1017A0004FF6FF552B408D892B43CD892B438380EA
:1017B0000483CD888586028470BD70B50024002224
:1017C0000023058C4FF6EF7635400584028C838824
:1017D000048B48F6FF752C404FF6FF452C400D88D2
:1017E0004FF6FF7606EA05252C434FF6DF752A40B3
:1017F0000D8906EA05152A434D8806EA05152A4390
:10180000444DA84202D0494DA8421DD14FF67F75E4
:101810002A404D894FF6FF7606EA05152A434FF612
:10182000BF752A408D8806EA05152A434FF6FF3515
:101830002B404FF2FF752B408D8906EA85052B431F
:10184000CD8906EA85052B4383800483CD880587EF
:10185000028470BD70B5002400220023058C4FF671
:10186000FF6635400584028C8388848B4FF68F7524
:101870002C404FF6FC752C400D882C434FF6FF553D
:101880002A400D894FF6FF7606EA05252A434D8842
:1018900006EA05252A431F4DA84202D0234DA8423F
:1018A0001DD14FF2FF752A404D894FF6FF7606EAAB
:1018B00005252A434FF6FF352A408D8806EA05257F
:1018C0002A434EF6FF752B404DF6FF752B408D8950
:1018D00006EA05152B43CD8906EA05152B438380BF
:1018E0008483CD888587028470BD70B50022002373
:1018F0000024058C4EF6FF7635400584038C8488E1
:10190000828B48F6FF752A404FF6FF452A400D8826
:1019100020E00000002C01400004004000080040CE
:10192000000C004000100040001400400034014052
:10193000004C01400050014000540140001800409C
:10194000001C0040002000400040014000440140D5
:10195000004801404FF6FF7606EA05252A434DF67A
:10196000FF752B400D8906EA05352B434D8806EAA5
:1019700005352B43FA4DA84202D0FA4DA84208D1B2
:101980004BF6FF752C408D894FF6FF7606EA8515DC
:101990002C4384808283CD88A0F84050038470BD9E
:1019A000828B4FF2FF331A408283828B4FF6FF7394
:1019B00003EA01231A4382837047F0B50C461546AB
:1019C000002200210026078C4EF6FF7C07EA0C0758
:1019D0000784828B018C4FF6FF7707EA043640F6C6
:1019E000FF473A404FF6FF7707EA05273A434FF69D
:1019F000FF7707EA03373A43D94FB8420ED0D94FA1
:101A0000B8420BD0B0F1804F08D0D74FB84205D0C4
:101A1000D64FB84202D0D64FB84206D14DF6FF7726
:101A2000394046F48057394305E047F6FF573940BF
:101A300044F48057394382830184F0BD828B4FF692
:101A4000F3731A408283828B0A4382837047F0B516
:101A50000C461546002200210026078C4FF6FF6C2D
:101A600007EA0C070784828B018C4FF6FF7707EAA1
:101A700004264FF60C773A404FF6FF7707EA031734
:101A80002F433A43B64FB8420ED0B64FB8420BD0B0
:101A9000B0F1804F08D0B44FB84205D0B34FB84230
:101AA00002D0B34FB84206D14FF6FF57394046F443
:101AB0008077394305E04FF2FF57394044F480778F
:101AC000394382830184F0BD028B4FF2FF331A4009
:101AD0000283028B4FF6FF7303EA01231A4302834A
:101AE0007047F0B50C461546002200210026078CF1
:101AF0004FF6EF7C07EA0C070784028B018C4FF648
:101B0000FF7707EA041640F6FF473A404FF6FF77A3
:101B100007EA03373A434FF6FF7707EA05273A43C8
:101B20008F4FB8420ED08F4FB8420BD0B0F1804FDC
:101B300008D08D4FB84205D08C4FB84202D08C4FA0
:101B4000B84206D14FF6DF77394046F010073943E7
:101B500005E04FF65F77394044F0100739430283C0
:101B60000184F0BD028B4FF6F3731A400283028B9F
:101B70000A4302837047F0B50C4615460022002147
:101B8000068C4FF6FE773E400684028B018C4FF6A2
:101B90000C7632407E1C06EA03162E433243704E0A
:101BA000B0420ED06F4EB0420BD0B0F1804F08D093
:101BB0006D4EB04205D06D4EB04202D06C4EB04278
:101BC00006D14FF6FD76314044F00106314305E081
:101BD0004FF6F576314044F001063143028301842B
:101BE000F0BD70B505460C465D4885420ED05D4897
:101BF00085420BD0B5F1804F08D05B48854205D0B7
:101C00005A48854202D05A48854200D100E000BFC0
:101C1000208850B92389A28861882846FFF7ABFF46
:101C2000E1882846FFF79EFF25E0208804280AD196
:101C30002389A28861882846FFF753FFE188284658
:101C4000FFF742FF17E0208808280AD12389A288DD
:101C500061882846FFF7FBFEE1882846FFF7EEFE85
:101C600009E02389A28861882846FFF7A6FEE1885B
:101C70002846FFF795FE70BD2DE9F04105460C465C
:101C800000260127608808B9022600E00026A08807
:101C9000012801D1022700E001272088A0B923896B
:101CA000A28861882846FFF766FFE1882846FFF78B
:101CB00059FF23893A4631462846FFF712FFE1884B
:101CC0002846FFF701FF13E02389A2886188284690
:101CD000FFF707FFE1882846FFF7F6FE23893A461B
:101CE00031462846FFF747FFE1882846FFF73AFFCD
:101CF000BDE8F0810A884B881A438B881A43CB8849
:101D00001A430B891A434B891A438B891A43A0F84B
:101D1000442070474FF6FF71818000210180C1800F
:101D20004180017270470021018041808180C18023
:101D3000018141818181C181704700210180418001
:101D4000012181800021C180018170470021018033
:101D500041808180C1800181418181817047000083
:101D6000002C014000340140000400400008004005
:101D7000000C004021B1028842F00102028004E020
:101D800002884FF6FE731A400280704731B1B0F8F6
:101D9000442042F40042A0F8442005E0B0F844207A
:101DA000C2F30E02A0F8442070471AB183890B4396
:101DB000838102E083898B438381704781827047EE
:101DC00041EA0203A0F8483070471AB183890B43F7
:101DD000838102E083898B438381704701894FF6B9
:101DE000F8721140018170470A46002101894FF6BF
:101DF0008F73194011430181704730B504460D4679
:101E000029462046FFF7F0FF208940F00700208197
:101E100030BD2DE9F04104460D4616461F46602DA3
:101E200006D13B46012231462046FFF75AFE05E027
:101E30003B46012231462046FFF79DFE29462046BB
:101E4000FFF7D2FF208940F007002081BDE8F08134
:101E500030B50C4600210189C9B24FF6FF7505EA7D
:101E60000325154325432943018130BD2DE9F04168
:101E700005460E4617469846002443463A463146E4
:101E80002846FFF7E5FF2C894FF6F870044044F030
:101E900007044FF68F70044044F070042C81BDE8B5
:101EA000F081F0B504460D4616461F463B463246C5
:101EB00029462046FFF7CCFF208940F4804020814E
:101EC000F0BD0185828270470A46002101884FF6E5
:101ED0008F731940114301807047F0B50C461546C9
:101EE0001E460021002200230189028B038C4FF63D
:101EF000F877394021434FF6FC473A4040F201174A
:101F00003A434FF6DD773B404FF6FF7707EA061777
:101F10002F433B43018102830384F0BD0A46002125
:101F2000018B4FF68F7319401143018370470A46A6
:101F30000021018B48F6FF7319404FF6FF7303EA47
:101F400002231943018370470A460021818B4FF613
:101F50008F7319401143818370470A460021818B9A
:101F600048F6FF7319404FF6FF7303EA0223194343
:101F70008183704721B1028842F08002028004E030
:101F800002884FF67F731A400280704721B1828821
:101F900042F00402828004E082884FF6FB731A400C
:101FA0008280704721B1828842F00802828004E07A
:101FB00082884FF6F7731A408280704721B1828879
:101FC00042F00102828004E082884FF6FE731A40DC
:101FD000828070470A460021018B4FF6F773194043
:101FE0001143018370470A460021018B4FF2FF73B2
:101FF00019404FF6FF7303EA022319430183704728
:102000000A460021818B4FF6F773194011438183F3
:1020100070470A460021818B4FF2FF7319404FF63B
:10202000FF7303EA02231943818370470A460021A4
:10203000018B4FF6FB7319401143018370470A4629
:102040000021018B4FF6FF3319404FF6FF7303EA6F
:1020500002231943018370470A460021818B4FF602
:10206000FB7319401143818370470A460021818B1D
:102070004FF6FF3319404FF6FF7303EA022319436B
:10208000818370470A460021018B4FF67F73194008
:102090001143018370470A460021018BC1F30E01F1
:1020A0004FF6FF7303EA02231943018370470A4680
:1020B0000021818B4FF67F73194011438183704754
:1020C0000A460021818BC1F30E014FF6FF7303EA2C
:1020D00002231943818370470A460021018C4FF681
:1020E000FD7319401143018470470A460021018C99
:1020F0004FF6F77319401143018470470A460021D7
:10210000018C4FF6DF7319404FF6FF7303EA021399
:102110001943018470470A460021018C4FF67F73F2
:1021200019404FF6FF7303EA021319430184704705
:102130000A460021018C4FF6FF5319404FF6FF73FA
:1021400003EA02231943018470470A460021018CE7
:102150004FF2FF7319404FF6FF7303EA022319434E
:10216000018470470A460021018C4DF6FF73194027
:102170004FF6FF7303EA023319430184704730B509
:10218000002301248C40A3B2048C9C430484048C5F
:1021900002FA01F5ADB22C43048430BD30B5002302
:1021A00004248C40A3B2048C9C430484048C02FA63
:1021B00001F5ADB22C43048430BD70B50346002058
:1021C00000241846183001258D40ACB21D8CA54363
:1021D0001D8409B1082909D100EB6100056825F0CB
:1021E000700505600568154305600EE00D1FC5F319
:1021F0004E052844056825F4E045056005684FF65E
:10220000FF7606EA02263543056070BD21B10288DB
:1022100042F00202028004E002884FF6FD731A4089
:102220000280704721B1028842F00402028004E07B
:1022300002884FF6FB731A400280704721B18288F2
:1022400042F08002828004E082884FF67F731A4059
:102250008280704702884FF6F7731A400280028826
:102260000A430280704782884FF68F731A4082803B
:1022700082880A438280704702894FF6F8731A40B9
:10228000028102890A430281704702894FF67F73F7
:102290001A40028102890A43028170478184704793
:1022A00081857047818670470187704781877047B5
:1022B000A0F84010704702884FF6FF431A40028092
:1022C00002880A43028070470146888E70470146A3
:1022D000088F70470146888F70470146B1F840006B
:1022E00070470146888C70470146088D704702464A
:1022F0000020138A0B400BB1012000E00020704742
:10230000CA430282704730B50246002000230024F1
:10231000158A05EA0103958905EA010413B10CB198
:10232000012000E0002030BDCA4302827047000057
:1023300010B50446FB48844209D101218803FFF708
:102340009FF800214FF48040FFF79AF832E0F648FA
:10235000844209D101214804FFF79FF800214FF47E
:102360000030FFF79AF825E0F048844209D10121B6
:102370008804FFF792F800214FF48020FFF78DF8D2
:1023800018E0EB48844209D10121C804FFF785F821
:1023900000214FF40020FFF780F80BE0E54884426D
:1023A00008D101210805FFF778F800214FF48010CB
:1023B000FFF773F810BD2DE9F04786B005460E46CD
:1023C0000024A24600BFA1460027B08900B100BF8B
:1023D0002F462C8A4CF6FF700440F08804432C8270
:1023E000AC894EF6F3100440B088318908437189F6
:1023F00008430443AC81AC8A4FF6FF400440B089E7
:102400000443AC8201A8FEF7B4FFC648874202D15C
:10241000DDF810A001E0DDF80CA0A88900F4004070
:1024200040B10AEBCA0000EB0A1031684900B0FB6A
:10243000F1F807E00AEBCA0000EB0A1031688900E6
:10244000B0FBF1F86420B8FBF0F00401200964212E
:1024500001FB1089A88900F4004040B1322000EB54
:10246000C900B0FBF1F000F00700044308E032209F
:1024700000EB09106421B0FBF1F000F00F00044301
:102480002C8106B0BDE8F0874FF4165101600021A1
:102490008180C18001810C214181002181817047AF
:1024A00010B502460020108A4FF2FF0318400B8837
:1024B0004C8823438C882343CC88234318431082C1
:1024C00010BD0021018041808180C180704721B111
:1024D000828942F40052828104E082894DF6FF73C2
:1024E0001A4082817047F0B503460024002600257B
:1024F000002040F66A17B94200D100BF1846C1F368
:10250000421401F01F06012707FA06F5012C01D13C
:102510000C3004E0022C01D1103000E014301AB16C
:1025200007682F43076002E00768AF430760F0BD0C
:102530001AB1838A0B43838202E0838A8B438382AE
:102540007047028A4FF6F0731A400282028A0A43E9
:102550000282704782894FF2FF731A40828182891A
:102560000A438281704721B1828942F0020282814E
:1025700004E082894FF6FD731A4082817047028A17
:102580004FF6DF731A400282028A0A4302827047C2
:1025900021B1028A42F48042028204E0028A4BF6B0
:1025A000FF731A4002827047C1F3080282807047AD
:1025B00001468888C0F308007047818941F0010115
:1025C00081817047028BD2B20283028B42EA0122E0
:1025D00002837047028B02F47F420283028B0A431C
:1025E0000283704721B1828A42F02002828204E095
:1025F000828A4FF6DF731A408282704721B1828A45
:1026000042F01002828204E0828A4FF6EF731A4091
:102610008282704721B1828A42F00802828204E0FD
:10262000828A4FF6F7731A408282704721B18289FD
:1026300042F40042828103E08289C2F30E02828169
:10264000704721B1828A42F40062828204E0828A69
:102650004FF2FF731A4082827047828A4FF6FB73F3
:102660001A408282828A0A438282704721B1828A1A
:1026700042F00202828204E0828A4FF6FD731A4021
:102680008282704702460020B1F5007F00D100BF72
:1026900013880B400BB1012000E00020704701F4CB
:1026A0000072B2F5007F00D100BFCA4302807047BC
:1026B00070B50246002400230025002040F66A166B
:1026C000B14200D100BFC1F3421501F01F03012642
:1026D00006FA03F3012D02D19689334006E0022D5C
:1026E00002D1168A334001E0968A33400C1201264B
:1026F00006FA04F41688344013B10CB1012000E04E
:10270000002070BD10B50022002340F66A14A142DB
:1027100000D100BF0A1201249440A3B2DC4304801C
:1027200010BD000000380140004400400048004057
:10273000004C00400050004001B502E00098401EEF
:10274000009000980028F9D108BD08B501210420A7
:10275000FEF77CFE01210820FEF778FE4FF4405082
:10276000ADF8000001208DF8020048208DF803002C
:1027700069464648FEF7AEFB4FF48070ADF80000A6
:1027800001208DF8020048208DF80300694640487A
:10279000FEF7A0FB08BD10B54FF400513B48FEF713
:1027A0002CFCF0B93B48FFF7C7FF4FF40051374806
:1027B000FEF723FCA8B900BF4FF400513348FEF7E1
:1027C0001CFC0028F8D07721552000F03AFE4FF489
:1027D00000412E48FEF72BFC4FF480412B48FEF7BA
:1027E00026FC4FF480512948FEF707FCF0B9294830
:1027F000FFF7A2FF4FF480512448FEF7FEFBA8B973
:1028000000BF4FF480512148FEF7F7FB0028F8D0B5
:10281000BB21992000F015FE4FF400411B48FEF744
:1028200006FC4FF480411948FEF701FC10BDFDF78E
:102830000AFDFFF78AFF00F067FD00F096FD00F04B
:102840006BFA00F07DFD00F0EDF900F093F800F078
:10285000EBF800F061FA00F0ADFD01F0B2FE16F009
:1028600051F916F060F900F0FDF916F0FEF80AA033
:1028700016F04AFD0DA30FA212A115A000F0F9FB5E
:1028800016F07BF901E015F0DFFFFCE7000C0140DA
:102890000008014040420F000D0A204553503832D5
:1028A000363620746573740D0A00000036303030FF
:1028B0000000000032332E3232342E3133312E31CB
:1028C00031380000313233343536373800000000FB
:1028D0003137303200000000704700BFFEE700BF14
:1028E000FEE700BFFEE700BFFEE770477047704796
:1028F00010B500F0FEF910BD10B540F225511B488F
:10290000FFF7D6FED8B11948FFF752FEC4B21848F7
:10291000B0F80004C0F30E0040F2FF3188420EDA36
:102920001349B1F80014C1F30E00411C104AB2F86B
:10293000002461F30E020E49A1F800240C5440F269
:1029400024410A48FFF7B4FE01280DD10848B0F829
:10295000000420F4004000F500400549A1F80004FF
:102960000248FFF725FEC4B210BD0000004400403D
:102970006800002000B585B0012144F20400FEF794
:1029800065FD4FF40070ADF8100018208DF81300AD
:1029900003208DF8120004A92148FEF79BFA4FF49A
:1029A0008060ADF8100004208DF8130004A91C48C5
:1029B000FEF790FA4FF4E13000900020ADF80400EB
:1029C000ADF80600ADF80800ADF80C000C20ADF82D
:1029D0000A0069461348FFF7EEFC01211148FFF792
:1029E00076FD05B000BD70B504460D46E1B20D4858
:1029F000FFF7DAFD00BF80210A48FFF743FE0028F9
:102A0000F9D0204670BD10B5044600BF202105480E
:102A1000FFF738FE0028F9D00248FFF7C9FD10BDC6
:102A2000000801400038014000B585B001210420B4
:102A3000FEF70CFD01214804FEF715FD0420ADF85A
:102A4000100018208DF8130003208DF8120004A93F
:102A50007248FEF73FFA0820ADF8100004208DF808
:102A6000130004A96D48FEF735FA4FF4E1300090E9
:102A70000020ADF80400ADF80600ADF80800ADF890
:102A80000C000C20ADF80A0069466548FFF793FC7E
:102A9000012240F225516248FFF725FD012240F254
:102AA00024415F48FFF71FFD01215D48FFF70FFD3F
:102AB00005B000BDF0B503460D4616460027294671
:102AC0000A2E03D0002008702846F0BD33B930200C
:102AD00001F8010B002008702846F6E7002B03DA06
:102AE0002D2001F8010B5B4242F210720DE093FBC6
:102AF000F2F404B937B104F1300001F8010B04FB22
:102B0000123301270A2092FBF0F2002AEFDC0020AA
:102B100008702846D9E70FB470B586B006460CA8F1
:102B2000019073E00B9800785C281CD10B98401C36
:102B30000B9000786E2809D072280FD10D213046F5
:102B4000FFF732FD0B98401C0B900BE00A2130463A
:102B5000FFF72AFD0B98401C0B9003E00B98401CDC
:102B60000B9000BF4BE00B980078252840D10B98C4
:102B7000401C0B900078642818D0732833D101983A
:102B800010C801900BE021783046FFF70DFD00BF23
:102B900080213046FFF776FD0028F9D0641C2078AC
:102BA0000028F0D10B98401C0B9020E0019820C821
:102BB00001900A2202A92846FFF77CFF02AC0BE035
:102BC00021783046FFF7F0FC00BF80213046FFF748
:102BD00059FD0028F9D0641C20780028F0D10B980A
:102BE000401C0B9003E00B98401C0B9000BF06E0CC
:102BF0000B9810F8011B0B903046FFF7D5FC00BF77
:102C000080213046FFF73EFD0028F9D00B98007870
:102C1000002887D106B070BC5DF814FB00080140A5
:102C20000044004008B501210420FEF70FFC4FF4DA
:102C30008170ADF8000010208DF8030003208DF89E
:102C4000020069460648FEF745F902210448FEF7EE
:102C5000F0F94FF480710248FEF7E9F908BD000071
:102C60000008014030B527480068274AB0FBF2F160
:102C7000B1F1807F01D301201DE021F07F40401E93
:102C80004FF0E022506150170F22002807DA130797
:102C90001D0E1E4B00F00F04241F1D5503E01307EB
:102CA0001C0E1B4B1C5400BF00204FF0E022906113
:102CB00007201061002008B100BFFEE74FF0E020C0
:102CC000006920F001004FF0E021086130BD01B53E
:102CD0001049009808604FF0E020006940F00100C2
:102CE0004FF0E021086100BF0A4800680028FBD1CE
:102CF00008BD0848006820B106480068401E054924
:102D0000086070470000002040420F0018ED00E00E
:102D100000E400E02800002008B54FF4A060FDF7B3
:102D200013FB26208DF8000001208DF80100002003
:102D30008DF8020001208DF803006846FDF709FBBD
:102D400008BD10B5FFF76EFFFFF714FEFFF76CFE2E
:102D5000FFF7E2FF10BD000010B50446012C04D1BE
:102D60000221EB48FEF763F903E00221E848FEF791
:102D700060F910BD10B54FF48071E548FEF759F9C0
:102D8000E448FFF7A4FF4FF48071E148FEF74FF9E4
:102D900010BD2DE9F04106460C4615461F46DE489B
:102DA000B0F800046FF30E00DB49A1F800043246CE
:102DB000DAA1DC48FFF7AFFE1CB915B90120BDE868
:102DC000F0814FF47A7107FB01F0FFF780FF0020DC
:102DD000D149B1F80014C1F30E01CF4A5054B4B137
:102DE000ADB12146104615F023FF08B1012000E0E7
:102DF000002040B92946C84815F01AFF08B1012043
:102E000000E0002008B10120D9E70020D7E744B155
:102E10002146C14815F00CFF08B10120CFE7002082
:102E2000CDE72946BC4815F003FF08B10120C6E7ED
:102E30000020C4E710B54FF48071B548FEF7F7F8ED
:102E4000B948FFF744FF01E0FFF794FFC8230022D1
:102E5000B6A1B7A0FFF79DFF0028F5D010BD10B5B3
:102E6000044624B1012C0AD0022C18D10FE040F600
:102E7000C413B0A2ADA1B2A0FFF78BFF10BD40F606
:102E8000C413ACA2A9A1B1A0FFF783FFF6E740F6F7
:102E9000C413A8A2A5A1B0A0FFF77BFFEEE7002016
:102EA000ECE730B59FB004460D462B462246ADA157
:102EB00001A816F039FA41F6583300229BA101A867
:102EC000FFF767FF1FB030BD70B5A0B004460D46D8
:102ED00016462B462246A8A102A8009616F024FA10
:102EE0004FF47A73002291A102A8FFF752FF20B09D
:102EF00070BD10B586B004460CB1012000E0002082
:102F00000246A3A101A816F00FFA4FF4FA730022AB
:102F100086A101A8FFF73DFF06B010BD70B5B8B09F
:102F200005460E46144664211FA815F076FE15B11D
:102F3000012D10D107E0334699A29AA11FA8009451
:102F400016F0F2F908E033469AA296A11FA8009461
:102F500016F0EAF900E000BF00BF1FAA96A101A881
:102F600016F0E2F9052398A270A101A8FFF711FF5E
:102F700038B070BD70B5BCB004460D461646FCB105
:102F80002B46012294A11EA816F0CEF9324697A135
:102F9000684616F0C9F94FF4FA73002263A11EA81F
:102FA000FFF7F7FE50B14FF4FA7300225FA16846B5
:102FB000FFF7EFFE10B101203CB070BD0020FBE731
:102FC0002B46002284A11EA816F0AEF94FF4FA7326
:102FD000002256A11EA8FFF7DCFEEDE770B586B013
:102FE00005460C460026A21C84A101A816F09CF9F7
:102FF0000A23002285A101A8FFF7CBFE0A230022A5
:1030000083A12846FFF7C5FE0646304606B070BDD0
:1030100070B5044600254048B0F800046FF30E0078
:103020003D49A1F800040846B0F8000420F400402F
:10303000A1F8000400BF3848B0F80004C00B002815
:10304000F9D000203449B1F80014C1F30E01324A1E
:10305000505434B170A1104615F0EAFD38B12E4D30
:1030600005E06EA12C4815F0E3FD00B12A4D28467D
:1030700070BDF0B5ADF20C4D06460F4614461D4628
:103080003B46324667A103A8CDE9004516F04CF94E
:1030900003A816F039F90120FFF75EFEFFF7CAFE1C
:1030A00000BF64A016F030F939463046FFF7F9FE4C
:1030B0000028F6D065A016F027F900BF6BA016F027
:1030C00023F92A4621460020FFF728FF0028F5D0E3
:1030D0006CA016F019F972A016F016F90C2177A061
:1030E000FFF77CFF79A016F00FF90DF20C4DF0BD43
:1030F00070B504467EA280A10020FFF70FFF204696
:1031000015F0A8FD851E29462046FFF767FF70BD14
:103110000008014020A107006800002025730D0A67
:10312000000000000044004040420F004F4B0000F0
:10313000415400006E6F206368616E676500000097
:1031400041542B43574D4F44453D310041542B438F
:10315000574D4F44453D320041542B43574D4F444A
:10316000453D330041542B43574A41503D2225737E
:10317000222C22257322000041542B4357534150E7
:103180003D222573222C222573222C312C257300FD
:1031900041542B4349504D55583D256400000000D3
:1031A00054435000222573222C222573222C257390
:1031B000000000005544500041542B4349505354E3
:1031C0004152543D25730000414C52454159204322
:1031D0004F4E4E454354000041542B4349505345F4
:1031E000525645523D25642C2573000041542B4313
:1031F000495053544F3D25730000000041542B4368
:10320000495053454E443D25640000003E200000D7
:1032100053454E44204F4B003E0000002B49504484
:10322000000000000D0A25733A25733A25733A25EC
:10323000730D0A000D0A7769666920636F6E6E650B
:103240006374202E2E2E0D0A000000000D0A7769EF
:10325000666920636F6E6E65637420737563636562
:10326000737366756C6C790D0A0000000D0A436F6C
:103270006E6E65637420736572766572202E2E2ED5
:103280000D0A00000D636F6E6E65637465642073D4
:1032900075636365737366756C6C79210D0A000044
:1032A0000D1B5350383236365F53656E645374725B
:1032B000696E672E2E2E0D0A0000000079616E6780
:1032C000796F6E6774657374000000000D1B5350B6
:1032D000383236362053656E64537472696E6720D7
:1032E0007375636365737366756C6C790D0A0000A2
:1032F000363030300000000032332E3232342E317E
:1033000033312E313138000008B501210820FEF795
:103310009DF84FF44040ADF8000010208DF80300F8
:1033200003208DF8020069460448FDF7D3FD4FF4F1
:1033300040410248FDF77BFE08BD0000000C014043
:1033400008B500214FF00060FDF735F814208DF826
:10335000000000208DF801008DF8020001208DF89A
:1033600003006846FCF7F5FF08BD08B501210920F8
:10337000FEF76CF801214806FEF775F84FF48070EF
:10338000ADF8000048208DF8030069463C48FDF781
:10339000A1FD4FF40070ADF8000018208DF8030077
:1033A00069463748FDF796FD01214FF4EA10FDF715
:1033B00062FE08BD00B587B03248FDF733F804A8B7
:1033C000FDF754F900208DF816008DF817008DF8E0
:1033D00018008DF819008DF81A008DF81B008DF873
:1033E00012008DF813000C208DF8140001208DF8C8
:1033F00015000920ADF8100004A92248FDF72BF8AC
:1034000001208DF80A0000208DF80B0001208DF8B6
:103410000C000020ADF80000ADF80200ADF804008B
:10342000ADF80600ADF8080001208DF80D006846E3
:10343000FDF79BF8012202211248FDF795FB07B02A
:1034400000BD30B585B004460D46002000900190C7
:1034500004208DF8080000208DF8090002208DF866
:103460000A008DF80B408DF80C5069460548FDF7B1
:103470006BF905B030BD10B500F0ACFE10BD00001A
:10348000000C014000640040F6490978012906D08B
:10349000022905D0032904D0042904D102E003E065
:1034A00002E001E000E000BF00BF704770B586B0E9
:1034B000044620780006617840EA0140A17840EA9D
:1034C0000120E17840EA0106E6480078012806D0AC
:1034D000022835D0032834D0042834D132E00296B3
:1034E000207900F00F008DF80E0000208DF80D00FF
:1034F00004208DF80C0060798DF80F00A1798DF80B
:103500001010E1798DF81110217A8DF81210617A7E
:103510008DF81310A17A8DF81410E17A8DF815103A
:10352000217B8DF8161001A9CF48FDF70DF905464E
:1035300000BF2946CC48FDF79FF90028F9D003E0E9
:1035400002E001E000E000BF00BF06B070BD10B5B2
:1035500086B00446C3480078012806D0022847D028
:10356000032847D0042849D146E00021BE48FDF792
:1035700063FA00283AD001AA0021BB48FDF7D9F927
:103580000298000E20700298000C60700298000AE9
:10359000A0700298E0709DF80E10207961F303008E
:1035A0002071207900F00F00082804DD207920F038
:1035B0000F00083020719DF80F0060719DF8101009
:1035C000A1719DF81110E1719DF8121021729DF802
:1035D000131061729DF81410A1729DF81510E1721C
:1035E0009DF816102173012006B010BD0020FBE7E6
:1035F0000120F9E70120F7E70120F5E70020F3E7D4
:10360000704710B50446207820F002002070207921
:1036100020F0F0002071207900F00F00082804DD70
:10362000207920F00F00083020712046FFF73EFF80
:1036300010BD10B58B480078012806D0022835D07F
:10364000032864D004287DD194E08848007818B914
:10365000FFF7D6FF022010BD21E08548007885499C
:10366000097801EB8101844A02EB8101C87081492C
:10367000097801EB810102EB8100FFF7C2FF7D4871
:103680000078401C7B49087008460078032801DB5D
:103690000020087075480078401E7449087073480F
:1036A00000780028D9DCFFF7ABFF96E0734800787C
:1036B00018B9FFF7A5FF0220CDE721E07048007898
:1036C0007049097801EB81016F4A02EB8101C870F2
:1036D0006C49097801EB810102EB8100FFF791FF52
:1036E00068480078401C674908700846007803283D
:1036F00001DB0020087061480078401E5F490870B7
:103700005E4800780028D9DCFFF77AFF65E05F4863
:10371000007818B9FFF774FF02209CE723E05C48AB
:1037200000785C49097801EB81015B4A02EB810179
:10373000C8705849097801EB810102EB8100FFF75D
:1037400060FF00E047E053480078401C5149087092
:1037500008460078032801DB002008704B480078F9
:10376000401E4A490870494800780028D7DCFFF716
:1037700047FF32E04948007818B9FFF741FF0220BF
:1037800069E721E0464800784649097801EB810164
:10379000454A02EB8101C8704249097801EB810179
:1037A00002EB8100FFF72DFF3E480078401C3D49A9
:1037B000087008460078032801DB002008703748AD
:1037C0000078401E35490870344800780028D9DC5C
:1037D000FFF716FF01E002203DE700BF00203AE7B7
:1037E000F0B504460D46059E00213048007828B902
:1037F00002202E4F38703846867001E00220F0BD5E
:103800002B48046080F8F650A0F8F430002105E061
:10381000575C2748001D4754481C81B29942F7DB8A
:103820000020234F87F8FA0087F8FC00072093FB5D
:10383000F0F087F8FB00072093FBF0F700FB173050
:1038400030B11B4890F8FB00401C194F87F8FB0073
:1038500040F2E240164FA7F8F800012087F8FD007B
:103860000020CCE737000020006400404100002029
:10387000380000203F000020BC040020470000204A
:103880003900002045000020340500204D000020B4
:103890003A0000204B000020AC050020530000201F
:1038A0003B0000205100002024060020540000208E
:1038B0007807002070B586B00446FE4D46E0686982
:1038C000002842D1FC488078FF2801D106B070BDA5
:1038D00004F47F40B0F5704F00D3F7E79DF8040083
:1038E00020F01C0018308DF804009DF8040020F032
:1038F00001008DF80400E8208DF80500EE48C0783E
:103900008DF806009DF8080020F00F0008308DF8B3
:103910000800EA4800788DF8070001208DF80900BA
:10392000FF218DF80A108DF80B108DF80C108DF812
:103930000D108DF80E40210A8DF80F10210C8DF816
:10394000101001A8FFF75DFEC0E76D69A868A042EE
:10395000B5D1287BDA4909788842B0D1286908B105
:1039600028698047A88808287DDDD5480078009020
:10397000AB88D14EF1782A68A868FFF731FFD8B339
:1039800030468078FF2800D1A0E79DF8040020F0A1
:103990001C0018308DF804009DF8040020F0010090
:1039A0008DF80400E8208DF80500C348C0788DF834
:1039B00006009DF8080020F00F0008308DF8080080
:1039C000BE4800788DF8070002208DF80900FF211D
:1039D0008DF80A108DF80B108DF80C108DF80D1065
:1039E0008DF80E40210A8DF80F10210C8DF8101063
:1039F00001A8FFF706FE69E7FFE79DF8040020F045
:103A00001C0018308DF804009DF8040020F001001F
:103A10008DF80400E8208DF80500A7488078FF287D
:103A200002D18DF8060003E0A348C0788DF80600A7
:103A30009DF8080020F00F0008308DF808009F481E
:103A400000788DF8070000208DF80900FF218DF81F
:103A50000A108DF80B108DF80C108DF80D108DF8E4
:103A60000E40210A00E008E08DF80F10210C8DF8BF
:103A7000101001A8FFF7C5FD88E09DF8040020F0B4
:103A80001C0018308DF804009DF8040020F001009F
:103A90008DF80400E8208DF80500884800788DF83E
:103AA000070085488078FF2804D004F47F40B0F5F3
:103AB000704F03D3FF208DF8060003E07E48C078E6
:103AC0008DF806009DF8080020F00F0008308DF8F2
:103AD00008007A4800788DF8070000208DF809006A
:103AE000FF218DF80A108DF80B108DF80C108DF851
:103AF0000D108DF80E40210A8DF80F10210C8DF855
:103B0000101001A8FFF77DFD9DF8040020F01C00B7
:103B100018308DF80400A868000C9DF8041060F3BC
:103B200000018DF804102889000A8DF8050063480B
:103B300000788DF8070060488078FF2802D18DF862
:103B4000060003E05C48C0788DF8060028799DF8EF
:103B5000081060F303018DF80810002000BF06E094
:103B600029680A5C0DF109010A54411CC8B2A988F0
:103B70008142F5DC05E0FF220DF109010A54411CE8
:103B8000C8B20828F7DB01A8FFF73BFD00BF9DE6A0
:103B900001464878F02801DB002070474878F0287B
:103BA00004DA8878FF2801D10020F6E7444800783D
:103BB000012806D002280FD0032818D004282CD1C1
:103BC00020E04878F02806DA88783E4A1278904259
:103BD00001D10020E1E721E04878F02806DA887872
:103BE000394A1278904201D10020D6E716E0487891
:103BF000F02806DA8878354A1278904201D1002000
:103C0000CBE70BE04878F02806DA8878304A12785B
:103C1000904201D10020C0E700E000BF00BF0220B9
:103C2000BBE710B500242448FFF791FC002870D0B2
:103C30002148FFF7ADFF00B110BD1F484078EA28CA
:103C400068D0EB2867D0EC287ED11B48007B4FF46E
:103C50007F0101EA00411848C07A4FF47F4202EA2E
:103C6000002001441448807A0C181A480078002873
:103C70006DD1194890F8FE00002868D10E484079AF
:103C8000102863D10120134908700D48007848704E
:103C90000948C078104981F8F6000748007B1102F6
:103CA00001EA00410448C07A02EA002001440248C7
:103CB000807A13E0600600206C04002035000020AC
:103CC0003700002038000020390000203A00002092
:103CD0003B00002054000020780600200844FE49E4
:103CE0000860084690F8F80018B1032081F8FE003B
:103CF0006CE2FA48C0794FF47F4101EA0021F748AD
:103D000080790844F02807D90320F34981F8FE00A0
:103D10005CE25CE2DEE06CE0F048C0794FF47F41A9
:103D200001EA0021ED4880790844EB49A1F8F4004C
:103D3000EA48007A81F8FC0040F2E240A1F8FA007B
:103D4000012081F8FE0041E2F8E000E0F7E0E448FD
:103D5000007802284CD1E3480068A04248D1DF48EF
:103D60004079102806D0112805D0132833D0FF2819
:103D70003CD13AE03BE0DB4890F8FD00022804D05B
:103D8000D84890F8FD00042824D1D448807928B977
:103D900040F21A40D349A1F8F8001BE0CF48C1799E
:103DA00080790144CF4890F8FB00401C814204DD3B
:103DB0000520CC4981F8FD000CE0C8488079C9494C
:103DC00081F8FC00C548C079401E81F8FA00032044
:103DD00081F8FD000BE0C34890F8FD00042803D1F2
:103DE0000620C04981F8FD0001E000E000BF00BFEF
:103DF000A5E0B94890F8FE0002286AD1B64890F8CC
:103E0000F600B649C978884263D1B44881794079CF
:103E1000401EC0EBC002B048001D8154AF48C279BB
:103E20004079401EC0EBC000401CAB49091D0A543C
:103E3000AA48027A4079401EC0EBC000801C0A5498
:103E4000A648427A4079401EC0EBC000C01C0A540C
:103E5000A248827A4079401EC0EBC000001D0A547F
:103E60009E48C27A4079401EC0EBC000401D0A54F3
:103E70009A48027B4079401EC0EBC000801D0A5466
:103E800096484079091F91F8FD10884206DD924856
:103E900090F8FD00401C904981F8FD0040F2EE20B2
:103EA0008D49A1F8FA0091F8FD0000EBD07149109E
:103EB000A0EB410139B1884991F8FD10864A92F88A
:103EC000FC20914204D10120834981F8FE007DE16C
:103ED0007CE134E081488079F02813DA7F48C079AA
:103EE0004FF4403101EA00417C4880794FF47F4231
:103EF00002EA002008447949C96860F31F21774825
:103F0000C16015E07548C0794FF4403101EA0041C5
:103F1000724880794FF47F4202EA002001446F48E2
:103F2000407901446D48C06861F31F206B49C86047
:103F30006A49C968080AFFF7BDFC47E100BF674846
:103F40004078F02815DA65480078C0F34000400456
:103F50006249097801F0010100EB01405F494978AD
:103F600000EB01215D48C06861F31F205B49C86018
:103F700017E05A480078C0F34000400457490978D8
:103F800001F0010100EB01405449497800EB0120A8
:103F90005249897801445148C06861F31F204F4954
:103FA000C86051480078012806D002283ED0032876
:103FB00078D0042875D1CCE04C48007803282DDA5D
:103FC0004A480078032810DA48480078401C4749DE
:103FD000087047480078401C45490870084600783A
:103FE00003280FDB002008700CE04248007820F026
:103FF000100010303F4908700846007820F00E008D
:10400000801C08703A49097801EB81013A4A02EBB9
:1040100081001422314914F0E7FD06E035480078AC
:1040200020F02000203033490870CDE0334800787C
:1040300003282DDA31480078032810DA2F48007859
:10404000401C2E4908702E480078401C2C490870EE
:104050000846007803280FDB002008700CE0254894
:10406000007820F0100010302249087008460078CF
:1040700020F00E00001D08702149097801EB810134
:10408000204A02EB81001422144914F0ADFD06E031
:104090001848007820F0200020301649087093E07E
:1040A00000E090E01848007803284ADA16480078C3
:1040B00003282DDA14480078401C1349087013486F
:1040C0000078401C114908700846007803282CDB52
:1040D0000020087029E00000780600206C04002011
:1040E0005400002078070020370000203E00002008
:1040F0003D00002036000020800400204400002005
:1041000043000020F80400204A000020490000205D
:10411000F848007820F010001030F6490870084682
:10412000007820F00E00801D0870F349097801EB3B
:104130008101F24A02EB81001422F14914F054FD8E
:1041400006E0EC48007820F020002030E9490870B3
:104150003AE0EC48007803282DDAEA480078032892
:1041600010DAE8480078401CE6490870E648007814
:10417000401CE54908700846007803280FDB002042
:1041800008700CE0DB48007820F010001030D949AE
:1041900008700846007820F00E0008300870DA49F0
:1041A000097801EB8101D94A02EB81001422D4493C
:1041B00014F01AFD06E0CF48007820F020002030EF
:1041C000CC49087000E000BF00BF00BF00BF00BFC7
:1041D00032E5704710B5FFF7FCFFFFF722FDFFF750
:1041E00028FA00F0F0FC10BD10B5FFF7F3FF10BD8A
:1041F00070477047142001218140C54A430942F8A5
:10420000231000BF704700B50246C248007801285D
:1042100006D0022807D0032808D004280CD108E0D3
:10422000BD48027009E0BD48027006E0BC4802705B
:1042300003E0BC48027000E000BF00BF1046FFF77B
:1042400023F900BD70B505460C460026FFF7D0FFE8
:10425000012C06D0022C25D0032C44D0042C7DD177
:1042600062E0B148007808B901261AE0AF4800784A
:1042700000EB8000AE4A02EB80011422284614F0C5
:10428000B3FCAA480078401CA8490870084600788A
:10429000032801DB00200870A3480078401EA249D3
:1042A000087066E0A348007808B901261AE0A24821
:1042B000007800EB8000A14A02EB8001142228461E
:1042C00014F092FC9C480078401C9B4908700846FA
:1042D0000078032801DB0020087096480078401E13
:1042E0009449087045E09648007808B901261AE01C
:1042F0009448007800EB8000804A02EB8001142291
:10430000284614F071FC8F480078401C8D490870D5
:1043100008460078032801DB0020087088480078F0
:10432000401E8749087024E07648007808B90126C5
:104330001CE08548007800EB8000744A02EB8001A5
:104340001422284614F050FC7F480078401C7E4917
:10435000087008460078032803DB00E007E000202F
:10436000087068480078401E6649087001E002261F
:1043700000BF00BFFFF738FF304670BD70B5044680
:104380000D4629462046FFF75DFF70BD70B5044617
:104390000D460026FFF72DFF012D06D0022D32D04D
:1043A000032D5ED0042D75D18AE06848007803287B
:1043B00027DA66480078032810DA64480078401C41
:1043C0006249087062480078401C614908700846DC
:1043D0000078032809DB0020087006E045480078D3
:1043E00020F00100401C434908705949097801EB4D
:1043F0008101584A02EB81001422214614F0F4FB9B
:1044000000E00126CEE054480078032827DA52481D
:104410000078032810DA50480078401C4E49087094
:104420004E480078401C4D49087008460078032823
:1044300009DB0020087006E02E48007820F001001B
:10444000401C2C4908704549097801EB8101444A18
:1044500002EB81001422214614F0C6FB00E0012685
:10446000A0E040480078032828DA3E480078032876
:1044700011DA3C480078401C3A4908703A48007804
:10448000401C394908700846007803280ADB0020E0
:10449000087007E085E01748007820F00100401C14
:1044A000144908703049097801EB81012F4A02EB69
:1044B00081001422214614F097FB00E0012671E0F0
:1044C0002B48007803286ADA29480078032853DA51
:1044D00027480078401C2649087026480078401C70
:1044E000244908700846007803284CDB0020087037
:1044F00049E000003600002049000020700500203F
:104500006C040020500000204F000020E80500202F
:1045100000E200E0370000203800002039000020D1
:104520003A0000203B0000203E0000203C0000201C
:10453000800400204400002042000020F8040020F5
:104540004A000020480000204E00002041000020CA
:1045500040000020BC04002047000020460000204E
:10456000340500204D0000204C000020AC05002048
:104570005300002052000020FE48007820F0010087
:10458000401CFC490870FC49097801EB8101FB4A99
:1045900002EB81001422214614F026FB00E00126E4
:1045A00000E000BF00BFFFF72BF8FFF723FE304607
:1045B00070BD70B504460D4629462046FFF7E6FE5D
:1045C00070BD0020EB490870ED490870ED49087096
:1045D000ED490870ED490870FF20ED490870ED497C
:1045E0000870ED490870E44908700020EB49087034
:1045F000EB490870EB490870EB490870FF20EB4964
:104600000870EB490870EB490870EB49087000200E
:10461000EA490870EA490870EA490870EA490870EE
:10462000EA490870EA490870EA490870EA490870DE
:104630000120EA490870F420E9490870F720E949A7
:1046400008700020E84908700120E849087000203F
:10465000E749886008600861888008734861E54917
:10466000087048708870E44981F8FC0081F8FB000C
:1046700081F8FA00A1F8F80081F8FD00DF4981F81F
:10468000FD0081F8FC00A1F8FA0081F8FE007047F7
:10469000704730B585B000249DF8000020F01C0064
:1046A0001C308DF800009DF8000020F001008DF80E
:1046B0000000EB208DF80100CF4890F8F6008DF84F
:1046C00002009DF8040020F00F0008308DF804006F
:1046D000C94890F8FC0000285ADDC74890F8FC0053
:1046E000401EC54981F8FC00084690F8FA00C0EB6E
:1046F000C005084690F8FA00401CC0B28DF80500CD
:1047000000BF08E02919BC48001D425C0DF10500FE
:10471000611C4254641C072CF4DBB74890F8FA1073
:1047200090F8FB00401E814222D1B348B0F8F4005B
:10473000C01FA8420EDAB048B0F8F400401BC41FF6
:1047400006E0FF220DF1050004F108014254641C4B
:10475000002CF6DB0020A84981F8FC0081F8FA0063
:1047600040F2E240A1F8F800042081F8FD0009E0E1
:10477000A14890F8FA00401C9F4981F8FA000320F4
:1047800081F8FD00994801786846FFF7FFFD0CE0CD
:104790000020994981F8FC0081F8FA0040F2E240DB
:1047A000A1F8F800042081F8FD0005B030BD10B577
:1047B00086B0914804689DF8040020F01C001C306D
:1047C0008DF804009DF8040020F001008DF804002D
:1047D000EC208DF80500884890F8F6008DF806006A
:1047E0009DF8080020F00F0008308DF80800102018
:1047F0008DF80900804890F8F4108DF80A10B0F890
:10480000F40001128DF80B107B4890F8FB108DF826
:104810000C10FF218DF80D10210C8DF81010210ABD
:104820008DF80F108DF80E407048017801A8FFF741
:10483000ADFD40F2E2407049A1F8F800022081F895
:10484000FD0006B010BD10B586B06B4804689DF839
:10485000040020F01C001C308DF804009DF80400BA
:1048600020F001008DF80400EC208DF8050062486E
:1048700090F8F6008DF806009DF8080020F00F0073
:1048800008308DF80800FF208DF80900FF218DF811
:104890000A108DF80B108DF80C108DF80D10210CEE
:1048A0008DF81010210A8DF80F108DF80E404F482A
:1048B000017801A8FFF76AFD06204F4981F8FD0045
:1048C00006B010BD10B586B04C4804689DF80400D1
:1048D00020F01C001C308DF804009DF8040020F02E
:1048E00001008DF80400EC208DF80500434890F895
:1048F000F6008DF806009DF8080020F00F00083043
:104900008DF80800FF208DF80900FF218DF80A10AE
:104910008DF80B108DF80C108DF80D10210C8DF802
:104920001010210A8DF80F108DF80E402F480178D5
:1049300001A8FFF72BFD0420304981F8FE0006B0E6
:1049400010BD01462C4890F8FD00022804D02A48EA
:1049500090F8FD00042859D12748B0F8F8008842A3
:104960004EDD2548B0F8F800401A234AA2F8F800B6
:10497000002070473600002052000020240600204E
:104980003F000020450000204B0000205100002087
:1049900040000020460000204C0000203C00002089
:1049A00042000020480000204E0000203D00002072
:1049B00043000020490000204F000020410000205B
:1049C000470000204D000020530000203E00002042
:1049D000440000204A000020500000203800002041
:1049E000390000203A0000203B0000203700002062
:1049F0006006002054000020780700207806002080
:104A00000020F74AA2F8F800012070470020FCE7D8
:104A10000146F44890F8FE00022813D1F148B0F89E
:104A2000FA00884208DDEF48B0F8FA00401AED4A73
:104A3000A2F8FA00002070470020EA4AA2F8FA0023
:104A40000120F8E70020F6E710B586B0E5480468D5
:104A50009DF8040020F01C001C308DF804009DF827
:104A6000040020F001008DF80400EC208DF8050012
:104A7000DC4890F8F6008DF806009DF8080020F05C
:104A80000F0008308DF80800D64890F8F800D8B12B
:104A900011208DF8090000218DF80A10FF218DF8F2
:104AA0000B108DF80C108DF80D10210C8DF81010D6
:104AB000210A8DF80F108DF80E40CB48017801A81F
:104AC000FFF764FC06B010BDC64890F8FC00C5496D
:104AD00091F8FD1088424EDDC24890F8FC00C149B3
:104AE00091F8FD10401A012821D111208DF80900FC
:104AF00001218DF80A10BB4890F8FC108DF80B10BE
:104B0000FF218DF80C108DF80D10210C8DF8101070
:104B1000210A8DF80F108DF80E40B348017801A8D6
:104B2000FFF734FC0220AF4981F8FE00CAE71120EC
:104B30008DF8090002218DF80A10AA4890F8FD00AE
:104B4000401CC1B28DF80B10FF218DF80C108DF8B0
:104B50000D10210C8DF81010210A8DF80F108DF812
:104B60000E40A148017801A8FFF710FC02209D49E2
:104B700081F8FE00A6E713208DF80900994890F807
:104B8000F4108DF80A10B0F8F400010A8DF80B103B
:104B9000944890F8FC108DF80C10FF218DF80D1042
:104BA000210C8DF81010210A8DF80F108DF80E4091
:104BB0008D48017801A8FFF7E9FB0420894981F8B5
:104BC000FE0000BF7EE710B58848007818B187481E
:104BD0000078032800D110BD84480078012834D122
:104BE00082484078804908707E4890F8FE00052889
:104BF00028D2DFE800F003040711170023E0FFF7D5
:104C000023FF20E00A20FFF703FF012803D1032040
:104C1000744981F8FE0016E0FFF754FE0020734946
:104C2000487010E000206F4981F8FD0081F8FC0019
:104C300040F2E240A1F8FA00002081F8FE006B4942
:104C4000087000E000BF00BFC5E768480078022890
:104C50003FD16648807864490870614890F8FD004B
:104C6000072833D2DFE800F004050812151F2200E0
:104C70002DE0FFF79CFD2AE00A20FFF762FE0128E5
:104C800003D10520564981F8FD0020E0FFF701FD22
:104C90001DE00A20FFF755FE012803D105205049E9
:104CA00081F8FD0013E0FFF7CEFD10E000204C4935
:104CB00081F8FC0081F8FA0040F2E240A1F8F80027
:104CC000002081F8FD004949087000E000BF00BFE6
:104CD00081E700BF7FE710B502460B46002143483D
:104CE000007830B93F48006818B103203F4C20706D
:104CF00001E0022010BD3D484078984208D03B4872
:104D00000078032802D10020384C20700220F1E7FF
:104D10009088344CB4F8F440A04201DA0220E9E76C
:104D2000002106E02F48001D405C14686054481CB8
:104D300081B290888842F5DC2A4890F8F60090719C
:104D40002848B0F8F400108126480068D0600020A0
:104D5000244CA4F8F400206024480078032802D1F1
:104D60000020224C20700020C4E770B586B00446B5
:104D70000D4616469DF8040020F001008DF8040051
:104D80009DF8040020F01C0018308DF804008DF808
:104D900006509DF8080020F00F00C01C8DF8080098
:104DA000EA208DF80500E0B28DF80900210A8DF89F
:104DB0000A10210C8DF80B1000BF314601A8FFF737
:104DC000E5FA0028F9D106B070BD2DE9F047054697
:104DD0000E4617469846DDF82090054C0BE0000083
:104DE00078070020780600203700002054000020BB
:104DF00060060020646960690028FBD1182015F066
:104E000063F8606164692560A680A760C4F81080BB
:104E100084F80C9000206061BDE8F0872DE9FF5F09
:104E200084B082468B46069814F0E6F8CDE900017E
:104E3000079814F0AFF80390002801DB039901E014
:104E400003994942084614F094F8804652465B465E
:104E500013F007FF0646DDE9002314F01BF80446B3
:104E600014F0B1F880B208B0BDE8F09F00220260F3
:104E70000822A0F8F42002794B7803F003031A43C8
:104E8000027102794B78C3F3810342EA8302027113
:104E900002794B78C3F3011342EA031202714A8884
:104EA000131243718B7883710B79C371027A8B79FA
:104EB00003F007031A430272027A8B79DB0842EA95
:104EC000C3030372427A0B7A03F00F031A43427250
:104ED000C27A8B7A03F00F031A43C272C27A8B7ABA
:104EE0001B0942EA0313C37270474FF480720260D9
:104EF0000822A0F8F42002794B7803F003031A4348
:104F0000027102794B78C3F3810342EA8302027192
:104F100002794B78C3F3011342EA031202718B78D2
:104F20004371CB788371C2794B7903F003031A4341
:104F3000C271C2794B79C3F3810342EA8303C3711F
:104F4000C2794B79C3F3011342EA0313C371C279E7
:104F50004B799B0942EA8313C371027ACB7903F040
:104F600003031A430272027ACB79C3F3810342EA44
:104F700083030372027ACB79C3F3011342EA03136A
:104F80000372027ACB799B0942EA83130372427A55
:104F90004B7A03F003031A434272427A4B7AC3F30B
:104FA000810342EA83034372427A4B7AC3F30113CB
:104FB00042EA03134372427A4B7A9B0942EA831313
:104FC0004372827ACB7A03F00F0342EA830383723F
:104FD000827ACB7AC3F3011342EA83138372C27AD3
:104FE0004B7B03F003031A43C272C27A4B7BC3F3B9
:104FF000810342EA8303C372C27A4B7BC3F301137A
:1050000042EA0313C372C27A4B7B9B0942EA8313C1
:10501000C37270474FF4806202600822A0F8F42047
:105020000A88121202710B7843718279CB7803F0EF
:1050300003031A4382718279CB78C3F3810342EA76
:10504000830383718279CB78C3F3011342EA03139C
:1050500083710B79C371C27A8B7903F00F031A4302
:10506000C272C27A8B791B0942EA0313C37270477A
:105070004FF4E06202600822A0F8F4200A881212BD
:1050800002710B7843718B7883718A881312C37114
:105090000B790372CA88131243728B79837270473B
:1050A0004FF4006202600822A0F8F4200A8812126D
:1050B00002710B7843714A88131283718B78C37124
:1050C0008A88131203720B794372CA88131283728F
:1050D0008B79C37270474FF4106202600822A0F807
:1050E000F4200A78027142798B7803F007031A439F
:1050F000427170474FF4206202600822A0F8F42049
:1051000002794B7803F003031A43027102794B785A
:10511000C3F3810342EA8302027102794B78C3F33D
:10512000011342EA0312027170474FF430620260C9
:105130000822A0F8F42002794B7803F003031A4305
:105140000271C27ACB7803F00F031A43C272C27A9B
:10515000CB781B0942EA0313C37270474FF407422E
:1051600002600822A0F8F42002794B7803F00303D0
:105170001A43027170474FF4084202600822A0F8F7
:10518000F4200A88121202710B7843718279CB786D
:1051900003F0030342EA831383714A68130CC3715B
:1051A0008A88130A03720B7943720B7A83727047F1
:1051B0004FF40F4202600822A0F8F42002794B78E5
:1051C00003F003031A43027170474FF41042026068
:1051D0000822A0F8F42002794B7803F003031A4365
:1051E000027102794B78C3F3810342EA83020271B0
:1051F0004A88131243718B788371C2794B7903F01B
:1052000003031A43C27170474FF41142026008222F
:10521000A0F8F42002794B7803F003031A430271DB
:1052200002794B78C3F3820342EA83020271027966
:105230004B785B0942EA431202714279CB7803F062
:1052400003031A4342714279CB78C3F3810342EAE4
:105250008303437170474FF4124202600822A0F8A2
:10526000F4200A88121202710B7843718279CB788C
:1052700003F007031A4382718279CB78C3F3C10329
:1052800042EAC30383718279CB785B0942EA431314
:105290008371C2794B7903F003031A43C2717047DB
:1052A0004FF4144202600822A0F8F4200A88121277
:1052B00002710B7843714A88131283718B78C37122
:1052C00070474FF4154202600822A0F8F4200A88C3
:1052D000121202710B7843714A88131283718B7812
:1052E000C37170474FF4164202600822A0F8F42000
:1052F00002794B7803F00F031A43027170474FF4A1
:10530000174202600822A0F8F42002794B7803F0DB
:1053100003031A43027102794B78C3F3830342EA11
:105320008302027170474FF4184202600822A0F80D
:10533000F42002794B7803F003031A4302710279D7
:105340004B78C3F3820342EA8302027170474FF441
:10535000194202600822A0F8F42002794B7803F089
:1053600003031A43027102794B78C3F3810342EAC3
:105370008302027102794B78C3F3011342EA0312EC
:10538000027102794B789B0942EA831202714279D9
:10539000CB7803F003031A4342714279CB78C3F30D
:1053A000810342EA830343714279CB78C3F301134B
:1053B00042EA031343714279CB789B0942EA831393
:1053C000437182794B7903F003031A438271827926
:1053D0004B79C3F3810342EA8303837182794B796A
:1053E000C3F3011342EA0313837182794B799B095A
:1053F00042EA83138371C279CB7903F003031A4322
:10540000C271C279CB79C3F3810342EA8303C371CA
:10541000C279CB79C3F3011342EA0313C371C27992
:10542000CB799B0942EA8313C371027A4B7A03F06A
:1054300003031A430272027A4B7AC3F3810342EAEE
:1054400083030372027A4B7AC3F3011342EA031314
:105450000372027A4B7A9B0942EA83130372427AFF
:10546000CB7A03F003031A434272427ACB7AC3F336
:10547000810342EA83034372427ACB7AC3F3011376
:1054800042EA03134372427ACB7A9B0942EA8313BE
:105490004372827A4B7B03F003031A438272827A4F
:1054A0004B7BC3F3810342EA83038372827A4B7B93
:1054B000C3F3011342EA03138372827A4B7B9B0985
:1054C00042EA83138372C27ACB7B03F003031A434D
:1054D000C272C27ACB7BC3F3810342EA8303C372F5
:1054E00070474FF41C4202600822A0F8F4200A78AA
:1054F00002714B7843718B788371CB78C3710B79D0
:1055000003724B7943728B798372CB79C372704784
:105510004FF41D4202600822A0F8F4200A780271BC
:105520004B7843718B788371CB78C3710B7903729D
:105530004B7943728B798372CB79C37270474FF486
:10554000254202600822A0F8F42002794B7803F08B
:1055500003031A43027102794B78C3F3810342EAD1
:105560008302027102794B78C3F3011342EA0312FA
:10557000027102794B789B0942EA831202714279E7
:10558000CB7803F003031A4342714279CB78C3F31B
:10559000810342EA830343714279CB78C3F3011359
:1055A00042EA031343714279CB789B0942EA8313A1
:1055B000437182794B7903F003031A438271827934
:1055C0004B79C3F3810342EA8303837182794B7978
:1055D000C3F3011342EA0313837182794B799B0968
:1055E00042EA83138371C279CB7903F003031A4330
:1055F000C271C279CB79C3F3810342EA8303C371D9
:10560000C279CB79C3F3011342EA0313C371C279A0
:10561000CB799B0942EA8313C371027A4B7A03F078
:1056200003031A430272027A4B7AC3F3810342EAFC
:1056300083030372027A4B7AC3F3011342EA031322
:105640000372027A4B7A9B0942EA83130372427A0D
:10565000CB7A03F003031A434272427ACB7AC3F344
:10566000810342EA83034372427ACB7AC3F3011384
:1056700042EA03134372427ACB7A9B0942EA8313CC
:105680004372827A4B7B03F003031A438272827A5D
:105690004B7BC3F3810342EA83038372827A4B7BA1
:1056A000C3F3011342EA03138372827A4B7B9B0993
:1056B00042EA83138372C27ACB7B03F003031A435B
:1056C000C272C27ACB7BC3F3810342EA8303C37203
:1056D000C27ACB7BC3F3011342EA0313C372C27ACB
:1056E000CB7B9B0942EA8313C37270474FF4264277
:1056F00002600822A0F8F42002794B7803F003033B
:105700001A43027102794B78C3F3810342EA8302A0
:10571000027102794B78C3F3011342EA031202715A
:1057200002794B789B0942EA831202714279CB7865
:1057300003F003031A4342714279CB78C3F3810328
:1057400042EA830343714279CB78C3F3011342EAFF
:10575000031343714279CB789B0942EA8313437167
:1057600082794B7903F003031A43827182794B7972
:10577000C3F3810342EA8303837182794B79C3F3D4
:10578000011342EA0313837182794B799B0942EA40
:1057900083138371C279CB7903F003031A43C27177
:1057A000C279CB79C3F3810342EA8303C371C2791F
:1057B000CB79C3F3011342EA0313C371C279CB79E6
:1057C0009B0942EA8313C371027A4B7A03F0030305
:1057D0001A430272027A4B7AC3F3810342EA8303CB
:1057E0000372027A4B7AC3F3011342EA0313037282
:1057F000027A4B7A9B0942EA83130372427ACB7A8C
:1058000003F003031A434272427ACB7AC3F3810353
:1058100042EA83034372427ACB7AC3F3011342EA2A
:1058200003134372427ACB7A9B0942EA8313437291
:10583000827A4B7B03F003031A438272827A4B7B9A
:10584000C3F3810342EA83038372827A4B7BC3F3FF
:10585000011342EA03138372827A4B7B9B0942EA6B
:1058600083138372C27ACB7B03F003031A43C272A1
:10587000C27ACB7BC3F3810342EA8303C372C27A49
:10588000CB7BC3F3011342EA0313C372C27ACB7B0F
:105890009B0942EA8313C37270474FF427420260A8
:1058A0000822A0F8F42002794B7803F003031A438E
:1058B000027102794B78C3F3810342EA83020271D9
:1058C00002794B78C3F3011342EA031202710279A1
:1058D0004B789B0942EA831202714279CB7803F03C
:1058E00003031A4342714279CB78C3F3810342EA3E
:1058F000830343714279CB78C3F3011342EA031364
:1059000043714279CB789B0942EA831343718279D0
:105910004B7903F003031A43827182794B79C3F305
:10592000810342EA8303837182794B79C3F30113C4
:1059300042EA0313837182794B799B0942EA83130C
:105940008371C279CB7903F003031A43C271C27920
:10595000CB79C3F3810342EA8303C371C279CB7964
:10596000C3F3011342EA0313C371C279CB799B09D4
:1059700042EA8313C371027A4B7A03F003031A439A
:105980000272027A4B7AC3F3810342EA8303037201
:10599000027A4B7AC3F3011342EA03130372027AC9
:1059A0004B7A9B0942EA83130372427ACB7A03F063
:1059B00003031A434272427ACB7AC3F3810342EA69
:1059C00083034372427ACB7AC3F3011342EA03138F
:1059D0004372427ACB7A9B0942EA83134372827AFA
:1059E0004B7B03F003031A438272827A4B7BC3F32F
:1059F000810342EA83038372827A4B7BC3F30113F0
:105A000042EA03138372827A4B7B9B0942EA831337
:105A10008372C27ACB7B03F003031A43C272C27A49
:105A2000CB7BC3F3810342EA8303C372C27ACB7B8D
:105A3000C3F3011342EA0313C372C27ACB7B9B09FF
:105A400042EA8313C37270474FF42842026002791E
:105A50004B7803F00F031A4302718B788371704700
:105A60004FF4294202600822A0F8F42002794B7812
:105A700003F003031A43027170474FF42E42026091
:105A80000822A0F8F42002794B781A4302718B782F
:105A9000437170474FF44F4202600822A0F8F4208F
:105AA0000A7802714B7843718B788371CB78C3711C
:105AB0000B7903724B7943728B798372CB79C37202
:105AC00070474FF4504202600822A0F8F4200A7890
:105AD00002714B78437170474FF4514202600822C3
