:020000040800F2
:1000000000040020470100085503000857030008BA
:100010005B0300085F0300086303000800000000A2
:10002000000000000000000000000000670300085E
:1000300069030008000000006B0300086D0300085E
:1000400067010008670100086701000867010008F0
:1000500067010008670100086701000867010008E0
:1000600067010008670100086701000867010008D0
:1000700067010008670100086701000867010008C0
:1000800067010008670100086701000867010008B0
:10009000AF04000867010008670100086701000855
:1000A0006701000867010008670100086701000890
:1000B0006701000867010008670100086701000880
:1000C0006701000867010008670100086701000870
:1000D0006701000867010008670100086701000860
:1000E0006701000867010008670100086701000850
:1000F0006701000867010008670100086701000840
:10010000670100086701000867010008670100082F
:10011000670100086701000867010008670100081F
:10012000670100086701000867010008670100080F
:10013000DFF80CD017F04EFC004800476B020008B7
:1001400068060020704708488047084981F30888FE
:1001500007480047FEE7FEE7FEE7FEE7FEE7FEE7AB
:10016000FEE7FEE7FEE7FEE745010008680600201F
:100170003101000801B502E00098401E009000988F
:100180000028F9D108BD08B50121042000F0B8FC11
:100190000121082000F0B4FC4FF44050ADF80000FD
:1001A00001208DF8020048208DF80300694663485D
:1001B00000F00AFA4FF48070ADF8000001208DF8CD
:1001C000020048208DF8030069465D4800F0FCF904
:1001D00008BD10B54FF40051584800F088FAF0B946
:1001E0005848FFF7C7FF4FF40051544800F07FFA1A
:1001F000A8B900BF4FF40051504800F078FA002829
:10020000F8D07721552000F038F94FF400414B48E1
:1002100000F087FA4FF48041484800F082FA4FF42A
:100220008051464800F063FAF0B94648FFF7A2FF54
:100230004FF48051414800F05AFAA8B900BF4FF47A
:1002400080513E4800F053FA0028F8D0BB21992095
:1002500000F013F94FF40041384800F062FA4FF40F
:100260008041364800F05DFA10BD01F059F9FFF702
:100270008AFF00F025F900F094F800F079F800F01A
:10028000B5F802F014FA21E04FF480412E4800F056
:1002900048FA4FF400412C4800F043FA2B48FFF78E
:1002A00069FF2A48FFF766FF4FF48041264800F0B7
:1002B00038FA4FF40041244800F033FA2348FFF79E
:1002C00059FF2248FFF756FF16F014FADCE710B585
:1002D000044620781E4988700846007820F0010006
:1002E00008700846007820F01C000C30087094F864
:1002F000F400097960F30301154801712088000AB0
:100300001349487020794871617911488171A17948
:10031000C171E1790172217A4172617A8172A17AA7
:10032000C172E17A017301E002F028FA0121084864
:1003300002F0A2F80028F7D110BD0000000C014027
:100340000008014040420F000010014020A10700BA
:1003500048000020704700BFFEE700BFFEE700BF77
:10036000FEE700BFFEE77047704770477047000028
:1003700008B54FF4E06000F0F3FF00214FF000609B
:1003800001F025F814208DF8000000208DF8010000
:100390008DF8020001208DF80300684600F0E5FFAB
:1003A00008BD08B50121092000F0AAFB012148067B
:1003B00000F0B3FB4FF48070ADF8000048208DF8DA
:1003C000030069463C4800F0FFF84FF40070ADF8B8
:1003D000000018208DF803006946374800F0F4F853
:1003E00001214FF4EA1000F0C0F908BD00B587B054
:1003F000324800F0E9FB04A800F005FD00208DF86C
:1004000010008DF811008DF812008DF813008DF892
:1004100014008DF815008DF816008DF817000C20CB
:100420008DF8180001208DF819000920ADF81A0088
:1004300004A9224800F0DAFB01208DF8000000201A
:100440008DF8010001208DF802000020ADF80400B5
:10045000ADF80600ADF80800ADF80A00ADF80C00E4
:1004600001208DF80E00684600F04CFC01220221AC
:10047000124800F0D8FC07B000BD30B585B0044686
:100480000D4600200090019004208DF80800002007
:100490008DF8090002208DF80A008DF80B408DF8C8
:1004A0000C506946054800F0C7FC05B030BD10B5DA
:1004B00001F006FF10BD0000000C01400064004088
:1004C00008B50121082000F01BFB4FF44040ADF8B7
:1004D000000010208DF8030003208DF8020069460B
:1004E000044800F071F84FF44041024800F019F957
:1004F00008BD0000000C014010B50446C649601A52
:100500008C422FD009DCC548204480B1B0F5806F03
:1005100016D0B0F5006F4AD11BE0B0F5806F2AD03D
:10052000B0F5006F30D0B0F5406F40D135E001211B
:10053000042000F0FFFA0021042000F0FBFA37E06D
:100540000121082000F0F6FA0021082000F0F2FA5C
:100550002EE00121102000F0EDFA0021102000F023
:10056000E9FA25E00121202000F0E4FA0021202012
:1005700000F0E0FA1CE00121402000F0DBFA00214D
:10058000402000F0D7FA13E00121802000F0D2FAD9
:100590000021802000F0CEFA0AE00121080200F0DC
:1005A000C9FA00214FF4807000F0C4FA00E000BFE7
:1005B00000BF10BD10B50121084600F0BBFA0021B4
:1005C000012000F0B7FA10BD2DE9F04102460025E8
:1005D0000026002000230024002791F803C00CF01F
:1005E0000F0591F803C00CF0100CBCF1000F03D004
:1005F00091F802C04CEA050591F800C0BCF1000F6B
:1006000031D0146800202BE04FF0010C0CFA00F3FD
:10061000B1F800C00CEA03069E4220D183004FF0DF
:100620000F0C0CFA03F7BC4305FA03FC4CEA040474
:1006300091F803C0BCF1280F06D14FF0010C0CFA61
:1006400000FCC2F814C00AE091F803C0BCF1480FE6
:1006500005D14FF0010C0CFA00FCC2F810C0401C90
:100660000828D1D31460B1F800C0BCF1FF0F34DD0D
:10067000546800202EE000F1080C4FF0010808FA41
:100680000CF3B1F800C00CEA03069E4221D18300AE
:100690004FF00F0C0CFA03F7BC4305FA03FC4CEACD
:1006A000040491F803C0BCF1280F05D100F1080C37
:1006B00008FA0CF8C2F8148091F803C0BCF1480F96
:1006C00007D100F1080C4FF0010808FA0CF8C2F845
:1006D0001080401C0828CED35460BDE8F0814FF64E
:1006E000FF710180022181700421C17070470246B0
:1006F000002093680B400BB1012000E00020704700
:100700000146886880B2704702460020D3680B40DB
:100710000BB1012000E0002070470146C86880B29C
:10072000704701617047416170470AB1016100E0A3
:1007300041617047C16070474FF480320A43826163
:100740008161826182698269704702460020344B70
:1007500018684FF68073184040EA02100843304B87
:10076000186070472F49C8617047F0B50A460023EA
:100770000024002100252A4E7168C0F3034583B28E
:1007800000F44016B6F5401F08D121F07061244EE8
:10079000766826F07066224F7E6012E000F48016C4
:1007A000B6F5801F06D1032606FA05F4A14341F0F1
:1007B000706106E0460D360103FA06F6B14341F0DA
:1007C000706122B1460D360103FA06F63143144E2C
:1007D0007160F0BD30B500228B071C0F0F2303FAA8
:1007E00004F20F4B08338C1053F8243093430C4C15
:1007F00008348D1044F8253023468C1053F82430EB
:100800008C07240F00FA04F42343054C08348D10A0
:1008100044F8253030BD00000014014000F8FEBF50
:100820000000014000002042DE48006840F0010066
:10083000DC49086008464068DB490840D9494860FF
:1008400008460068D9490840D6490860084600684B
:1008500020F4802008600846406820F4FE004860CC
:10086000002088607047CF49096821F48031CD4A63
:1008700011601146096821F480211160B0F5803FB4
:1008800003D0B0F5802F0ED106E0C649096841F4C7
:100890008031C44A116007E0C249096841F4A021CF
:1008A000C04A116000E000BF00BF704710B50146AC
:1008B0000022002300204A11012A02D1B94C2368EA
:1008C00006E0022A02D1B74C236A01E0B54C636A04
:1008D00001F01F02012494401C400CB1012000E0F3
:1008E000002010BD38B5002000900024002500BF76
:1008F0003120FFF7DBFF05460098401C00901DB932
:100900000098B0F5A06FF3D13120FFF7CFFF08B109
:10091000012400E00024204638BD01460020A14A01
:10092000106820F0F80040EAC10010607047A0494C
:1009300008607047024600209A4B586820F47C10EB
:1009400042EA01031843974B58607047984908667C
:10095000704701460020934A506820F00300084386
:10096000506070478F48406800F00C0070470146A7
:1009700000208C4A506820F0F00008435060704717
:1009800001460020874A506820F4E0600843506028
:10099000704701460020834A506820F4605040EAC6
:1009A000C1005060704729B17E4A527A02437D4BA4
:1009B0005A7204E07B4A527A82437A4B5A727047E9
:1009C0007B49D8310860704701460020754A50685D
:1009D00020F440400843506070470021714A2032A3
:1009E0001170704A82F82010012802D004280AD120
:1009F00004E001216B4A2032117005E00521694AAB
:100A00002032117000E000BF00BF704769490860E4
:100A100070476449096A0143624A11627047654937
:100A200044390860704730B50021002200240023BB
:100A30005C4D6D6805F00C0121B1042905D0082931
:100A400023D105E05C4D056022E05B4D05601FE0B1
:100A5000544D6D6805F47012022505EB9242514D1C
:100A60006D6805F480341CB9544D554305600BE0A6
:100A70004C4D6D6805F400351DB1504D5543056072
:100A800002E04D4D5543056002E04B4D056000BF4F
:100A900000BF444D6D6805F0F0010909484D6B5CDD
:100AA0000568DD4045603F4D6D6805F4E061090A69
:100AB000434D6B5C4568DD4085603A4D6D6805F4DB
:100AC0006051C90A3E4D6B5C4568DD40C560354DDF
:100AD0006D6805F44041890B3A4D6B5CC568B5FB08
:100AE000F3F5056130BD29B12E4A526902432D4B01
:100AF0005A6104E02B4A526982432A4B5A6170477B
:100B000029B1284A92690243264B9A6104E0254A9A
:100B100092698243234B9A61704729B1214AD26975
:100B20000243204BDA6104E01E4AD26982431D4B26
:100B3000DA61704729B11B4AD2680243194BDA6067
:100B400004E0184AD2688243164BDA60704729B134
:100B5000144A12690243134B1A6104E0114A1269E4
:100B60008243104B1A617047124940390860704740
:100B70000F49C86470470B49C87170470948406AFB
:100B800040F0807007494862704701460020054ADE
:100B900092680A400AB1012000E000207047014934
:100BA00088727047001002400000FFF8FFFFF6FE59
:100BB000000042428004424200127A0000093D00D7
:100BC000000000201000002010B50446FE4820441C
:100BD00048B901214806FFF7BAFF00214FF0007025
:100BE000FFF7B5FF00E000BF00BF10BD30B5024603
:100BF00000200023146824F002041460146844F0F8
:100C00000104146000E05B1C4FF6FF74A34204D0A3
:100C1000546804F00104002CF5D0546804F0010479
:100C20000CB900206DE00C78012C04D1146844F05C
:100C30008004146003E0146824F0800414604C788D
:100C4000012C04D1146844F04004146003E01468DB
:100C500024F0400414608C78012C04D1146844F012
:100C60002004146003E0146824F020041460CC789D
:100C7000012C04D1146844F01004146003E01468DB
:100C800024F0100414600C79012C04D1146844F091
:100C90000804146003E0146824F0080414604C791C
:100CA000012C04D1146844F00404146003E01468B7
:100CB00024F0040414608C79A407CD7944EA056417
:100CC0000D7A44EA05444D7A44EA05544D896D1E77
:100CD0002C43D461146824F001041460002300E064
:100CE0005B1C4FF6FF74A34204D0546804F0010467
:100CF000002CF5D1546804F001040CB1002000E090
:100D0000012030BD10B500210378012202FA03F161
:100D1000AE4A126842F00102AC4B1A60AB4A1C3278
:100D200012688A43A94B1C331A608278CAB9A74A51
:100D30000C3212688A43A54B0C331A60C28843896F
:100D400042EA0343A14A4032047842F834308288B0
:100D5000038942EA03439D4A4032047802EBC4020D
:100D600053608278012A19D1984A0C3212680A43DA
:100D7000964B0C331A60C288838842EA0343934A35
:100D80004032047842F834304289038942EA03430E
:100D90008E4A4032047802EBC402536042783AB97A
:100DA0008A4A121D12688A43884B1B1D1A6006E08E
:100DB000864A121D12680A43844B1B1D1A608289E1
:100DC00032B9824A143212688A43804B14331A6053
:100DD0008289012A06D17D4A143212680A437B4B6C
:100DE00014331A60827B012A06D1784A1C321268B9
:100DF0000A43764B1C331A60744A126822F00102CF
:100E0000724B1A6010BD0021017041708170C17079
:100E1000017141718171C17103210172022141721D
:100E20000121418170471AB143690B43436102E0DC
:100E300043698B434361704710B5024600209368B5
:100E400003F08063B3F1806F00D110E0936803F08A
:100E50000063B3F1006F01D1012008E0936803F053
:100E60008053B3F1805F01D1022000E00420042808
:100E700074D002F5C07303EB00131B6803F0010488
:100E800002F5C07303EB00131C600B7A7BB94B7A3D
:100E90000C8843EA445302F5C07404EB0014246840
:100EA000234302F5C07404EB0014236010E00B7AB6
:100EB0004C6843EAC4034C7A234302F5C07404EB44
:100EC00000142468234302F5C07404EB001423606B
:100ED0008B7A03F00F038B7202F5C07303EB0013E0
:100EE0005B6823F00F0402F5C07303EB00135C6032
:100EF00002F5C07303EB00135B688C7A234302F5A1
:100F0000C07404EB001463608B7B1C064B7B44EACB
:100F100003440B7B44EA0323CC7A234302F5C074D9
:100F200004EB0014A3608B7C1C064B7C44EA034456
:100F30000B7C44EA0323CC7B234302F5C07404EB0F
:100F40000014E36002F5C07303EB00131B6843F069
:100F5000010402F5C07303EB00131C6010BD0246D0
:100F6000002021B1012910D0022931D11CE0936861
:100F700003F0010340EA8300936803F0020318437F
:100F80009368C3F38063184324E0936803F4807389
:100F900040EA9310936803F4007340EA13209368C7
:100FA000C3F3C063184315E0936803F4803340EA49
:100FB0009330936803F4003340EA13409368C3F31B
:100FC0000073184306E00000009CFFBF006600406D
:100FD000002000BF00BF20B1052804D0072806D19B
:100FE00003E0022005E0002003E0012001E00020F2
:100FF00000BF00BF704721B1012907D002290FD1DE
:1010000009E0826842F0800282600AE0826842F46D
:101010000042826005E0826842F40002826000E0E3
:1010200000BF00BF704711B92022C26001E020223A
:10103000026170470246002019B9D36803F003002B
:1010400006E0012903D1136903F0030000E000204A
:10105000704730B505460C46134605F5D87000EBD1
:101060000410006800F004001872187A50B905F5F1
:10107000D87000EB0410006840F2FF7101EA505094
:10108000186009E005F5D87000EB041000686FF0F7
:10109000604101EAD000586005F5D87000EB0410FB
:1010A000006800F00200587205F5D87000EB0410DB
:1010B000406800F00F00987205F5D87000EB04103E
:1010C0004068000AD87405F5D87000EB04108068F9
:1010D000D87205F5D87000EB04108068010A197306
:1010E00005F5D87000EB04108068010C597305F504
:1010F000D87000EB04108068000E987305F5D87066
:1011000000EB0410C068D87305F5D87000EB04102C
:10111000C068010A197405F5D87000EB0410C068A6
:10112000010C597405F5D87000EB0410C068000E6E
:10113000987421462846FFF776FF30BD21B102683A
:1011400042F48032026003E0026822F480320260DE
:101150007047014600200A6822F0010242F00202B4
:101160000A604A6802F00302022A00D10120704797
:1011700001464FF6FF7200200B6823F002030B605C
:1011800000E0521E4B6803F00203022B01D1002A3B
:10119000F7D14B6803F00203022B00D00120704707
:1011A0000246002093690B400BB1012000E00020B3
:1011B000704782698A43826170470246002002EAD2
:1011C00001030BB1012000E00020704770B5044618
:1011D0000D460026402D47D00EDC072D2BD006DC17
:1011E000042D2FD0052D19D0062D61D11CE0082D1E
:1011F0002ED0202D5CD131E0B5F5806F46D006DCD5
:10120000B5F5807F36D0B5F5007F51D138E0B5F522
:10121000803F47D0B5F5003F4AD13DE0A0680121AD
:10122000FFF7CBFF064645E0A0684FF48071FFF75B
:10123000C4FF06463EE0A0684FF48031FFF7BDFFD3
:10124000064637E0E0680821FFF7B7FF064631E0C1
:10125000E0681021FFF7B1FF06462BE02069082166
:10126000FFF7ABFF064625E020691021FFF7A5FF39
:1012700006461FE0A0690121FFF79FFF064619E01F
:10128000A0690221FFF799FF064613E0A069042137
:10129000FFF793FF06460DE060681021FFF78DFF12
:1012A000064607E060680821FFF787FF064601E071
:1012B000002600BF00BF304670BD402935D00EDC8F
:1012C000072925D006DC042926D0052919D00629AE
:1012D00043D119E0082922D020293ED122E0B1F5DE
:1012E000806F2FD006DCB1F5807F21D0B1F5007F73
:1012F00033D122E0B1F5803F29D0B1F5003F2CD1A8
:1013000028E00122826029E04FF48072826025E0AB
:101310004FF48032826021E00822C2601EE0102279
:10132000C2601BE00822026118E01022026115E091
:10133000826922F00102826110E0826922F00202D9
:1013400082610BE0826922F00402826106E00822D9
:10135000426003E01022426000E000BF00BF70471F
:1013600031490143314A1160704770B500210023B3
:101370000F22C47804B32D4C246804F4E064C4F54F
:10138000E064210AC1F10403CA40447804FA03F17D
:101390008478144021430901254C0678A15504782E
:1013A00004F01F050124AC4005786D11AD0005F176
:1013B000E025C5F8004109E0047804F01F05012488
:1013C000AC401C4D0678761145F8264070BD1A4A8F
:1013D0000A400243154B1B1F1A60704739B1134A6C
:1013E000121D12680243114B1B1D1A6006E00F4AC2
:1013F000121D126882430D4B1B1D1A607047042892
:1014000008D14FF0E021096941F004014FF0E022DA
:10141000116107E04FF0E021096921F004014FF06C
:10142000E0221161704700000000FA050CED00E0B9
:1014300000E400E080E100E080FFFF1F0CB5002029
:10144000019000904748006840F4803045490860AA
:1014500000BF4448006800F4003000900198401C30
:101460000190009818B90198B0F5A06FF1D13D48EE
:10147000006800F4003010B10120009001E000206D
:1014800000900098012844D13748006840F01000CF
:10149000354908600846006820F0030008600846E7
:1014A000006840F0020008602E4840682D494860FE
:1014B0000846406848600846406840F480604860DC
:1014C0000846406820F47C1048600846406840F4B4
:1014D000E81048600846006840F08070086000BF6F
:1014E0002048006800F000700028F9D01D484068CE
:1014F00020F003001B4948600846406840F00200A5
:10150000486000BF1748406800F00C000828F9D177
:1015100001E000BFFEE70CBD10B5FFF78FFF10BD67
:1015200010B51048006840F001000E4908600846F8
:1015300040680E4908400B494860084600680C495D
:101540000840084908600846006820F480200860C8
:101550000846406820F4FE00486000208860FFF7DD
:10156000DBFF10BD00100240002002400000FFF829
:10157000FFFFF6FEF6490978012906D0022905D0B9
:10158000032904D0042904D102E003E002E001E0D1
:1015900000E000BF00BF704770B586B004462078F9
:1015A0000006617840EA0140A17840EA0120E17834
:1015B00040EA0106E6480078012806D0022835D026
:1015C000032834D0042834D132E00296207900F088
:1015D0000F008DF80E0000208DF80D0004208DF80E
:1015E0000C0060798DF80F00A1798DF81010E17969
:1015F0008DF81110217A8DF81210617A8DF8131080
:10160000A17A8DF81410E17A8DF81510217B8DF8F0
:10161000161001A9CF48FFF70FFC054600BF294669
:10162000CC48FFF79CFC0028F9D003E002E001E081
:1016300000E000BF00BF06B070BD10B586B0044624
:10164000C3480078012806D0022847D0032847D095
:10165000042849D146E00021BE48FFF7EBFC0028F2
:101660003AD001AA0021BB48FFF7F3FC0298000E14
:1016700020700298000C60700298000AA070029816
:10168000E0709DF80E10207961F30300207120793D
:1016900000F00F00082804DD207920F00F0008304A
:1016A00020719DF80F0060719DF81010A1719DF8D8
:1016B0001110E1719DF8121021729DF813106172E2
:1016C0009DF81410A1729DF81510E1729DF8161086
:1016D0002173012006B010BD0020FBE70120F9E7CF
:1016E0000120F7E70120F5E70020F3E7704710B588
:1016F0000446207820F002002070207920F0F000CD
:101700002071207900F00F00082804DD207920F0F6
:101710000F00083020712046FFF73EFF10BD10B5C6
:101720008B480078012806D0022835D0032864D0E1
:1017300004287DD194E08848007818B9FFF7D6FFD7
:10174000022010BD21E0854800788549097801EB29
:101750008101844A02EB8101C8708149097801EB5B
:10176000810102EB8100FFF7C2FF7D480078401C39
:101770007B49087008460078032801DB00200870C8
:1017800075480078401E7449087073480078002836
:10179000D9DCFFF7ABFF96E07348007818B9FFF784
:1017A000A5FF0220CDE721E0704800787049097854
:1017B00001EB81016F4A02EB8101C8706C49097825
:1017C00001EB810102EB8100FFF791FF684800788F
:1017D000401C6749087008460078032801DB002098
:1017E000087061480078401E5F4908705E480078C4
:1017F0000028D9DCFFF77AFF65E05F48007818B968
:10180000FFF774FF02209CE723E05C4800785C4906
:10181000097801EB81015B4A02EB8101C8705849EC
:10182000097801EB810102EB8100FFF760FF00E026
:1018300047E053480078401C51490870084600783A
:10184000032801DB002008704B480078401E4A49FD
:101850000870494800780028D7DCFFF747FF32E0DE
:101860004948007818B9FFF741FF022069E721E0F5
:10187000464800784649097801EB8101454A02EB68
:101880008101C8704249097801EB810102EB8100B6
:10189000FFF72DFF3E480078401C3D490870084680
:1018A0000078032801DB0020087037480078401ECC
:1018B00035490870344800780028D9DCFFF716FF56
:1018C00001E002203DE700BF00203AE7F0B5044602
:1018D0000D46059E00213048007828B902202E4F81
:1018E00038703846867001E00220F0BD2B48046055
:1018F00080F8F650A0F8F430002105E0575C274846
:10190000001D4754481C81B29942F7DB0020234F49
:1019100087F8FA0087F8FC00072093FBF0F087F8BF
:10192000FB00072093FBF0F700FB173030B11B489A
:1019300090F8FB00401C194F87F8FB0040F2E24092
:10194000164FA7F8F800012087F8FD000020CCE72B
:101950001F0000200064004029000020200000201B
:1019600027000020AC0000202F00002021000020D4
:101970002D0000202401002035000020220000203E
:10198000330000209C0100203B00002023000020A9
:1019900039000020140200203C00002068030020D1
:1019A00070B586B00446FE4D46E06869002842D115
:1019B000FC488078FF2801D106B070BD04F47F4058
:1019C000B0F5704F00D3F7E79DF8040020F01C003D
:1019D00018308DF804009DF8040020F001008DF807
:1019E0000400E8208DF80500EE48C0788DF8060068
:1019F0009DF8080020F00F0008308DF80800EA4834
:101A000000788DF8070001208DF80900FF218DF87E
:101A10000A108DF80B108DF80C108DF80D108DF844
:101A20000E40210A8DF80F10210C8DF8101001A81E
:101A3000FFF75DFEC0E76D69A868A042B5D1287BBD
:101A4000DA4909788842B0D1286908B12869804705
:101A5000A88808287DDDD54800780090AB88D14E55
:101A6000F1782A68A868FFF731FFD8B3304680784C
:101A7000FF2800D1A0E79DF8040020F01C001830DA
:101A80008DF804009DF8040020F001008DF804009A
:101A9000E8208DF80500C348C0788DF806009DF851
:101AA000080020F00F0008308DF80800BE480078CC
:101AB0008DF8070002208DF80900FF218DF80A102B
:101AC0008DF80B108DF80C108DF80D108DF80E4060
:101AD000210A8DF80F10210C8DF8101001A8FFF7C6
:101AE00006FE69E7FFE79DF8040020F01C001830AF
:101AF0008DF804009DF8040020F001008DF804002A
:101B0000E8208DF80500A7488078FF2802D18DF8DD
:101B1000060003E0A348C0788DF806009DF8080091
:101B200020F00F0008308DF808009F4800788DF8ED
:101B3000070000208DF80900FF218DF80A108DF8AC
:101B40000B108DF80C108DF80D108DF80E40210A39
:101B500000E008E08DF80F10210C8DF8101001A89E
:101B6000FFF7C5FD88E09DF8040020F01C00183048
:101B70008DF804009DF8040020F001008DF80400A9
:101B8000E8208DF80500884800788DF80700854822
:101B90008078FF2804D004F47F40B0F5704F03D361
:101BA000FF208DF8060003E07E48C0788DF806001F
:101BB0009DF8080020F00F0008308DF808007A48E2
:101BC00000788DF8070000208DF80900FF218DF8BE
:101BD0000A108DF80B108DF80C108DF80D108DF883
:101BE0000E40210A8DF80F10210C8DF8101001A85D
:101BF000FFF77DFD9DF8040020F01C0018308DF8E3
:101C00000400A868000C9DF8041060F300018DF832
:101C100004102889000A8DF80500634800788DF8C3
:101C2000070060488078FF2802D18DF8060003E0A5
:101C30005C48C0788DF8060028799DF8081060F39C
:101C400003018DF80810002000BF06E029680A5C37
:101C50000DF109010A54411CC8B2A9888142F5DC82
:101C600005E0FF220DF109010A54411CC8B2082801
:101C7000F7DB01A8FFF73BFD00BF9DE60146487872
:101C8000F02801DB002070474878F02804DA8878D3
:101C9000FF2801D10020F6E744480078012806D04B
:101CA00002280FD0032818D004282CD120E048782F
:101CB000F02806DA88783E4A1278904201D1002056
:101CC000E1E721E04878F02806DA8878394A127886
:101CD000904201D10020D6E716E04878F02806DAD5
:101CE0008878354A1278904201D10020CBE70BE08A
:101CF0004878F02806DA8878304A1278904201D184
:101D00000020C0E700E000BF00BF0220BBE710B525
:101D100000242448FFF791FC002870D02148FFF7E9
:101D2000ADFF00B110BD1F484078EA2868D0EB280D
:101D300067D0EC287ED11B48007B4FF47F0101EA7D
:101D400000411848C07A4FF47F4202EA0020014463
:101D50001448807A0C181A48007800286DD1194868
:101D600090F8FE00002868D10E484079102863D111
:101D70000120134908700D48007848700948C07860
:101D8000104981F8F6000748007B110201EA004182
:101D90000448C07A02EA002001440248807A13E035
:101DA000500200205C0000201D0000201F000020C9
:101DB000200000202100002022000020230000201D
:101DC0003C000020680200200844FE4908600846E4
:101DD00090F8F80018B1032081F8FE006CE2FA4890
:101DE000C0794FF47F4101EA0021F7488079084427
:101DF000F02807D90320F34981F8FE005CE25CE299
:101E0000DEE06CE0F048C0794FF47F4101EA002148
:101E1000ED4880790844EB49A1F8F400EA48007ADB
:101E200081F8FC0040F2E240A1F8FA00012081F8BC
:101E3000FE0041E2F8E000E0F7E0E4480078022824
:101E40004CD1E3480068A04248D1DF4840791028CF
:101E500006D0112805D0132833D0FF283CD13AE012
:101E60003BE0DB4890F8FD00022804D0D84890F809
:101E7000FD00042824D1D448807928B940F21A40C2
:101E8000D349A1F8F8001BE0CF48C179807901441B
:101E9000CF4890F8FB00401C814204DD0520CC496E
:101EA00081F8FD000CE0C8488079C94981F8FC0040
:101EB000C548C079401E81F8FA00032081F8FD0072
:101EC0000BE0C34890F8FD00042803D10620C04968
:101ED00081F8FD0001E000E000BF00BFA5E0B948C7
:101EE00090F8FE0002286AD1B64890F8F600B6498C
:101EF000C978884263D1B44881794079401EC0EBEB
:101F0000C002B048001D8154AF48C2794079401EDC
:101F1000C0EBC000401CAB49091D0A54AA48027A14
:101F20004079401EC0EBC000801C0A54A648427A8B
:101F30004079401EC0EBC000C01C0A54A248827AFF
:101F40004079401EC0EBC000001D0A549E48C27A72
:101F50004079401EC0EBC000401D0A549A48027BE5
:101F60004079401EC0EBC000801D0A54964840795D
:101F7000091F91F8FD10884206DD924890F8FD0097
:101F8000401C904981F8FD0040F2EE208D49A1F8F7
:101F9000FA0091F8FD0000EBD0714910A0EB41016F
:101FA00039B1884991F8FD10864A92F8FC20914297
:101FB00004D10120834981F8FE007DE17CE134E019
:101FC00081488079F02813DA7F48C0794FF4403196
:101FD00001EA00417C4880794FF47F4202EA002008
:101FE00008447949C96860F31F217748C16015E04A
:101FF0007548C0794FF4403101EA00417248807958
:102000004FF47F4202EA002001446F4840790144C6
:102010006D48C06861F31F206B49C8606A49C96890
:10202000080AFFF7BDFC47E100BF67484078F02889
:1020300015DA65480078C0F3400040046249097829
:1020400001F0010100EB01405F49497800EB0121FB
:102050005D48C06861F31F205B49C86017E05A48BB
:102060000078C0F3400040045749097801F00101AD
:1020700000EB01405449497800EB0120524989782E
:1020800001445148C06861F31F204F49C86051485E
:102090000078012806D002283ED0032878D00428F2
:1020A00075D1CCE04C48007803282DDA4A480078F6
:1020B000032810DA48480078401C47490870474810
:1020C0000078401C454908700846007803280FDB5B
:1020D000002008700CE04248007820F0100010301A
:1020E0003F4908700846007820F00E00801C0870F8
:1020F0003A49097801EB81013A4A02EB8100142246
:10210000314915F05DFA06E03548007820F02000EE
:10211000203033490870CDE03348007803282DDAA9
:1021200031480078032810DA2F480078401C2E49E7
:1021300008702E480078401C2C490870084600782A
:1021400003280FDB002008700CE02548007820F001
:1021500010001030224908700846007820F00E0068
:10216000001D08702149097801EB8101204A02EB2A
:1021700081001422144915F023FA06E0184800786B
:1021800020F0200020301649087093E000E090E035
:102190001848007803284ADA1648007803282DDA10
:1021A00014480078401C1349087013480078401CFC
:1021B000114908700846007803282CDB00200870BD
:1021C00029E00000680200205C0000203C000020A4
:1021D000680300201F0000202600002025000020AA
:1021E0001E000020700000202C0000202B0000208A
:1021F000E80000203200002031000020F84800787C
:1022000020F010001030F64908700846007820F0E1
:102210000E00801D0870F349097801EB8101F24A34
:1022200002EB81001422F14915F0CAF906E0EC48EE
:10223000007820F020002030E94908703AE0EC48AE
:10224000007803282DDAEA480078032810DAE848F5
:102250000078401CE6490870E6480078401CE549D3
:1022600008700846007803280FDB002008700CE097
:10227000DB48007820F010001030D949087008467B
:10228000007820F00E0008300870DA49097801EB78
:102290008101D94A02EB81001422D44915F090F94A
:1022A00006E0CF48007820F020002030CC490870AC
:1022B00000E000BF00BF00BF00BF00BF32E57047B5
:1022C00010B5FFF7FCFFFFF722FDFFF728FA00F03B
:1022D000F0FC10BD10B5FFF7F3FF10BD704770475D
:1022E000142001218140C54A430942F8231000BF50
:1022F000704700B50246C2480078012806D002287F
:1023000007D0032808D004280CD108E0BD4802708B
:1023100009E0BD48027006E0BC48027003E0BC481A
:10232000027000E000BF00BF1046FFF723F900BDB8
:1023300070B505460C460026FFF7D0FF012C06D0ED
:10234000022C25D0032C44D0042C7DD162E0B1486E
:10235000007808B901261AE0AF48007800EB800049
:10236000AE4A02EB80011422284615F029F9AA484A
:102370000078401CA849087008460078032801DB53
:1023800000200870A3480078401EA249087066E04B
:10239000A348007808B901261AE0A248007800EBAB
:1023A0008000A14A02EB80011422284615F008F9AA
:1023B0009C480078401C9B49087008460078032818
:1023C00001DB0020087096480078401E9449087090
:1023D00045E09648007808B901261AE0944800784C
:1023E00000EB8000804A02EB80011422284615F0A1
:1023F000E7F88F480078401C8D490870084600783F
:10240000032801DB0020087088480078401E8749B7
:10241000087024E07648007808B901261CE0854859
:10242000007800EB8000744A02EB800114222846F9
:1024300015F0C6F87F480078401C7E4908700846B1
:102440000078032803DB00E007E0002008706848FC
:102450000078401E6649087001E0022600BF00BFF8
:10246000FFF738FF304670BD70B504460D4629466B
:102470002046FFF75DFF70BD70B504460D4600268F
:10248000FFF72DFF012D06D0022D32D0032D5ED097
:10249000042D75D18AE068480078032827DA664859
:1024A0000078032810DA64480078401C62490870FC
:1024B00062480078401C614908700846007803288B
:1024C00009DB0020087006E04548007820F0010094
:1024D000401C434908705949097801EB8101584A69
:1024E00002EB81001422214615F06AF800E0012673
:1024F000CEE054480078032827DA524800780328B1
:1025000010DA50480078401C4E4908704E48007858
:10251000401C4D49087008460078032809DB00205C
:10252000087006E02E48007820F00100401C2C497D
:1025300008704549097801EB8101444A02EB8100AA
:102540001422214615F03CF800E00126A0E04048A6
:102550000078032828DA3E480078032811DA3C483E
:102560000078401C3A4908703A480078401C3949C4
:1025700008700846007803280ADB0020087007E08E
:1025800085E01748007820F00100401C14490870CD
:102590003049097801EB81012F4A02EB81001422B6
:1025A000214615F00DF800E0012671E02B48007877
:1025B00003286ADA29480078032853DA2748007884
:1025C000401C2649087026480078401C24490870A1
:1025D0000846007803284CDB0020087049E0000022
:1025E0001E00002031000020600100205C0000205F
:1025F0003800002037000020D801002000E200E071
:102600001F000020200000202100002022000020C8
:10261000230000202600002024000020700000205D
:102620002C0000202A000020E800002032000020BA
:102630003000002036000020290000202800002063
:10264000AC0000202F0000202E00002024010020DC
:1026500035000020340000209C0100203B000020B9
:102660003A000020FE48007820F00100401CFC49A0
:102670000870FC49097801EB8101FB4A02EB8100FB
:102680001422214614F09CFF00E0012600E000BF68
:1026900000BFFFF72BF8FFF723FE304670BD70B583
:1026A00004460D4629462046FFF7E6FE70BD002091
:1026B000EB490870ED490870ED490870ED49087064
:1026C000ED490870FF20ED490870ED490870ED49AB
:1026D0000870E44908700020EB490870EB49087065
:1026E000EB490870EB490870FF20EB490870EB4993
:1026F0000870EB490870EB4908700020EA4908703F
:10270000EA490870EA490870EA490870EA4908701D
:10271000EA490870EA490870EA4908700120EA4964
:102720000870F420E9490870F720E9490870002092
:10273000E84908700120E84908700020E7498860EE
:1027400008600861888008734861E549087048702E
:102750008870E44981F8FC0081F8FB0081F8FA00F8
:10276000A1F8F80081F8FD00DF4981F8FD0081F84B
:10277000FC00A1F8FA0081F8FE007047704730B500
:1027800085B000249DF8000020F01C001C308DF85E
:1027900000009DF8000020F001008DF80000EB2003
:1027A0008DF80100CF4890F8F6008DF802009DF8F2
:1027B000040020F00F0008308DF80400C94890F89C
:1027C000FC0000285ADDC74890F8FC00401EC549AF
:1027D00081F8FC00084690F8FA00C0EBC0050846F6
:1027E00090F8FA00401CC0B28DF8050000BF08E068
:1027F0002919BC48001D425C0DF10500611C4254C2
:10280000641C072CF4DBB74890F8FA1090F8FB0032
:10281000401E814222D1B348B0F8F400C01FA84244
:102820000EDAB048B0F8F400401BC41F06E0FF22E7
:102830000DF1050004F108014254641C002CF6DB84
:102840000020A84981F8FC0081F8FA0040F2E2403B
:10285000A1F8F800042081F8FD0009E0A14890F8F3
:10286000FA00401C9F4981F8FA00032081F8FD001E
:10287000994801786846FFF7FFFD0CE00020994970
:1028800081F8FC0081F8FA0040F2E240A1F8F8007B
:10289000042081F8FD0005B030BD10B586B0914828
:1028A00004689DF8040020F01C001C308DF8040022
:1028B0009DF8040020F001008DF80400EC208DF854
:1028C0000500884890F8F6008DF806009DF808008D
:1028D00020F00F0008308DF8080010208DF8090056
:1028E000804890F8F4108DF80A10B0F8F400011246
:1028F0008DF80B107B4890F8FB108DF80C10FF2121
:102900008DF80D10210C8DF81010210A8DF80F1084
:102910008DF80E407048017801A8FFF7ADFD40F238
:10292000E2407049A1F8F800022081F8FD0006B0ED
:1029300010BD10B586B06B4804689DF8040020F007
:102940001C001C308DF804009DF8040020F00100EC
:102950008DF80400EC208DF80500624890F8F60030
:102960008DF806009DF8080020F00F0008308DF863
:102970000800FF208DF80900FF218DF80A108DF85E
:102980000B108DF80C108DF80D10210C8DF8101017
:10299000210A8DF80F108DF80E404F48017801A8DC
:1029A000FFF76AFD06204F4981F8FD0006B010BD13
:1029B00010B586B04C4804689DF8040020F01C0057
:1029C0001C308DF804009DF8040020F001008DF803
:1029D0000400EC208DF80500434890F8F6008DF8CF
:1029E00006009DF8080020F00F0008308DF8080060
:1029F000FF208DF80900FF218DF80A108DF80B10CB
:102A00008DF80C108DF80D10210C8DF81010210A86
:102A10008DF80F108DF80E402F48017801A8FFF7B0
:102A20002BFD0420304981F8FE0006B010BD0146A0
:102A30002C4890F8FD00022804D02A4890F8FD00A8
:102A4000042859D12748B0F8F80088424EDD2548BF
:102A5000B0F8F800401A234AA2F8F80000207047A6
:102A60001E0000203A000020140200202700002051
:102A70002D00002033000020390000202800002015
:102A80002E00002034000020240000202A00002016
:102A90003000002036000020250000202B00002000
:102AA0003100002037000020290000202F000020E6
:102AB000350000203B000020260000202C000020D4
:102AC00032000020380000202000002021000020DB
:102AD00022000020230000201F00002050020020C0
:102AE0003C00002068030020680200200020F74A14
:102AF000A2F8F800012070470020FCE70146F448E6
:102B000090F8FE00022813D1F148B0F8FA0088428C
:102B100008DDEF48B0F8FA00401AED4AA2F8FA00D2
:102B2000002070470020EA4AA2F8FA000120F8E7E6
:102B30000020F6E710B586B0E54804689DF804006B
:102B400020F01C001C308DF804009DF8040020F0DB
:102B500001008DF80400EC208DF80500DC4890F8A9
:102B6000F6008DF806009DF8080020F00F000830F0
:102B70008DF80800D64890F8F800D8B111208DF8EB
:102B8000090000218DF80A10FF218DF80B108DF837
:102B90000C108DF80D10210C8DF81010210A8DF8F5
:102BA0000F108DF80E40CB48017801A8FFF764FCA8
:102BB00006B010BDC64890F8FC00C54991F8FD105C
:102BC00088424EDDC24890F8FC00C14991F8FD10E2
:102BD000401A012821D111208DF8090001218DF81A
:102BE0000A10BB4890F8FC108DF80B10FF218DF8EF
:102BF0000C108DF80D10210C8DF81010210A8DF895
:102C00000F108DF80E40B348017801A8FFF734FC8F
:102C10000220AF4981F8FE00CAE711208DF80900B3
:102C200002218DF80A10AA4890F8FD00401CC1B29C
:102C30008DF80B10FF218DF80C108DF80D10210C64
:102C40008DF81010210A8DF80F108DF80E40A14854
:102C5000017801A8FFF710FC02209D4981F8FE00D1
:102C6000A6E713208DF80900994890F8F4108DF824
:102C70000A10B0F8F400010A8DF80B10944890F88F
:102C8000FC108DF80C10FF218DF80D10210C8DF823
:102C90001010210A8DF80F108DF80E408D48017824
:102CA00001A8FFF7E9FB0420894981F8FE0000BF75
:102CB0007EE710B58848007818B187480078032867
:102CC00000D110BD84480078012834D18248407872
:102CD000804908707E4890F8FE00052828D2DFE879
:102CE00000F003040711170023E0FFF723FF20E0A3
:102CF0000A20FFF703FF012803D10320744981F85C
:102D0000FE0016E0FFF754FE00207349487010E003
:102D100000206F4981F8FD0081F8FC0040F2E2409C
:102D2000A1F8FA00002081F8FE006B49087000E06D
:102D300000BF00BFC5E76848007802283FD1664859
:102D4000807864490870614890F8FD00072833D204
:102D5000DFE800F004050812151F22002DE0FFF740
:102D60009CFD2AE00A20FFF762FE012803D105201E
:102D7000564981F8FD0020E0FFF701FD1DE00A2023
:102D8000FFF755FE012803D10520504981F8FD00C9
:102D900013E0FFF7CEFD10E000204C4981F8FC0065
:102DA00081F8FA0040F2E240A1F8F800002081F832
:102DB000FD004949087000E000BF00BF81E700BF87
:102DC0007FE710B502460B4600214348007830B932
:102DD0003F48006818B103203F4C207001E00220FA
:102DE00010BD3D484078984208D03B480078032801
:102DF00002D10020384C20700220F1E79088344C3A
:102E0000B4F8F440A04201DA0220E9E7002106E02C
:102E10002F48001D405C14686054481C81B29088A3
:102E20008842F5DC2A4890F8F60090712848B0F8FE
:102E3000F400108126480068D0600020244CA4F8DB
:102E4000F400206024480078032802D10020224C9E
:102E500020700020C4E770B586B004460D461646C3
:102E60009DF8040020F001008DF804009DF8040096
:102E700020F01C0018308DF804008DF806509DF8E5
:102E8000080020F00F00C01C8DF80800EA208DF823
:102E90000500E0B28DF80900210A8DF80A10210C16
:102EA0008DF80B1000BF314601A8FFF7E5FA0028A6
:102EB000F9D106B070BD2DE9F04705460E4617461C
:102EC0009846DDF82090054C0BE0000068030020D8
:102ED000680200201F0000203C000020500200205B
:102EE000646960690028FBD1182014F095FD6061C9
:102EF00064692560A680A760C4F8108084F80C90EF
:102F000000206061BDE8F0872DE9FF5F84B0824654
:102F10008B46069814F0BFFCCDE90001079814F029
:102F200088FC0390002801DB039901E003994942E2
:102F3000084614F06DFC804652465B4614F052FB86
:102F40000646DDE9002314F0F4FB044614F08AFC85
:102F500080B208B0BDE8F09F002202600822A0F80D
:102F6000F42002794B7803F003031A4302710279CB
:102F70004B78C3F3810342EA8302027102794B78F2
:102F8000C3F3011342EA031202714A881312437118
:102F90008B7883710B79C371027A8B7903F0070305
:102FA0001A430272027A8B79DB0842EAC303037286
:102FB000427A0B7A03F00F031A434272C27A8B7A79
:102FC00003F00F031A43C272C27A8B7A1B0942EADA
:102FD0000313C37270474FF4807202600822A0F896
:102FE000F42002794B7803F003031A43027102794B
:102FF0004B78C3F3810342EA8302027102794B7872
:10300000C3F3011342EA031202718B784371CB7848
:103010008371C2794B7903F003031A43C271C279F9
:103020004B79C3F3810342EA8303C371C2794B79BD
:10303000C3F3011342EA0313C371C2794B799B09AD
:1030400042EA8313C371027ACB7903F003031A4374
:103050000272027ACB79C3F3810342EA83030372DB
:10306000027ACB79C3F3011342EA03130372027AA3
:10307000CB799B0942EA83130372427A4B7A03F0BD
:1030800003031A434272427A4B7AC3F3810342EA42
:1030900083034372427A4B7AC3F3011342EA031368
:1030A0004372427A4B7A9B0942EA83134372827AD3
:1030B000CB7A03F00F0342EA83038372827ACB7ADE
:1030C000C3F3011342EA83138372C27A4B7B03F08A
:1030D00003031A43C272C27A4B7BC3F3810342EAF1
:1030E0008303C372C27A4B7BC3F3011342EA031317
:1030F000C372C27A4B7B9B0942EA8313C372704747
:103100004FF4806202600822A0F8F4200A881212AC
:1031100002710B7843718279CB7803F003031A4371
:1031200082718279CB78C3F3810342EA830383718E
:103130008279CB78C3F3011342EA031383710B79CD
:10314000C371C27A8B7903F00F031A43C272C27A39
:103150008B791B0942EA0313C37270474FF4E06294
:1031600002600822A0F8F4200A88121202710B787B
:1031700043718B7883718A881312C3710B79037240
:10318000CA88131243728B79837270474FF40062BE
:1031900002600822A0F8F4200A88121202710B784B
:1031A00043714A88131283718B78C3718A88131212
:1031B00003720B794372CA88131283728B79C372BC
:1031C00070474FF4106202600822A0F8F4200A78D9
:1031D000027142798B7803F007031A4342717047FA
:1031E0004FF4206202600822A0F8F42002794B78A4
:1031F00003F003031A43027102794B78C3F381038E
:1032000042EA8302027102794B78C3F3011342EA66
:103210000312027170474FF4306202600822A0F876
:10322000F42002794B7803F003031A430271C27A47
:10323000CB7803F00F031A43C272C27ACB781B0912
:1032400042EA0313C37270474FF407420260082238
:10325000A0F8F42002794B7803F003031A430271BB
:1032600070474FF4084202600822A0F8F4200A8850
:10327000121202710B7843718279CB7803F0030349
:1032800042EA831383714A68130CC3718A88130A54
:1032900003720B7943720B7A837270474FF40F42BB
:1032A00002600822A0F8F42002794B7803F00303AF
:1032B0001A43027170474FF4104202600822A0F8CE
:1032C000F42002794B7803F003031A430271027968
:1032D0004B78C3F3810342EA830202714A881312D6
:1032E00043718B788371C2794B7903F003031A43DE
:1032F000C27170474FF4114202600822A0F8F42016
:1033000002794B7803F003031A43027102794B7878
:10331000C3F3820342EA8302027102794B785B09AC
:1033200042EA431202714279CB7803F003031A4355
:1033300042714279CB78C3F3810342EA830343713C
:1033400070474FF4124202600822A0F8F4200A8865
:10335000121202710B7843718279CB7803F0070364
:103360001A4382718279CB78C3F3C10342EAC30363
:1033700083718279CB785B0942EA43138371C27906
:103380004B7903F003031A43C27170474FF41442A0
:1033900002600822A0F8F4200A88121202710B7849
:1033A00043714A88131283718B78C37170474FF44D
:1033B000154202600822A0F8F4200A881212027155
:1033C0000B7843714A88131283718B78C3717047ED
:1033D0004FF4164202600822A0F8F42002794B78DC
:1033E00003F00F031A43027170474FF41742026053
:1033F0000822A0F8F42002794B7803F003031A4363
:10340000027102794B78C3F3830342EA83020271AB
:1034100070474FF4184202600822A0F8F4200279A5
:103420004B7803F003031A43027102794B78C3F31C
:10343000820342EA8302027170474FF4194202602C
:103440000822A0F8F42002794B7803F003031A4312
:10345000027102794B78C3F3810342EA830202715D
:1034600002794B78C3F3011342EA03120271027925
:103470004B789B0942EA831202714279CB7803F0C0
:1034800003031A4342714279CB78C3F3810342EAC2
:10349000830343714279CB78C3F3011342EA0313E8
:1034A00043714279CB789B0942EA83134371827955
:1034B0004B7903F003031A43827182794B79C3F38A
:1034C000810342EA8303837182794B79C3F3011349
:1034D00042EA0313837182794B799B0942EA831391
:1034E0008371C279CB7903F003031A43C271C279A5
:1034F000CB79C3F3810342EA8303C371C279CB79E9
:10350000C3F3011342EA0313C371C279CB799B0958
:1035100042EA8313C371027A4B7A03F003031A431E
:103520000272027A4B7AC3F3810342EA8303037285
:10353000027A4B7AC3F3011342EA03130372027A4D
:103540004B7A9B0942EA83130372427ACB7A03F0E7
:1035500003031A434272427ACB7AC3F3810342EAED
:1035600083034372427ACB7AC3F3011342EA031313
:103570004372427ACB7A9B0942EA83134372827A7E
:103580004B7B03F003031A438272827A4B7BC3F3B3
:10359000810342EA83038372827A4B7BC3F3011374
:1035A00042EA03138372827A4B7B9B0942EA8313BC
:1035B0008372C27ACB7B03F003031A43C272C27ACE
:1035C000CB7BC3F3810342EA8303C37270474FF49A
:1035D0001C4202600822A0F8F4200A7802714B789D
:1035E00043718B788371CB78C3710B7903724B79FC
:1035F00043728B798372CB79C37270474FF41D424B
:1036000002600822A0F8F4200A7802714B78437116
:103610008B788371CB78C3710B7903724B794372CA
:103620008B798372CB79C37270474FF42542026065
:103630000822A0F8F42002794B7803F003031A4320
:10364000027102794B78C3F3810342EA830202716B
:1036500002794B78C3F3011342EA03120271027933
:103660004B789B0942EA831202714279CB7803F0CE
:1036700003031A4342714279CB78C3F3810342EAD0
:10368000830343714279CB78C3F3011342EA0313F6
:1036900043714279CB789B0942EA83134371827963
:1036A0004B7903F003031A43827182794B79C3F398
:1036B000810342EA8303837182794B79C3F3011357
:1036C00042EA0313837182794B799B0942EA83139F
:1036D0008371C279CB7903F003031A43C271C279B3
:1036E000CB79C3F3810342EA8303C371C279CB79F7
:1036F000C3F3011342EA0313C371C279CB799B0967
:1037000042EA8313C371027A4B7A03F003031A432C
:103710000272027A4B7AC3F3810342EA8303037293
:10372000027A4B7AC3F3011342EA03130372027A5B
:103730004B7A9B0942EA83130372427ACB7A03F0F5
:1037400003031A434272427ACB7AC3F3810342EAFB
:1037500083034372427ACB7AC3F3011342EA031321
:103760004372427ACB7A9B0942EA83134372827A8C
:103770004B7B03F003031A438272827A4B7BC3F3C1
:10378000810342EA83038372827A4B7BC3F3011382
:1037900042EA03138372827A4B7B9B0942EA8313CA
:1037A0008372C27ACB7B03F003031A43C272C27ADC
:1037B000CB7BC3F3810342EA8303C372C27ACB7B20
:1037C000C3F3011342EA0313C372C27ACB7B9B0992
:1037D00042EA8313C37270474FF426420260082204
:1037E000A0F8F42002794B7803F003031A43027126
:1037F00002794B78C3F3810342EA830202710279B2
:103800004B78C3F3011342EA0312027102794B7839
:103810009B0942EA831202714279CB7803F00303D9
:103820001A4342714279CB78C3F3810342EA83039E
:1038300043714279CB78C3F3011342EA0313437116
:103840004279CB789B0942EA8313437182794B79A1
:1038500003F003031A43827182794B79C3F3810326
:1038600042EA8303837182794B79C3F3011342EAFD
:103870000313837182794B799B0942EA8313837125
:10388000C279CB7903F003031A43C271C279CB79B1
:10389000C3F3810342EA8303C371C279CB79C3F3D3
:1038A000011342EA0313C371C279CB799B0942EA3F
:1038B0008313C371027A4B7A03F003031A43027233
:1038C000027A4B7AC3F3810342EA83030372027ADA
:1038D0004B7AC3F3011342EA03130372027A4B7A61
:1038E0009B0942EA83130372427ACB7A03F0030303
:1038F0001A434272427ACB7AC3F3810342EA8303CA
:103900004372427ACB7AC3F3011342EA0313437240
:10391000427ACB7A9B0942EA83134372827A4B7BC9
:1039200003F003031A438272827A4B7BC3F3810351
:1039300042EA83038372827A4B7BC3F3011342EA28
:1039400003138372827A4B7B9B0942EA831383724F
:10395000C27ACB7B03F003031A43C272C27ACB7BD9
:10396000C3F3810342EA8303C372C27ACB7BC3F3FE
:10397000011342EA0313C372C27ACB7B9B0942EA6A
:103980008313C37270474FF4274202600822A0F8E5
:10399000F42002794B7803F003031A430271027991
:1039A0004B78C3F3810342EA8302027102794B78B8
:1039B000C3F3011342EA0312027102794B789B09A7
:1039C00042EA831202714279CB7803F003031A436F
:1039D00042714279CB78C3F3810342EA8303437196
:1039E0004279CB78C3F3011342EA0313437142795E
:1039F000CB789B0942EA8313437182794B7903F0B8
:103A000003031A43827182794B79C3F3810342EA3B
:103A10008303837182794B79C3F3011342EA031361
:103A2000837182794B799B0942EA83138371C2794E
:103A3000CB7903F003031A43C271C279CB79C3F384
:103A4000810342EA8303C371C279CB79C3F30113C3
:103A500042EA0313C371C279CB799B0942EA83130B
:103A6000C371027A4B7A03F003031A430272027A9B
:103A70004B7AC3F3810342EA83030372027A4B7ADF
:103A8000C3F3011342EA03130372027A4B7A9B09D0
:103A900042EA83130372427ACB7A03F003031A4398
:103AA0004272427ACB7AC3F3810342EA83034372C0
:103AB000427ACB7AC3F3011342EA03134372427A88
:103AC000CB7A9B0942EA83134372827A4B7B03F0E1
:103AD00003031A438272827A4B7BC3F3810342EA67
:103AE00083038372827A4B7BC3F3011342EA03138D
:103AF0008372827A4B7B9B0942EA83138372C27A78
:103B0000CB7B03F003031A43C272C27ACB7BC3F3AD
:103B1000810342EA8303C372C27ACB7BC3F30113EE
:103B200042EA0313C372C27ACB7B9B0942EA831336
:103B3000C37270474FF42842026002794B7803F059
:103B40000F031A4302718B78837170474FF4294237
:103B500002600822A0F8F42002794B7803F00303F6
:103B60001A43027170474FF42E4202600822A0F8F7
:103B7000F42002794B781A4302718B7843717047B5
:103B80004FF44F4202600822A0F8F4200A78027134
:103B90004B7843718B788371CB78C3710B79037247
:103BA0004B7943728B798372CB79C37270474FF430
:103BB000504202600822A0F8F4200A7802714B7883
:103BC000437170474FF4514202600822A0F8F4207C
:103BD0000A88121202710B7843714A88131283719A
:103BE0008B78C3718A88131203720B794372CA8867
:103BF000131283728B79C37270474FF45242026082
:103C00000822A0F8F42002794B7803F003031A434A
:103C1000027102794B78C3F3810342EA8302027195
:103C200002794B78C3F3011342EA0312027102795D
:103C30004B789B0942EA831202714279CB7803F0F8
:103C40000F031A4342714279CB781B0942EA0313EE
:103C5000437182794B7903F00F031A4382718279A1
:103C60004B79C3F3011342EA0313837182794B79D1
:103C70009B0942EA831383718B79C371CB790372F9
:103C80000B7A4372827A8B7A03F003031A438272AF
:103C9000827A8B7AC3F3810342EA83038372827A46
:103CA0008B7AC3F3011342EA03138372827A8B7A0D
:103CB0009B0942EA83138372C27A0B7B03F00303EE
:103CC0001A43C272C27A0B7BC3F3810342EA8303B5
:103CD000C372C27A0B7B1B0942EA0313C37270479B
:103CE0004FF4554202600822A0F8F4200A780271CD
:103CF0004B7843718B788371CB78C3710B790372E6
:103D00004B7943728B798372CB79C372704710B54C
:103D10004FF45C4202600822A0F8F42002794B784C
:103D200003F003031A43027102794B78C3F3810352
:103D300042EA8302027102794B78C3F3011342EA2B
:103D40000312027102794B789B0942EA83120271D5
:103D5000CA68130C43718A89130A83710B7BC37180
:103D60000B7B8A68120E42EA032202720B7B8A687E
:103D7000120C42EA034242720B890A7B140644EA9F
:103D8000132282720B7AC37210BD10B54FF45D42DC
:103D900002600822A0F8F42002794B7803F00303B4
:103DA00042EA4302027102794B78C3F3810342EA8B
:103DB000C302027102794B78C3F3021342EA431241
:103DC0000271CA68130C43718A89130A83710B7BD1
:103DD000C3710A7B14028B6844EA136202720A7B85
:103DE00014048B6844EA134242720B890A7B14065E
:103DF00044EA132282720B7AC37210BD4FF4604200
:103E000002600822A0F8F4200A7802714A8813128E
:103E100043718B788371C2794B7903F003031A43A2
:103E2000C271C2794B79C3F3810342EA8303C37140
:103E3000C2794B79C3F3011342EA0313C371C27908
:103E40004B799B0942EA8313C371027ACB7903F061
:103E500003031A430272027ACB79C3F3810342EA65
:103E600083030372027ACB79C3F3011342EA03138B
:103E70000372027ACB799B0942EA83130372427A76
:103E80004B7A03F0030342EA83034372427A4B7A8C
:103E9000C3F3810342EA03134372427A4B7AC3F3BA
:103EA000011342EA83134372827ACB7A03F00F0341
:103EB0001A438272827ACB7AC3F3011342EA031364
:103EC0008372827ACB7A9B0942EA831383720B7BDB
:103ED000C37270474FF4704202600822A0F8F420C9
:103EE00002794B7803F00F031A43027102794B7881
:103EF000C3F3011342EA0312027102794B789B0962
:103F000042EA831202718B784371CB788371C27954
:103F10004B7903F003031A43C271C2794B79C3F39F
:103F2000810342EA8303C371C2794B79C3F301135E
:103F300042EA0313C371C2794B799B0942EA8313A6
:103F4000C3718B790372CB7943720B7A83724B7A8C
:103F5000C37270474FF2010202600822A0F8F420F9
:103F600002794B7803F003031A43027102794B780C
:103F7000C3F3810342EA8302027102794B78C3F3EF
:103F8000011342EA0312027102794B789B0942EA5B
:103F9000831202718B78437182790B7903F00303EA
:103FA0001A43827182790B79C3F3810342EA830356
:103FB000837182790B79C3F3011342EA031383718E
:103FC00082790B799B0942EA83138371C2798B79D9
:103FD00003F003031A43C271C2798B79C3F38103DF
:103FE00042EA8303C371C2798B79C3F3011342EAB6
:103FF0000313C371C2798B799B0942EA8313C3719E
:10400000CB790372427A4B7A03F003031A4342726C
:10401000427A4B7AC3F3810342EA83034372427AC2
:104020004B7AC3F3011342EA03134372427A4B7A89
:104030009B0942EA831343728B7A8372C27A0B7BA9
:1040400003F0030342EA8303C372C27A0B7BC3F318
:10405000810342EA0313C372C27A0B7BC3F30113D9
:1040600042EA8313C37270474FF2020202600822D1
:10407000A0F8F42002794B7803F003031A4302718D
:1040800002794B78C3F3810342EA83020271027919
:104090004B78C3F3011342EA0312027102794B78A1
:1040A0009B0942EA831202714A88131243718B788A
:1040B00083710B79C371027A8B7903F003031A437E
:1040C0000272027A8B79C3F3810342EA830303729B
:1040D000027A8B79C3F3011342EA031303720A894C
:1040E000131243720B7A83728B7AC37270474FF24A
:1040F000030202600822A0F8F42002794B7803F052
:1041000003031A43027102794B78C3F3810342EA35
:104110008302027102794B78C3F3011342EA03125E
:10412000027102794B789B0942EA831202718B7803
:104130004371CB7883710B79C3714B790372427AE7
:10414000CB7903F003031A434272427ACB79C3F36B
:10415000810342EA83034372427ACB79C3F30113AA
:1041600042EA03134372427ACB799B0942EA8313F2
:1041700043720B7A83724B7AC37270474FF2040218
:1041800002600822A0F8F42002794B7803F00F03B4
:104190001A43027102794B781B0942EA0312027139
:1041A0008B784371CB7883718A881312C3710B7932
:1041B00003728B794372827A0B7A03F00F031A43EE
:1041C00082724B7AC37270474FF205020260082276
:1041D000A0F8F4200A7802714A88131243718B7890
:1041E00083710B79C371CA88131203728B7943727E
:1041F0000A89131283720B7AC37270474FF2060258
:1042000002600822A0F8F42002794B781A43027168
:104210004279CB7803F003031A4342714279CB7899
:10422000C3F3810342EA830343714279CB78C3F33A
:10423000011342EA031343714279CB789B0942EAA6
:104240008313437182794B7903F003031A4382711C
:1042500082794B79C3F3810342EA830383718279C4
:104260004B79C3F3011342EA03138371C279CB790B
:1042700003F003031A43C271C279CB79C3F38103FC
:1042800042EA8303C37170474FF2070202600822BB
:10429000A0F8F42002794B7803F003031A4302716B
:1042A00002794B78C3F3810342EA830202710279F7
:1042B0004B78C3F3011342EA0312027102794B787F
:1042C0009B0942EA8312027170474FF208020260B2
:1042D0000822A0F8F4200A88121202710B784371A8
:1042E0008279CB7803F003031A4382718279CB7809
:1042F000C3F3810342EA830383718279CB78C3F3EA
:10430000011342EA0313837170474FF209020260FE
:104310000822A0F8F4200A88121202710B78437167
:104320008279CB7803F03F031A4382718279CB788C
:104330009B0942EA831383718A881312C3710B7934
:104340000372CA88131243728B7983720B7AC37219
:1043500070474FF20A0202600822A0F8F4200A888F
:10436000121202710B7843714A88131283718B7891
:10437000C3718A88131203720B79437270474FF22C
:104380000B0202600822A0F8F4200A8812120271BF
:104390000B78437182798271C2794B7903F00F03F4
:1043A0001A43C271C2794B79C3F3011342EA031372
:1043B000C371027ACB7903F00F031A430272027AB7
:1043C000CB791B0942EA03130372427A4B7A03F05A
:1043D0000F031A43427270474FF20C020260082228
:1043E000A0F8F4200A88121202710B7843714A88EF
:1043F000131283718B78C37170474FF20D02026004
:104400000822A0F8F42002794B7803F00F031A4336
:10441000027102794B781B0942EA03120271427958
:10442000CB7803F00F031A4342714279CB781B0912
:1044300042EA0313437182794B7903F00F031A4365
:10444000827182794B791B0942EA03138371C27925
:10445000CB7903F00F031A43C271C279CB791B09E0
:1044600042EA0313C371027A4B7A03F00F031A4333
:104470000272027A4B7AC3F3011342EA0313037206
:10448000027A4B7A9B0942EA8313037270474FF218
:104490000E0202600822A0F8F4200A8812120271AB
:1044A0000B7843714A88131283718B78C371027A37
:1044B0004B7903F003031A430272027A4B79C3F378
:1044C000810342EA83030372027A4B79C3F3011337
:1044D00042EA03130372027A4B799B0942EA83137F
:1044E0000372427ACB7903F01F031A434272427A75
:1044F000CB79C3F3411342EA43134372827A4B7A76
:1045000003F01F031A438272827A4B7A5B0942EAF4
:1045100043138372C27ACB7A03F01F031A43C27229
:1045200070474FF20F0202600822A0F8F4200A88B8
:10453000121202710B7843714A88131283718B78BF
:10454000C371027A4B7903F003031A430272027AB1
:104550004B79C3F3810342EA83030372027A4B79F6
:10456000C3F3011342EA03130372027A4B799B09E6
:1045700042EA83130372427ACB7903F01F031A4392
:104580004272427ACB79C3F3411342EA4313437236
:10459000827A4B7A03F01F031A438272827A4B7A33
:1045A0005B0942EA43138372C27ACB7A03F01F039A
:1045B0001A43C27270474FF2100202600822A0F83C
:1045C000F4200A88121202710B7843714A88131280
:1045D00083718B78C371027A4B7903F003031A431A
:1045E0000272027A4B79C3F3810342EA83030372B6
:1045F000027A4B79C3F3011342EA03130372027A7E
:104600004B799B0942EA83130372427ACB7903F018
:104610001F031A434272427ACB79C3F3411342EA31
:1046200043134372827A4B7A03F01F031A43827258
:10463000827A4B7A5B0942EA43138372C27ACB7A5D
:1046400003F01F031A43C27270474FF21102026057
:104650000822A0F8F4200A88121202710B78437124
:104660004A88131283718B78C371027A4B7903F0F5
:1046700003031A430272027A4B79C3F3810342EABD
:1046800083030372027A4B79C3F3011342EA0313E3
:104690000372027A4B799B0942EA83130372427ACE
:1046A000CB7903F01F031A434272427ACB79C3F3EA
:1046B000411342EA43134372827A4B7A03F01F0399
:1046C0001A438272827A4B7A5B0942EA43138372FD
:1046D000C27ACB7A03F01F031A43C27270474FF2BB
:1046E000120202600822A0F8F4200A881212027155
:1046F0000B7843714A88131283718B78C3718A884F
:10470000131203720B794372827ACB7903F003039D
:104710001A43827270474FF2130202600822A0F817
:10472000F4200A88121202710B7843714A8813121E
:1047300083718B78C3718A88131203720B79437269
:10474000827ACB7903F003031A438272827ACB799F
:10475000C3F3810342EA83038372827ACB79C3F382
:10476000011342EA03138372827ACB799B0942EAEE
:10477000831383720B7AC37270474FF21402026084
:104780000822A0F8F4200A88121202710B784371F3
:104790004A88131283718B78C3710B790372427A42
:1047A0008B7903F003031A434272427A8B79C3F385
:1047B000810342EA8303437270474FF2160202609C
:1047C0000822A0F8F42002794B7803F003031A437F
:1047D000027102794B78C3F3810342EA83020271CA
:1047E00002794B78C3F3011342EA03120271027992
:1047F0004B789B0942EA831202714279CB7803F02D
:1048000003031A4342714279CB78C3F3810342EA2E
:10481000830343714279CB78C3F3011342EA031354
:1048200043714279CB789B0942EA831343718279C1
:104830004B7903F003031A43827182794B79C3F3F6
:10484000810342EA8303837182794B79C3F30113B5
:1048500042EA0313837182794B799B0942EA8313FD
:104860008371C279CB7903F003031A43C271C27911
:10487000CB79C3F3810342EA8303C371C279CB7955
:10488000C3F3011342EA0313C371C279CB799B09C5
:1048900042EA8313C371027A4B7A03F003031A438B
:1048A0000272027A4B7AC3F3810342EA83030372F2
:1048B000027A4B7AC3F3011342EA03130372027ABA
:1048C0004B7A9B0942EA83130372427ACB7A03F054
:1048D00003031A434272427ACB7AC3F3810342EA5A
:1048E00083034372427ACB7AC3F3011342EA031380
:1048F0004372427ACB7A9B0942EA83134372704730
:104900004FF2170202600822A0F8F4200A78027120
:104910004B7843718B788371CB78C3710B790372B9
:104920004B7943728B798372CB79C37270474FF2A4
:10493000180202600822A0F8F4200A7802714B786D
:1049400043718B788371CB78C3710B7903724B7988
:1049500043728B798372CB79C37270474FF219021D
:1049600002600822A0F8F4200A7802714B784371A3
:104970008B788371CB78C3710B7903724B79437257
:104980008B798372CB79C37270474FF21A0202603F
:104990000822A0F8F4200A88121202710B784371E1
:1049A0004A88131283718B78C3718A881312037239
:1049B0000B794372CA88131283728B79C372704762
:1049C0004FF21D0202600822A0F8F4200A88121299
:1049D00002710B7843718279CB7803F03F031A435D
:1049E00082718279CB789B0942EA831383718A882A
:1049F000131203720B794372827ACB7903F00303AB
:104A00001A438272827ACB79C3F3810342EA830329
:104A10008372C27A4B7A03F00F031A43C272C27ACE
:104A20004B7A1B0942EA0313C37270474FF221020B
:104A300002600822A0F8F4200A88121202710B7892
:104A400043714A88131283718B78C3718A88131259
:104A500003720B794372827ACB7903F0030342EA43
:104A600083038372827ACB79C3F3810342EA03130F
:104A70008372827ACB79C3F3011342EA8313837280
:104A800070474FF2230202600822A0F8F4200A883F
:104A9000121202710B7843718279CB7803F00F0305
:104AA0001A4382718A881312C3710B7903728B794E
:104AB000437270474FF2240202600822A0F8F420EB
:104AC0000A88121202710B7843718279CB7803F055
:104AD0000F031A4382718A881312C3710B79037210
:104AE00070474FF2250202600822A0F8F4200A88DD
:104AF000121202710B7843718279CB7803F01F0395
:104B00001A438271C2794B7903F003031A43C271CD
:104B1000C2794B79C3F3810342EA8303C371C2793B
:104B20004B79C3F3011342EA0313C371027ACB79C1
:104B300003F01F031A430272427A4B7A03F0030315
:104B40001A43427270474FF2260202600822A0F810
:104B5000F4200A88121202710B7843718279CB78A3
:104B600003F00F031A4382718A881312C3710B7901
:104B700003728B79437270474FF22702026008225A
:104B8000A0F8F4200A88121202710B78437182791E
:104B9000CB7803F00F031A4382718A881312C37112
:104BA0000B79037270474FF2280202600822A0F8C6
:104BB000F4200A88121202710B7843718279CB7843
:104BC00003F01F031A438271C2794B7903F0030388
:104BD0001A43C271C2794B79C3F3810342EA83035A
:104BE000C371C2794B79C3F3011342EA0313C37152
:104BF000027ACB7903F01F031A430272427A4B7A8E
:104C000003F003031A43427270474FF22902026015
:104C10000822A0F8F4200A68120C02710A88130A0C
:104C200043710B7883714A68130CC3718A88130A25
:104C300003720B794372827A4B7A03F003031A43AF
:104C40008272827A4B7AC3F3810342EA83038372CE
:104C5000827A4B7AC3F3011342EA03138372827A96
:104C60004B7A9B0942EA831383728B7AC372704733
:104C70004FF22A0202600822A0F8F4200A881212D9
:104C800002710B7843714A88131283718B78C37158
:104C90008A88131203720B794372827ACB7903F0FC
:104CA00003031A438272827ACB79C3F3810342EA07
:104CB00083038372827ACB79C3F3011342EA03132D
:104CC00083720B7AC37270474FF22B020260082284
:104CD000A0F8F42002794B7803F01F031A43027105
:104CE000C27ACB7803F00F031A43C272C27ACB7830
:104CF0001B0942EA0313C37270474FF22C02026091
:104D00000822A0F8F4200A88121202710B7843716D
:104D10008B788371C2790B7903F003031A43C27154
:104D2000C2790B79C3F3810342EA8303C371C27969
:104D30000B79C3F3011342EA0313C371C2790B79F0
:104D40009B0942EA8313C371027A8B7903F0030350
:104D50001A430272027A8B79C3F3810342EA830316
:104D60000372027A8B79C3F3011342EA03130372CD
:104D7000027A8B799B0942EA8313037270474FF2E0
:104D80002D0202600822A0F8F4200A881212027193
:104D90000B7843714A88131283718B78C3718A88A8
:104DA000131203720B794372827ACB7903F00303F7
:104DB0001A438272827ACB79C3F3810342EA830376
:104DC0008372827ACB79C3F3011342EA03138372AD
:104DD000827ACB799B0942EA8313837270474FF240
:104DE0002E0202600822A0F8F4200A881212027132
:104DF0000B7843714A88131283718B78C3718A8848
:104E0000131203720B79437270474FF22F02026044
:104E10000822A0F8F42002794B7803F00F031A431C
:104E2000027102794B781B0942EA0312027142793E
:104E3000CB7803F007031A4342714279CB78C3F36E
:104E4000C20342EAC30343710B79837170474FF287
:104E5000300202600822A0F8F4200A8812120271BF
:104E60000B7843718279CB7803F00F0342EA031386
:104E700083714A68130CC3718A88130A03720B7911
:104E800043720B7A837270474FF23102026008223C
:104E9000A0F8F4200A88121202710B78437182790B
:104EA000CB7803F003031A43827170474FF232024A
:104EB00002600822A0F8F4200A88121202710B780E
:104EC00043718279CB7803F003031A4382717047F0
:104ED0004FF2330202600822A0F8F4200A8812126E
:104EE00002710B7843718279CB7803F01F031A4368
:104EF0008271C2794B7903F003031A43C271C279FC
:104F00004B79C3F3810342EA8303C371C2794B79BE
:104F1000C3F3011342EA0313C371027ACB7903F09E
:104F20001F031A430272427A4B7A03F003031A43B7
:104F3000427270474FF2340202600822A0F8F42057
:104F40000A88121202710B7843718279CB7803F0D0
:104F50001F031A438271C2794B7903F003031A438A
:104F6000C271C2794B79C3F3810342EA8303C371EF
:104F7000C2794B79C3F3001342EA0313C371027A77
:104F8000CB7903F01F031A430272427A4B7A03F083
:104F900003031A43427270474FF6C242026008226E
:104FA000A0F8F42002794B7803F003031A4302714E
:104FB00002794B78C3F3810342EA830202710279DA
:104FC0004B78C3F3011342EA0312027170474FF6A4
:104FD000C34202600A88121202710B784371704753
:104FE0004FF6C44202600822A0F8F4200A88121288
:104FF00002710B7843718279CB7803F01F031A4357
:10500000827170474FF6C54202600822A0F8F42072
:105010000A88121202710B7843718279CB7803F0FF
:105020001F031A43827170474FF6C842026008227C
:10503000A0F8F42002794B7803F003031A430271BD
:1050400002794B78C3F3810342EA83020271027949
:105050004B781B0942EA0312027170474FF6C942AE
:1050600002600822A0F8F4200A7802714B7843719C
:105070008B788371CB78C3710B79037270474FF6CD
:10508000CA4202600822A0F8F42002794B7803F0AB
:105090001F031A43027102794B785B0942EA4312FB
:1050A00002718B784371CB788371C2794B7903F0AD
:1050B0001F031A43C271C2794B795B0942EA431359
:1050C000C3718B790372CB794372827A4B7A03F086
:1050D0000F031A438272827A4B7A1B0942EA031346
:1050E000837270474FF6CB4202600822A0F8F4208A
:1050F00002794B7803F01F031A43027102794B784F
:105100005B0942EA431202718B784371CB78837159
:10511000C2794B7903F01F031A43C271C2794B79EC
:105120005B0942EA4313C3718B790372CB794372F3
:10513000827A4B7A03F00F031A438272827A4B7A97
:105140001B0942EA0313837270474FF6CC42026098
:105150000822A0F8F42002794B7803F003031A43E5
:10516000027102794B78C3F3810342EA8302027130
:1051700002794B78C3F3011342EA031202710279F8
:105180004B789B0942EA8312027170474FF6CF4277
:1051900002600822A0F8F42002794B7803F00F0394
:1051A0001A43027102794B781B0942EA0312027119
:1051B0004279CB7803F00F031A4342714279CB78DE
:1051C0001B0942EA0313437170474FF6D042026055
:1051D0000822A0F8F4200A88121202710B78437199
:1051E0004A88131283718B78C37170474FF6D5428A
:1051F00002600822A0F8F4200A78027170474FF686
:10520000D64202600822A0F8F4200A881212027125
:105210000B7843714A88131283718B78C3718A8823
:10522000131203720B794372CA88131283728B793B
:10523000C37270474FF6D74202600822A0F8F420EC
:105240000A88121202710B7843714A881312837113
:105250008B78C3718A88131203720B794372CA88E0
:10526000131283728B79C37270474FF6D842026073
:105270000822A0F8F4200A88121202710B784371F8
:105280004A88131283718B78C3718A881312037250
:105290000B794372CA88131283728B79C372704779
:1052A0004FF6D94202600822A0F8F4200A881212B0
:1052B00002710B7843714A88131283718B78C37122
:1052C0008A88131203720B794372CA88131283728D
:1052D0008B79C37270474FF6DA4202600822A0F859
:1052E000F4200A88121202710B7843714A88131253
:1052F00083718B78C3718A88131203720B7943729E
:10530000CA88131283728B79C37270474FF6DB42DF
:1053100002600822A0F8F4200A88121202710B78A9
:1053200043714A88131283718B78C3718A88131270
:1053300003720B794372CA88131283728B79C3721A
:1053400070474FF6DC4202600822A0F8F420027990
:105350004B7803F003031A43027102794B78C3F3CD
:10536000820342EA830202718B784371CB788371A6
:1053700070474FF6DD4202600822A0F8F4200A8848
:10538000121202710B78437170474FF6DE420260D1
:105390000822A0F8F4200A88121202710B784371D7
:1053A00070474FF6DF4202600822A0F8F4200A7826
:1053B00002714B7843718B788371CB78C3717047DE
:1053C0004FF6E04202600822A0F8F4200A88121288
:1053D00002710B7843714A88131283718B78C37101
:1053E0008A88131203720B794372CA88131283726C
:1053F0008B79C37270474FF6E14202600822A0F831
:10540000F4200A68120E02710A68130C43710A88AC
:10541000130A83710B78C37170474FF6E242026042
:105420000822A0F8F42002794B7803F003031A4312
:10543000027102794B78C3F3810342EA830202715D
:1054400002794B781B0942EA031202714279CB7848
:1054500003F007031A4342714279CB78C3F3C303C5
:1054600042EAC30343710B798371CA881312C37173
:105470008B7903720B7A43724A89131283728B7A87
:10548000C37270474FF6E34202600822A0F8F4208E
:105490000A7802714B7843718B788371CB78C37132
:1054A0000B79037270474FF6E44202600822A0F8BD
:1054B000F4200A88121202710B7843714A88131281
:1054C00083718B78C3718A88131203720B794372CC
:1054D000CA88131283728B79C37270474FF6E54204
:1054E00002600822A0F8F4200A88121202710B78D8
:1054F00043714A88131283718B78C3718A8813129F
:1055000003720B794372CA88131283728B79C37248
:1055100070474FF6E64202600822A0F8F4200279B4
:105520004B7803F003031A43027102794B78C3F3FB
:10553000820342EA8302027102794B785B0942EAF4
:10554000431202714279CB7803F003031A4342718C
:105550004279CB78C3F3810342EA830343714279F2
:10556000CB78C3F3011342EA0313437170474FF63C
:10557000E74202600822A0F8F4200A7802714B7812
:1055800043718B788371CB78C3710B7903724B793C
:1055900043728B79837270474FF6E84202600822AB
:1055A000A0F8F42002794B7803F003031A43027148
:1055B00002794B78C3F3810342EA83020271704798
:1055C0004FF6E94202600822A0F8F42002794B78F5
:1055D00003F003031A43027102794B78C3F381038A
:1055E00042EA8302027102794B78C3F3011342EA63
:1055F0000312027102794B789B0942EA831202710D
:1056000070474FF6EA4202600822A0F8F4200A88A8
:10561000121202710B78437170474FF6EB42026031
:105620000822A0F8F42002794B7803F003031A4310
:10563000027102794B78C3F3810342EA830202715B
:1056400070474FF6EC4202600822A0F8F42002797D
:105650004B7803F003031A43027102794B78C3F3CA
:10566000810342EA8302027170474FF6ED42026005
:105670000822A0F8F4200A88121202710B784371F4
:105680004A88131283718B78C37170474FF6EE42CC
:1056900002600822A0F8F4200A88121202710B7826
:1056A00043714A88131283718B78C3718A881312ED
:1056B00003720B794372CA88131283728B79C37297
:1056C00070474FF6EF4202600822A0F8F4200A88E3
:1056D000121202710B7843714A88131283718B780E
:1056E000C37170474FF6F04202600822A0F8F42020
:1056F0000A78027170474FF6F14202600822A0F862
:10570000F42002794B7803F01F031A4302710279E7
:105710004B785B0942EA431202714279CB7803F07D
:105720000F031A4342714279CB781B0942EA0313F3
:1057300043710B798371C2798B7903F01F031A438C
:10574000C271C2798B795B0942EA4313C371027A51
:105750000B7A03F00F031A4302724B7A43728B7A6F
:105760008372CB7AC37270474FF6F242026008220E
:10577000A0F8F4200A78027142798B7803F01F03B5
:105780001A43427142798B785B0942EA43134371B1
:10579000CB788371C2794B7903F01F031A43C2712E
:1057A000C2794B795B0942EA4313C371027ACB7920
:1057B00003F01F031A430272027ACB795B0942EAB3
:1057C00043130372427A4B7A03F01F031A43427267
:1057D000427A4B7A5B0942EA43134372827ACB7A6C
:1057E00003F00F031A438272827ACB7A1B0942EAD2
:1057F00003138372C27A4B7B03F00F031A43C27206
:10580000C27A4B7B1B0942EA0313C37270474FF6FF
:10581000F34202600822A0F8F4200A7802714B7863
:1058200043718279CB7803F01F031A438271827926
:10583000CB785B0942EA43138371C2794B7903F059
:105840000F031A43C271C2794B791B0942EA031351
:10585000C3718B790372CB79437270474FF6F44270
:1058600002600822A0F8F4200A88121202710B7854
:1058700043714A88131283718B78C3718A8813121B
:1058800003720B7943728B79837270474FF6F5423E
:1058900002600822A0F8F4200A88121202710B7824
:1058A00043714A88131283718B78C3710B79037229
:1058B00070474FF6F64202600822A0F8F4200A88EA
:1058C000121202710B7843714A88131283718B781C
:1058D000C3710B79037270474FF6F74202600822DA
:1058E000A0F8F4200A88121202710B7843714A88DA
:1058F000131283718B78C3710B79037270474FF663
:10590000F84202600822A0F8F4200A8812120271FC
:105910000B7843714A88131283718B78C3718A881C
:10592000131203720B79437270474FF6F94202600B
:105930000822A0F8F4200A88121202710B78437131
:105940004A88131283718B78C3718A881312037289
:105950000B79437270474FF6FA4202600822A0F8B2
:10596000F4200A88121202710B7843714A881312CC
:1059700083718B78C3718A88131203720B79437217
:10598000CA88131283728B79C37270474FF6FB4239
:1059900002600822A0F8F4200A88121202710B7823
:1059A00043714A88131283718B78C37170474FF625
:1059B000FC4202600822A0F8F4200A881212027148
:1059C0000B7843714A88131283718B78C3717047C7
:1059D0004FF6FD4202600822A0F8F4200A88121255
:1059E00002710B7843714A88131283718B78C371EB
:1059F0008A88131203720B794372CA881312837256
:105A00008B79C37270474FF6FE4202600822A0F8FD
:105A1000F4200A88121202710B7843714A8813121B
:105A200083718B78C3710B7903724B794372704722
:105A30004FF6FF4202600822A0F8F4200A881212F2
:105A400002710B7843714A88131283718B78C3718A
:105A500070474FF47D4202600822A0F8F4200A88C3
:105A6000121202710B7843718B7883718A8813123A
:105A7000C3710B790372CA88131243728B798372D4
:105A80000B7AC37270474FF6015202600822A0F8E9
:105A9000F42002794B7803F003031A430271027970
:105AA0004B78C3F3810342EA8302027102794B7897
:105AB0001B0942EA031202714279CB7803F00F030B
:105AC0001A4342714279CB781B0942EA03134371AE
:105AD00082794B7903F00F031A43827182794B79F3
