:020000040800F2
:10000000580A002019020008710400081D050008A4
:10001000210500082505000829050008000000004A
:100020000000000000000000000000002D05000896
:100030002F05000800000000310500083305000806
:1000400033020008330200083302000833020008BC
:1000500033020008330200083302000833020008AC
:10006000330200083302000833020008330200089C
:10007000330200083302000833020008330200088C
:10008000330200083302000833020008330200087C
:10009000A3040008330200083302000833020008FA
:1000A000330200083302000833020008330200085C
:1000B000330200083302000833020008330200084C
:1000C000330200083302000833020008330200083C
:1000D00033020008330200087304000833020008EA
:1000E0003302000833020008330200080000000059
:1000F0000000000000000000000000000000000000
:100100000000000000000000330200083302000875
:1001100033020008330200083302000833020008EB
:1001200033020008330200083302000833020008DB
:1001300033020008330200083302000833020008CB
:10014000E5040008AB04000833020008330200088D
:1001500000F002F800F051F80AA090E8000C824488
:100160008344AAF10107DA4501D100F046F8AFF265
:10017000090EBAE80F0013F0010F18BFFB1A43F085
:1001800001031847985B0100B85B0100103A24BFD7
:1001900078C878C1FAD8520724BF30C830C144BFEC
:1001A00004680C607047000000230024002500262E
:1001B000103A28BF78C1FBD8520728BF30C148BFCA
:1001C0000B607047662915F04085642914F034806F
:1001D000782914F06B80002070471FB59DE803005C
:1001E00014F0D6F914F0EAFC04000020002115F008
:1001F00091FAE0601FBD10B510BD14F0F7FD114677
:10020000FFF7EBFF00F04FF814F015FE03B4FFF713
:10021000F2FF03BC14F082FE0948804709480047FA
:10022000FEE7FEE7FEE7FEE7FEE7FEE7FEE7FEE7A6
:10023000FEE7FEE704480549054A064B7047000003
:100240005D3B00085101000858040020580A0020B6
:10025000580600205806002001B508E0002001E003
:10026000411CC8B26428FBDB0099491E009100992B
:100270000029F3D108BD08B50121102002F0EDFAE4
:100280004CF20300ADF8000010208DF803000320AD
:100290008DF802006946684802F0A4FB08BD10B55D
:1002A00003F05CFC10BDFFF7FAFFFFF7E4FF00F07E
:1002B0004FF962A1684800F0C3F968A1664800F0F0
:1002C000BFF95EA1644800F0BBF908230322114680
:1002D000002000F0D5F94FF4FA60FFF7BDFF0823C6
:1002E00003221146002000F051FA01F0F7FB67E00D
:1002F0000121514802F025FC02214F4802F01FFC69
:100300004FF480414C4802F01AFC4FF400414A4837
:1003100002F015FC41F28830FFF79EFF41F2883071
:10032000FFF79AFF0121444802F009FC02214248EC
:1003300002F007FC4FF480413F4802F000FC4FF40C
:1003400000413D4802F0FBFB41F28830FFF784FF9B
:1003500041F28830FFF780FF0121374802F0EFFBC0
:100360000221354802F0EBFB4FF48041324802F0A5
:10037000E8FB4FF40041304802F0E1FB41F28830E5
:10038000FFF76AFF41F28830FFF766FF01212A4834
:1003900002F0D5FB0221284802F0D1FB4FF4804146
:1003A000254802F0CCFB4FF40041234802F0C9FB82
:1003B00041F28830FFF750FF41F28830FFF74CFFE1
:1003C00096E700B585B09DF8000020F001008DF89B
:1003D00000009DF8000020F01C000C308DF800009B
:1003E00011208DF802009DF8040020F00F00083065
:1003F0008DF80400E0208DF8010011208DF8050033
:1004000022218DF8061033218DF8071011218DF867
:1004100008108DF809108DF80A108DF80B108DF862
:100420000C1001E001F0C4FB0121684601F041FA23
:100430000028F7D105B000BD001001402B2B2B2B5D
:100440002B2B2B2B2B2B2B2B2B2B2B2B2B2B2B2BFC
:100450002B2B2B2B0D0A0000004400402020434191
:100460004E20537475647920426F6172640D0A00E6
:10047000704710B540F225512E4802F0C1FD18B169
:100480002C4802F03DFDC4B240F22771294802F029
:10049000B7FD28B1002240F22771264802F0CBFCBC
:1004A00010BD10B501F02DF910BD00B585B00020CC
:1004B000009001908DF809008DF808008DF80A0071
:1004C0008DF813008DF80B0000218DF80C106A4692
:1004D0000121194803F05FF86946022000F0F8F99D
:1004E00005B000BD00B585B00020009001908DF8EA
:1004F00009008DF808008DF80A008DF813008DF8BA
:100500000B0000218DF80C106A460B4803F043F8ED
:100510000AA10E4800F094F805B000BD00BFFEE748
:1005200000BFFEE700BFFEE700BFFEE77047704771
:1005300070477047004400400068004043414E321D
:1005400020525830204765740D0A000000380140E1
:1005500000B587B00121052002F07FF90121480490
:1005600002F088F90420ADF8180018208DF81B005F
:1005700003208DF81A0006A93F4802F033FA08203C
:10058000ADF8180004208DF81B0003208DF81A0028
:1005900006A9394802F026FA384802F071FB4FF4F8
:1005A000E13002900020ADF80C00ADF80E00ADF87F
:1005B0001000ADF814000C20ADF8120002A92F486D
:1005C00002F0A1FB012240F225512C4802F033FC3D
:1005D000012240F22771294802F02DFC0121274811
:1005E00002F01DFC4021254802F001FD4FF4E060BF
:1005F00001F0AAFE26208DF8040000208DF80600E8
:1006000001208DF8070001A801F0A3FE07B000BD8E
:100610002DE9F04107460D46164600240CE0295D01
:10062000384602F069FC00BF4021384602F0D2FC97
:100630000028F9D0601C84B2B442F0DBBDE8F08140
:100640002DE9F04106460C46204613F0F7FEC7B2EE
:1006500000250CE0615D304602F04EFC00BF4021F9
:10066000304602F0B7FC0028F9D0681CC5B2BD4284
:10067000F0DBBDE8F08100000008014000440040CC
:10068000F0B589B004460D4616461F4601210920E3
:1006900002F0E3F80121480602F0ECF84FF4807014
:1006A000ADF8200048208DF8230003208DF82200AB
:1006B00008A9B04802F096F94FF40070ADF8200098
:1006C00018208DF8230003208DF8220008A9A948DE
:1006D00002F088F901214FF4EA1002F054FA0021E7
:1006E0004FF0006001F067FE14208DF8000000203C
:1006F0008DF801008DF8020001208DF80300684696
:1007000001F027FE9C4802F0BFFC05A802F0E0FDC6
:1007100000208DF81A008DF81B008DF81C008DF854
:100720001D008DF81E008DF81F008DF816008DF845
:1007300017000C208DF8180001208DF819000920F1
:10074000ADF8140005A98C4802F0B7FC00208DF824
:100750000E008DF80F0001208DF810000020ADF87C
:100760000400ADF80600ADF80800ADF80A00ADF8D9
:100770000C0001208DF8110001A802F028FD0122D3
:1007800002217D4803F022F809B0F0BDF0B589B030
:1007900007460C4615461E460121092002F05DF869
:1007A0000121880602F066F84FF48050ADF8200071
:1007B00048208DF8230003208DF8220008A96D48F9
:1007C00002F010F94FF40050ADF8200018208DF819
:1007D000230003208DF8220008A9664802F002F9E0
:1007E00041208DF8000000208DF8010001208DF8D7
:1007F00002008DF80300684601F0ABFD5F4802F08F
:1008000043FC05A802F064FD00208DF81A008DF865
:100810001B008DF81C008DF81D008DF81E008DF852
:100820001F008DF816008DF817708DF818408DF8A0
:100830001950ADF8146005A9504802F03EFC0E2096
:100840008DF80E0000208DF80F0001208DF81000AB
:100850000020ADF80400ADF80600ADF80800ADF8D2
:100860000A000120ADF80C008DF8110001A802F07B
:10087000AEFC01221021414802F0A8FF09B0F0BDF2
:100880002DE9F04105460E460024002700BF314601
:10089000284602F08BFD0746601CC4B2042F01D12C
:1008A000FE2CF4DB0024BDE8F0812DE9F041054683
:1008B0000E461746002407E0325D31A1284613F0AA
:1008C0007FFCED1C601CC4B2BC42F5DBBDE8F081CE
:1008D00030B58FB005460C463C21684613F012FE39
:1008E0002A4629A1684613F06BFC69462748FFF7A2
:1008F000A7FE207AE0B926A16846226813F060FCC2
:1009000069462248FFF79CFEA27A24A1684613F0AC
:1009100057FC69461D48FFF793FE082204F10B01BE
:100920006846FFF7C2FF69461848FFF789FE1BE0DB
:100930001BA16846626813F043FC69461348FFF741
:100940007FFEA27A15A1684613F03AFC69460F486B
:10095000FFF776FE082204F10B016846FFF7A5FFBA
:1009600069460A48FFF76CFE10A10848FFF768FEC9
:100970000FB030BD000C0140006400400068004032
:100980002C2530325800000025640000004400404F
:100990002C53307825303858000000002C25640096
:1009A0002C45307825303858000000000D0A000032
:1009B000FA490978012906D0022905D0032904D073
:1009C000042904D102E003E002E001E000E000BFFE
:1009D00000BF704770B586B0044620780006617885
:1009E00040EA0140A17840EA0120E17840EA0106AE
:1009F000EA480078012806D0022835D0032834D0F0
:100A0000042834D132E00296207900F00F008DF8EE
:100A10000E0000208DF80D0004208DF80C00607988
:100A20008DF80F00A1798DF81010E1798DF8111073
:100A3000217A8DF81210617A8DF81310A17A8DF851
:100A40001410E17A8DF81510217B8DF8161001A98C
:100A5000D34802F0ABFC054600BF2946D04802F05F
:100A60003DFD0028F9D003E002E001E000E000BF16
:100A700000BF06B070BD10B586B00446C748007808
:100A8000012806D0022847D0032847D0042849D19E
:100A900046E00021C24802F001FE00283AD001AA37
:100AA0000021BF4802F077FD0298000E20700298E6
:100AB000000C60700298000AA0700298E0709DF827
:100AC0000E10207961F303002071207900F00F00EF
:100AD000082804DD207920F00F00083020719DF8EF
:100AE0000F0060719DF81010A1719DF81110E17157
:100AF0009DF8121021729DF8131061729DF8141068
:100B0000A1729DF81510E1729DF816102173012055
:100B100006B010BD0020FBE70120F9E70120F7E750
:100B20000120F5E70020F3E7704710B50446207870
:100B300020F002002070207920F0F0002071207950
:100B400000F00F00082804DD207920F00F000830A5
:100B500020712046FFF73EFF10BD10B58F4800788A
:100B6000012806D0022833D0032860D004287DD184
:100B70008EE08C48007818B9FFF7D6FF022010BD30
:100B80001FE0894800788949097801EB0111884AFA
:100B90001144C8708549097801EB01118818FFF7E5
:100BA000C4FF82480078401C8049087008460078DD
:100BB000032801DB002008707A480078401E79493C
:100BC0000870784800780028DBDCFFF7ADFF90E084
:100BD0007848007818B9FFF7A7FF0220CFE71FE099
:100BE000754800787549097801EB0111744A114480
:100BF000C8707249097801EB01118818FFF795FF59
:100C00006E480078401C6D4908700846007803283B
:100C100001DB0020087067480078401E65490870B5
:100C2000644800780028DBDCFFF77EFF61E0654860
:100C3000007818B9FFF778FF0220A0E721E06248AA
:100C400000786249097801EB0111614A1144C870CA
:100C50005E49097801EB01118818FFF766FF5B48D0
:100C60000078401C59490870084600E03FE00078D1
:100C7000032801DB0020087052480078401E5149CB
:100C80000870504800780028D9DCFFF74DFF30E0AD
:100C90005048007818B9FFF747FF02206FE71FE0C0
:100CA0004D4800784D49097801EB01114C4A114437
:100CB000C8704A49097801EB01118818FFF735FF20
:100CC00046480078401C45490870084600780328CB
:100CD00001DB002008703F480078401E3D49087045
:100CE0003C4800780028DBDCFFF71EFF01E0022013
:100CF00045E700BF002042E7F0B504460D46059EDB
:100D000000213848007828B90220364F387038461C
:100D1000867001E00220F0BD3348046080F8F65090
:100D2000A0F8F430002105E0575C2F48001D47541F
:100D3000481C81B29942F7DB00202B4F87F8F9005D
:100D400087F8FB00072093FBF0F087F8FA000720F4
:100D500093FBF0F700FB173030B1234890F8FA000E
:100D6000401C214F87F8FA0040F2E2401E4FA7F8DE
:100D7000F700012087F8FC000020CCE770B586B0B2
:100D800004461A4D77E0D5F80F00002871D11848B5
:100D90008078FF282ED106B070BD00000B00002027
:100DA00000640040150000200C000020130000200B
:100DB000840000201B0000200D00002019000020EE
:100DC000EA000020210000200E0000201F0000206B
:100DD00050010020270000200F00002025000020E7
:100DE000B601002028000020F9020020E9010020BF
:100DF0004000002004F47F40B0F5704F01D306B0EE
:100E000070BD9DF8040020F01C0018308DF804001F
:100E10009DF8040020F001008DF80400E8208DF812
:100E20000500FE48C0788DF806009DF8080020F007
:100E30000F0008308DF80800F94800788DF8070099
:100E400001208DF80900FF218DF80A108DF80B1094
:100E50008DF80C108DF80D108DF80E40210A8DF8CC
:100E60000F10210C8DF8101001A8FFF75EFEC6E7E9
:100E7000FFE7D5F80F50D5F80600A04283D1A87A35
:100E8000E84909788842F9D1D5F80B0010B1D5F8B6
:100E90000B008047A88808287EDDE2480078009093
:100EA000AB882A68DD4EF178D5F80600FFF724FFFD
:100EB000D8B330468078FF2800D1A0E79DF8040021
:100EC00020F01C0018308DF804009DF8040020F07C
:100ED00001008DF80400E8208DF80500CF48C078A7
:100EE0008DF806009DF8080020F00F0008308DF8FE
:100EF0000800CB4800788DF8070002208DF8090023
:100F0000FF218DF80A108DF80B108DF80C108DF85C
:100F10000D108DF80E40210A8DF80F10210C8DF860
:100F2000101001A8FFF701FE69E7FFE79DF8040034
:100F300020F01C0018308DF804009DF8040020F00B
:100F400001008DF80400E8208DF80500B348807892
:100F5000FF2802D18DF8060003E0B048C0788DF874
:100F600006009DF8080020F00F0008308DF80800FA
:100F7000AB4800788DF8070000208DF80900FF21AC
:100F80008DF80A108DF80B108DF80C108DF80D10DF
:100F90008DF80E40210A00E008E08DF80F10210CBA
:100FA0008DF8101001A8FFF7C0FD89E09DF804003E
:100FB00020F01C0018308DF804009DF8040020F08B
:100FC00001008DF80400E8208DF8050094480078B1
:100FD0008DF8070091488078FF2804D004F47F4002
:100FE000B0F5704F03D3FF208DF8060003E08B4867
:100FF000C0788DF806009DF8080020F00F0008303A
:101000008DF80800864800788DF8070000208DF8DC
:101010000900FF218DF80A108DF80B108DF80C10C7
:101020008DF80D108DF80E40210A8DF80F10210C4F
:101030008DF8101001A8FFF778FD9DF8040020F04E
:101040001C0018308DF80400D5F80600000C9DF83F
:10105000041060F300018DF80410E888000A8DF890
:1010600005006F4800788DF807006C488078FF28ED
:1010700002D18DF8060003E06848C0788DF80600BC
:1010800028799DF8081060F303018DF808100020FE
:1010900000BF06E029680A5C0DF109010A54411CF1
:1010A000C8B2A9888142F5DC05E0FF220DF10901F3
:1010B0000A54411CC8B20828F7DB01A8FFF735FD28
:1010C00000BF9CE601464878F02801DB002070470D
:1010D0004878F02804DA8878FF2801D10020F6E764
:1010E00050480078012806D002280FD0032818D0D5
:1010F00004282CD120E04878F02806DA88784A4A7B
:101100001278904201D10020E1E721E04878F028F0
:1011100006DA8878454A1278904201D10020D6E755
:1011200016E04878F02806DA8878414A127890422A
:1011300001D10020CBE70BE04878F02806DA887868
:101140003C4A1278904201D10020C0E700E000BF85
:1011500000BF0220BBE710B500243048FFF78BFC2E
:1011600000286DD02D48FFF7ADFF00B110BD2B4812
:101170004078EA287DD0EB287CD0EC287BD127482A
:10118000007B4FF47F0101EA00412448C07A4FF40C
:101190007F4202EA002001442048807A0C18264849
:1011A000007800286AD1254890F8FC00002865D115
:1011B0001A484079102860D101201F490870194849
:1011C000007848701548C0781C4981F8F60013482B
:1011D000007B110201EA00411048C07A02EA0020B7
:1011E00001440E48807A084414490860084690F883
:1011F000F70018B1032081F8FC007BE20748C079B2
:101200004FF47F4101EA0021044880790844F02826
:1012100017D90320094981F8FC006BE24000002047
:10122000090000200B0000200C0000200D00002011
:101230000E0000200F00002028000020FC010020EC
:101240005CE2FB48C0794FF47F4101EA0021F84895
:1012500080790844F749A1F8F400F548007A81F84C
:10126000FA0040F2E240A1F8F800012081F8FC0009
:1012700040E2C6E054E0F8E000E0F7E0EE48007835
:1012800002284CD1ED480068A04248D1E848407996
:10129000102806D0112805D0132833D0FF283CD1C0
:1012A0003AE03BE0E54890F8FC00022804D0E3482F
:1012B00090F8FC00042824D1DD48807928B940F258
:1012C0001A40DE49A1F8F7001BE0D948C1798079BE
:1012D0000144DA4890F8FA00401C814204DD052000
:1012E000D64981F8FC000CE0D1488079D34981F8D7
:1012F000FB00CF48C079401E81F8F900032081F837
:10130000FC000BE0CD4890F8FC00042803D1062037
:10131000CA4981F8FC0001E000E000BF00BFA5E081
:10132000C44890F8FC0002286AD1C24890F8F60040
:10133000BF49C978884263D1BD4881794079401E50
:10134000C0EBC002BB48001D8154B948C279407946
:10135000401EC0EBC000401CB649091D0A54B448E9
:10136000027A4079401EC0EBC000801C0A54B0488D
:10137000427A4079401EC0EBC000C01C0A54AC4801
:10138000827A4079401EC0EBC000001D0A54A84874
:10139000C27A4079401EC0EBC000401D0A54A448E8
:1013A000027B4079401EC0EBC000801D0A54A0485B
:1013B0004079091F91F8FB10884206DD9D4890F89E
:1013C000FB00401C9B4981F8FB0040F2EE2099494C
:1013D000A1F8F80091F8FB0000EBD0714910A0EBE8
:1013E000410139B1934991F8FB10924A92F8FA20E1
:1013F000914204D101208F4981F8FC007AE179E122
:1014000034E08B488079F02813DA8948C0794FF4AA
:10141000403101EA0041864880794FF47F4202EA78
:10142000002008448249C96860F31F218048C160D8
:1014300015E07F48C0794FF4403101EA00417C4813
:1014400080794FF47F4202EA0020014478484079D5
:1014500001447748C06861F31F207549C86074492A
:10146000C968080AFFF78AFC44E100BF7048407869
:10147000F02815DA6E480078C0F3400040046C494B
:10148000097801F0010100EB01406949497800EB5E
:1014900001216748C06861F31F206549C86017E0F3
:1014A00063480078C0F3400040046149097801F0C6
:1014B000010100EB01405E49497800EB01205C49E5
:1014C000897801445A48C06861F31F205849C860B0
:1014D0005B480078012806D002283DD0032876D04A
:1014E000042873D1CAE05748007803282CDA5548FD
:1014F0000078032810DA53480078401C51490870DE
:1015000051480078401C504908700846007803286C
:101510000FDB002008700CE04C48007820F0100031
:1015200010304A4908700846007820F00E00801CF0
:1015300008704549097801EB0111454A88181122C4
:101540003B4912F09AFF06E04048007820F0200066
:1015500020303E490870CBE03E48007803282CDA62
:101560003C480078032810DA3A480078401C394992
:10157000087039480078401C3749087008460078E0
:1015800003280FDB002008700CE03048007820F0C2
:10159000100010302D4908700846007820F00E0029
:1015A000001D08702C49097801EB01112B4A88189D
:1015B00011221F4912F061FF06E02448007820F054
:1015C000200020302149087092E000E08FE024489C
:1015D000007803284ADA22480078032810DA2048E5
:1015E0000078401C1E4908701E480078401C1D49A8
:1015F00008700846007803280FDB002008700CE014
:101600001248007820F01000103010490870084689
:10161000007820F00E00801D08701249097801EB57
:101620000111114A88181122014912F026FF24E005
:1016300040000020FC01002028000020F9020020CA
:101640000B00002012000020110000200A000020E2
:10165000510000201800002017000020B7000020D3
:101660001E0000201D0000201D010020FA48007807
:1016700020F020002030F849087039E0F748007861
:1016800003282CDAF5480078032810DAF3480078AC
:10169000401CF2490870F2480078401CF04908707C
:1016A0000846007803280FDB002008700CE0EA48A9
:1016B000007820F010001030E749087008460078E4
:1016C00020F00E0008300870E549097801EB01119F
:1016D000E44A88181122E44912F0CFFE06E0DE4801
:1016E000007820F020002030DB49087000E000BFC7
:1016F00000BF00BF00BFDC4812F041FC00BF35E571
:10170000704710B5FFF7FCFFFFF725FDFFF725FA3F
:1017100000F0E7FC10BD10B5FFF7F3FF10BD7047F8
:101720007047142001218140D04A430942F8231018
:1017300000BF704700B50246CD480078012806D0AA
:10174000022807D0032808D004280CD108E0C94893
:10175000027009E0C848027006E0C848027003E061
:10176000C748027000E000BF00BF1046FFF720F935
:1017700000BD70B505460C460026FFF7D0FF012CD2
:1017800006D0022C24D0032C42D0042C7ED15FE062
:10179000BC48007808B9012619E0BB48007800EB86
:1017A0000010BA4A81181122284612F066FEB64887
:1017B0000078401CB449087008460078032801DB13
:1017C00000200870AF480078401EAE49087063E002
:1017D000AF48007808B9012619E0AE48007800EB60
:1017E0000010AD4A81181122284612F046FEA94881
:1017F0000078401CA749087008460078032801DBE0
:1018000000200870A2480078401EA149087043E0FB
:10181000A248007808B9012619E0A148007800EB39
:101820000010A04A81181122284612F026FE9C487A
:101830000078401C9A49087008460078032801DBAC
:101840000020087095480078401E9449087023E0F5
:101850008248007808B901261BE09348007800EB25
:101860000010804A81181122284612F006FE8E4888
:101870000078401C8C49087008460078032801DB7A
:101880000020087075480078401E00E002E07349AF
:10189000087001E0022600BF00BFFFF73CFF3046A2
:1018A00070BD70B504460D4629462046FFF761FF1E
:1018B00070BD70B504460D460026FFF731FF012DBF
:1018C00006D0022D31D0032D5CD0042D73D187E0DA
:1018D00076480078032826DA74480078032810DA5E
:1018E00072480078401C7149087071480078401CAB
:1018F0006F49087008460078032809DB002008704B
:1019000006E05548007820F00100401C524908705C
:101910006749097801EB0111664A881811222146AE
:1019200012F0ABFD00E0012688E063480078032850
:1019300026DA61480078032810DA5F480078401CF6
:101940005D4908705D480078401C5C490870084695
:101950000078032809DB0020087006E03E48007884
:1019600020F00100401C3C4908705449097801EB03
:101970000111534A88181122214612F07EFD00E021
:1019800001265BE04F480078032827DA4D480078AD
:10199000032811DA4B480078401C4A4908704A482D
:1019A0000078401C484908700846007803280ADB84
:1019B0000020087007E040E02748007820F0010090
:1019C000401C254908704049097801EB01113F4A44
:1019D00088181122214612F050FD00E001262DE06A
:1019E0003B480078032826DA39480078032810DAC3
:1019F00037480078401C3649087036480078401C4B
:101A00003449087008460078032809DB0020087074
:101A100006E01148007820F00100401C0E490870D3
:101A20002C49097801EB01112B4A88181122214613
:101A300012F023FD00E0012600E000BF00BFFFF729
:101A400060FE304670BD70B504460D4629462046FE
:101A5000FFF72FFF70BD00000A00002024000020C7
:101A600023000020830100204000002000E200E06D
:101A70000B0000200C0000200D0000200E000020B4
:101A80000F00002012000020100000205100002054
:101A90001800002016000020B70000201E000020C3
:101AA0001C0000201D010020220000201500002045
:101AB00014000020840000201B0000201A000020D9
:101AC000EA0000202100002020000020500100201A
:101AD0002700002026000020B60100200020FB493E
:101AE0000870FB490870FB490870FB490870FB4906
:101AF0000870FF20FA490870FA490870FA4908701E
:101B0000FA4908700020FA490870FA490870FA4941
:101B10000870FA490870FF20F9490870F9490870FF
:101B2000F9490870F94908700020F9490870F94925
:101B30000870F9490870F9490870F9490870F949BD
:101B40000870F9490870F94908704020F849087090
:101B5000F420F8490870F720F74908700020F74989
:101B600008700120F64908700020F649C1F8060007
:101B70000860C1F80B0088808872C1F80F00F24934
:101B8000087048708870F14981F8FB0081F8FA000C
:101B900081F8F900A1F8F70081F8FC00EC4981F820
:101BA000FB0081F8FA00A1F8F80081F8FC0070470A
:101BB000704730B585B000249DF8000020F01C006F
:101BC0001C308DF800009DF8000020F001008DF819
:101BD0000000EB208DF80100DC4890F8F6008DF84D
:101BE00002009DF8040020F00F0008308DF804007A
:101BF000D64890F8FB0000285ADDD44890F8FB0046
:101C0000401ED24981F8FB00084690F8F900C0EB6D
:101C1000C005084690F8F900401CC0B28DF80500D8
:101C200000BF08E02919C948001D425C0DF10500FC
:101C3000611C4254641C072CF4DBC44890F8F91072
:101C400090F8FA00401E814222D1C048B0F8F4005A
:101C5000C01FA8420EDABD48B0F8F400401BC41FF4
:101C600006E0FF220DF1050004F108014254641C56
:101C7000002CF6DB0020B54981F8FB0081F8F90063
:101C800040F2E240A1F8F700042081F8FC0009E0EE
:101C9000AE4890F8F900401CAC4981F8F9000320E7
:101CA00081F8FC00A64801786846FFF702FE0CE0C8
:101CB0000020A64981F8FB0081F8F90040F2E240DB
:101CC000A1F8F700042081F8FC0005B030BD10B584
:101CD00086B09E4804689DF8040020F01C001C306B
:101CE0008DF804009DF8040020F001008DF8040038
:101CF000EC208DF80500954890F8F6008DF8060068
:101D00009DF8080020F00F0008308DF80800102022
:101D10008DF809008D4890F8F4108DF80A10B0F88D
:101D2000F40001128DF80B10884890F8FA108DF825
:101D30000C10FF218DF80D10210C8DF81010210AC8
:101D40008DF80F108DF80E407D48017801A8FFF73F
:101D5000B0FD40F2E2407D49A1F8F700022081F891
:101D6000FC0006B010BD10B586B0784804689DF838
:101D7000040020F01C001C308DF804009DF80400C5
:101D800020F001008DF80400EC208DF805006F486C
:101D900090F8F6008DF806009DF8080020F00F007E
:101DA00008308DF80800FF208DF80900FF218DF81C
:101DB0000A108DF80B108DF80C108DF80D10210CF9
:101DC0008DF81010210A8DF80F108DF80E405C4828
:101DD000017801A8FFF76DFD06205C4981F8FC0041
:101DE00006B010BD10B586B0594804689DF80400CF
:101DF00020F01C001C308DF804009DF8040020F039
:101E000001008DF80400EC208DF80500504890F892
:101E1000F6008DF806009DF8080020F00F0008304D
:101E20008DF80800FF208DF80900FF218DF80A10B9
:101E30008DF80B108DF80C108DF80D10210C8DF80D
:101E40001010210A8DF80F108DF80E403C480178D3
:101E500001A8FFF72EFD04203D4981F8FC0006B0E3
:101E600010BD0146394890F8FC00022804D03748DC
:101E700090F8FC00042813D13448B0F8F7008842E9
:101E800008DD3248B0F8F700401A304AA2F8F700EF
:101E90000020704700202D4AA2F8F7000120F8E743
:101EA0000020F6E701462A4890F8FC00022857D1A6
:101EB0002748B0F8F80088424CDD2548B0F8F80013
:101EC000401A234AA2F8F800002070470A000020B8
:101ED00013000020190000201F0000202500002012
:101EE000140000201A0000202000002026000020FE
:101EF00010000020160000201C00002022000020FE
:101F000011000020170000201D00002023000020E9
:101F1000150000201B0000202100002027000020C9
:101F200012000020180000201E00002024000020C5
:101F30000C0000200D0000200E0000200F000020EB
:101F40000B000020E901002028000020F9020020F9
:101F5000FC0100200020F74AA2F8F8000120704799
:101F60000020FCE710B586B0F24804689DF8040034
:101F700020F01C001C308DF804009DF8040020F0B7
:101F800001008DF80400EC208DF80500E94890F878
:101F9000F6008DF806009DF8080020F00F000830CC
:101FA0008DF80800E34890F8F700D8B111208DF8BB
:101FB000090000218DF80A10FF218DF80B108DF813
:101FC0000C108DF80D10210C8DF81010210A8DF8D1
:101FD0000F108DF80E40D848017801A8FFF769FC72
:101FE00006B010BDD34890F8FA00D24991F8FB1022
:101FF00088424EDDCF4890F8FA00CE4991F8FB10A8
:10200000401A012821D111208DF8090001218DF8F5
:102010000A10C84890F8FA108DF80B10FF218DF8BF
:102020000C108DF80D10210C8DF81010210A8DF870
:102030000F108DF80E40C048017801A8FFF739FC59
:102040000220BC4981F8FC00CAE711208DF8090084
:1020500002218DF80A10B74890F8FB00401CC1B26D
:102060008DF80B10FF218DF80C108DF80D10210C40
:102070008DF81010210A8DF80F108DF80E40AE4823
:10208000017801A8FFF715FC0220AA4981F8FC009D
:10209000A6E713208DF80900A64890F8F4108DF8F3
:1020A0000A10B0F8F400010A8DF80B10A14890F85E
:1020B000FA108DF80C10FF218DF80D10210C8DF801
:1020C0001010210A8DF80F108DF80E409A480178F3
:1020D00001A8FFF7EEFB0420964981F8FC0000BF41
:1020E0007EE710B59548007818B194480078032829
:1020F00000D110BD91480078012834D18F48407834
:102100008D4908708B4890F8FC00052828D2DFE83C
:1021100000F003040711170023E0FFF723FF20E07E
:102120000A20FFF7BFFE012803D10320814981F86F
:10213000FC0016E0FFF756FE00208049487010E0D2
:1021400000207C4981F8FB0081F8FA0040F2E2406F
:10215000A1F8F800002081F8FC007849087000E040
:1021600000BF00BFC5E77548007802283FD173481B
:10217000807871490870724890F8FC00072833D2C3
:10218000DFE800F004050812151F22002DE0FFF71C
:102190009EFD2AE00A20FFF764FE012803D10520F6
:1021A000674981F8FC0020E0FFF703FD1DE00A20ED
:1021B000FFF757FE012803D10520614981F8FC0093
:1021C00013E0FFF7D0FD10E000205D4981F8FB002F
:1021D00081F8F90040F2E240A1F8F700002081F810
:1021E000FC005649087000E000BF00BF81E700BF57
:1021F0007FE710B502460B4600215048007830B901
:102200004C48006818B103204C4C207001E00220BB
:1022100010BD4A484078984208D0484800780328C2
:1022200002D10020454C20700220F1E79088414CFB
:10223000B4F8F440A04201DA0220E9E7002106E008
:102240003C48001D405C14686054481C81B2908872
:102250008842F5DC374890F8F60090713548B0F8C0
:10226000F400A2F8070033480068C2F80900002013
:10227000304CA4F8F400206030480078032802D1E4
:1022800000202E4C20700020C2E770B586B00446B6
:102290000D4616469DF8040020F001008DF804005C
:1022A0009DF8040020F01C0018308DF804008DF813
:1022B00006509DF8080020F00F00C01C8DF80800A3
:1022C000EA208DF80500E0B28DF80900210A8DF8AA
:1022D0000A10210C8DF80B1000BF314601A8FFF742
:1022E000E8FA0028F9D106B070BD2DE9F04705469F
:1022F0000E4617469846DDF82090124C01E0D4F8BF
:102300000F40D4F80F000028F9D1132011F028FF56
:10231000C4F80F00D4F80F402560A680C4F80670FA
:10232000C4F80B8084F80A900020C4F80F00BDE8C0
:10233000F0870000FC0100200B0000202800002096
:10234000F9020020E901002031490143314A1160BE
:10235000704770B5002100230F22C47804B32D4CC0
:10236000246804F4E064C4F5E064210AC1F10403C4
:10237000CA40447804FA03F18478144021430901E7
:10238000254C0678A155047804F01F050124AC40C3
:1023900005786D11AD0005F1E025C5F8004109E0B3
:1023A000047804F01F050124AC401C4D067876111A
:1023B00045F8264070BD1A4A0A400243154B1B1FC0
:1023C0001A60704739B1134A121D12680243114B4B
:1023D0001B1D1A6006E00F4A121D126882430D4B46
:1023E0001B1D1A607047042808D14FF0E0210969CD
:1023F00041F004014FF0E022116107E04FF0E021CD
:10240000096921F004014FF0E022116170470000DA
:102410000000FA050CED00E000E400E080E100E0DF
:1024200080FFFF1FFB48006840F00100F949086089
:1024300008464068F8490840F64948600846006880
:10244000F6490840F34908600846006820F48020F7
:1024500008600846406820F4FE00486008460068AE
:1024600020F0A05008604FF47F0088600020C86210
:102470007047E849096821F48031E64A1160114645
:10248000096821F480211160B0F5803F03D0B0F5D8
:10249000802F0ED106E0DF49096841F48031DD4A22
:1024A000116007E0DB49096841F4A021D94A1160B5
:1024B00000E000BF00BF704710B5014600220023B6
:1024C00000204A11012A02D1D24C236806E0022AD8
:1024D00002D1D04C236A01E0CE4C636A01F01F02A6
:1024E000012494401C400CB1012000E0002010BDEC
:1024F00038B5002000900024002500BF3120FFF7F0
:10250000DBFF05460098401C00900098B0F5A06FD6
:1025100001D0002DF2D03120FFF7CEFF08B1012409
:1025200000E00024204638BD01460020B94A10686A
:1025300020F0F80040EAC10010607047B849086018
:10254000704702460020B34B586820F4741042EAEA
:1025500001031843AF4B58607047B1490866704794
:1025600002460020AB4BD86AAE4B184042EA01034A
:102570001843A84BD862704701460020A54AD06A8C
:1025800020F0F0000843D062704701460020A14AC5
:10259000D06A20F470600843D0627047A049886612
:1025A0007047014600209B4AD06A20F470400843DF
:1025B000D06270479A490867704701460020954AE3
:1025C000506820F00300084350607047914840680D
:1025D00000F00C007047014600208E4A506820F041
:1025E000F00008435060704701460020894A506857
:1025F00020F4E06008435060704701460020854A9F
:10260000506820F4605040EAC1005060704729B122
:10261000804A527A02437F4B5A7204E07D4A527AD2
:1026200082437C4B5A7270477D49D83108607047AD
:1026300001460020774A506820F44040084350602B
:1026400070477949086070477749091D08607047ED
:102650000021704A203211706E4A82F82010012841
:1026600002D004280AD104E001216A4A2032117004
:1026700005E00521674A2032117000E000BF00BF6D
:1026800070476A49086070476249096A0143614AB4
:102690001162704765494439086070472DE9F0417F
:1026A00000210022002500230026002400278C465C
:1026B000DFF86081D8F8048008F00C0121B104290A
:1026C00007D0082959D109E0DFF86481C0F80080FB
:1026D00058E0DFF85C81C0F8008053E0DFF8348117
:1026E000D8F8048008F47012DFF82881D8F8048044
:1026F00008F48035920C0D2A01D0921C00E00622CD
:1027000035B9DFF8308102FB08F8C0F8008033E00B
:10271000DFF80081D8F82C8008F48036DFF8F480E8
:10272000D8F82C8008F00F0808F1010446B9DFF84A
:102730000081B8FBF4F808FB02F8C0F800801BE049
:10274000DFF8D080D8F82C80C8F3031808F101070F
:10275000DFF8C080D8F82C80C8F3032808F1020CF9
:10276000DFF8CC80B8FBF7F808FB0CF8B8FBF4F8FE
:1027700008FB02F8C0F8008004E0DFF8B480C0F87D
:10278000008000BF00BFDFF88C80D8F8048008F01C
:10279000F0010909DFF8A08018F80130D0F80080B6
:1027A00028FA03F8C0F80480DFF86880D8F80480BD
:1027B00008F4E061090ADFF8808018F80130D0F8E9
:1027C000048028FA03F8C0F80880DFF84880D8F8B9
:1027D000048008F46051C90ADFF85C8018F8013001
:1027E000D0F8048028FA03F8C0F80C80DFF82480C1
:1027F000D8F8048008F44041890BDFF8408018F8CD
:102800000130D0F80C80B8FBF3F8C0F81080BDE8B8
:10281000F0810000001002400000FFF0FFFFF6FE14
:1028200000004242F0FFFEFFC405424280044242E3
:1028300000127A0000093D002B0000203B00002020
:1028400029B1354A52690243334B5A6104E0324A96
:1028500052698243304B5A61704729B12E4A9269BE
:1028600002432D4B9A6104E02B4A926982432A4B22
:102870009A61704729B1284AD2690243264BDA612E
:1028800004E0254AD2698243234BDA61704729B1BB
:10289000214A926A0243204B9A6204E01E4A926ADD
:1028A00082431D4B9A62704729B11B4AD26802438A
:1028B000194BDA6004E0184AD2688243164BDA609A
:1028C000704729B1144A12690243134B1A6104E09C
:1028D000114A12698243104B1A6170470F49086010
:1028E00070470F49C86470470B49C87170470A4860
:1028F000406A40F0807008494862704701460020F5
:10290000054A92680A400AB1012000E000207047A1
:1029100001498872704700000010024040044242A2
:102920000000424210B50446CC48844208D101213F
:102930000420FFF7B9FF00210420FFF7B5FF46E0B0
:10294000C748844208D101210820FFF7ADFF0021CC
:102950000820FFF7A9FF3AE0C248844208D10121CC
:102960001020FFF7A1FF00211020FFF79DFF2EE0B0
:10297000BD48844208D101212020FFF795FF0021A6
:102980002020FFF791FF22E0B848844208D10121BE
:102990004020FFF789FF00214020FFF785FF16E068
:1029A000B348844208D101218020FFF77DFF002138
:1029B0008020FFF779FF0AE0AE48844207D1012169
:1029C0008015FFF771FF0021A015FFF76DFF10BD07
:1029D00010B501210846FFF767FF00210120FFF72E
:1029E00063FF10BD2DE9F0410246002500260020BE
:1029F00000230024002791F803C00CF00F0591F884
:102A000003C00CF0100CBCF1000F03D091F802C011
:102A10004CEA050591F800C0BCF1000F31D01468F4
:102A200000202BE04FF0010C0CFA00F3B1F800C0CD
:102A30000CEA03069E4220D183004FF00F0C0CFAE3
:102A400003F7BC4305FA03FC4CEA040491F803C005
:102A5000BCF1280F06D14FF0010C0CFA00FCC2F8B3
:102A600014C00AE091F803C0BCF1480F05D14FF043
:102A7000010C0CFA00FCC2F810C0401C0828D1D38D
:102A80001460B1F800C0BCF1FF0F34DD54680020C1
:102A90002EE000F1080C4FF0010808FA0CF3B1F831
:102AA00000C00CEA03069E4221D183004FF00F0CB8
:102AB0000CFA03F7BC4305FA03FC4CEA040491F852
:102AC00003C0BCF1280F05D100F1080C08FA0CF87E
:102AD000C2F8148091F803C0BCF1480F07D100F18F
:102AE000080C4FF0010808FA0CF8C2F81080401CDE
:102AF0000828CED35460BDE8F0814FF6FF71018005
:102B0000022181700421C170704702460020936841
:102B10000B400BB1012000E000207047014688689F
:102B200080B2704702460020D3680B400BB10120F1
:102B300000E0002070470146C86880B2704701611C
:102B40007047416170470AB1016100E0416170471F
:102B5000C16070474FF480320A43826181618261B3
:102B600082698269704702460020434B18684FF61D
:102B70008073184040EA021008433F4B18607047CA
:102B80003E49C8617047F0B50A4600230024002181
:102B9000002500F00046B6F1004F02D1364EF16933
:102BA00001E0354E7168C0F3034583B200F440166E
:102BB000B6F5401F08D121F070612F4E766826F0DF
:102BC00070662D4F7E6012E000F48016B6F5801F0F
:102BD00006D1032606FA05F4A14341F0706106E030
:102BE000460D360103FA06F6B14341F0706122B199
:102BF000460D360103FA06F6314300F00046B6F101
:102C0000004F02D11C4EF16101E01B4E7160F0BD1E
:102C100030B500228B071C0F0F2303FA04F2164B6A
:102C200008338C1053F824309343134C08348D1020
:102C300044F8253023468C1053F824308C07240F99
:102C400000FA04F423430C4C08348D1044F825306A
:102C500030BD0A49DC3108607047000000080140BF
:102C6000000C014000100140001401400018014018
:102C7000001C0140002001400000014000002042F3
:102C800010B50446FB48844209D101218803FFF7AF
:102C90000BFE00214FF48040FFF706FE32E0F648BD
:102CA000844209D101214804FFF70BFE00214FF4B3
:102CB0000030FFF706FE25E0F048844209D10121EB
:102CC0008804FFF7FEFD00214FF48020FFF7F9FD97
:102CD00018E0EB48844209D10121C804FFF7F1FD57
:102CE00000214FF40020FFF7ECFD0BE0E5488442A3
:102CF00008D101210805FFF7E4FD00214FF4801001
:102D0000FFF7DFFD10BD2DE9F04786B005460E4602
:102D10000024A24600BFA1460027B08900B100BF31
:102D20002F462C8A4CF6FF700440F08804432C8216
:102D3000AC894EF6F3100440B0883189084371899C
:102D400008430443AC81AC8A4FF6FF400440B0898D
:102D50000443AC8201A8FFF7A1FCC648874202D118
:102D6000DDF810A001E0DDF80CA0A88900F4004017
:102D700040B10AEBCA0000EB0A1031684900B0FB11
:102D8000F1F807E00AEBCA0000EB0A10316889008D
:102D9000B0FBF1F86420B8FBF0F0040120096421D5
:102DA00001FB1089A88900F4004040B1322000EBFB
:102DB000C900B0FBF1F000F00700044308E0322046
:102DC00000EB09106421B0FBF1F000F00F000443A8
:102DD0002C8106B0BDE8F0874FF416510160002148
:102DE0008180C18001810C21418100218181704756
:102DF00010B502460020108A4FF2FF0318400B88DE
:102E00004C8823438C882343CC8823431843108267
:102E100010BD0021018041808180C180704721B1B7
:102E2000828942F40052828104E082894DF6FF7368
:102E30001A4082817047F0B5034600240026002521
:102E4000002040F66A17B94200D100BF1846C1F30E
:102E5000421401F01F06012707FA06F5012C01D1E3
:102E60000C3004E0022C01D1103000E014301AB113
:102E700007682F43076002E00768AF430760F0BDB3
:102E80001AB1838A0B43838202E0838A8B43838255
:102E90007047028A4FF6F0731A400282028A0A4390
:102EA0000282704782894FF2FF731A4082818289C1
:102EB0000A438281704721B1828942F002028281F5
:102EC00004E082894FF6FD731A4082817047028ABE
:102ED0004FF6DF731A400282028A0A430282704769
:102EE00021B1028A42F48042028204E0028A4BF657
:102EF000FF731A4002827047C1F308028280704754
:102F000001468888C0F308007047818941F00101BB
:102F100081817047028BD2B20283028B42EA012286
:102F200002837047028B02F47F420283028B0A43C2
:102F30000283704721B1828A42F02002828204E03B
:102F4000828A4FF6DF731A408282704721B1828AEB
:102F500042F01002828204E0828A4FF6EF731A4038
:102F60008282704721B1828A42F00802828204E0A4
:102F7000828A4FF6F7731A408282704721B18289A4
:102F800042F40042828103E08289C2F30E02828110
:102F9000704721B1828A42F40062828204E0828A10
:102FA0004FF2FF731A4082827047828A4FF6FB739A
:102FB0001A408282828A0A438282704721B1828AC1
:102FC00042F00202828204E0828A4FF6FD731A40C8
:102FD0008282704702460020B1F5007F00D100BF19
:102FE00013880B400BB1012000E00020704701F472
:102FF0000072B2F5007F00D100BFCA430280704763
:1030000070B50246002400230025002040F66A1611
:10301000B14200D100BFC1F3421501F01F030126E8
:1030200006FA03F3012D02D19689334006E0022D02
:1030300002D1168A334001E0968A33400C120126F1
:1030400006FA04F41688344013B10CB1012000E0F4
:10305000002070BD10B50022002340F66A14A14282
:1030600000D100BF0A1201249440A3B2DC430480C3
:1030700010BD0000003801400044004000480040FE
:10308000004C00400050004010B50446FE48844209
:1030900009D101214806FFF714FC00214FF0007010
:1030A000FFF70FFC08E001218806FFF70AFC00216A
:1030B0004FF08060FFF705FC10BD30B502460020E0
:1030C0000023146824F002041460146844F001041E
:1030D000146000E05B1C546804F001041CB94FF656
:1030E000FF74A342F6D1546804F001040CB9002027
:1030F0006CE08C79012C04D1146844F080041460D5
:1031000003E0146824F080041460CC79012C04D10D
:10311000146844F04004146003E0146824F0400490
:1031200014600C7A012C04D1146844F0200414605B
:1031300003E0146824F0200414604C7A012C04D1BC
:10314000146844F01004146003E0146824F01004C0
:1031500014608C7A012C04D1146844F008041460C3
:1031600003E0146824F008041460CC7A012C04D124
:10317000146844F00404146003E0146824F00404A8
:1031800014608C78A407CD7844EA05640D7944EA8C
:1031900005444D7944EA05540D886D1E2C43D461D5
:1031A000146824F001041460002300E05B1C5468E0
:1031B00004F001041CB14FF6FF74A342F6D1546829
:1031C00004F001040CB1002000E0012030BD10B576
:1031D0000021837A012202FA03F1AC4A126842F01C
:1031E0000102AA4B1A60A94A1C3212688A43A74BF3
:1031F0001C331A60027BCAB9A44A0C3212688A4393
:10320000A24B0C331A604288C38842EA03439F4AA8
:103210004032847A42F834300288838842EA034399
:103220009A4A4032847A02EBC4025360027B012A3C
:1032300019D1964A0C3212680A43944B0C331A6027
:103240004288038842EA0343904A4032847A42F833
:103250003430C288838842EA03438C4A4032847AFD
:1032600002EBC4025360C27A3AB9884A121D12684E
:103270008A43864B1B1D1A6006E0844A121D1268A1
:103280000A43824B1B1D1A60028932B97F4A1432ED
:1032900012688A437D4B14331A600289012A06D1D1
:1032A0007A4A143212680A43784B14331A60427B0C
:1032B000012A06D1754A1C3212680A43734B1C332B
:1032C0001A60724A126822F00102704B1A6010BD37
:1032D00000218171C171017241728172C17281706C
:1032E000C1700321017102214171012101807047E8
:1032F0006649096841F00101644A11601146096894
:1033000043F60E729143614A11601146096841EA21
:10331000002111601146096821F001011160704718
:1033200021B1026842F48032026003E0026822F4B4
:10333000803202607047E1B1026842F080020260B0
:103340004FF4C272125842F480734FF4C272135099
:103350004FF4CA72125842F480734FF4CA72135079
:103360004FF4D272125842F480734FF4D272135059
:103370001BE0026822F0800202604FF4C272125811
:1033800022F480734FF4C27213504FF4CA72125871
:1033900022F480734FF4CA7213504FF4D272125851
:1033A00022F480734FF4D2721350704710B5024666
:1033B0000020936803F08063B3F1806F00D110E0C8
:1033C000936803F00063B3F1006F01D1012008E0BE
:1033D000936803F08053B3F1805F01D1022000E0D5
:1033E0000420042879D002F5C07303EB00131B6896
:1033F00003F0010402F5C07303EB00131C600B7AA9
:103400007BB94B7A0C8843EA445302F5C07404EB51
:1034100000142468234302F5C07404EB00142360F5
:1034200010E00B7A4C6843EAC4034C7A234302F55C
:10343000C07404EB00142468234302F5C07404EB49
:10344000001423608B7A03F00F038B7202F5C073B4
:1034500003EB00135B6823F00F0402F5C07303EB6A
:1034600000135C6002F5C07303EB00135B688C7A99
:10347000234302F5C07404EB001463608B7B1C06CD
:103480004B7B44EA034403E00064004000660040D4
:103490000B7B44EA0323CC7A234302F5C07404EB8C
:1034A0000014A3608B7C1C064B7C44EA03440B7C19
:1034B00044EA0323CC7B234302F5C07404EB0014DD
:1034C000E36002F5C07303EB00131B6843F00104D3
:1034D00002F5C07303EB00131C6010BD10B502466B
:1034E000002321B1012907D002290FD109E09068FA
:1034F000F94C00EA04030BE09068F84C00EA04037E
:1035000006E09068F64C00EA040301E0002300BFE7
:1035100000BFF44C181BA34216D007DC83B16FF038
:103520008060184470B1022818D111E0B0F5007F16
:1035300010D0ED4C204448B1B0F5003F0ED10BE067
:1035400002230DE000230BE0002309E0002307E045
:10355000012305E0012303E0012301E0002300BF74
:1035600000BFD8B210BD21B1012907D002290FD167
:1035700009E0826842F0800282600AE0826842F4D8
:103580000042826005E0826842F40002826000E04E
:1035900000BF00BF704710B500F5D87303EB0113EF
:1035A0001B6803F004031372137A53B900F5D87340
:1035B00003EB01131B6840F2FF7404EA53531360DA
:1035C00009E000F5D87303EB01131B686FF060444A
:1035D00004EAD303536000F5D87303EB01131B68AF
:1035E00003F00203537200F5D87303EB01135B6819
:1035F00003F00F03937200F5D87303EB01135B68BC
:103600001B0AD37400F5D87303EB01139B68D372C4
:1036100000F5D87303EB01139B681C0A147300F5C3
:10362000D87303EB01139B681C0C547300F5D8731B
:1036300003EB01139B681B0E937300F5D87303EB28
:103640000113DB68D37300F5D87303EB0113DB6858
:103650001C0A147400F5D87303EB0113DB681C0C0F
:10366000547400F5D87303EB0113DB681B0E9374DD
:1036700021B9C36843F02003C36003E0036943F04A
:103680002003036110BD21B9C26842F02002C2606C
:1036900003E0026942F02002026170470246002006
:1036A00019B9D36803F0030006E0012903D11369B7
:1036B00003F0030000E00020704710B502460B46FF
:1036C00000204FF6FF71BBB9146824F0020444F0E7
:1036D0000104146000E0491E546804F00304012C46
:1036E00001D00029F7D1546804F00304012C01D063
:1036F000002032E0012030E0012B13D1146824F0C7
:103700000304146000E0491E546804F003040CB183
:103710000029F8D1546804F003040CB100201CE027
:1037200001201AE0022B17D1146824F0010444F0A0
:103730000204146000E0491E546804F00304022CE3
:1037400001D00029F7D1546804F00304022C01D001
:10375000002002E0012000E0002010BD0146002012
:103760000A6822F0010242F002020A604A6802F08E
:103770000302022A00D10120704701464FF6FF7272
:1037800000200B6823F002030B6000E0521E4B6820
:1037900003F00203022B01D1002AF7D14B6803F09A
:1037A0000203022B00D001207047014600208A69E5
:1037B00002F070007047014600208A69100E7047C1
:1037C000014600208A69C2F3074070471AB1436975
:1037D0000B43436102E043698B434361704710B57B
:1037E0000246002001F4700343B19369C1F313044E
:1037F00023400BB101202DE000202BE001F080736D
:1038000043B15368C1F3130423400BB1012021E0FD
:1038100000201FE001F0006343B19368C1F313047B
:1038200023400BB1012015E0002013E001F00073EC
:1038300043B1D368C1F3130423400BB1012009E065
:10384000002007E01369C1F3130423400BB10120EA
:1038500000E0002010BD0022244B994202D1002339
:10386000836111E0C1F3130201F000730BB1C26078
:103870000AE001F080630BB1026105E001F0006332
:103880000BB1826000E0426070470246002002EA0D
:1038900001030BB1012000E00020704770B5044621
:1038A0000D46002660692840002872D0B5F5807F5B
:1038B00069D01DDC082D42D006DC012D2DD0022D53
:1038C00031D0042D7FD134E0102D3ED0202D42D0B8
:1038D000402D78D145E000000300000400030008FB
:1038E00000000310000100080001FFF77000F03035
:1038F000B5F5004F61D009DCB5F5007F4AD0B5F5CC
:10390000806F4DD0B5F5006F5DD150E0B5F5803FCB
:103910002DD0B5F5003F56D12FE0A0685549FFF7EF
:10392000B4FF064651E0E0680321FFF7AEFF06460C
:103930004BE0E0680821FFF7A8FF064645E0E06895
:103940001021FFF7A2FF06463FE020690321FFF7A1
:103950009CFF064639E020690821FFF796FF0646DE
:1039600033E020691021FFF790FF06462DE06068E4
:103970000821FFF78AFF064627E060681021FFF75D
:1039800084FF064621E0A0690121FFF77EFF06467D
:103990001BE01BE0A0690221FFF777FF064614E059
:1039A000A0690421FFF771FF06460EE00BE0A06955
:1039B0007021FFF76AFF064607E060680421FFF701
:1039C00064FF064601E0002600BF00E00026304606
:1039D00070BDB1F5007F3AD00FDC202928D006DC7D
:1039E00001291CD004291DD0082940D11DE04029FF
:1039F00021D0B1F5807F3AD126E0B1F5004F31D02A
:103A000006DCB1F5806F25D0B1F5006F2FD124E031
:103A1000B1F5803F12D0B1F5003F28D111E0154A31
:103A2000826025E00822C26022E01022C2601FE00E
:103A3000082202611CE01022026119E008224260A3
:103A400016E01022426013E00422426010E00422DB
:103A500042600DE0042242600AE0002282610422FA
:103A6000426005E0002282610422426000E000BF63
:103A700000BF7047010101000CB5002001900090CB
:103A80004748006840F480304549086000BF44481A
:103A9000006800F4003000900198401C01900098EC
:103AA00018B90198B0F5A06FF1D13D48006800F455
:103AB000003010B10120009001E00020009000983B
:103AC000012844D13748006840F0100035490860AB
:103AD0000846006820F0030008600846006840F0CF
:103AE000020008602E4840682D494860084640683A
:103AF00048600846406840F4806048600846406876
:103B000020F47C1048600846406840F4E8104860A3
:103B10000846006840F08070086000BF20480068D8
:103B200000F000700028F9D01D48406820F0030024
:103B30001B4948600846406840F00200486000BFEA
:103B40001748406800F00C000828F9D101E000BFD8
:103B5000FEE70CBD10B5FFF78FFF10BD10B5104884
:103B6000006840F001000E490860084640680E49B0
:103B700008400B494860084600680C49084008495D
:103B800008600846006820F4802008600846406805
:103B900020F4FE00486000208860FFF7DBFF10BDC6
:103BA00000100240002002400000FFF8FFFFF6FE78
:103BB0002DE9F04706460F4614461D463046394665
:103BC00011F0D2FE8246214611F0FEFE81462946C2
:103BD00011F068FE804611F039FEBDE8F0872DE94E
:103BE000F04781460C4699F80500617860F30101C1
:103BF000617099F805008108607861F38300607056
:103C000099F805000109607861F30510607099F872
:103C100006000021090241EA1066050299F8070032
:103C2000054300234FF0814228463146FFF7C0FF8D
:103C3000C4E9020199F808C000234FF081426046B0
:103C40001946FFF7B5FF074611F07AFD206199F894
:103C50000900617D60F30201617599F80900C108EE
:103C6000607D61F3C700607599F80A00E07599F806
:103C70000C00617E60F30301617699F80C00010984
:103C8000607E61F307106076BDE8F0872DE9F041B2
:103C900005460C466879617860F3010161706879C6
:103CA0008108607861F38300607068790109607849
:103CB00061F305106070AE7900234FF08142304609
:103CC0001946FFF775FF074611F03AFD6060EE797F
:103CD00000234FF0814230461946FFF769FF07463F
:103CE00011F02EFDA060287A617B60F30101617301
:103CF000287A8108607B61F383006073287A010968
:103D0000607B61F305106073287A8109607B61F341
:103D100087106073687AE17B60F30101E173687A70
:103D20008108E07B61F38300E073687A0109E07B3E
:103D300061F30510E073687A8109E07B61F3871015
:103D4000E073A87A617C60F301016174A87A81084C
:103D5000607C61F383006074A87A0109607C61F380
:103D600005106074A87A8109607C61F38710607423
:103D7000E87A8108E07C61F30300E074E87A810965
:103D8000E07C61F30510E074287B617D60F3010144
:103D90006175287B8108607D61F383006075287BF5
:103DA0000109607D61F305106075287B8109607DE4
:103DB00061F387106075BDE8F0812DE9F047814619
:103DC0000C4699F805000021090241EA1066050237
:103DD00099F806000543FC4B4FF07E5228463146C9
:103DE000FFF7E6FEC4E9000199F80700617A60F385
:103DF0000101617299F807008108607A61F383001C
:103E0000607299F807000109607A61F30510607229
:103E100099F808C0EC4B4FF07E5260460021FFF746
:103E2000C7FE074611F08CFCE06099F80C00617C3D
:103E300060F30301617499F80C000109607C61F37F
:103E400007106074BDE8F0872DE9F0470446894605
:103E500060790021090241EA10660502A079054354
:103E60000023DA4A28463146FFF7A2FEC9E90001DD
:103E700094F807C00023D54A60461946FFF798FE1C
:103E8000074611F05DFCC9F80800207A00210902FC
:103E900041EA10660502607A05430023CB4A2846B2
:103EA0003146FFF785FEC9E90401A07A0021090225
:103EB00041EA10660502E07A05430023C34A28461A
:103EC0003146FFF775FEC9E90601BDE8F0872DE927
:103ED000F04104460F4660790021090241EA10666C
:103EE0000502A079054300234FF07E522846314653
:103EF000FFF75EFEC7E90001E0790021090241EA0F
:103F000010660502207A054300234FF07E522846B2
:103F10003146FFF74DFEC7E90201607A0021090230
:103F200041EA10660502A07A054300234FF07E5255
:103F300028463146FFF73CFEC7E90401E07A00213C
:103F4000090241EA10660502207B054300234FF079
:103F50007E5228463146FFF72BFEC7E90601BDE831
:103F6000F0812DE9F04104460D466679984B4FF0FB
:103F70007E5230460021FFF71BFE074611F0E0FBA2
:103F80002860A0796871BDE8F08142794B7862F3CE
:103F900001034B70427993084A7863F383024A70B5
:103FA000427913094A7863F305124A7070474279DF
:103FB0004A70027BCB7862F30303CB70027B130958
:103FC000CA7863F30712CA70704742794A70704723
:103FD0002DE9F0470446894660790021090241EA4B
:103FE00010660502A079054300234FF07E52284653
:103FF0003146FFF7DDFDC9E90001E079800989F864
:104000000900207A0021090441EA10460504607A7B
:104010000021090241EA106145EA00250E43A07A19
:10402000054300234FF07E5228463146FFF7C0FD7E
:10403000C9E9040194F80BC000234FF07E5260469A
:104040001946FFF7B5FD074611F07AFBC9F81800CD
:10405000BDE8F08742794A7070472DE9F041054686
:104060000C466979607861F30100607068798108B5
:10407000607861F383006070A8790021090241EA49
:1040800010670602E879064300234FF0814230466C
:104090003946FFF78DFDC4E90201287A6074BDE856
:1040A000F08142794B7862F301034B7042799308B7
:1040B0004A7863F384024A70427953094A7863F379
:1040C00047124A708279CB7862F30103CB70827910
:1040D0009308CA7863F38302CA7070472DE9F041F0
:1040E00005460C4668790021090241EA106706027C
:1040F000A87906430023374A30463946FFF758FD72
:10410000C4E90001E879617A60F302016172E8793B
:10411000C108607A61F3C4006072E8794109607A8D
:1041200061F347106072287AE072BDE8F0812DE9F2
:10413000F04104460F4660790021090241EA106609
:104140000502A07905430023234A28463146FFF79C
:104150002FFDC7E90001E0790021090241EA10665C
:104160000502207A054300231B4A28463146FFF703
:104170001FFDC7E90201BDE8F0812DE9F0410446C9
:104180000F4660790021090241EA10660502A07914
:1041900005430023104A28463146FFF709FDC7E9C9
:1041A0000001E0790021090241EA10660502207A47
:1041B00005430023084A28463146FFF7F9FCC7E9C2
:1041C0000201BDE8F0810000F4FD7AC10000A040CA
:1041D0000000FAC2CDCC4C3D0AD7233B42794A704D
:1041E000704742794B7862F301034B704279930830
:1041F0004A7863F385024A70704742794B7862F3DC
:1042000001034B70427993084A7863F384024A7041
:10421000704742794B7862F301034B7042799308FF
:104220004A7863F383024A70427913094A7863F348
:1042300005124A70427993094A7863F387124A70EB
:104240008279CB7862F30103CB7082799308CA78C4
:1042500063F38302CA7082791309CA7863F3051283
:10426000CA7082799309CA7863F38712CA70C279D7
:104270004B7962F301034B71C27993084A7963F376
:1042800083024A71C27913094A7963F305124A71AC
:10429000C27993094A7963F387124A71027ACB791A
:1042A00062F30103CB71027A9308CA7963F3830244
:1042B000CA71027A1309CA7963F30512CA71027AC4
:1042C0009309CA7963F38712CA71427A4B7A62F30F
:1042D00001034B72427A93084A7A63F383024A726B
:1042E000427A13094A7A63F305124A72427A9309B1
:1042F0004A7A63F387124A72827ACB7A62F30103B5
:10430000CB72827A9308CA7A63F38302CA72827A82
:104310001309CA7A63F30512CA72827A9309CA7AB8
:1043200063F38712CA72C27A4B7B62F301034B7349
:10433000C27A93084A7B63F383024A73C27A1309F1
:104340004A7B63F305124A73C27A93094A7B63F38B
:1043500087124A73027BCB7B62F30103CB73027B30
:104360009308CA7B63F38302CA7370472DE9F04157
:1043700004460D46667900234FF07E5230461946BA
:10438000FFF716FC074611F0DBF92860A679002339
:104390004FF07E5230461946FFF70AFC074611F0EF
:1043A000CFF96860E67900234FF07E523046194617
:1043B000FFF7FEFB074611F0C3F9A860267A002339
:1043C0004FF07E5230461946FFF7F2FB074611F0D8
:1043D000B7F9E860667A00234FF07E5230461946FE
:1043E000FFF7E6FB074611F0ABF92861A67A002338
:1043F0004FF07E5230461946FFF7DAFB074611F0C0
:104400009FF96861E67A00234FF07E5230461946E4
:10441000FFF7CEFB074611F093F9A861267B002336
:104420004FF07E5230461946FFF7C2FB074611F0A7
:1044300087F9E861BDE8F0812DE9F04104460D46B9
:10444000667900234FF07E5230461946FFF7B0FBE5
:10445000074611F075F92860A67900234FF07E52C7
:1044600030461946FFF7A4FB074611F069F968606A
:10447000E67900234FF07E5230461946FFF798FB4D
:10448000074611F05DF9A860267A00234FF07E52AE
:1044900030461946FFF78CFB074611F051F9E860EA
:1044A000667A00234FF07E5230461946FFF780FBB4
:1044B000074611F045F92861A67A00234FF07E5295
:1044C00030461946FFF774FB074611F039F9686169
:1044D000E67A00234FF07E5230461946FFF768FB1C
:1044E000074611F02DF9A861267B00234FF07E527C
:1044F00030461946FFF75CFB074611F021F9E861E9
:10450000BDE8F08142794B7862F301034B70427948
:1045100093084A7863F383024A70427913094A7810
:1045200063F305124A70427993094A7863F387125C
:104530004A708279CB7862F30103CB708279930859
:10454000CA7863F38302CA7082791309CA7863F365
:104550000512CA7082799309CA7863F38712CA7008
:10456000C2794B7962F301034B71C27993084A799E
:1045700063F383024A71C27913094A7963F305121E
:104580004A71C27993094A7963F387124A71027AB0
:10459000CB7962F30103CB71027A9308CA7963F392
:1045A0008302CA71027A1309CA7963F30512CA71C8
:1045B000027A9309CA7963F38712CA71427A4B7AF5
:1045C00062F301034B72427A93084A7A63F38302DF
:1045D0004A72427A13094A7A63F305124A72427A9E
:1045E00093094A7A63F387124A72827ACB7A62F32A
:1045F0000103CB72827A9308CA7A63F38302CA7288
:10460000827A1309CA7A63F30512CA72827A93090D
:10461000CA7A63F38712CA72C27A4B7B62F30103D0
:104620004B73C27A93084A7B63F383024A73C27A5C
:1046300013094A7B63F305124A73C27A93094A7BD2
:1046400063F387124A73027BCB7B62F30103CB7364
:10465000027B9308CA7B63F38302CA73027B13094C
:10466000CA7B63F30512CA73027B9309CA7B63F3A7
:104670008712CA73704742794B7862F301034B701B
:10468000427993084A7863F383024A7042791309A6
:104690004A7863F305124A70427993094A7863F3C2
:1046A00087124A708279CB7862F30103CB708279EA
:1046B0009308CA7863F38302CA7082791309CA78AF
:1046C00063F30512CA7082799309CA7863F387127B
:1046D000CA70C2794B7962F301034B71C2799308B6
:1046E0004A7963F383024A71C27913094A7963F301
:1046F00005124A71C27993094A7963F387124A71A4
:10470000027ACB7962F30103CB71027A9308CA79FA
:1047100063F38302CA71027A1309CA7963F305123B
:10472000CA71027A9309CA7963F38712CA71427A0D
:104730004B7A62F301034B72427A93084A7A63F32D
:1047400083024A72427A13094A7A63F305124A7263
:10475000427A93094A7A63F387124A72827ACB7A51
:1047600062F30103CB72827A9308CA7A63F38302FD
:10477000CA72827A1309CA7A63F30512CA72827AFC
:104780009309CA7A63F38712CA72C27A4B7B62F3C7
:1047900001034B73C27A93084A7B63F383024A7323
:1047A000C27A13094A7B63F305124A73C27A9309EA
:1047B0004A7B63F387124A73027BCB7B62F301036C
:1047C000CB73027B9308CA7B63F38302CA73027BB9
:1047D0001309CA7B63F30512CA73027B9309CA7B70
:1047E00063F38712CA73704742794B7862F301030F
:1047F0004B70427993084A7863F383024A70427996
:1048000013094A7863F305124A70427993094A788A
:1048100063F387124A708279CB7862F30103CB701D
:1048200082799308CA7863F38302CA708279130984
:10483000CA7863F30512CA7082799309CA7863F360
:104840008712CA70C2794B7962F301034B71C27946
:1048500093084A7963F383024A71C27913094A794A
:1048600063F305124A71C27993094A7963F3871297
:104870004A71027ACB7962F30103CB71027A930811
:10488000CA7963F38302CA71027A1309CA7963F39E
:104890000512CA71027A9309CA7963F38712CA7141
:1048A000427A4B7A62F301034B72427A93084A7A56
:1048B00063F383024A72427A13094A7A63F3051258
:1048C0004A72427A93094A7A63F387124A72827A69
:1048D000CB7A62F30103CB72827A9308CA7A63F3CC
:1048E0008302CA72827A1309CA7A63F30512CA7202
:1048F000827A9309CA7A63F38712CA72C27A4B7BAF
:1049000062F301034B73C27A93084A7B63F3830219
:104910004A73C27A13094A7B63F305124A73C27A57
:1049200093094A7B63F387124A73027BCB7B62F362
:104930000103CB73027B9308CA7B63F38302CA73C0
:10494000027B1309CA7B63F30512CA73027B9309C6
:10495000CA7B63F38712CA7370472DE9F04104469E
:104960000D4660796870E67900234FF08342304647
:104970001946FFF71DF9074610F0E2FE6860BDE832
:10498000F08142794A7070472DE9F04104460D46A6
:1049900060796870A67900234FF087423046194647
:1049A000FFF706F9074610F0CBFE6860BDE8F0811E
:1049B0002DE9F04104460D46667900234FF084420C
:1049C00030461946FFF7F4F8074610F0B9FE2860A4
:1049D000A67900234FF0844230461946FFF7E8F8E5
:1049E000074610F0ADFE6860E67900234FF0844280
:1049F00030461946FFF7DCF8074610F0A1FEA86024
:104A0000267A00234FF0844230461946FFF7D0F84B
:104A1000074610F095FEE860667A00234FF0844266
:104A200030461946FFF7C4F8074610F089FE2861A2
:104A3000A67A00234FF0844230461946FFF7B8F8B3
:104A4000074610F07DFE6861E67A00234FF084424D
:104A500030461946FFF7ACF8074610F071FEA86122
:104A6000267B00234FF0844230461946FFF7A0F81A
:104A7000074610F065FEE861BDE8F0812DE9F041E0
:104A800004460D4666790023FE4A30461946FFF774
:104A90008FF8074610F054FE2860A6790023F94AE3
:104AA00030461946FFF784F8074610F049FE686063
:104AB000BDE8F0812DE9F04104460F466079002100
:104AC000090241EA10660502A0790543EE4BEF4A60
:104AD00028463146FFF76CF8C7E90001E07900216C
:104AE000090241EA10660502207A0543E64BE74ACF
:104AF00028463146FFF75CF8C7E90201607A0021D9
:104B0000090241EA10660502A07A0543DE4BDF4A3E
:104B100028463146FFF74CF8C7E90401E07A002146
:104B2000090241EA10660502207B0543D64BD74AAD
:104B300028463146FFF73CF8C7E90601BDE8F08199
:104B40002DE9F04105460C466879617860F3010172
:104B5000617068798108607861F3830060706879BA
:104B60000109607861F305106070687981096078E7
:104B700061F387106070A879E17860F30301E17058
:104B8000A8790109E07861F30710E070E8796179AC
:104B900060F303016171E8790109607961F305103F
:104BA0006071E8798109607961F3871060712E7A0C
:104BB00000234FF0814230461946FEF7F9FF0746C1
:104BC00010F0BEFDA0606E7A00234FF081423046A7
:104BD0001946FEF7EDFF074610F0B2FDE060AE7A31
:104BE00000234FF0814230461946FEF7E1FF0746A9
:104BF00010F0A6FD2061E87A617D60F30101617526
:104C0000E87A8108607D61F383006075E87A0109C4
:104C1000607D61F305106075E87A8109607D61F35C
:104C200087106075287BE17D60F30101E175287BC9
:104C30008108E07D61F38300E075287B0109E07D58
:104C400061F30710E075BDE8F0812DE9F0410446FD
:104C50000D46667900234FF07A5230461946FEF72A
:104C6000A7FF074610F06CFD2860A67900234FF0DF
:104C70007A5230461946FEF79BFF074610F060FD5A
:104C80006860E67900234FF07A5230461946FEF705
:104C90008FFF074610F054FDA860267A00234FF0DE
:104CA0007A5230461946FEF783FF074610F048FD5A
:104CB000E860667A00234FF07A5230461946FEF7D4
:104CC00077FF074610F03CFD2861A67A00234FF0DD
:104CD0007A5230461946FEF76BFF074610F030FD5A
:104CE0006861E67A00234FF07A5230461946FEF7A3
:104CF0005FFF074610F024FDA861267B00234FF0DC
:104D00007A5230461946FEF753FF074610F018FD59
:104D1000E861BDE8F0812DE9F04104460D46607977
:104D2000697860F30101697060798108687861F3DE
:104D30008300687060790109687861F30510687014
:104D400060798109687861F387106870A079070439
:104D50000026E07947EA0027207A0743617A00209D
:104D6000000640EA112046EA01660743A17A0020C6
:104D7000000440EA114046EA01460743E07A002178
:104D8000090241EA106146EA00260F43207B0643F0
:104D900000234FF0814230463946FEF709FFC5E94E
:104DA0000201BDE8F0812DE9F04104460D4660792D
:104DB0004108687861F3010068706079C10868781B
:104DC00061F38300687060794109687861F30610C7
:104DD0006870A07907040026E07947EA0027207A66
:104DE0000743607A0021090641EA102146EA00667D
:104DF0000F43A07A0021090441EA104146EA004627
:104E00000F43E17A0020000240EA116046EA0126E1
:104E10000743207B064300234FF08142304639464A
:104E2000FEF7C6FEC5E90201BDE8F0812DE9F047B5
:104E300081460C4699F805C00023124A604619467F
:104E4000FEF7B6FE074610F07BFC206099F80600DE
:104E50000021090241EA1066050299F8070005439E
:104E60000023084A28463146FEF7A2FEC4E90201A3
:104E700099F80800617C60F30101617499F80800F9
:104E8000810805E0CDCCCC3E00004843CDCCCC3DE4
:104E9000607C61F38300607499F808000109607C0C
:104EA00061F30510607499F808008109607C61F372
:104EB0008710607499F80900E17C60F30101E174E6
:104EC00099F809008108E07C61F38300E07499F8A7
:104ED00009000109E07C61F30510E07499F809000C
:104EE0008109E07C61F38710E07499F80A00810879
:104EF000607D61F30100607599F80A000109607D29
:104F000061F38300607599F80A008109607D61F39F
:104F10000510607599F80B00E17D60F30301E17500
:104F200099F80B000109E07D61F30510E07599F82F
:104F30000B008109E07D61F38710E07599F80CC0E2
:104F40000023FE4A60461946FEF732FE074610F07F
:104F5000F7FBA061BDE8F0872DE9F04105460C465E
:104F60006879617860F3030161706879010960789C
:104F700061F30510607068798109607861F38710CA
:104F80006070AE7900234FF0834230461946FEF739
:104F90000FFE074610F0D4FB6060EE7900234FF05F
:104FA000834230461946FEF703FE074610F0C8FB61
:104FB000A060287A617B60F301016173287A81081F
:104FC000607B61F383006073287A0109607B61F381
:104FD00005106073287A8109607B61F38710607324
:104FE0006E7A00234FF0834230461946FEF7E0FD0B
:104FF000074610F0A5FB2061AE7A00234FF08342F4
:1050000030461946FEF7D4FD074610F099FB606163
:10501000EE7A00234FF0834230461946FEF7C8FD72
:10502000074610F08DFBA0612E7B00234FF08342DA
:1050300030461946FEF7BCFD074610F081FBE061E3
:10504000BDE8F0812DE9F04105460C4668796178AC
:1050500060F30101617068798108607861F3830011
:10506000607068790109607861F305106070687993
:105070008109607861F387106070AE7900234FF08A
:10508000814230461946FEF793FD074610F058FB63
:105090006060E879617A60F301016172E879810802
:1050A000607A61F383006072E8790109607A61F3E4
:1050B00005106072E8798109607A61F38710607287
:1050C000287AE17A60F30101E172287A8108E07AB6
:1050D00061F38300E072287A0109E07A61F3051038
:1050E000E072287A8109E07A61F38710E0726E7AC3
:1050F00000234FF0814230461946FEF759FD07461E
:1051000010F01EFBE060A87A617C60F3010161741D
:10511000A87A8108607C61F383006074A87A010931
:10512000607C61F305106074A87A8109607C61F38A
:1051300087106074EE7A00234FF0814230461946A2
:10514000FEF736FD074610F0FBFA6061287B810808
:10515000607E61F301006076287B0109607E61F367
:1051600083006076287B8109607E61F3051060769C
:10517000BDE8F0812DE9F04781460C4699F805001D
:10518000617860F30101617099F805008108607829
:1051900061F38300607099F805000109607861F39C
:1051A0000510607099F805008109607861F3871037
:1051B000607099F806000021090241EA10660502B4
:1051C00099F80700054300234FF0814228463146F5
:1051D000FEF7EEFCC4E9020199F808C000234FF085
:1051E000814260461946FEF7E3FC074610F0A8FA34
:1051F000206199F80900617D60F30101617599F8FA
:1052000009008108607D61F38300607599F80900E9
:105210000109607D61F30510607599F80A000021AD
:10522000090241EA1066050299F80B0005430023C4
:105230004FF0814228463146FEF7BAFCC4E9060128
:1052400099F80CC000234FF0814260461946FEF7E2
:10525000AFFC074610F074FA2062BDE8F0872DE934
:10526000F04105460C466879617860F30101617090
:1052700068798108607861F383006070687901095A
:10528000607861F30510607068798109607861F376
:1052900087106070AE7900234FF081423046194686
:1052A000FEF786FC074610F04BFA6060EE790023AB
:1052B0004FF0814230461946FEF77AFC074610F05F
:1052C0003FFAA0602E7A00234FF081423046194603
:1052D000FEF76EFC074610F033FAE0606E7A0023AA
:1052E0004FF0814230461946FEF762FC074610F047
:1052F00027FA2061A87A617D60F301016175A87ABF
:105300008108607D61F383006075A87A0109607D82
:1053100061F305106075A87A8109607D61F38710DB
:105320006075EE7A00234FF0814230461946FEF751
:105330003FFC074610F004FAA06101E0CDCCCC3E62
:105340002E7B00234FF0814230461946FEF730FC99
:10535000074610F0F5F9E061BDE8F0812DE9F0476E
:1053600081460C4699F80500617860F3030161708D
:1053700099F805000109607861F30710607099F8E9
:1053800006C000234FF0834260461946FEF710FC2A
:10539000074610F0D5F9606099F807C000234FF078
:1053A000834260461946FEF703FC074610F0C8F931
:1053B000A06099F808000021090241EA1066050280
:1053C00099F80900054300234FF0834228463146EF
:1053D000FEF7EEFBC4E9040199F80AC000234FF080
:1053E000834260461946FEF7E3FB074610F0A8F932
:1053F000A06199F80B00607799F80CC000234FF07A
:10540000834260461946FEF7D3FB074610F098F931
:105410002062BDE8F0872DE9F0470446894694F8FC
:1054200005C0FE4B4FF07E5260460021FEF7C0FBE8
:10543000074610F085F9C9F80000A079002109029B
:1054400041EA10660502E0790543F44B4FF07E52C5
:1054500028463146FEF7ACFBC9E9020194F808C0C2
:10546000EE4B4FF07E5260460021FEF7A1FB07464F
:1054700010F066F9C9F81000607A0021090241EACB
:1054800010660502A07A0543E44B4FF07E52284691
:105490003146FEF78DFBC9E90601E07A00210902D9
:1054A00041EA10660502207B0543DC4B4FF07E523B
:1054B00028463146FEF77CFBC9E90801BDE8F087C4
:1054C00042794A708279CB7862F30103CB7082799A
:1054D0009308CA7863F38302CA7082791309CA7881
:1054E00063F30512CA7082799309CA7863F387124D
:1054F000CA70C2794B7962F301034B71C279930888
:105500004A7963F383024A71C27913094A7963F3D2
:1055100005124A71027ACB7962F30103CB71027AE8
:105520009308CA7963F38302CA71704742794B7852
:1055300062F301034B70427993084A7863F3830264
:105540004A70427913094A7863F305124A70427926
:1055500093094A7863F387124A7070472DE9F04146
:1055600005460C4668790021090241EA10670602E7
:10557000A879064300234FF0804230463946FEF7B3
:1055800017FBC4E90001E879617A60F301016172F7
:10559000E8798108607A61F383006072E879010933
:1055A000607A61F305106072BDE8F0812DE9F04783
:1055B0000446894660790021090241EA1066050225
:1055C000A0790543964B4FF07E5228463146FEF7B0
:1055D000EFFAC9E90001E07999F8091060F30501D3
:1055E00089F80910E079810999F8090061F38710B9
:1055F00089F80900207A0021090241EA10660502B3
:10560000607A0543864B4FF07E5228463146FEF7BE
:10561000CFFAC9E90401A07A0021090241EA106623
:105620000502E07A05437E4B4FF07E522846314614
:10563000FEF7BEFAC9E9060194F80CC0784B4FF0AA
:105640007E5260460021FEF7B3FA074610F078F864
:10565000C9F82000BDE8F0872DE9F04104460F4667
:1056600060790021090241EA10660502A07905432C
:1056700000236C4A28463146FEF79AFAC7E9000132
:10568000E0790021090241EA10660502207A05430B
:105690000023644A28463146FEF78AFAC7E9020128
:1056A000607A0021090241EA10660502A07A0543EA
:1056B00000235C4A28463146FEF77AFAC7E904011E
:1056C000BDE8F0812DE9F04105460C4668790021DE
:1056D000090241EA10670602A87906434F4B4FF0D2
:1056E0007E5230463946FEF763FAC4E90001E87994
:1056F000C0176072287AE17A60F30301E172287AB8
:105700000109E07A61F30510E072687A617B60F369
:1057100003016173687A0109607B61F307106073AC
:10572000A87AE073BDE8F0812DE9F04104460F4608
:1057300060790021090241EA10660502A07905435B
:105740000023394A28463146FEF732FAC7E90001FC
:10575000E0790021090241EA10660502207A05433A
:105760000023314A28463146FEF722FAC7E90201F2
:10577000BDE8F08142794B7862F303034B704279C4
:1057800013094A7863F307124A708279CB7862F37F
:105790000303CB7082791309CA7863F30712CA70C6
:1057A000C2794B7962F303034B71C27913094A79C9
:1057B00063F307124A71027ACB7962F30303CB7168
:1057C000027A1309CA7963F30712CA71427A4B7AD3
:1057D00062F303034B72427A13094A7A63F30512A8
:1057E0004A72427A93094A7A63F387124A7270477F
:1057F0002DE9F04105460C4668790021090241EA8D
:1058000010670602A8790643084B064A3046394617
:10581000FEF7CEF9C4E90001E87909E00000FAC218
:10582000F4FDFAC1CDCC4C3D6F12833A000048C361
:105830000021090241EA10670602287A0643FE4B5E
:10584000FE4A30463946FEF7B3F9C4E90201687AE8
:10585000617C60F301016174687A8108607C61F3A6
:1058600083006074687A0109607C61F305106074DC
:10587000687A8109607C61F387106074A87AE17CA2
:1058800060F30401E174A87A4109E07C61F34610F9
:10589000E074E87A617D60F304016175E87A41099A
:1058A000607D61F347106075287BE075BDE8F0818D
:1058B0002DE9F04105460C4668790021090241EACC
:1058C00010670602A8790643DB4BDC4A30463946AE
:1058D000FEF76EF9C4E90001E8790021090241EA06
:1058E00010670602287A0643D34BD44A304639461D
:1058F000FEF75EF9C4E90201687A617C60F3010198
:105900006174687A8108607C61F383006074687AEE
:105910000109607C61F305106074687A8109607C1C
:1059200061F387106074A87AE17C60F30401E1748C
:10593000A87A4109E07C61F34610E074E87A617D61
:1059400060F304016175E87A4109607D61F34710F5
:105950006075287BE075BDE8F0812DE9F0410546D2
:105960000C4668790021090241EA10670602A8790D
:105970000643B14BB14A30463946FEF719F9C4E93E
:105980000001E8790021090241EA10670602287A3D
:105990000643A94BA94A30463946FEF709F9C4E93E
:1059A0000201687A617C60F301016174687A8108A0
:1059B000607C61F383006074687A0109607C61F344
:1059C00005106074687A8109607C61F387106074E7
:1059D000A87AE17C60F30401E174A87A4109E07CD3
:1059E00061F34610E074E87A617D60F3040161754B
:1059F000E87A4109607D61F347106075287BE075A6
:105A0000BDE8F0812DE9F04105460C46687900219A
:105A1000090241EA10670602A8790643864B874AC5
:105A200030463946FEF7C4F8C4E90001E8790021A0
:105A3000090241EA10670602287A06437E4B7F4A34
:105A400030463946FEF7B4F8C4E90201687A617C51
:105A500060F301016174687A8108607C61F38300FE
:105A60006074687A0109607C61F305106074687A7B
:105A70008109607C61F387106074A87AE17C60F32F
:105A80000401E174A87A4109E07C61F34610E074F6
:105A9000E87A617D60F304016175E87A4109607D0F
:105AA00061F347106075287BE075BDE8F0812DE952
:105AB000F04104460F4660790021090241EA106670
:105AC0000502A079054300235D4A28463146FEF7CA
:105AD0006FF8C7E90001E0790021090241EA106688
