:020000040800F2
:10000000D00A0020C90A00088D0200088F020008EB
:1000100093020008970200089B02000800000000FD
:100020000000000000000000000000009F02000827
:10003000A102000800000000A3020008A5020008B9
:10004000E30A0008E30A0008E30A0008E30A0008DC
:10005000E30A0008E30A0008E30A0008C5430008B1
:10006000094400083F440008E30A0008E30A0008C6
:10007000E30A0008E30A0008E30A0008E30A0008AC
:10008000E30A0008E30A0008E30A0008E30A00089C
:10009000D71C0008E30A0008E30A0008E30A000886
:1000A000E30A0008E30A0008E30A0008E30A00087C
:1000B000E30A0008E30A0008E30A0008E30A00086C
:1000C000E30A0008E30A0008E30A0008E30A00085C
:1000D000E30A0008E30A0008E30A0008E30A00084C
:1000E00019430008E30A0008E30A0008E30A0008CD
:1000F000E30A0008E30A0008E30A0008E30A00082C
:10010000E30A0008E30A0008E30A0008E30A00081B
:10011000E30A0008E30A0008E30A0008E30A00080B
:10012000E30A0008E30A0008E30A0008E30A0008FB
:1001300000F002F800F051F80AA090E8000C8244A8
:100140008344AAF10107DA4501D100F046F8AFF285
:10015000090EBAE80F0013F0010F18BFFB1A43F0A5
:10016000010318475465000074650000103A24BF6D
:1001700078C878C1FAD8520724BF30C830C144BF0C
:1001800004680C607047000000230024002500264E
:10019000103A28BF78C1FBD8520728BF30C148BFEA
:1001A0000B607047662905F01A86642904F0AE8159
:1001B000782904F0E581002070471FB59DE8030011
:1001C00004F0E2FA04F0C4FD04000020002105F070
:1001D0006BFBE0601FBD10B510BD04F0D1FE1146F1
:1001E000FFF7EBFF00F008F804F0EFFE03B4FFF7B1
:1001F000F2FF03BC04F05CFF00F0FCFB00F070FBBE
:1002000000F034FA00F0BFF801F06EFD01F0DDFC03
:1002100001F0C2FC01F0FEFC02F03FFE102315A22B
:100220000321062000F0FCFA00F020FA04F064F844
:100230001FE04FF48041134800F0E1FD4FF400410E
:10024000104800F0DCFD104801F07AFD0E4801F086
:1002500077FD4FF480410B4800F0D1FD4FF4004191
:10026000084800F0CCFD084801F06AFD064801F09E
:1002700067FDDEE7302E393627204F4C45442054A9
:10028000455354000010014020A10700704700BFF3
:10029000FEE700BFFEE700BFFEE700BFFEE77047D6
:1002A00070477047704700000CB500200190009027
:1002B0006C48006840F480306A49086000BF6948B3
:1002C000006800F4003000900198401C01900098F4
:1002D00018B90198B0F5A06FF1D16248006800F438
:1002E000003010B10120009001E000200090009843
:1002F000012843D15C48006840F010005A4908606A
:100300000846006820F0030008600846006840F0D6
:1003100002000860534840685249486008464068F7
:1003200048600846406840F480604860084640687D
:1003300020F47C1048600846406840F4E8104860AB
:100340000846006840F08070086000BF45480068BB
:1003500000F000700028F9D04248406820F0030007
:10036000404948600846406840F00200486000BFCD
:100370003C48406800F00C000828F9D10CBD10B5CD
:10038000FFF792FF10BD10B53648006840F001003D
:10039000344908600846406834490840314948609B
:1003A00008460068324908402E490860084600683F
:1003B00020F4802008600846406820F4FE00486071
:1003C0004FF41F008860FFF7DAFF4FF00060294903
:1003D000086010BD10B5002100200022214B5B6891
:1003E00003F00C0121B1042906D0082928D107E027
:1003F000214B224C236027E01F4B204C236023E03D
:10040000184B5B6803F47010164B5B6803F4803282
:10041000022303EB904022B9194B4343174C23604E
:100420000DE0104B5B6803F4003323B1144B4343DE
:10043000124C236003E0104B4343104C236003E055
:100440000D4B0E4C236000BF00BF064B5B68C3F32F
:1004500003130C4CE15C094B1B68CB40074C236039
:1004600010BD000000100240002002400000FFF814
:10047000FFFFF6FE08ED00E000127A000000002009
:1004800000093D000400002010B54021FE4800F0A6
:10049000B6FC8021FC4800F0B2FC8021FA4800F054
:1004A000B0FC4021F84800F0ACFC10BD10B5402174
:1004B000F54800F0A4FC8021F34800F0A2FC802164
:1004C000F14800F09CFC10BD10B54021EE4800F052
:1004D00096FC4021EC4800F094FC10BD2DE9F04161
:1004E00005462C464021E84800F08BFC002619E028
:1004F000274607F08007802F04D18021E24800F0D2
:100500007EFC03E08021E04800F07BFC6006040EE6
:100510004021DD4800F073FC4021DB4800F071FC15
:10052000701CC6B2082EE3DBBDE8F08110B50446AE
:10053000FFF7AAFF7820FFF7D1FFFFF7C5FF0020E4
:10054000FFF7CCFFFFF7C0FF2046FFF7C7FFFFF71D
:10055000BBFFFFF7ABFF10BD10B50446FFF794FFDC
:100560007820FFF7BBFFFFF7AFFF4020FFF7B6FF94
:10057000FFF7AAFF2046FFF7B1FFFFF7A5FFFFF740
:1005800095FF10BD70B504460D461DB1E0B2FFF7F2
:10059000E3FF02E0E0B2FFF7C9FF70BD70B50646A9
:1005A000002418E004F1B0000021FFF7EBFF002168
:1005B0000846FFF7E7FF00211020FFF7E3FF0025C3
:1005C00005E001213046FFF7DDFF681CC5B2802D34
:1005D000F7DB601CC4B2082CE4DB70BD06E041F61A
:1005E000650100E0491E0029FCD1401E0028F6D11B
:1005F0007047014605E0002001E0421CD0B27B2894
:10060000FBDB0A00A1F10101F5D1704770B504468A
:100610000D4605F1B0000021FFF7B4FF102141EABB
:1006200014100021FFF7AEFF04F00F000021FFF7C8
:10063000A9FF70BD10B500218D20FFF7A3FF002199
:100640001420FFF79FFF0021AF20FFF79BFF10BD95
:1006500010B500218D20FFF795FF00211020FFF736
:1006600091FF0021AE20FFF78DFF10BD70B5002473
:1006700018E004F1B0000021FFF784FF00210846D4
:10068000FFF780FF00211020FFF77CFF002505E029
:1006900001210020FFF776FF681CC5B2802DF7DB33
:1006A000601CC4B2082CE4DB70BD70B5002418E0F7
:1006B00004F1B0000021FFF765FF00210846FFF7B5
:1006C00061FF00211020FFF75DFF002505E00121FB
:1006D0000846FFF757FF681CC5B2802DF7DB601C8A
:1006E000C4B2082CE4DB70BD2DE9F04707460E4686
:1006F0009046994600250024A8F12000C5B27F2F1E
:1007000002DD0027B01CC6B2B9F1100F24D131466A
:100710003846FFF77BFF002408E004EB05115B4A35
:10072000505C0121FFF72EFF601CC4B2082CF4DBE3
:10073000701CC1B23846FFF769FF002409E004EBE2
:1007400005110831514A505C0121FFF71BFF601C65
:10075000C4B2082CF3DB12E031463846FFF756FFEF
:1007600000240AE005EB4501494A02EB4101085D1E
:100770000121FFF707FF601CC4B2062CF2DBBDE8C5
:10078000F08710B50246012000E050430B00A1F1B4
:100790000104E1B2F9D110BD2DE9FF5F0746914692
:1007A0001E460E9D4FF0000A002435E0301B401E0F
:1007B000C1B20A20FFF7E5FFB9FBF0F00A21B0FB58
:1007C000F1F201FB1208BAF1000F14D1701EA04221
:1007D00011DDB8F1000F0CD1AB4605EBDB71491010
:1007E00001FB0471C8B22B4620220199FFF77CFF60
:1007F00010E04FF0010AAB4605EBDB71491001FB3D
:100800000471C8B208F13001CAB22B460199FFF752
:100810006BFF00BF601CC4B2B442C7DBBDE8FF9FE2
:100820002DE9F04104460F461546984600260FE094
:10083000AA5D434639462046FFF756FF04F10800FB
:10084000C4B2782C02DD0024B81CC7B2701CC6B23A
:10085000A85D0028ECD1BDE8F0812DE9F05F0646E7
:100860000F4690461C46DDF828A04FF0000BE1171C
:1008700004EB5171C910A4EBC10171B92046E11715
:1008800004EB517106E00000000C01400A60000812
:10089000E25D0008C1F3C70506E02046E11704EB5E
:1008A0005171C910491CCDB23D4615E0294630466C
:1008B000FFF7ACFEB1460BE059460BF1010B1AF8FD
:1008C00001000121FFF75EFE09F1010000F0FF09C0
:1008D000C145F1DB681CC5B2A542E7DBBDE8F09F6E
:1008E00008B50121082000F099FCC020ADF80000F7
:1008F00010208DF8030003208DF8020069463C4863
:1009000000F0D0F9C0213A4800F079FA4FF448706D
:1009100000F0ADF80021AE20FFF734FE00210846BC
:10092000FFF730FE00211020FFF72CFE00214020B1
:10093000FFF728FE0021B020FFF724FE00218120D0
:10094000FFF720FE0021FF20FFF71CFE0021A12061
:10095000FFF718FE0021A620FFF714FE0021A820B3
:10096000FFF710FE00213F20FFF70CFE0021C820FA
:10097000FFF708FE0021D320FFF704FE0021084600
:10098000FFF700FE0021D520FFF7FCFD00218020AD
:10099000FFF7F8FD0021D820FFF7F4FD0021052026
:1009A000FFF7F0FD0021D920FFF7ECFD0021F12039
:1009B000FFF7E8FD0021DA20FFF7E4FD0021122017
:1009C000FFF7E0FD0021DB20FFF7DCFD00213020F8
:1009D000FFF7D8FD00218D20FFF7D4FD0021142062
:1009E000FFF7D0FD0021AF20FFF7CCFD08BD0000D0
:1009F000000C014010B56FF0040000F0D4F82E4850
:100A000000682E49B0FBF1F02D49087008460078C7
:100A100000EB4001C1EBC0104FF6FF7101EAC000CE
:100A20002849088010BD0146254A12784A434FF0F4
:100A3000E0235A6100229A611A46126942F00102CB
:100A40001A6100BF4FF0E022106900F001021AB1F4
:100A500000F48032002AF5D04FF0E022126922F033
:100A600001024FF0E0231A6100229A6170470146AB
:100A7000144A12884A434FF0E0235A6100229A61D7
:100A80001A46126942F001021A6100BF4FF0E022DB
:100A9000106900F001021AB100F48032002AF5D08A
:100AA0004FF0E022126922F001024FF0E0231A61B8
:100AB00000229A61704700000000002000127A00B6
:100AC000140000201600002009488047094800470C
:100AD000FEE7FEE7FEE7FEE7FEE7FEE7FEE7FEE7EE
:100AE000FEE7FEE704480549054A064B704700004B
:100AF0008703000831010008D0040020D00A00203C
:100B0000D0060020D006002031490143314A11604F
:100B1000704770B5002100230F22C47804B32D4C18
:100B2000246804F4E064C4F5E064210AC1F104031C
:100B3000CA40447804FA03F184781440214309013F
:100B4000254C0678A155047804F01F050124AC401B
:100B500005786D11AD0005F1E025C5F8004109E00B
:100B6000047804F01F050124AC401C4D0678761172
:100B700045F8264070BD1A4A0A400243154B1B1F18
:100B80001A60704739B1134A121D12680243114BA3
:100B90001B1D1A6006E00F4A121D126882430D4B9E
:100BA0001B1D1A607047042808D14FF0E021096925
:100BB00041F004014FF0E022116107E04FF0E02125
:100BC000096921F004014FF0E02211617047000033
:100BD0000000FA050CED00E000E400E080E100E038
:100BE00080FFFF1F10B50446CC48844208D1012184
:100BF000042000F02DFB0021042000F029FB46E03A
:100C0000C748844208D10121082000F021FB0021BF
:100C1000082000F01DFB3AE0C248844208D10121BF
:100C2000102000F015FB0021102000F011FB2EE039
:100C3000BD48844208D10121202000F009FB002199
:100C4000202000F005FB22E0B848844208D10121B1
:100C5000402000F0FDFA0021402000F0F9FA16E0F3
:100C6000B348844208D10121802000F0F1FA00212C
:100C7000802000F0EDFA0AE0AE48844207D101215D
:100C8000801500F0E5FA0021A01500F0E1FA10BD92
:100C900010B50121084600F0DBFA0021012000F028
:100CA000D7FA10BD2DE9F0410246002500260020AC
:100CB00000230024002791F803C00CF00F0591F8E1
:100CC00003C00CF0100CBCF1000F03D091F802C06F
:100CD0004CEA050591F800C0BCF1000F31D0146852
:100CE00000202BE04FF0010C0CFA00F3B1F800C02B
:100CF0000CEA03069E4220D183004FF00F0C0CFA41
:100D000003F7BC4305FA03FC4CEA040491F803C062
:100D1000BCF1280F06D14FF0010C0CFA00FCC2F810
:100D200014C00AE091F803C0BCF1480F05D14FF0A0
:100D3000010C0CFA00FCC2F810C0401C0828D1D3EA
:100D40001460B1F800C0BCF1FF0F34DD546800201E
:100D50002EE000F1080C4FF0010808FA0CF3B1F88E
:100D600000C00CEA03069E4221D183004FF00F0C15
:100D70000CFA03F7BC4305FA03FC4CEA040491F8AF
:100D800003C0BCF1280F05D100F1080C08FA0CF8DB
:100D9000C2F8148091F803C0BCF1480F07D100F1EC
:100DA000080C4FF0010808FA0CF8C2F81080401C3B
:100DB0000828CED35460BDE8F0814FF6FF71018062
:100DC000022181700421C17070470246002093689F
:100DD0000B400BB1012000E00020704701468868FD
:100DE00080B2704702460020D3680B400BB101204F
:100DF00000E0002070470146C86880B2704701617A
:100E00007047416170470AB1016100E0416170477C
:100E1000C16070474FF480320A4382618161826110
:100E200082698269704702460020434B18684FF67A
:100E30008073184040EA021008433F4B1860704727
:100E40003E49C8617047F0B50A46002300240021DE
:100E5000002500F00046B6F1004F02D1364EF16990
:100E600001E0354E7168C0F3034583B200F44016CB
:100E7000B6F5401F08D121F070612F4E766826F03C
:100E800070662D4F7E6012E000F48016B6F5801F6C
:100E900006D1032606FA05F4A14341F0706106E08D
:100EA000460D360103FA06F6B14341F0706122B1F6
:100EB000460D360103FA06F6314300F00046B6F15E
:100EC000004F02D11C4EF16101E01B4E7160F0BD7C
:100ED00030B500228B071C0F0F2303FA04F2164BC8
:100EE00008338C1053F824309343134C08348D107E
:100EF00044F8253023468C1053F824308C07240FF7
:100F000000FA04F423430C4C08348D1044F82530C7
:100F100030BD0A49DC31086070470000000801401C
:100F2000000C014000100140001401400018014075
:100F3000001C014000200140000001400000204250
:100F4000DF48006840F00100DD490860084640685D
:100F5000DC490840DA49486008460068DA49084038
:100F6000D74908600846006820F4802008600846D9
:100F7000406820F4FE0048604FF41F00886070470E
:100F8000CF49096821F48031CD4A116011460968C2
:100F900021F480211160B0F5803F03D0B0F5802F9F
:100FA0000ED106E0C649096841F48031C44A116097
:100FB00007E0C349096841F4A021C14A116000E07B
:100FC00000BF00BF704710B501460022002300207B
:100FD0004A11012A02D1BA4C236806E0022A02D142
:100FE000B74C236A01E0B64C636A01F01F0201248A
:100FF00094401C400CB1012000E0002010BD38B529
:10100000002000900024002500BF3120FFF7DBFF07
:1010100005460098401C00900098B0F5A06F01D0E4
:10102000002DF2D03120FFF7CEFF08B1012400E0FF
:101030000024204638BD01460020A14A106820F057
:10104000F80040EAC10010607047A049086070478E
:10105000024600209A4B586820F47C1042EA0103B3
:101060001843974B58607047984908667047014687
:101070000020934A506820F00300084350607047F6
:101080008F48406800F00C007047014600208C4AF1
:10109000506820F0F000084350607047014600207F
:1010A000874A506820F4E06008435060704701466A
:1010B0000020834A506820F4605040EAC10050602C
:1010C000704729B17E4A527A02437D4B5A7204E03E
:1010D0007B4A527A82437A4B5A7270477B49D831A5
:1010E0000860704701460020754A506820F440406F
:1010F0000843506070470021714A20321170704AD5
:1011000082F82010012802D004280AD104E001212D
:101110006B4A2032117005E00521694A20321170B6
:1011200000E000BF00BF704769490860704764492C
:10113000096A0143624A116270476549443908608F
:10114000704730B500210022002400235C4D6D68FB
:1011500005F00C0121B1042905D0082923D105E0AF
:101160005C4D056022E05B4D05601FE0544D6D68ED
:1011700005F47012524D6D6805F48034022505EBBC
:1011800092421CB9544D554305600BE04C4D6D68BF
:1011900005F400351DB1504D5543056002E04D4D3D
:1011A0005543056002E04B4D056000BF00BF444D54
:1011B0006D6805F0F0010909484D6B5C0568DD407C
:1011C00045603F4D6D6805F4E061090A434D6B5C75
:1011D0004568DD4085603A4D6D6805F46051C90A87
:1011E0003E4D6B5C4568DD40C560354D6D6805F46E
:1011F0004041890B3A4D6B5CC568B5FBF3F5056161
:1012000030BD29B12E4A526902432D4B5A6104E088
:101210002B4A526982432A4B5A61704729B1284AA6
:1012200092690243264B9A6104E0254A92698243FF
:10123000234B9A61704729B1214AD2690243204B5E
:10124000DA6104E01E4AD26982431D4BDA617047BD
:1012500029B11B4AD2680243194BDA6004E0184AEC
:10126000D2688243164BDA60704729B1144A12697A
:101270000243134B1A6104E0114A12698243104B76
:101280001A61704712494039086070470F49C864B5
:1012900070470B49C87170470948406A40F0807038
:1012A00007494862704701460020054A92680A4093
:1012B0000AB1012000E000207047014988727047A0
:1012C000001002400000FFF8FFFFF6FE000042425F
:1012D0008004424200127A0000093D0018000020FC
:1012E0002800002010B50446FE48204448B90121DA
:1012F0004806FFF7BAFF00214FF00070FFF7B5FF77
:1013000000E000BF00BF10BD30B502460020002342
:10131000146824F002041460146844F0010414609A
:1013200000E05B1C4FF6FF74A34204D0546804F045
:101330000104002CF5D0546804F001040CB900201D
:101340006DE00C78012C04D1146844F08004146022
:1013500003E0146824F0800414604C78012C04D15C
:10136000146844F04004146003E0146824F040045E
:1013700014608C78012C04D1146844F020041460AB
:1013800003E0146824F020041460CC78012C04D10C
:10139000146844F01004146003E0146824F010048E
:1013A00014600C79012C04D1146844F00804146012
:1013B00003E0146824F0080414604C79012C04D173
:1013C000146844F00404146003E0146824F0040476
:1013D00014608C79A407CD7944EA05640D7A44EA57
:1013E00005444D7A44EA05544D896D1E2C43D46161
:1013F000146824F001041460002300E05B1C4FF625
:10140000FF74A34204D0546804F00104002CF5D109
:10141000546804F001040CB1002000E0012030BD4C
:1014200010B500210378012202FA03F1AE4A1268D6
:1014300042F00102AC4B1A60AB4A1C3212688A437C
:10144000A94B1C331A608278CAB9A74A0C321268B9
:101450008A43A54B0C331A60C288438942EA03438E
:10146000A14A4032047842F834308288038942EA43
:1014700003439D4A4032047802EBC40253608278F1
:10148000012A19D1984A0C3212680A43964B0C3340
:101490001A60C288838842EA0343934A4032047840
:1014A00042F834304289038942EA03438E4A40328B
:1014B000047802EBC402536042783AB98A4A121D9A
:1014C00012688A43884B1B1D1A6006E0864A121D6B
:1014D00012680A43844B1B1D1A60828932B9824A02
:1014E000143212688A43804B14331A608289012AAD
:1014F00006D17D4A143212680A437B4B14331A60BA
:10150000827B012A06D1784A1C3212680A43764B44
:101510001C331A60744A126822F00102724B1A607E
:1015200010BD0021017041708170C1700171417165
:101530008171C17103210172022141720121418136
:1015400070471AB143690B43436102E043698B431F
:101550004361704710B502460020936803F0806332
:10156000B3F1806F00D110E0936803F00063B3F132
:10157000006F01D1012008E0936803F08053B3F1BC
:10158000805F01D1022000E00420042874D002F51D
:10159000C07303EB00131B6803F0010402F5C07372
:1015A00003EB00131C600B7A7BB94B7A0C8843EA7F
:1015B000445302F5C07404EB00142468234302F57D
:1015C000C07404EB0014236010E00B7A4C6843EA0B
:1015D000C4034C7A234302F5C07404EB001424685E
:1015E000234302F5C07404EB001423608B7A03F0EC
:1015F0000F038B7202F5C07303EB00135B6823F0DB
:101600000F0402F5C07303EB00135C6002F5C073B6
:1016100003EB00135B688C7A234302F5C07404EB80
:10162000001463608B7B1C064B7B44EA03440B7BFA
:1016300044EA0323CC7A234302F5C07404EB00147C
:10164000A3608B7C1C064B7C44EA03440B7C44EA7D
:101650000323CC7B234302F5C07404EB0014E36046
:1016600002F5C07303EB00131B6843F0010402F59D
:10167000C07303EB00131C6010BD0246002021B1B3
:10168000012910D0022931D11CE0936803F0010335
:1016900040EA8300936803F0020318439368C3F39E
:1016A0008063184324E0936803F4807340EA931046
:1016B000936803F4007340EA13209368C3F3C06394
:1016C000184315E0936803F4803340EA933093683D
:1016D00003F4003340EA13409368C3F300731843E4
:1016E00006E00000009CFFBF00660040002000BF35
:1016F00000BF20B1052804D0072806D103E002204E
:1017000005E0002003E0012001E0002000BF00BF51
:10171000704721B1012907D002290FD109E0826861
:1017200042F0800282600AE0826842F400428260F5
:1017300005E0826842F40002826000E000BF00BF62
:10174000704711B92022C26001E020220261704777
:101750000246002019B9D36803F0030006E001290E
:1017600003D1136903F0030000E00020704730B597
:1017700005460C46134605F5D87000EB04100068CA
:1017800000F004001872187A50B905F5D87000EB13
:101790000410006840F2FF7101EA5050186009E03F
:1017A00005F5D87000EB041000686FF0604101EAA5
:1017B000D000586005F5D87000EB0410006800F008
:1017C0000200587205F5D87000EB0410406800F074
:1017D0000F00987205F5D87000EB04104068000AFD
:1017E000D87405F5D87000EB04108068D87205F540
:1017F000D87000EB04108068010A197305F5D870E1
:1018000000EB04108068010C597305F5D87000EBEB
:1018100004108068000E987305F5D87000EB041072
:10182000C068D87305F5D87000EB0410C068010AD1
:10183000197405F5D87000EB0410C068010C5974D8
:1018400005F5D87000EB0410C068000E98742146AE
:101850002846FFF776FF30BD21B1026842F480329E
:10186000026003E0026822F48032026070470146A1
:1018700000200A6822F0010242F002020A604A686F
:1018800002F00302022A00D10120704701464FF600
:10189000FF7200200B6823F002030B6000E0521E71
:1018A0004B6803F00203022B01D1002AF7D14B68E9
:1018B00003F00203022B00D00120704702460020F3
:1018C00093690B400BB1012000E000207047826952
:1018D0008A43826170470246002002EA01030BB18D
:1018E000012000E00020704770B504460D46002638
:1018F000402D47D00EDC072D2BD006DC042D2FD039
:10190000052D19D0062D61D11CE0082D2ED0202DDB
:101910005CD131E0B5F5806F46D006DCB5F5807F4F
:1019200036D0B5F5007F51D138E0B5F5803F47D0CE
:10193000B5F5003F4AD13DE0A0680121FFF7CBFF9C
:10194000064645E0A0684FF48071FFF7C4FF0646E5
:101950003EE0A0684FF48031FFF7BDFF064637E058
:10196000E0680821FFF7B7FF064631E0E068102184
:10197000FFF7B1FF06462BE020690821FFF7ABFF18
:10198000064625E020691021FFF7A5FF06461FE067
:10199000A0690121FFF79FFF064619E0A069022117
:1019A000FFF799FF064613E0A0690421FFF793FFB4
:1019B00006460DE060681021FFF78DFF064607E040
:1019C00060680821FFF787FF064601E0002600BF98
:1019D00000BF304670BD402935D00EDC072925D028
:1019E00006DC042926D0052919D0062943D119E09F
:1019F000082922D020293ED122E0B1F5806F2FD0D6
:101A000006DCB1F5807F21D0B1F5007F33D122E033
:101A1000B1F5803F29D0B1F5003F2CD128E001225B
:101A2000826029E04FF48072826025E04FF48032BA
:101A3000826021E00822C2601EE01022C2601BE02A
:101A40000822026118E01022026115E0826922F08A
:101A50000102826110E0826922F0020282610BE0E1
:101A6000826922F00402826106E00822426003E0FB
:101A70001022426000E000BF00BF704700204449D0
:101A80000860091D0860091D0860091D08604148BB
:101A90003F4914310860704700213D498279002A8E
:101AA0003AD00A46126803689A430B461A600A1D28
:101AB000126803689A430B1D1A60027911440A6880
:101AC00003681A430A60324A0832126803689A436C
:101AD0002F4B08331A601A1D126803689A432C4B67
:101AE0000C331A604279102A0ED11A1F126803684B
:101AF0001A43274B08331A601A1D126803681A43E9
:101B0000234B0C331A600DE02149427911440A68D5
:101B100003681A430A6005E0027911440A68036801
:101B20009A430A6070470021016001710C214171E4
:101B30000021817170471649103109680143144A28
:101B400010321160704701460020114A14321268A9
:101B50000A400AB1012000E0002070470C4914310E
:101B600008607047014600200022094B1B6803EA09
:101B70000102074B14331B680B4013B10AB101205B
:101B800000E00020704702491431086070470000EF
:101B900000040140FFFF0F0008B54FF4E060FEF7BE
:101BA000B3FF00214FF00060FEF7E5FF14208DF831
:101BB000000000208DF801008DF8020001208DF852
:101BC00003006846FEF7A5FF08BD08B501210920FE
:101BD000FFF724FB01214806FFF72DFB4FF480702F
:101BE000ADF8000048208DF8030069463C48FFF737
:101BF00059F84FF40070ADF8000018208DF803007C
:101C000069463748FFF74EF801214FF4EA10FFF715
:101C10001AF908BD00B587B03248FFF763FB04A886
:101C2000FFF77FFC00208DF810008DF811008DF873
:101C300012008DF813008DF814008DF815008DF842
:101C400016008DF817000C208DF8180001208DF873
:101C500019000920ADF81A0004A92248FFF754FB27
:101C600001208DF8000000208DF8010001208DF882
:101C700002000020ADF80400ADF80600ADF8080041
:101C8000ADF80A00ADF80C0001208DF80E00684692
:101C9000FFF7C6FB012202211248FFF752FC07B0F2
:101CA00000BD30B585B004460D460020009001907F
:101CB00004208DF8080000208DF8090002208DF81E
:101CC0000A008DF80B408DF80C5069460548FFF767
:101CD00041FC05B030BD10B500F0E9FE10BD0000BC
:101CE000000C01400064004008B501210820FFF706
:101CF00095FA2220ADF8000010208DF80300032093
:101D00008DF8020069461348FEF7CCFF22211148E6
:101D1000FFF775F801210420FFF780FAF020ADF8F5
:101D2000000010208DF8030003208DF802006946A2
:101D30000948FEF7B7FFF0210748FFF760F808BD34
:101D400001B502E00098401E009000980028F9D1EB
:101D500008BD0000000C014000080140F649097868
:101D6000012906D0022905D0032904D0042904D171
:101D700002E003E002E001E000E000BF00BF7047C6
:101D800070B586B0044620780006617840EA0140CC
:101D9000A17840EA0120E17840EA0106E6480078AF
:101DA000012806D0022835D0032834D0042834D1A5
:101DB00032E00296207900F00F008DF80E0000202E
:101DC0008DF80D0004208DF80C0060798DF80F005F
:101DD000A1798DF81010E1798DF81110217A8DF824
:101DE0001210617A8DF81310A17A8DF81410E17A2F
:101DF0008DF81510217B8DF8161001A9CF48FFF73B
:101E0000A9FB054600BF2946CC48FFF736FC002851
:101E1000F9D003E002E001E000E000BF00BF06B03F
:101E200070BD10B586B00446C3480078012806D0BE
:101E3000022847D0032847D0042849D146E0002192
:101E4000BE48FFF785FC00283AD001AA0021BB4814
:101E5000FFF78DFC0298000E20700298000C607055
:101E60000298000AA0700298E0709DF80E10207988
:101E700061F303002071207900F00F00082804DDD1
:101E8000207920F00F00083020719DF80F0060715C
:101E90009DF81010A1719DF81110E1719DF81210BC
:101EA00021729DF8131061729DF81410A1729DF8B3
:101EB0001510E1729DF816102173012006B010BDB7
:101EC0000020FBE70120F9E70120F7E70120F5E713
:101ED0000020F3E7704710B50446207820F0020098
:101EE0002070207920F0F0002071207900F00F00A0
:101EF000082804DD207920F00F00083020712046EA
:101F0000FFF73EFF10BD10B58B480078012806D0C2
:101F1000022835D0032864D004287DD194E0884875
:101F2000007818B9FFF7D6FF022010BD21E08548E0
:101F300000788549097801EB8101844A02EB81012F
:101F4000C8708149097801EB810102EB8100FFF73C
:101F5000C2FF7D480078401C7B4908700846007825
:101F6000032801DB0020087075480078401E744982
:101F70000870734800780028D9DCFFF7ABFF96E0C3
:101F80007348007818B9FFF7A5FF0220CDE721E0DC
:101F9000704800787049097801EB81016F4A02EBC3
:101FA0008101C8706C49097801EB810102EB810065
:101FB000FFF791FF68480078401C674908700846A1
:101FC0000078032801DB0020087061480078401E7B
:101FD0005F4908705E4800780028D9DCFFF77AFF77
:101FE00065E05F48007818B9FFF774FF02209CE7AE
:101FF00023E05C4800785C49097801EB81015B4A89
:1020000002EB8101C8705849097801EB810102EBAC
:102010008100FFF760FF00E047E053480078401C74
:102020005149087008460078032801DB0020087039
:102030004B480078401E4A490870494800780028FB
:10204000D7DCFFF747FF32E04948007818B9FFF7BF
:1020500041FF022069E721E04648007846490978B7
:1020600001EB8101454A02EB8101C87042490978C0
:1020700001EB810102EB8100FFF72DFF3E48007864
:10208000401C3D49087008460078032801DB002009
:10209000087037480078401E354908703448007889
:1020A0000028D9DCFFF716FF01E002203DE700BF62
:1020B00000203AE7F0B504460D46059E0021304861
:1020C000007828B902202E4F38703846867001E01B
:1020D0000220F0BD2B48046080F8F650A0F8F430E0
:1020E000002105E0575C2748001D4754481C81B279
:1020F0009942F7DB0020234F87F8FA0087F8FC00AD
:10210000072093FBF0F087F8FB00072093FBF0F724
:1021100000FB173030B11B4890F8FB00401C194FF2
:1021200087F8FB0040F2E240164FA7F8F8000120C4
:1021300087F8FD000020CCE7370000200064004055
:1021400041000020380000203F000020B0000020A7
:102150004700002039000020450000202801002011
:102160004D0000203A0000204B000020A00100207C
:10217000530000203B0000205100002018020020E6
:10218000540000206C03002070B586B00446FE4D5C
:1021900046E06869002842D1FC488078FF2801D1D8
:1021A00006B070BD04F47F40B0F5704F00D3F7E780
:1021B0009DF8040020F01C0018308DF804009DF8F4
:1021C000040020F001008DF80400E8208DF80500DF
:1021D000EE48C0788DF806009DF8080020F00F004A
:1021E00008308DF80800EA4800788DF807000120D3
:1021F0008DF80900FF218DF80A108DF80B108DF86D
:102200000C108DF80D108DF80E40210A8DF80F106E
:10221000210C8DF8101001A8FFF75DFEC0E76D6975
:10222000A868A042B5D1287BDA4909788842B0D1A4
:10223000286908B128698047A88808287DDDD54825
:1022400000780090AB88D14EF1782A68A868FFF733
:1022500031FFD8B330468078FF2800D1A0E79DF841
:10226000040020F01C0018308DF804009DF80400D4
:1022700020F001008DF80400E8208DF80500C34827
:10228000C0788DF806009DF8080020F00F00083097
:102290008DF80800BE4800788DF8070002208DF800
:1022A0000900FF218DF80A108DF80B108DF80C1025
:1022B0008DF80D108DF80E40210A8DF80F10210CAD
:1022C0008DF8101001A8FFF706FE69E7FFE79DF8FB
:1022D000040020F01C0018308DF804009DF8040064
:1022E00020F001008DF80400E8208DF80500A748D3
:1022F0008078FF2802D18DF8060003E0A348C0785B
:102300008DF806009DF8080020F00F0008308DF8C9
:1023100008009F4800788DF8070000208DF809001C
:10232000FF218DF80A108DF80B108DF80C108DF828
:102330000D108DF80E40210A00E008E08DF80F1016
:10234000210C8DF8101001A8FFF7C5FD88E09DF85D
:10235000040020F01C0018308DF804009DF80400E3
:1023600020F001008DF80400E8208DF80500884871
:1023700000788DF8070085488078FF2804D004F4A1
:102380007F40B0F5704F03D3FF208DF8060003E0C7
:102390007E48C0788DF806009DF8080020F00F00F8
:1023A00008308DF808007A4800788DF80700002082
:1023B0008DF80900FF218DF80A108DF80B108DF8AB
:1023C0000C108DF80D108DF80E40210A8DF80F10AD
:1023D000210C8DF8101001A8FFF77DFD9DF8040079
:1023E00020F01C0018308DF80400A868000C9DF83F
:1023F000041060F300018DF804102889000A8DF89C
:102400000500634800788DF8070060488078FF2851
:1024100002D18DF8060003E05C48C0788DF8060014
:1024200028799DF8081060F303018DF8081000204A
:1024300000BF06E029680A5C0DF109010A54411C3D
:10244000C8B2A9888142F5DC05E0FF220DF109013F
:102450000A54411CC8B20828F7DB01A8FFF73BFD6E
:1024600000BF9DE601464878F02801DB0020704758
:102470004878F02804DA8878FF2801D10020F6E7B0
:1024800044480078012806D002280FD0032818D02D
:1024900004282CD120E04878F02806DA88783E4AD3
:1024A0001278904201D10020E1E721E04878F0283D
:1024B00006DA8878394A1278904201D10020D6E7AE
:1024C00016E04878F02806DA8878354A1278904283
:1024D00001D10020CBE70BE04878F02806DA8878B5
:1024E000304A1278904201D10020C0E700E000BFDE
:1024F00000BF0220BBE710B500242448FFF791FC81
:10250000002870D02148FFF7ADFF00B110BD1F4873
:102510004078EA2868D0EB2867D0EC287ED11B48A9
:10252000007B4FF47F0101EA00411848C07A4FF464
:102530007F4202EA002001441448807A0C181A48AD
:10254000007800286DD1194890F8FE00002868D165
:102550000E484079102863D10120134908700D48B6
:10256000007848700948C078104981F8F60007489B
:10257000007B110201EA00410448C07A02EA00200F
:1025800001440248807A13E05402002060000020D9
:1025900035000020370000203800002039000020DE
:1025A0003A0000203B000020540000206C02002074
:1025B0000844FE490860084690F8F80018B1032066
:1025C00081F8FE006CE2FA48C0794FF47F4101EADD
:1025D0000021F74880790844F02807D90320F349FF
:1025E00081F8FE005CE25CE2DEE06CE0F048C0797D
:1025F0004FF47F4101EA0021ED4880790844EB491E
:10260000A1F8F400EA48007A81F8FC0040F2E240C8
:10261000A1F8FA00012081F8FE0041E2F8E000E0B4
:10262000F7E0E448007802284CD1E3480068A04273
:1026300048D1DF484079102806D0112805D013284A
:1026400033D0FF283CD13AE03BE0DB4890F8FD0076
:10265000022804D0D84890F8FD00042824D1D4489A
:10266000807928B940F21A40D349A1F8F8001BE05C
:10267000CF48C17980790144CF4890F8FB00401CD5
:10268000814204DD0520CC4981F8FD000CE0C848FA
:102690008079C94981F8FC00C548C079401E81F89D
:1026A000FA00032081F8FD000BE0C34890F8FD001C
:1026B000042803D10620C04981F8FD0001E000E0B4
:1026C00000BF00BFA5E0B94890F8FE0002286AD11B
:1026D000B64890F8F600B649C978884263D1B44844
:1026E00081794079401EC0EBC002B048001D815482
:1026F000AF48C2794079401EC0EBC000401CAB49D6
:10270000091D0A54AA48027A4079401EC0EBC00055
:10271000801C0A54A648427A4079401EC0EBC00093
:10272000C01C0A54A248827A4079401EC0EBC00007
:10273000001D0A549E48C27A4079401EC0EBC0007A
:10274000401D0A549A48027B4079401EC0EBC000ED
:10275000801D0A5496484079091F91F8FD1088425F
:1027600006DD924890F8FD00401C904981F8FD007C
:1027700040F2EE208D49A1F8FA0091F8FD0000EB3F
:10278000D0714910A0EB410139B1884991F8FD1091
:10279000864A92F8FC20914204D10120834981F8B5
:1027A000FE007DE17CE134E081488079F02813DA95
:1027B0007F48C0794FF4403101EA00417C4880797C
:1027C0004FF47F4202EA002008447949C96860F367
:1027D0001F217748C16015E07548C0794FF440313A
:1027E00001EA0041724880794FF47F4202EA0020FA
:1027F00001446F48407901446D48C06861F31F206F
:102800006B49C8606A49C968080AFFF7BDFC47E11F
:1028100000BF67484078F02815DA65480078C0F3B3
:10282000400040046249097801F0010100EB0140D9
:102830005F49497800EB01215D48C06861F31F20C2
:102840005B49C86017E05A480078C0F34000400474
:102850005749097801F0010100EB014054494978DA
:1028600000EB01205249897801445148C06861F366
:102870001F204F49C86051480078012806D002281F
:102880003ED0032878D0042875D1CCE04C4800789D
:1028900003282DDA4A480078032810DA48480078DF
:1028A000401C4749087047480078401C454908705B
:1028B0000846007803280FDB002008700CE042482F
:1028C000007820F0100010303F490870084600786A
:1028D00020F00E00801C08703A49097801EB810154
:1028E0003A4A02EB81001422314901F0FCFE06E075
:1028F0003548007820F02000203033490870CDE0C2
:102900003348007803282DDA31480078032810DA9C
:102910002F480078401C2E4908702E480078401C33
:102920002C4908700846007803280FDB0020087047
:102930000CE02548007820F0100010302249087083
:102940000846007820F00E00001D08702149097823
:1029500001EB8101204A02EB81001422144901F0AD
:10296000C2FE06E01848007820F02000203016490A
:10297000087093E000E090E01848007803284ADAF5
:102980001648007803282DDA14480078401C1349B3
:10299000087013480078401C1149087008460078F8
:1029A00003282CDB0020087029E000006C020020C6
:1029B00060000020540000206C030020370000203D
:1029C0003E0000203D000020360000207400002062
:1029D0004400002043000020EC0000204A000020BA
:1029E00049000020F948007820F010001030F74925
:1029F00008700846007820F00E00801D0870F44929
:102A0000097801EB8101F34A02EB81001422F249BB
:102A100001F069FE06E0ED48007820F0200020304B
:102A2000EA4908703AE0ED48007803282DDAEB48CF
:102A30000078032810DAE9480078401CE74908705C
:102A4000E7480078401CE6490870084600780328EB
:102A50000FDB002008700CE0DC48007820F010004C
:102A60001030DA4908700846007820F00E0008306F
:102A70000870DB49097801EB8101DA4A02EB810039
:102A80001422D54901F02FFE06E0D048007820F04E
:102A900020002030CD49087000E000BF00BF00BF1B
:102AA00000BFCD4801F042F800BF2FE5704710B5D8
:102AB000FFF7FCFFFFF71FFDFFF725FA00F0EFFC23
:102AC00010BD10B5FFF7F3FF10BD7047704714201D
:102AD00001218140C44A430942F8231000BF7047D6
:102AE00000B50246C1480078012806D0022807D068
:102AF000032808D004280CD108E0BD48027009E082
:102B0000BC48027006E0BC48027003E0BB4802709B
:102B100000E000BF00BF1046FFF720F900BD70B510
:102B200005460C460026FFF7D0FF012C06D0022CEC
:102B300025D0032C44D0042C7ED162E0B04800782C
:102B400008B901261AE0AF48007800EB8000AE4AD1
:102B500002EB80011422284601F0C5FDA948007847
:102B6000401CA849087008460078032801DB0020B3
:102B70000870A3480078401EA149087066E0A34889
:102B8000007808B901261AE0A148007800EB80001F
:102B9000A04A02EB80011422284601F0A4FD9C48C3
:102BA0000078401C9A49087008460078032801DB29
:102BB0000020087095480078401E9449087045E050
:102BC0009548007808B901261AE09448007800EB8F
:102BD0008000804A02EB80011422284601F083FD28
:102BE0008E480078401C8D490870084600780328FC
:102BF00001DB0020087088480078401E8649087074
:102C000024E07648007808B901261CE08448007862
:102C100000EB8000734A02EB80011422284601F089
:102C200062FD7F480078401C7D49087008460078A6
:102C3000032803DB002000E006E008706748007806
:102C4000401E6649087001E0022600BF00BFFFF782
:102C500038FF304670BD70B504460D462946204603
:102C6000FFF75DFF70BD70B504460D460026FFF707
:102C70002DFF012D06D0022D32D0032D5ED0042D64
:102C800075D18AE067480078032827DA654800781C
:102C9000032810DA63480078401C624908706248D3
:102CA0000078401C6049087008460078032809DB5A
:102CB0000020087006E04548007820F00100401C24
:102CC000424908705849097801EB8101574A02EBE3
:102CD00081001422214601F006FD00E00126CDE02E
:102CE00053480078032827DA51480078032810DA7F
:102CF0004F480078401C4E4908704E480078401CF0
:102D00004C49087008460078032809DB0020087049
:102D100006E02E48007820F00100401C2B49087086
:102D20004449097801EB8101434A02EB81001422F6
:102D3000214601F0D8FC00E001269FE03F480078E2
:102D4000032828DA3D480078032811DA3B48007848
:102D5000401C3A4908703A480078401C38490870CD
:102D60000846007803280ADB0020087007E084E0AA
:102D70001648007820F00100401C144908703049C2
:102D8000097801EB81012F4A02EB810014222146D0
:102D900001F0A9FC00E0012670E02B480078032830
:102DA00069DA29480078032852DA27480078401C5D
:102DB0002549087025480078401C244908700846B9
:102DC000007803284BDB0020087048E03600002024
:102DD0004900002064010020600000205000002015
:102DE0004F000020DC01002000E200E0370000205E
:102DF00038000020390000203A0000203B0000206D
:102E00003E0000203C000020740000204400002010
:102E100042000020EC0000204A0000204800002072
:102E20004E0000204100002040000020B0000020A3
:102E30004700002046000020280100204D0000200F
:102E40004C000020A0010020530000205200002070
:102E5000FE48007820F00100401CFC490870FC4945
:102E6000097801EB8101FB4A02EB81001422214623
:102E700001F039FC00E0012600E000BF00BFFFF7D1
:102E800029F8FFF724FE304670BD70B504460D46A4
:102E900029462046FFF7E7FE70BD0020EB49087089
:102EA000ED490870ED490870ED490870ED4908706A
:102EB000FF20ED490870ED490870ED490870E449BC
:102EC00008700020EB490870EB490870EB49087066
:102ED000EB490870FF20EB490870EB490870EB499B
:102EE0000870EB4908700020EA490870EA49087048
:102EF000EA490870EA490870EA490870EA49087026
:102F0000EA490870EA4908700120EA490870F4208B
:102F1000E9490870F720E94908700020E84908707D
:102F20000120E84908700020E749886008600861CE
:102F3000888008734861E549087048708870E449E2
:102F400081F8FC0081F8FB0081F8FA00A1F8F80094
:102F500081F8FD00DF4981F8FD0081F8FC00A1F84F
:102F6000FA0081F8FE007047704730B585B0002444
:102F70009DF8000020F01C001C308DF800009DF82A
:102F8000000020F001008DF80000EB208DF801001A
:102F9000CF4890F8F6008DF802009DF8040020F06C
:102FA0000F0008308DF80400C94890F8FC00002894
:102FB0005ADDC74890F8FC00401EC54981F8FC0066
:102FC000084690F8FA00C0EBC005084690F8FA00F1
:102FD000401CC0B28DF8050000BF08E02919BC48AC
:102FE000001D425C0DF10500611C4254641C072C5D
:102FF000F4DBB74890F8FA1090F8FB00401E8142CD
:1030000022D1B348B0F8F400C01FA8420EDAB0488D
:10301000B0F8F400401BC41F06E0FF220DF10500CC
:1030200004F108014254641C002CF6DB0020A8497E
:1030300081F8FC0081F8FA0040F2E240A1F8F800C3
:10304000042081F8FD0009E0A14890F8FA00401C36
:103050009F4981F8FA00032081F8FD009948017822
:103060006846FFF700FE0CE00020994981F8FC005B
:1030700081F8FA0040F2E240A1F8F800042081F85B
:10308000FD0005B030BD10B586B0914804689DF8CC
:10309000040020F01C001C308DF804009DF8040092
:1030A00020F001008DF80400EC208DF80500884820
:1030B00090F8F6008DF806009DF8080020F00F004B
:1030C00008308DF8080010208DF80900804890F82D
:1030D000F4108DF80A10B0F8F40001128DF80B10FE
:1030E0007B4890F8FB108DF80C10FF218DF80D1027
:1030F000210C8DF81010210A8DF80F108DF80E405C
:103100007048017801A8FFF7AEFD40F2E240704937
:10311000A1F8F800022081F8FD0006B010BD10B53E
:1031200086B06B4804689DF8040020F01C001C3039
:103130008DF804009DF8040020F001008DF80400D3
:10314000EC208DF80500624890F8F6008DF8060036
:103150009DF8080020F00F0008308DF80800FF20CF
:103160008DF80900FF218DF80A108DF80B108DF8ED
:103170000C108DF80D10210C8DF81010210A8DF80F
:103180000F108DF80E404F48017801A8FFF76BFD36
:1031900006204F4981F8FD0006B010BD10B586B07D
:1031A0004C4804689DF8040020F01C001C308DF889
:1031B00004009DF8040020F001008DF80400EC20CC
:1031C0008DF80500434890F8F6008DF806009DF84C
:1031D000080020F00F0008308DF80800FF208DF85F
:1031E0000900FF218DF80A108DF80B108DF80C10D6
:1031F0008DF80D10210C8DF81010210A8DF80F108C
:103200008DF80E402F48017801A8FFF72CFD04200F
:10321000304981F8FE0006B010BD01462C4890F8F8
:10322000FD00022804D02A4890F8FD00042859D156
:103230002748B0F8F80088424EDD2548B0F8F8007D
:10324000401A234AA2F8F8000020704736000020F8
:1032500052000020180200203F00002045000020FE
:103260004B000020510000204000002046000020BC
:103270004C0000203C0000204200002048000020BC
:103280004E0000203D0000204300002049000020A7
:103290004F00002041000020470000204D0000208A
:1032A000530000203E000020440000204A0000207F
:1032B0005000002038000020390000203A00002093
:1032C0003B00002037000020540200205400002062
:1032D0006C0300206C0200200020F74AA2F8F800DE
:1032E000012070470020FCE70146F44890F8FE00FA
:1032F000022813D1F148B0F8FA00884208DDEF48FF
:10330000B0F8FA00401AED4AA2F8FA00002070471F
:103310000020EA4AA2F8FA000120F8E70020F6E7C8
:1033200010B586B0E54804689DF8040020F01C0044
:103330001C308DF804009DF8040020F001008DF889
:103340000400EC208DF80500DC4890F8F6008DF8BC
:1033500006009DF8080020F00F0008308DF80800E6
:10336000D64890F8F800D8B111208DF80900002156
:103370008DF80A10FF218DF80B108DF80C108DF8C8
:103380000D10210C8DF81010210A8DF80F108DF8FA
:103390000E40CB48017801A8FFF765FC06B010BDD0
:1033A000C64890F8FC00C54991F8FD1088424EDDF2
:1033B000C24890F8FC00C14991F8FD10401A01285C
:1033C00021D111208DF8090001218DF80A10BB4888
:1033D00090F8FC108DF80B10FF218DF80C108DF873
:1033E0000D10210C8DF81010210A8DF80F108DF89A
:1033F0000E40B348017801A8FFF735FC0220AF4921
:1034000081F8FE00CAE711208DF8090002218DF82D
:103410000A10AA4890F8FD00401CC1B28DF80B10AC
:10342000FF218DF80C108DF80D10210C8DF8101067
:10343000210A8DF80F108DF80E40A148017801A8DF
:10344000FFF711FC02209D4981F8FE00A6E713203A
:103450008DF80900994890F8F4108DF80A10B0F82A
:10346000F400010A8DF80B10944890F8FC108DF8C8
:103470000C10FF218DF80D10210C8DF81010210A71
:103480008DF80F108DF80E408D48017801A8FFF7D8
:10349000EAFB0420894981F8FE0000BF7EE710B5F1
:1034A0008848007818B187480078032800D110BDFB
:1034B00084480078012834D18248407880490870D7
:1034C0007E4890F8FE00052828D2DFE800F00304CB
:1034D0000711170023E0FFF723FF20E00A20FFF782
:1034E00003FF012803D10320744981F8FE0016E090
:1034F000FFF754FE00207349487010E000206F4928
:1035000081F8FD0081F8FC0040F2E240A1F8FA00E9
:10351000002081F8FE006B49087000E000BF00BF8A
:10352000C5E76848007802283FD16648807864493A
:103530000870614890F8FD00072833D2DFE800F0FA
:1035400004050812151F22002DE0FFF79CFD2AE05C
:103550000A20FFF762FE012803D10520564981F8B1
:10356000FD0020E0FFF701FD1DE00A20FFF755FEFA
:10357000012803D10520504981F8FD0013E0FFF731
:10358000CEFD10E000204C4981F8FC0081F8FA00E3
:1035900040F2E240A1F8F800002081F8FD0049491E
:1035A000087000E000BF00BF81E700BF7FE710B5F3
:1035B00002460B4600214348007830B93F48006876
:1035C00018B103203F4C207001E0022010BD3D489F
:1035D0004078984208D03B480078032802D1002068
:1035E000384C20700220F1E79088344CB4F8F44055
:1035F000A04201DA0220E9E7002106E02F48001D81
:10360000405C14686054481C81B290888842F5DCA4
:103610002A4890F8F60090712848B0F8F40010811C
:1036200026480068D0600020244CA4F8F4002060F4
:1036300024480078032802D10020224C207000206A
:10364000C4E770B586B004460D4616469DF80400E2
:1036500020F001008DF804009DF8040020F01C000B
:1036600018308DF804008DF806509DF8080020F001
:103670000F00C01C8DF80800EA208DF80500E0B2AC
:103680008DF80900210A8DF80A10210C8DF80B1015
:1036900000BF314601A8FFF7E6FA0028F9D106B0CD
:1036A00070BD2DE9F04705460E4617469846DDF8F1
:1036B0002090054C0BE000006C0300206C02002001
:1036C0003700002054000020540200206469606923
:1036D0000028FBD1182000F0D5FE606164692560E8
:1036E000A680A760C4F8108084F80C900020606168
:1036F000BDE8F0872DE9F04706460F4614461D4603
:103700003046394602F0FAF98246214602F026FA9E
:103710008146294602F090F9804602F061F9BDE841
:10372000F0872DE9F04104460F4660790021090237
:1037300041EA10660502A0790543F84B4FF07E522E
:1037400028463146FFF7D6FFC7E90001E07900219E
:10375000090241EA10660502207A0543EF4B4FF05B
:103760007E5228463146FFF7C5FFC7E90201607A5D
:103770000021090241EA10660502A07A0543E74BE1
:103780004FF07E5228463146FFF7B4FFC7E90401E7
:10379000E07A0021090241EA10660502207B054318
:1037A000DE4B4FF07E5228463146FFF7A3FFC7E9B4
:1037B0000601BDE8F0812DE9F04781460C4699F8F5
:1037C0000500617860F30101617099F805008108D6
:1037D000607861F38300607099F8050001096078F2
:1037E00061F30510607099F805008109607861F354
:1037F0008710607099F806000021090241EA1066FE
:10380000050299F80700054300234FF07E52284631
:103810003146FFF76FFFC4E9020199F80800617CA7
:1038200060F30101617499F808008108607C61F31C
:103830008300607499F808000109607C61F3051049
:10384000607499F808008109607C61F387106074E6
:1038500099F80900E17C60F30101E17499F809002D
:103860008108E07C61F38300E07499F809000109A4
:10387000E07C61F30510E07499F809008109E07CAF
:1038800061F38710E07499F80AC000234FF07E526C
:1038900060461946FFF72EFF074602F01BF86061ED
:1038A00099F80B00617E60F30401617699F80B00D2
:1038B0004109607E61F34710607699F80C00E17E63
:1038C00060F30101E17699F80C008108E07E61F374
:1038D0008300E07699F80C000109E07E61F30510A1
:1038E000E07699F80C008109E07E61F38710E076BC
:1038F000BDE8F0872DE9F0470446894694F805C0F5
:10390000874B4FF07E5260460021FFF7F3FE0746DB
:1039100001F0E0FFC9F8000094F806C0804B4FF0BA
:103920007E5260460021FFF7E5FE074601F0D2FF18
:10393000C9F80400E0790021090241EA1066050295
:10394000207A0543774B4FF0745228463146FFF7F3
:10395000D1FEC9E90201607A0021090241EA10663C
:103960000502A07A05436F4B4FF07452284631464A
:10397000FFF7C0FEC9E9040194F80BC0684B4FF093
:103980007E5260460021FFF7B5FE074601F0A2FF18
:10399000C9F8180094F80CC00023634A6046194621
:1039A000FFF7A8FE074601F095FFC9F81C00BDE827
:1039B000F08742794B7862F301034B7042799308A8
:1039C0004A7863F383024A70427913094A7863F3B1
:1039D00005124A70427993094A7863F387124A7054
:1039E0008279CB7862F30103CB7082799308CA782D
:1039F00063F38302CA7082791309CA7863F30512EC
:103A0000CA7082799309CA7863F38712CA70C2793F
:103A10004B7962F301034B71C27993084A7963F3DE
:103A200083024A71C27913094A7963F305124A7114
:103A3000C27993094A7963F387124A71027ACB7982
:103A400062F30103CB71027A9308CA7963F38302AC
:103A5000CA71027A1309CA7963F30512CA71027A2C
:103A60009309CA7963F38712CA71427A4B7A62F377
:103A700001034B72427A93084A7A63F383024A72D3
:103A8000427A13094A7A63F305124A72427A930919
:103A90004A7A63F387124A72827ACB7A62F301031D
:103AA000CB72827A9308CA7A63F38302CA72827AEB
:103AB0001309CA7A63F30512CA72827A9309CA7A21
:103AC00063F38712CA72C27A4B7B62F301034B73B2
:103AD000C27A93084A7B63F383024A73C27A13095A
:103AE0004A7B63F305124A73C27A93094A7B63F3F4
:103AF00087124A73027B9308CA7B63F30102CA737D
:103B0000027B1309CA7B63F38302CA73027B9309A6
:103B1000CA7B63F30512CA73704700000000FAC63F
:103B2000000020C2008088C3CDCCCC3E70B5A6B0CA
:103B300004464FF6F161E068B1EB102F10D10EA9E9
:103B40002046FFF738FEDDE910532A464EA116A89D
:103B500000F0C8FC1A2316AA00210846FCF760FEF4
:103B60004FF6EE61E068B1EB102F13D106A92046A5
:103B7000FFF7C0FE069801F033FF05462A460B46C4
:103B800044A116A800F0AEFC1A2316AA01210020B9
:103B9000FCF746FE4FF64061E068B1EB102F71D1A3
:103BA00002A92046FFF705FF9DF8090000F0030079
:103BB000012804D110213A48FDF723F903E0102130
:103BC0003748FDF71CF99DF809000121B1EB901F62
:103BD00004D180213248FDF714F903E080213048F8
:103BE000FDF70DF99DF80900C0F30110012804D17B
:103BF00040212B48FDF705F903E040212848FDF757
:103C0000FEF89DF80B000121B1EB901F04D120219B
:103C10002448FDF7F6F803E020212248FDF7EFF8ED
:103C20009DF80B00C0F30110012804D120211C488D
:103C3000FDF7E7F803E020211948FDF7E0F89DF8CB
:103C40000D0000F00300012804D102211548FDF702
:103C5000D8F803E002211348FDF7D1F89DF80D00D4
:103C600000F0030000909DF80B00C0F301138209DF
:103C70000DA116A800F036FC1A2316AA0321002075
:103C8000FCF7CEFD26B070BD53706565643A252EF5
:103C90003266000054656D703A252E3266000000D1
:103CA00000080140000C01404C4C69743A25642026
:103CB000524C69743A256420426B55704C74483AF2
:103CC00025640000F5490A78417862F301014170EA
:103CD000417821F00C010C314170F0494A7841786B
:103CE00062F305114170ED498A78417862F38711DA
:103CF0004170C17821F00301C91CC170C17821F065
:103D00000C010C31C170E549CA78C17862F3051124
:103D1000C170E2490A79C17862F38711C170DF4945
:103D20004A79417962F301014171417921F00C0135
:103D30000C314171417921F03001303141714179CB
:103D400021F0C001C0314171C17921F00301C91CCA
:103D5000C171C17921F00C010C31C171C17921F01F
:103D600030013031C171C17921F0C001C031C17160
:103D7000417A21F00301C91C4172417A21F00C0102
:103D80000C314172417A21F0300130314172417A77
:103D900021F0C001C0314172C17A21F00301C91C78
:103DA000C172C17A21F00C010C31C172C17A21F0CB
:103DB00030013031C172C17A21F0C001C031C1720D
:103DC000417B21F00301C91C4173417B21F00C01AF
:103DD0000C314173417B21F0300130314173417B23
:103DE00021F0C001C0314173C17B21F00301C91C26
:103DF000C173C17B21F00C010C31C173C17B21F077
:103E000030013031C173C17B21F0C001C031C173B9
:103E1000704710B54FF6416303600823A0F8F430F3
:103E2000002203E00024031D9C54521C082AF9DBE5
:103E300003794C7804F003042343037103794C782D
:103E4000C4F3810443EA8403037103794C78C4F317
:103E5000011443EA0413037103794C78A40943EA7B
:103E6000841303714379CC7804F003042343437132
:103E70004379CC78C4F3810443EA840444714379E0
:103E8000CC78C4F3011443EA041444714379CC7828
:103E9000A40943EA8414447183794C7904F003043F
:103EA0002343837183794C79C4F3810443EA840406
:103EB000847183794C79C4F3011443EA0414847146
:103EC00083794C79A40943EA84148471C379CC7949
:103ED00004F003042343C371C379CC79C4F3810490
:103EE00043EA8404C471C379CC79C4F3011443EA6E
:103EF0000414C471C379CC79A40943EA8414C4714D
:103F0000037A4C7A04F0030423430372037A4C7A55
:103F1000C4F3810443EA84040472037A4C7AC4F340
:103F2000011443EA04140472037A4C7AA40943EAA4
:103F300084140472437ACC7A04F00304234343725A
:103F4000437ACC7AC4F3810443EA84044472437A0A
:103F5000CC7AC4F3011443EA04144472437ACC7A51
:103F6000A40943EA84144472837A4C7B04F003046A
:103F700023438372837A4C7BC4F3810443EA840431
:103F80008472837A4C7BC4F3011443EA0414847270
:103F9000837A4C7BA40943EA84148472C37ACC7B71
:103FA00004F003042343C372C37ACC7BC4F38104BB
:103FB00043EA8404C472C37ACC7BC4F3011443EA99
:103FC0000414C472C37ACC7BA40943EA8414C47277
:103FD00010BD10B5ADF5876D044620788DF8260428
:103FE0009DF8240420F001008DF824049DF8240499
:103FF00020F01C000C308DF8240494F8F4009DF897
:10400000281460F303018DF828142088000A8DF825
:10401000250420798DF8290461790DF224408171FD
:10402000A179C171E1790172217A4172617A81725B
:10403000A17AC172E17A0173E07AA17A627A237A75
:10404000CDE90432CDE90610E179A07962792379CE
:10405000CDE90032CDE90201B4F8F43010A109A88D
:10406000226800F03FFA01E0FEF77EFF01210DF229
:104070002440FEF7F8FD0028F6D10DF5876D10BD40
:1040800000B5C3B001A8FFF71DFE01A905A8FFF701
:10409000C0FE05A8FFF79DFF43B000BD57000020FC
:1040A00050474E3A25582D627974655F636F756E7F
:1040B000743A25642D646174612D25642D25642D69
:1040C00025642D25642D25642D25642D25642D253D
:1040D000642D09000000000008B54FF4C060FCF733
:1040E00013FD28208DF8000000208DF801008DF8C8
:1040F000020001208DF803006846FCF70AFD08BDA8
:104100000EB501210920FDF789F84FF48050ADF874
:10411000080028208DF80B0002A9D648FCF7C2FD44
:104120000C210120FCF7D4FE4FF4805000900020B9
:104130008DF804000C208DF8050001208DF8060094
:104140006846FDF7A9FC0EBD0EB501210520FDF75F
:1041500065F84FF40060ADF8080028208DF80B00DA
:1041600002A9C548FCF79EFD0B210020FCF7B0FE1C
:104170004FF40060009000208DF804000C208DF8B2
:10418000050001208DF806006846FDF785FC0EBD90
:104190000EB501211120FDF741F84FF40050ADF8A4
:1041A000080028208DF80B0002A9B448FCF77AFD1E
:1041B0000D210220FCF78CFE4FF4005000900020EF
:1041C0008DF804000C208DF8050001208DF8060004
:1041D0006846FDF761FC0EBD1FB501210520FDF706
:1041E0001DF80220ADF80C0028208DF80F0003A95F
:1041F000A148FCF757FD01210020FCF769FE0220D1
:10420000019000208DF808000C208DF80900012095
:104210008DF80A0001A8FDF73FFC07208DF800008B
:1042200000208DF801008DF8020001208DF80300B8
:104230006846FCF76EFC1FBD1FB501210420FCF78A
:10424000EDFF0420ADF80C0048208DF80F0003A905
:104250008948FCF727FD02210020FCF739FE0420E5
:10426000019000208DF808000C208DF80900012035
:104270008DF80A0001A8FDF70FFC08208DF800005A
:1042800000208DF801008DF8020001208DF8030058
:104290006846FCF73EFC1FBD1FB501210420FCF75A
:1042A000BDFF0820ADF80C0048208DF80F0003A9D1
:1042B0007148FCF7F7FC03210020FCF709FE0820F9
:1042C000019000208DF808000C208DF809000120D5
:1042D0008DF80A0001A8FDF7DFFB09208DF800002A
:1042E00000208DF801008DF8020001208DF80300F8
:1042F0006846FCF70EFC1FBD10B5FFF7EDFEFFF79B
:10430000FFFEFFF769FFFFF797FFFFF7C5FFFFF716
:104310001BFFFFF73DFF10BD10B50A20FCF7A7FB00
:104320004FF48050FDF71EFCA8B100BF00BF5448F9
:10433000C07828B1012807D100205149C87003E096
:1043400001204F49C87000BF00BFFFF799FE4FF42E
:104350008050FDF718FC4FF40060FDF703FCA8B196
:1043600000BF00BF4648007828B1012807D10020CF
:104370004349087003E001204149087000BF00BFB5
:10438000FFF77EFE4FF40060FDF7FDFB4FF4005099
:10439000FDF7E8FBA8B100BF00BF3948007928B19C
:1043A000012807D100203649087103E00120344973
:1043B000087100BF00BFFFF763FE4FF40050FDF728
:1043C000E2FB10BD10B50220FDF7CCFBD8B10A20EE
:1043D000FCF74DFB0220FDF7C5FBA0B100BF00BFFD
:1043E0002748407928B1012807D100202449487185
:1043F00003E001202249487100BF00BFFFF740FEE3
:104400000220FDF7C0FB10BD10B50420FDF7AAFB8C
:10441000A0B100BF00BF1A48407828B1012807D1D9
:1044200000201749487003E001201549487000BF7B
:1044300000BFFFF725FE0420FDF7A5FB10BD10B55A
:104440000820FDF78FFBA0B100BF00BF0C488078AB
:1044500028B1012807D100200949887003E0012014
:104460000749887000BF00BFFFF70AFE0820FDF76C
:104470008AFB10BD000C0140000801400010014003
:104480005700002070B5064600F062F9056806F195
:104490000B0020F00704B4429CBF002070BD2B46E7
:1044A0006A68BAB11068A04210D304F108018842CA
:1044B0003CBF5068586007D35168101941601168BB
:1044C000091B016058601460101D70BD13465268CE
:1044D000002AE7D12146284600F042F90028DED123
:1044E00070BD00000FB41CB5074B06AA7B4469469B
:1044F0000090059800F00FFC0020694600F01EFCBB
:104500001CBC5DF814FB00004D0800002DE9F041D3
:104510000646002410687529314615A510D0AFF362
:104520000080002802DA404212A507E031688A07BD
:1045300001D511A502E0490704D510A5012401E029
:10454000AFF3008000210A2306F1240707E0B0FB47
:10455000F3F203FB1200303078541046491C002857
:10456000F5D123462A463046BDE8F04100F069B94E
:10457000000000002D0000002B00000020000000C3
:1045800070B504460D4621461068AFF300802188BF
:10459000090502D50F4A7A4402E00E4A7A440E32E7
:1045A000002104F1240305E000F00F060009965DE8
:1045B0005E54491C0028F7D120780023000704D559
:1045C000702D02D009B1022311322046BDE870409F
:1045D00000F037B9602000002DE9F0474FF0000AE5
:1045E00089460446C0F820A02046E1688847002894
:1045F00076D0252806D0D4E901219047206A401CB6
:104600002062F1E7E168204600258847C4F81CA035
:1046100006460027C4F818A02A2E09D0304601F01B
:104620003CF938B304EB8708303EC8F8186019E04D
:1046300059F8041B204604EB87029161E168884722
:10464000012F064618D1E069002820DA25F0200560
:104650001DE0D8F8180000EB800006EB4000303871
:10466000C8F818002046E1688847064601F015F9A9
:104670000028EED1012F0AD02E2E08D12046E16865
:1046800088477F1C0646022F45F02005C4DBA06941
:10469000002803DA404245F00105A061E80701D097
:1046A00025F01005B6B1A6F14100192802D8203630
:1046B00045F400654A463146204625604D46FBF7E5
:1046C00071FD58B1012806D0ED1D25F0070000F15D
:1046D000080989E704E005F1040985E730468AE71F
:1046E000206ABDE8F08710B5203AC0F00B80B1E831
:1046F0001850203AA0E81850B1E81850A0E8185017
:10470000BFF4F5AF5FEA027C24BFB1E81850A0E81F
:10471000185044BF18C918C0BDE810405FEA827C39
:1047200024BF51F8043B40F8043B08BF7047D20750
:1047300028BF31F8023B48BF11F8012B28BF20F8F1
:10474000023B48BF00F8012B704770477047704725
:1047500000487047740400207047704770477047E6
:1047600038B504460A4600206946AFF300800028A9
:1047700008BF38BD02460099204600F0EDFA01203E
:1047800038BD012000F0F4BBF8B5AFF3008005465A
:1047900000200C46102000BF0646A819A0420DD9E3
:1047A000324669460020AFF30080070008BF00F0E2
:1047B000DFFB0098A04218BF0546C419FFF7C8FFE9
:1047C00005600746F01D20F007004619284600F056
:1047D0000AF8B44208BFF8BDA21B31463868BDE8EC
:1047E000F84000F0B9BA00210160C0E9011070473B
:1047F0001020704770B50446051FFFF7A9FF006839
:10480000002C14BF446870BD002C18BFAC423CBFE4
:1048100020466468F8D301680A18AA4218BF4560A8
:1048200003D12A6805461144016028684119A14254
:104830001CBF6C6070BD61686960216808442860B5
:1048400070BD2DE9F0470D4699469246044600F1A9
:1048500024080168880604D5E06921F01001216070
:1048600000E00120A84201DD471B00E00027A1690C
:104870007A1902EB0900081AA0612078C00602D458
:104880002046AFF30080002608E0D4E901211AF8A1
:1048900006009047206A401C761C20624E45F4DBDF
:1048A0002078C0060AD52046AFF3008006E0D4E9A0
:1048B000012130209047206A401C2062381EA7F159
:1048C0000107F4DC07E0D4E9012118F8050090475E
:1048D000206A401C2062281EA5F10105F3DC204659
:1048E000AFF300802078000602D50220BDE8F087F3
:1048F0000120FBE770472DE9FF4F0C461E464FF0A5
:10490000FF378BB0D2E90001DDF860800A908A465B
:10491000C1F30A5505B93D46002108464FF0000095
:10492000BAF1000F00F4400005DA00EB80004FF40C
:10493000400101EA50004FEA9059B9F1010F00DD42
:10494000B9460A9850EA4A000ED044F61050A5F233
:10495000FF3545432F14B8F1000F1ED07542291EB4
:104960001EDDC9F100021CE0B8F1010F4FF000009C
:1049700001D0302103E0F24305E02154401CB04255
:10498000FBDB30460022002121540B99C1F808803E
:10499000C1E900200FB0BDE8F08FBD1B6D1CDEE744
:1049A0004A4600DA694206A800F076FA06AB93E8B8
:1049B000070003AB83E8070050460A9900F09EFB0E
:1049C0008DE80700A0F500501F3800900398002DD7
:1049D00009DD42F21F014A46084403A903906846D4
:1049E00000F0FDFD08E0A0F500504A461F3803A97D
:1049F0000390684600F007FE8DE807000004000CF5
:104A000003D04FF0FF30410800E01046B8F1000F2E
:104A100003D00022009215461EE0751E05D400F05A
:104A2000B5F9303262556D1EF9D5B34601220843FF
:104A300002D000227F1C04E02078302801D100221F
:104A40007F1E002A099786D01DE0112D07DA00F09D
:104A50009DF9303262556D1C50EA0102F5D10843D0
:104A600002D00098C8B10EE00021681E05E0235C6A
:104A7000625C63542254401E491C8142F7DBAB4602
:104A8000A81B401E0990002004F80B000B98099AFF
:104A9000C0F80880C0E9002B7CE711264FF0000821
:104AA00059E72DE9F04F88460446D21D22F0070150
:104AB00091B0D1E90001CDE90A0100F0DAFE024629
:104AC0000B98C00F01D02D2007E02068810701D589
:104AD0002B2002E0202101EAC000032A099001D026
:104AE000072A05DB03464146204600F095F909E117
:104AF0002078800601D5E06900E00620B8F1650F56
:104B0000814606D0B8F1660F18D0B8F1670F70D1A2
:104B100031E00020B9F1110F009001DB112301E019
:104B200009F101030AAA01A90CA8FFF7E4FEDDE9D7
:104B30000C70002609F10105834647E001204B4631
:104B400000904FF000470AAA01A90CA8FFF7D3FE76
:104B5000DDE90DB00C995D46002610B909F10100A0
:104B60000D18B9EB050003D4C0F1FF3609F10105BA
:104B7000A5EB09002BE0B9F1010F01DA4FF00109B3
:104B80000020B9F1110F0090484601DD112300E02B
:104B900003460AAA01A90CA8FFF7ADFEDDE90C70D7
:104BA0004D4600268346207800070AD4AB4500DA3C
:104BB0005D4601A8012D04DD411911F8011C3029C1
:104BC00007D04F4502DA17F1040F04DA01208246BC
:104BD0000FE06D1EEEE7002F02DCED1B3E4403E00C
:104BE000781CA84200DD7D1CB81B00F1010A4FF0C3
:104BF00000472078000703D4AA4501DB4FF0FF3AB5
:104C00000021B7F1004F0DF143088DF8431022D079
:104C100002202B23002F01DA7F422D234FF00A0CB4
:104C2000011EA0F1010000DC47B197FBFCF10CFB79
:104C300011720F46303208F8012DF1E7A8F101009A
:104C400003702188090501D5452100E06521A0F107
:104C5000010800F8011C09980FA9A1EB0807FF1D26
:104C600000B10120411901EBEA70A1693844081A2A
:104C7000401EA0612078C00602D42046AFF3008019
:104C8000099828B1D4E901219047206A401C20628C
:104C90002078C00622D52046AFF300801EE0002E0B
:104CA00004DBB34502DD01A8805D00E03020D4E9DB
:104CB00001219047206A401C2062761CAAF1010065
:104CC0005FEA000A0AD100F043F8C0680168405C5E
:104CD000D4E901219047206A401C2062281EA5F1DA
:104CE0000105DCDC07E0D4E9012118F8010B90474D
:104CF000206A401C2062381EA7F10107F3DC204621
:104D0000AFF30080022011B045E6000001694A1CA3
:104D100002610878704700B58FB0CDE901310021FC
:104D2000059105497944CDE9031011466846FFF71E
:104D300053FC0FB000BD0000E5FFFFFF0A6802F85A
:104D4000010B0A6070470000004870476C040020A7
:104D5000004870478C040020034640688C460028B9
:104D600018BF88423CBF03464068F8D3186818440F
:104D7000884207D00CF1030020F00700001D411A03
:104D8000521A0146081D0A60FFF734BD30B5B0F174
:104D90000A024FEA900E71F100034EEA817EB0EBF9
:104DA0000E0061EB91014FEA101E4EEA017E10EBFE
:104DB0000E0041EB11114FEA102E4EEA016E10EB7E
:104DC0000E0041EB11214FEA104E4EEA014E10EB5E
:104DD0000E0041EB1141401841F100014FEAD000B3
:104DE00040EA41704FEAD10110EB80054FEA81049F
:104DF00044EA907444EB01046D1944EB0404521B23
:104E0000A3414FF0000348BF0A3200D530BD401C1B
:104E100041F1000130BD00002DE9F0411F4604467C
:104E200003260168072A01F4006004DB08B116A517
:104E300005E016A503E008B115A500E015A521F0D1
:104E400010002060A069C01EA0610FB1401EA061CB
:104E50002046AFF300804FB1D4E901213846904796
:104E6000206A401C2062C01C206206E0206AFAE72B
:104E7000D4E9012115F8010B9047761EF8D220469F
:104E8000AFF30080BDE8F0814E414E006E616E00D0
:104E9000494E4600696E66002DE9F0478146164688
:104EA0008AB0324878440DC88DE80D002F48784408
:104EB000801C03AC0DC884E80D0041F69B303722FE
:104EC000014491FBF2F0A0F1800502FB10141B3CA1
:104ED00002D56442012000E00020DFF890A0804667
:104EE0000027FA44AAF1BA0A0DE0E00709D03246D9
:104EF000684607EB47010AEB810100F084FB8DE86F
:104F0000070064107F1C002CEFD1184F7F44A83F8E
:104F100018E0E80714D007EB04100DF1180A90E828
:104F20000E008AE80E00C068F04201D1981908907E
:104F3000324606A903A800F066FB03AB83E807002E
:104F40006D10641C002DE4D132466946B8F1000FA3
:104F500003A802D000F043FB01E000F054FBC9E9D4
:104F60000001C9F808200AB0BDE8F087F817000072
:104F700010B500F035F8BDE8104000F02CB87047CF
:104F80007546FFF7E1FEAE4605006946534620F040
:104F90000700854618B020B5FBF7A4FDBDE820400A
:104FA0004FF000064FF000074FF000084FF0000BE5
:104FB00021F00701AC46ACE8C009ACE8C009ACE898
:104FC000C009ACE8C0098D4670470446AFF30080C5
:104FD0002046FBF70BF9002801D000F069B87047B4
:104FE00010B5012805D0002103A000F067F80120CA
:104FF00010BD09A1F8E7000053494752544D454DF3
:105000003A204F7574206F662068656170206D6569
:105010006D6F7279000000003A2048656170206D64
:10502000656D6F727920636F72727570746564005C
:105030004FF0013C50F8042B51F8043B9A4221D127
:10504000A2EB0C03934313EACC1317D150F8042BB3
:1050500051F8043B9A4215D1A2EB0C03934313EA97
:10506000CC130BD150F8042B51F8043B9A4209D1D0
:10507000A2EB0C03934313EACC13DBD04FF00000F8
:10508000704700BFD01A01BAB1FA81F101F01801DE
:1050900022FA01F0CB40C1F12001DBB2C0B2C01A4C
:1050A0002CFA01F3D11A914311EAC311E6D17047EA
:1050B00001491820ABBEFEE72600020070B5054688
:1050C0000C460A2000E06D1C00F011F835B128787C
:1050D0000028F8D102E0641C00F009F814B120782F
:1050E0000028F8D1BDE870400A20AFF3008008B571
:1050F00069468DF800000320ABBE08BD5FEA400C96
:1051000008BF91F0000F4FEA8C234FEAC12243EA17
:1051100051514FEA1C5018BF00F5F0404FEA3000E3
:1051200018BF41F000415FEA6C5C00F02980BCF1DF
:10513000FF3F08BF40F080407047130C06BF1204C9
:105140004FF0100C4FF0000C130E04BF12020CF1C4
:10515000080C130F04BF12010CF1040C930F04BFD1
:1051600092000CF1020CD30F04BF52000CF1010CA1
:1051700011464FF00002A0F11F00A0EB0C00704799
:1051800011F0004F08BF704731F000413FF4D5AF38
:105190000B0C06BF09044FF0100C4FF0000C0B0E67
:1051A00004BF09020CF1080C0B0F04BF09010CF13C
:1051B000040C8B0F04BF89000CF1020CCB0F04BF51
:1051C00049000CF1010CCCF12003A0EB0C0022FAF9
:1051D00003F302FA0CF241EA030100F10100704707
:1051E00020F07F4C80EA030023F07F47ACEB0703FD
:1051F00003F57C5300F0004003F1FF032DE98049E3
:105200004FEA154B09B44FEA144325EA0B4E24EA42
:1052100003480FF2042606EB132749083E785FEA9D
:10522000320203FB0667C7F5000707FB06F64FEAE5
:1052300054374FEAD64606F1020607FB066CCCF15E
:10524000005C4FEA1C472CEA074C07FB06F40CFBFA
:1052500006F504EB15464FEA961634BF00204FF0D2
:1052600000404FEAD13706FB07FC4FEA1C4C0CFB11
:105270000BF7D21B03FB0CF761EB07010CFB0EF7DE
:10528000B0EB074072EB17420CFB08F734BFA2EB00
:105290000742B2EB074261EB17414FEA0C444FEA79
:1052A000910706FB07FC4FEA1C4C0CFB0BF7B0EB1D
:1052B000C74072EB573203FB0CF734BFA2EBC74277
:1052C000B2EBC74261EB57310CFB0EF7B0EBC700F6
:1052D00072EB57720CFB08F734BFA2EBC702B2EBBC
:1052E000C70261EB5771039F4FEA816141EA921156
:1052F00004EBCC044FEAD1374FEA826206FB07FC8D
:1053000042EA90124FEA80604FEA1C4C0CFB0BF70C
:10531000D21B03FB0CF761EB07010CFB0EF7B0EBA4
:10532000074072EB17420CFB08F734BFA2EB0742B1
:10533000B2EB074261EB17414FEA8C554FEA9107F8
:1053400004EB9C2406FB07FC4FEA1C4C0CFB0BF700
:10535000B0EBC74072EB573203FB0CF734BFA2EB44
:10536000C742B2EBC74261EB57310CFB0EF7B0EB13
:10537000C70072EB57720CFB08F734BFA2EBC702F1
:10538000B2EBC70261EB577115EB4C254FEA816117
:1053900041EA92114FEA82624FEAD13742EA901213
:1053A00006FB07FC44F100044FEA80604FEA1C4C06
:1053B0000CFB0BF7D21B03FB0CF761EB07010CFB9B
:1053C0000EF7B0EB074072EB17420CFB08F734BF47
:1053D000A2EB0742B2EB074261EB174115EB1C153C
:1053E0004FEA813141EA92414FEA823242EA9042E9
:1053F0004FEA80304FEA0C7644F1000448EA034358
:105400004EEA0B484FF0000EB2EB080C71EB0307AD
:1054100024BF624639464EEB0E0E4FF0000B0018CB
:10542000524149414BEB0B0BB2EB080C71EB0307FC
:105430007BF1000B24BF624639464EEB0E0E4FF057
:10544000000B0018524149414BEB0B0BB2EB080C1F
:1054500071EB03077BF1000B24BF624639464EEB2C
:105460000E0E51EA020718BF46F0010616EB0E7643
:1054700055F1000254F1000103D5BDE88901BDE8F2
:105480000088BDE88901B619BDE80048524141EBEA
:105490000101A3F10103704780807F7E7D7C7B7AD0
:1054A0007978777676757473727171706F6E6E6DD0
:1054B0006C6C6B6A6A696868676666656464636376
:1054C00062616160605F5F5E5E5D5D5C5C5B5B5AFC
:1054D0005A59595858575756565555555454535369
:1054E00052525251515050504F4F4F4E4E4D4D4DC4
:1054F0004C4C4C4B4B4B4A4A4A494949484848470F
:10550000474747464646454545444444444343434C
:105510004342424242414141002B26D4770021D0F0
:105520001CB54FEA370703B44FF010004FF01001DD
:105530004FF000000FBC0BF1010BBDE81040BBF1B8
:10554000010F08BF5FEA170722BF12F1010211F134
:1055500001014FF0004143F1000300F0004043EA35
:1055600000007047F9D35708DAE746EA064613F118
:10557000400F4FEA16461FDD13F1200FDFBF164321
:105580000A46002120335B42C8D0C3F1200746EA17
:10559000064602FA07F74FEA164646EA0706C3F13F
:1055A000200722FA03F201FA07F721FA03F14FF07C
:1055B000000342EA0702B1E746EA020646EA064667
:1055C0004FEA164646EA0106BCBF46EA0646360CD6
:1055D0004FF000034FF000024FF000019EE72DE96D
:1055E000C048934630B491E8380007C831EA400C0F
:1055F00048BF34EA430C03D5FFF7F2FDFFF78CFFF9
:10560000F0BCBDE800882DE9C048934630B491E86D
:10561000380007C810F0804F08BF13F0804F03D147
:1056200000F005F8FFF778FFF0BCBDE8008820F037
:105630007F4780EA030023F07F4C07EB0C03A3F5C0
:105640007C5300F00040A3F1FE0392F0000F00F045
:10565000B38095F0000F00F077802DE901494FEA03
:1056600011404FEA144621EA004800FB06FC24EAF8
:10567000064708FB06F607FB08F800FB07F718EBE0
:1056800006484CEB164C4FEA124B18EB07484FEA12
:1056900015464CEB174022EA0B4E0BFB06FC25EAA5
:1056A00006470EFB06F607FB0EFE0BFB07F71EEB8D
:1056B000064E4CEB164C4FF000061EEB074E4CEB23
:1056C000174B18EB0B0840F1000018EB0E0B58EBD2
:1056D000000840F100008F1A4FF000013CBFC943A1
:1056E000661B14BFB5EB040C00213CBFC943F61B7D
:1056F0004FEA17444EEA8E0E27EA04454FEA1C474C
:1057000004FB07622CEA074C05FB07F70CFB05F6C8
:1057100004FB0CFC16EB074642EB174216EB0C465B
:1057200042EB1C421BEB060658EB0202414146EAE3
:105730009E0601D5BDE80189B619524141EB010130
:10574000A3F10103BDE801894FEA14454FEA11476F
:1057500024EA054621EA074C05FB07F406FB07F798
:105760000CFB06F105FB0CFC11EB074144EB174465
:105770004FEA124711EB0C4144EB1C4422EA074C60
:1057800005FB07F206FB07F70CFB06F605FB0CFC16
:1057900016EB074642EB174216EB0C4642EB1C4554
:1057A0006A1854F1000148BF7047B619524141EBE5
:1057B0000101A3F10103704795F0000F37D04FEAC4
:1057C00011424FEA144721EA024624EA074C02FB41
:1057D00007F106FB07F70CFB06F402FB0CFC14EBCD
:1057E000074441EB17414FEA154714EB0C4441EBDA
:1057F0001C4125EA074C02FB07F506FB07F70CFBEB
:1058000006F602FB0CFC16EB074645EB174516EBBC
:105810000C4645EB1C42121951F1000148BF70477C
:10582000B619524141EB0101A3F1010370474FEA60
:1058300014454FEA114724EA054621EA074C05FBC7
:1058400007F106FB07F70CFB06F24FF0000605FB1D
:105850000CFC12EB074241EB174112EB0C4251EBEF
:105860001C4148BF7047921841EB0101A3F10103AD
:105870007047490050EAC12018BF04204A0D18BFE4
:1058800040F0010040F2FF72B2EB515F08BF40F000
:105890000200012808BF0520704730380A2801D2CD
:1058A000012070470020704710B500290AD0087801
:1058B000002807D005487844FFF7BAFB002801D03C
:1058C000002010BD0248784410BD0000220E0000E8
:1058D0001A0E000021F00042A2F16052B2F5801FC2
:1058E00001F0004328BFD2F17F6C0BD95FEA001CA6
:1058F00043EAC20242EB507018BF704728BF20F045
:1059000001007047B2F5801FBCBF184670474FEAD0
:10591000410C1CF5001F02D2084600F0E6B970B534
:1059200000F009F800000089FFF7F6BF4FF00040D3
:10593000A0F5800070470EF1020E2EF0030E5EF807
:10594000046B364205D4012A43EB030515F5001F0D
:1059500012D8012841EB010C1CF5001F0CD80ED108
:105960004FEAD17C15F5001F0CEB4C0C0CF1020C2E
:1059700008BF4CEBD37C04E04FF0080C01E04FEA89
:10598000D37C0CEB4C0526FA05F606F00706B6F1BB
:10599000040C06D20EEB860CBDE870404CF0010CF6
:1059A0006047DFE80CF0090B02024FF000414FF0B6
:1059B0000000A1F5002170BD19461046012851EBE9
:1059C000010418BFD4F5001484BF002001F0004189
:1059D00070BD0808A0F500114FEA310170470000C2
:1059E00043004FEAD30C4FEA3C0C43401FBF400733
:1059F0000CF1605113F0FE4F70471CF0006F03D1A3
:105A000000200CF0004170470CF0004343EA507056
:105A100010B540EACC0000F022F900BF000000926F
:105A20004FEA0001FFF7D5BF4FF000414FF00000F3
:105A3000A1F500217047000090EA010F48BF81F0F6
:105A4000004100F15E81421A3CBF801A89184FEA7A
:105A5000D0524FF07F4C1CEA410FA2EBD15318BF3C
:105A60009CEA026F00F03B804FF0004C4CEA0020B3
:105A70004CEA012121FA03FC10EB0C0C1ED202F1BE
:105A8000FF325FEA1C2040EBC25038BF70471CF069
:105A90007F0F4FEA400C18BFBCF17F4F38BF7047F3
:105AA000C3F12003994008BF20F00100BCF17F4FF3
:105AB00038BF7047A0F1C04000F017B94FEA3C0072
:105AC000000A40EBC25028BF1CF0FF0F4FEA400C09
:105AD000E6D018BFBCF17F4F38BF7047EAE79CEAB9
