:020000040800F2
:10000000480E0020C50C000825040008270400083D
:100010002B0400082F04000833040008000000002F
:10002000000000000000000000000000370400088D
:1000300039040008000000003B0400083D040008EB
:10004000DF0C0008DF0C0008DF0C0008DF0C0008E4
:10005000DF0C0008DF0C0008DF0C0008DF0C0008D4
:10006000DF0C0008DF0C0008DF0C0008DF0C0008C4
:10007000DF0C0008DF0C0008DF0C0008DF0C0008B4
:10008000DF0C0008DF0C0008DF0C0008DF0C0008A4
:10009000B71D0008DF0C0008DF0C0008DF0C0008AB
:1000A000DF0C0008DF0C0008DF0C0008DF0C000884
:1000B000DF0C0008DF0C0008DF0C0008DF0C000874
:1000C000DF0C0008DF0C0008DF0C0008DF0C000864
:1000D000DF0C0008DF0C0008DF0C0008DF0C000854
:1000E000DF0C0008DF0C0008DF0C0008DF0C000844
:1000F000DF0C0008DF0C0008DF0C0008DF0C000834
:10010000DF0C0008DF0C0008DF0C0008DF0C000823
:10011000DF0C0008DF0C0008DF0C0008DF0C000813
:10012000DF0C0008DF0C0008DF0C0008DF0C000803
:1001300000F002F800F05EF80AA090E8000C82449B
:100140008344AAF10107DA4501D100F053F8AFF278
:10015000090EBAE80F0013F0010F18BFFB1A43F0A5
:10016000010318474C4100006C4100000A444FF065
:10017000000C10F8013B13F0070408BF10F8014B06
:100180001D1108BF10F8015B641E05D010F8016B4B
:10019000641E01F8016BF9D113F0080F1EBF10F8AF
:1001A000014BAD1C0C1B09D16D1E58BF01F801CBD2
:1001B000FAD505E014F8016B01F8016B6D1EF9D555
:1001C0009142D6D37047000000230024002500266A
:1001D000103A28BF78C1FBD8520728BF30C148BFAA
:1001E0000B6070471FB59DE8030003F053FB1FBD74
:1001F00010B510BD03F0D2FB1146FFF7F3FF00F07E
:1002000084F803F0F0FB03B4FFF7F2FF03BC03F044
:100210001DFC000001B502E00098401E009000980F
:100220000028F9D108BD08B50121042001F0F4F837
:100230000121082001F0F0F84FF44050ADF8000023
:1002400001208DF8020048208DF8030069466C48B3
:1002500000F026FE4FF48070ADF8000001208DF80C
:10026000020048208DF803006946664800F018FE39
:1002700008BD10B54FF40051614800F0A4FEF0B97C
:100280006148FFF7C7FF4FF400515D4800F09BFE47
:10029000A8B900BF4FF40051594800F094FE00285F
:1002A000F8D07721552001F06CFD4FF400415448FF
:1002B00000F0A3FE4FF48041514800F09EFE4FF441
:1002C00080514F4800F07FFEF0B94F48FFF7A2FF82
:1002D0004FF480514A4800F076FEA8B900BF4FF4B1
:1002E0008051474800F06FFE0028F8D0BB219920CC
:1002F00001F047FD4FF40041414800F07EFE4FF40D
:1003000080413F4800F079FE10BD00F071FC00F024
:10031000E3FB00F077FA00F002F9FFF784FF01F049
:1003200053FD01F0C2FC01F0A7FC01F0E3FC02F078
:1003300004FE102335A20321062000F03DFB21E03E
:100340004FF48041354800F058FE4FF400413348E7
:1003500000F053FE3248FFF75DFF3148FFF75AFFC8
:100360004FF480412D4800F048FE4FF400412B48E7
:1003700000F043FE2A48FFF74DFF2948FFF74AFFE8
:1003800000F001F8DCE700B585B09DF8000020F032
:1003900001008DF800009DF8000020F01C000C30DA
:1003A0008DF8000011208DF802009DF8040020F067
:1003B0000F0008308DF80400FE208DF80100112098
:1003C0008DF8050022218DF8061011218DF80710F7
:1003D00044218DF8081055218DF8091011218DF850
:1003E0000A108DF80B108DF80C1001E002F00CFED5
:1003F0000121684602F086FC0028F7D105B000BD57
:10040000000C01400008014040420F00302E3936F8
:1004100027204F4C454420544553540000100140C0
:1004200020A10700704700BFFEE700BFFEE700BF46
:10043000FEE700BFFEE77047704770477047000057
:100440000CB50020019000906C48006840F48030AA
:100450006A49086000BF6948006800F400300090F5
:100460000198401C0190009818B90198B0F5A06F50
:10047000F1D16248006800F4003010B10120009012
:1004800001E0002000900098012843D15C480068FA
:1004900040F010005A4908600846006820F0030048
:1004A00008600846006840F0020008605348406851
:1004B000524948600846406848600846406840F431
:1004C000806048600846406820F47C104860084618
:1004D000406840F4E81048600846006840F08070CA
:1004E000086000BF4548006800F000700028F9D09F
:1004F0004248406820F00300404948600846406890
:1005000040F00200486000BF3C48406800F00C002A
:100510000828F9D10CBD10B5FFF792FF10BD10B53A
:100520003648006840F001003449086008464068D9
:10053000344908403149486008460068324908405B
:100540002E4908600846006820F4802008600846AC
:10055000406820F4FE0048604FF41F008860FFF7F9
:10056000DAFF4FF000602949086010BD10B5002186
:1005700000200022214B5B6803F00C0121B104290B
:1005800006D0082928D107E0214B224C236027E020
:100590001F4B204C236023E0184B5B6803F4701062
:1005A000164B5B6803F48032022303EB904022B9C0
:1005B000194B4343174C23600DE0104B5B6803F469
:1005C000003323B1144B4343124C236003E0104B20
:1005D0004343104C236003E00D4B0E4C236000BFDF
:1005E00000BF064B5B68C3F303130C4CE15C094B83
:1005F0001B68CB40074C236010BD00000010024078
:10060000002002400000FFF8FFFFF6FE08ED00E0CA
:1006100000127A000000002000093D0004000020C4
:1006200010B54021F94800F0E8FC8021F74800F0BF
:10063000E4FC8021F54800F0E2FC4021F34800F0A2
:10064000DEFC10BD10B54021F04800F0D6FC802142
:10065000EE4800F0D4FC8021EC4800F0CEFC10BD48
:1006600010B54021E94800F0C8FC4021E74800F0FF
:10067000C6FC10BD2DE9F04105462C464021E3485B
:1006800000F0BDFC002619E0274607F08007802F08
:1006900004D18021DD4800F0B0FC03E08021DB487C
:1006A00000F0ADFC6006040E4021D84800F0A5FC27
:1006B0004021D64800F0A3FC701CC6B2082EE3DB34
:1006C000BDE8F08110B50446FFF7AAFF7820FFF7D8
:1006D000D1FFFFF7C5FF0020FFF7CCFFFFF7C0FFFA
:1006E0002046FFF7C7FFFFF7BBFFFFF7ABFF10BDCB
:1006F00010B50446FFF794FF7820FFF7BBFFFFF724
:10070000AFFF4020FFF7B6FFFFF7AAFF2046FFF735
:10071000B1FFFFF7A5FFFFF795FF10BD70B50446C9
:100720000D461DB1E0B2FFF7E3FF02E0E0B2FFF7D4
:10073000C9FF70BD70B50646002418E004F1B00092
:100740000021FFF7EBFF00210846FFF7E7FF00213C
:100750001020FFF7E3FF002505E001213046FFF7F9
:10076000DDFF681CC5B2802DF7DB601CC4B2082C0D
:10077000E4DB70BD06E041F6650100E0491E00299A
:10078000FCD1401E0028F6D17047014605E000204C
:1007900001E0421CD0B27B28FBDB0A00A1F1010181
:1007A000F5D1704770B504460D4605F1B000002143
:1007B000FFF7B4FF102141EA14100021FFF7AEFF4C
:1007C00004F00F000021FFF7A9FF70BD10B5002154
:1007D0008D20FFF7A3FF00211420FFF79FFF0021CA
:1007E000AF20FFF79BFF10BD10B500218D20FFF754
:1007F00095FF00211020FFF791FF0021AE20FFF7A9
:100800008DFF10BD70B5002418E004F1B000002188
:10081000FFF784FF00210846FFF780FF002110202A
:10082000FFF77CFF002505E001210020FFF776FFA0
:10083000681CC5B2802DF7DB601CC4B2082CE4DB59
:1008400070BD70B5002418E004F1B0000021FFF77E
:1008500065FF00210846FFF761FF00211020FFF728
:100860005DFF002505E001210846FFF757FF681CE2
:10087000C5B2802DF7DB601CC4B2082CE4DB70BD70
:100880002DE9F04707460E4690469946002500247C
:10089000A8F12000C5B27F2F02DD0027B01CC6B230
:1008A000B9F1100F24D131463846FFF77BFF002401
:1008B00008E004EB0511564A505C0121FFF72EFFBA
:1008C000601CC4B2082CF4DB701CC1B23846FFF7C0
:1008D00069FF002409E004EB051108314C4A505C23
:1008E0000121FFF71BFF601CC4B2082CF3DB12E0F0
:1008F00031463846FFF756FF00240AE005EB450174
:10090000444A02EB4101085D0121FFF707FF601C2B
:10091000C4B2062CF2DBBDE8F08710B50246012018
:1009200000E050430B00A1F10104E1B2F9D110BD88
:100930002DE9FF5F074691461E460E9D4FF0000AC7
:10094000002435E0301B401EC1B20A20FFF7E5FF4E
:10095000B9FBF0F00A21B0FBF1F201FB1208BAF189
:10096000000F14D1701EA04211DDB8F1000F0CD1A0
:10097000AB4605EBDB71491001FB0471C8B22B4695
:1009800020220199FFF77CFF10E04FF0010AAB46EF
:1009900005EBDB71491001FB0471C8B208F13001AD
:1009A000CAB22B460199FFF76BFF00BF601CC4B2AF
:1009B000B442C7DBBDE8FF9F2DE9F04104460F4676
:1009C0001546984600260FE0AA5D43463946204664
:1009D000FFF756FF04F10800C4B2782C02DD0024B2
:1009E000B81CC7B2701CC6B2A85D0028ECD1BDE827
:1009F000F0812DE9F04180460E461546002731462C
:100A00004046FFF7CFFE002411E00000000C01403B
:100A1000C03C0008983A0008734A02EB8511085D53
:100A20000121FFF77BFE781CC7B2601CC4B2102CFA
:100A3000F2DB701CC1B24046FFF7B4FE00240CE0AC
:100A40006900491C684A02EB4111085D0121FFF76A
:100A500065FE781CC7B2601CC4B2102CF0DBBDE888
:100A6000F0812DE9F05F06460F4690461C46DDF802
:100A700028A04FF0000BE11704EB5171C910A4EB53
:100A8000C10131B92046E11704EB5171C1F3C7052B
:100A900006E02046E11704EB5171C910491CCDB2A4
:100AA0003D4615E029463046FFF77CFEB1460BE097
:100AB00059460BF1010B1AF801000121FFF72EFE38
:100AC00009F1010000F0FF09C145F1DB681CC5B266
:100AD000A542E7DBBDE8F09F08B50121082000F042
:100AE0009BFCC020ADF8000010208DF8030003200F
:100AF0008DF8020069463D4800F0D2F9C0213B481C
:100B000000F07BFA4FF4487000F0AFF80021AE20FF
:100B1000FFF704FE00210846FFF700FE0021102029
:100B2000FFF7FCFD00214020FFF7F8FD0021B02079
:100B3000FFF7F4FD00218120FFF7F0FD0021FF20E9
:100B4000FFF7ECFD0021A120FFF7E8FD0021A62022
:100B5000FFF7E4FD0021A820FFF7E0FD00213F2082
:100B6000FFF7DCFD0021C820FFF7D8FD0021D320CE
:100B7000FFF7D4FD00210846FFF7D0FD0021D52066
:100B8000FFF7CCFD00218020FFF7C8FD0021D82011
:100B9000FFF7C4FD00210520FFF7C0FD0021D9208B
:100BA000FFF7BCFD0021F120FFF7B8FD0021DA209E
:100BB000FFF7B4FD00211220FFF7B0FD0021DB207C
:100BC000FFF7ACFD00213020FFF7A8FD00218D20AC
:100BD000FFF7A4FD00211420FFF7A0FD0021AF20A6
:100BE000FFF79CFD08BD000014000020000C014030
:100BF00010B56FF0040000F0D4F82E4800682E49BC
:100C0000B0FBF1F02D4908700846007800EB400178
:100C1000C1EBC0104FF6FF7101EAC00028490880FF
:100C200010BD0146254A12784A434FF0E0235A612D
:100C300000229A611A46126942F001021A6100BF4D
:100C40004FF0E022106900F001021AB100F4803286
:100C5000002AF5D04FF0E022126922F001024FF095
:100C6000E0231A6100229A6170470146144A1288F3
:100C70004A434FF0E0235A6100229A611A461269F2
:100C800042F001021A6100BF4FF0E022106900F04B
:100C900001021AB100F48032002AF5D04FF0E022B0
:100CA000126922F001024FF0E0231A6100229A61DA
:100CB000704700000000002000127A00940300201A
:100CC000960300200948804709480047FEE7FEE7F1
:100CD000FEE7FEE7FEE7FEE7FEE7FEE7FEE7FEE7EC
:100CE00004480549054A064B704700001F050008E7
:100CF0003101000848080020480E0020480A002062
:100D0000480A002031490143314A1160704770B5EB
:100D1000002100230F22C47804B32D4C246804F46E
:100D2000E064C4F5E064210AC1F10403CA404478D8
:100D300004FA03F18478144021430901254C067814
:100D4000A155047804F01F050124AC4005786D110D
:100D5000AD0005F1E025C5F8004109E0047804F094
:100D60001F050124AC401C4D0678761145F826403D
:100D700070BD1A4A0A400243154B1B1F1A60704788
:100D800039B1134A121D12680243114B1B1D1A6020
:100D900006E00F4A121D126882430D4B1B1D1A609C
:100DA0007047042808D14FF0E021096941F004019F
:100DB0004FF0E022116107E04FF0E021096921F0D6
:100DC00004014FF0E0221161704700000000FA05B5
:100DD0000CED00E000E400E080E100E080FFFF1F98
:100DE00010B50446CC48844208D10121042000F00B
:100DF0002DFB0021042000F029FB46E0C748844277
:100E000008D10121082000F021FB0021082000F07A
:100E10001DFB3AE0C248844208D10121102000F0B5
:100E200015FB0021102000F011FB2EE0BD4884428C
:100E300008D10121202000F009FB0021202000F032
:100E400005FB22E0B848844208D10121402000F08F
:100E5000FDFA0021402000F0F9FA16E0B348844280
:100E600008D10121802000F0F1FA0021802000F05B
:100E7000EDFA0AE0AE48844207D10121801500F066
:100E8000E5FA0021A01500F0E1FA10BD10B501212E
:100E9000084600F0DBFA0021012000F0D7FA10BD6F
:100EA0002DE9F04102460025002600200023002401
:100EB000002791F803C00CF00F0591F803C00CF067
:100EC000100CBCF1000F03D091F802C04CEA0505EC
:100ED00091F800C0BCF1000F31D0146800202BE065
:100EE0004FF0010C0CFA00F3B1F800C00CEA030655
:100EF0009E4220D183004FF00F0C0CFA03F7BC4345
:100F000005FA03FC4CEA040491F803C0BCF1280F75
:100F100006D14FF0010C0CFA00FCC2F814C00AE034
:100F200091F803C0BCF1480F05D14FF0010C0CFA49
:100F300000FCC2F810C0401C0828D1D31460B1F8DE
:100F400000C0BCF1FF0F34DD546800202EE000F13A
:100F5000080C4FF0010808FA0CF3B1F800C00CEAD5
:100F600003069E4221D183004FF00F0C0CFA03F7C9
:100F7000BC4305FA03FC4CEA040491F803C0BCF13D
:100F8000280F05D100F1080C08FA0CF8C2F81480FB
:100F900091F803C0BCF1480F07D100F1080C4FF0E5
:100FA000010808FA0CF8C2F81080401C0828CED3BB
:100FB0005460BDE8F0814FF6FF710180022181701D
:100FC0000421C17070470246002093680B400BB1AA
:100FD000012000E0002070470146886880B2704719
:100FE00002460020D3680B400BB1012000E0002036
:100FF00070470146C86880B270470161704741611F
:1010000070470AB1016100E041617047C1607047FB
:101010004FF480320A438261816182618269826910
:10102000704702460020434B18684FF68073184003
:1010300040EA021008433F4B186070473E49C861C0
:101040007047F0B50A46002300240021002500F077
:101050000046B6F1004F02D1364EF16901E0354E3F
:101060007168C0F3034583B200F44016B6F5401F23
:1010700008D121F070612F4E766826F070662D4FF2
:101080007E6012E000F48016B6F5801F06D10326BC
:1010900006FA05F4A14341F0706106E0460D360101
:1010A00003FA06F6B14341F0706122B1460D3601F4
:1010B00003FA06F6314300F00046B6F1004F02D1C4
:1010C0001C4EF16101E01B4E7160F0BD30B5002295
:1010D0008B071C0F0F2303FA04F2164B08338C10F6
:1010E00053F824309343134C08348D1044F82530C2
:1010F00023468C1053F824308C07240F00FA04F494
:1011000023430C4C08348D1044F8253030BD0A4977
:10111000DC3108607047000000080140000C01400D
:10112000001001400014014000180140001C014063
:10113000002001400000014000002042DF4800681C
:1011400040F00100DD49086008464068DC4908407D
:10115000DA49486008460068DA490840D74908601B
:101160000846006820F4802008600846406820F4A3
:10117000FE0048604FF41F0088607047CF4909683F
:1011800021F48031CD4A11601146096821F4802193
:101190001160B0F5803F03D0B0F5802F0ED106E08E
:1011A000C649096841F48031C44A116007E0C34967
:1011B000096841F4A021C14A116000E000BF00BFEE
:1011C000704710B501460022002300204A11012A71
:1011D00002D1BA4C236806E0022A02D1B74C236A36
:1011E00001E0B64C636A01F01F02012494401C40E8
:1011F0000CB1012000E0002010BD38B500200090A7
:101200000024002500BF3120FFF7DBFF05460098D2
:10121000401C00900098B0F5A06F01D0002DF2D0D6
:101220003120FFF7CEFF08B1012400E00024204662
:1012300038BD01460020A14A106820F0F80040EABD
:10124000C10010607047A049086070470246002046
:101250009A4B586820F47C1042EA01031843974BDC
:101260005860704798490866704701460020934AC5
:10127000506820F003000843506070478F48406872
:1012800000F00C007047014600208C4A506820F0A6
:10129000F00008435060704701460020874A5068BC
:1012A00020F4E06008435060704701460020834A04
:1012B000506820F4605040EAC1005060704729B186
:1012C0007E4A527A02437D4B5A7204E07B4A527A3C
:1012D00082437A4B5A7270477B49D8310860704715
:1012E00001460020754A506820F440400843506091
:1012F00070470021714A20321170704A82F8201024
:10130000012802D004280AD104E001216B4A2032CE
:10131000117005E00521694A2032117000E000BF1C
:1013200000BF70476949086070476449096A014312
:10133000624A11627047654944390860704730B5A8
:1013400000210022002400235C4D6D6805F00C0193
:1013500021B1042905D0082923D105E05C4D0560A1
:1013600022E05B4D05601FE0544D6D6805F470127E
:10137000524D6D6805F48034022505EB92421CB98C
:10138000544D554305600BE04C4D6D6805F4003538
:101390001DB1504D5543056002E04D4D554305606C
:1013A00002E04B4D056000BF00BF444D6D6805F085
:1013B000F0010909484D6B5C0568DD4045603F4D13
:1013C0006D6805F4E061090A434D6B5C4568DD40DA
:1013D00085603A4D6D6805F46051C90A3E4D6B5CFD
:1013E0004568DD40C560354D6D6805F44041890BA9
:1013F0003A4D6B5CC568B5FBF3F5056130BD29B1AD
:101400002E4A526902432D4B5A6104E02B4A52691D
:1014100082432A4B5A61704729B1284A9269024394
:10142000264B9A6104E0254A92698243234B9A61D4
:10143000704729B1214AD2690243204BDA6104E0A6
:101440001E4AD26982431D4BDA61704729B11B4A9B
:10145000D2680243194BDA6004E0184AD26882432A
:10146000164BDA60704729B1144A12690243134BD4
:101470001A6104E0114A12698243104B1A617047E5
:1014800012494039086070470F49C86470470B49DA
:10149000C87170470948406A40F080700749486247
:1014A000704701460020054A92680A400AB10120AF
:1014B00000E0002070470149887270470010024028
:1014C0000000FFF8FFFFF6FE0000424280044242A7
:1014D00000127A0000093D0098030020A8030020B4
:1014E00010B50446FE48204448B901214806FFF7DC
:1014F000BAFF00214FF00070FFF7B5FF00E000BF1A
:1015000000BF10BD30B5024600200023146824F04F
:1015100002041460146844F00104146000E05B1CD1
:101520004FF6FF74A34204D0546804F00104002C69
:10153000F5D0546804F001040CB900206DE00C787B
:10154000012C04D1146844F08004146003E0146892
:1015500024F0800414604C78012C04D1146844F009
:101560004004146003E0146824F0400414608C7894
:10157000012C04D1146844F02004146003E01468C2
:1015800024F020041460CC78012C04D1146844F0B9
:101590001004146003E0146824F0100414600C7943
:1015A000012C04D1146844F00804146003E01468AA
:1015B00024F0080414604C79012C04D1146844F020
:1015C0000404146003E0146824F0040414608C79AB
:1015D000A407CD7944EA05640D7A44EA05444D7ABE
:1015E00044EA05544D896D1E2C43D461146824F0DF
:1015F00001041460002300E05B1C4FF6FF74A3425B
:1016000004D0546804F00104002CF5D1546804F0AF
:1016100001040CB1002000E0012030BD10B5002114
:101620000378012202FA03F1AE4A126842F0010285
:10163000AC4B1A60AB4A1C3212688A43A94B1C336C
:101640001A608278CAB9A74A0C3212688A43A54B3D
:101650000C331A60C288438942EA0343A14A4032EC
:10166000047842F834308288038942EA03439D4A71
:101670004032047802EBC40253608278012A19D107
:10168000984A0C3212680A43964B0C331A60C2888F
:10169000838842EA0343934A4032047842F8343064
:1016A0004289038942EA03438E4A4032047802EBBE
:1016B000C402536042783AB98A4A121D12688A43BA
:1016C000884B1B1D1A6006E0864A121D12680A43E9
:1016D000844B1B1D1A60828932B9824A1432126807
:1016E0008A43804B14331A608289012A06D17D4ACD
:1016F000143212680A437B4B14331A60827B012A2E
:1017000006D1784A1C3212680A43764B1C331A60A1
:10171000744A126822F00102724B1A6010BD002157
:10172000017041708170C170017141718171C1712D
:1017300003210172022141720121418170471AB1D6
:1017400043690B43436102E043698B434361704744
:1017500010B502460020936803F08063B3F1806FF8
:1017600000D110E0936803F00063B3F1006F01D182
:10177000012008E0936803F08053B3F1805F01D14A
:10178000022000E00420042874D002F5C07303EBAB
:1017900000131B6803F0010402F5C07303EB001390
:1017A0001C600B7A7BB94B7A0C8843EA445302F5F0
:1017B000C07404EB00142468234302F5C07404EBE6
:1017C0000014236010E00B7A4C6843EAC4034C7A9F
:1017D000234302F5C07404EB00142468234302F58C
:1017E000C07404EB001423608B7A03F00F038B7238
:1017F00002F5C07303EB00135B6823F00F0402F5DE
:10180000C07303EB00135C6002F5C07303EB0013BD
:101810005B688C7A234302F5C07404EB00146360A8
:101820008B7B1C064B7B44EA03440B7B44EA03237B
:10183000CC7A234302F5C07404EB0014A3608B7CC4
:101840001C064B7C44EA03440B7C44EA0323CC7B18
:10185000234302F5C07404EB0014E36002F5C07387
:1018600003EB00131B6843F0010402F5C07303EBA4
:1018700000131C6010BD0246002021B1012910D0C8
:10188000022931D11CE0936803F0010340EA830090
:10189000936803F0020318439368C3F3806318430B
:1018A00024E0936803F4807340EA9310936803F490
:1018B000007340EA13209368C3F3C063184315E034
:1018C000936803F4803340EA9330936803F4003361
:1018D00040EA13409368C3F30073184306E0000026
:1018E000009CFFBF00660040002000BF00BF20B189
:1018F000052804D0072806D103E0022005E00020D7
:1019000003E0012001E0002000BF00BF704721B1CB
:10191000012907D002290FD109E0826842F0800234
:1019200082600AE0826842F40042826005E08268D8
:1019300042F40002826000E000BF00BF704711B9AE
:101940002022C26001E0202202617047024600208E
:1019500019B9D36803F0030006E0012903D1136924
:1019600003F0030000E00020704730B505460C4648
:10197000134605F5D87000EB0410006800F0040071
:101980001872187A50B905F5D87000EB0410006889
:1019900040F2FF7101EA5050186009E005F5D87077
:1019A00000EB041000686FF0604101EAD00058605D
:1019B00005F5D87000EB0410006800F002005872C2
:1019C00005F5D87000EB0410406800F00F00987225
:1019D00005F5D87000EB04104068000AD87405F5CE
:1019E000D87000EB04108068D87205F5D87000EB51
:1019F00004108068010A197305F5D87000EB041013
:101A00008068010C597305F5D87000EB04108068EC
:101A1000000E987305F5D87000EB0410C068D873F9
:101A200005F5D87000EB0410C068010A197405F5BB
:101A3000D87000EB0410C068010C597405F5D8701B
:101A400000EB0410C068000E987421462846FFF78A
:101A500076FF30BD21B1026842F48032026003E0BB
:101A6000026822F4803202607047014600200A6852
:101A700022F0010242F002020A604A6802F0030208
:101A8000022A00D10120704701464FF6FF72002064
:101A90000B6823F002030B6000E0521E4B6803F05A
:101AA0000203022B01D1002AF7D14B6803F0020395
:101AB000022B00D0012070470246002093690B40A2
:101AC0000BB1012000E00020704782698A438261E7
:101AD00070470246002002EA01030BB1012000E03A
:101AE0000020704770B504460D460026402D47D0B3
:101AF0000EDC072D2BD006DC042D2FD0052D19D0A0
:101B0000062D61D11CE0082D2ED0202D5CD131E0B6
:101B1000B5F5806F46D006DCB5F5807F36D0B5F5DB
:101B2000007F51D138E0B5F5803F47D0B5F5003F93
:101B30004AD13DE0A0680121FFF7CBFF064645E012
:101B4000A0684FF48071FFF7C4FF06463EE0A0682E
:101B50004FF48031FFF7BDFF064637E0E06808210B
:101B6000FFF7B7FF064631E0E0681021FFF7B1FF4D
:101B700006462BE020690821FFF7ABFF064625E06B
:101B800020691021FFF7A5FF06461FE0A06901218B
:101B9000FFF79FFF064619E0A0690221FFF799FFB2
:101BA000064613E0A0690421FFF793FF06460DE007
:101BB00060681021FFF78DFF064607E06068082186
:101BC000FFF787FF064601E0002600BF00BF304652
:101BD00070BD402935D00EDC072925D006DC04294C
:101BE00026D0052919D0062943D119E0082922D089
:101BF00020293ED122E0B1F5806F2FD006DCB1F56F
:101C0000807F21D0B1F5007F33D122E0B1F5803F54
:101C100029D0B1F5003F2CD128E00122826029E0D3
:101C20004FF48072826025E04FF48032826021E0C0
:101C30000822C2601EE01022C2601BE0082202617E
:101C400018E01022026115E0826922F0010282612F
:101C500010E0826922F0020282610BE0826922F0C8
:101C60000402826106E00822426003E01022426022
:101C700000E000BF00BF704708B54FF4E060FFF719
:101C800041F800214FF00060FFF773F814208DF841
:101C9000000000208DF801008DF8020001208DF871
:101CA00003006846FFF733F808BD08B50121092095
:101CB000FFF7B2FB01214806FFF7BBFB4FF4807032
:101CC000ADF8000048208DF8030069463C48FFF756
:101CD000E7F84FF40070ADF8000018208DF803000D
:101CE00069463748FFF7DCF801214FF4EA10FFF7A7
:101CF000A8F908BD00B587B03248FFF7F1FB04A88A
:101D0000FFF70DFD00208DF810008DF811008DF803
:101D100012008DF813008DF814008DF815008DF861
:101D200016008DF817000C208DF8180001208DF892
:101D300019000920ADF81A0004A92248FFF7E2FBB8
:101D400001208DF8000000208DF8010001208DF8A1
:101D500002000020ADF80400ADF80600ADF8080060
:101D6000ADF80A00ADF80C0001208DF80E006846B1
:101D7000FFF754FC012202211248FFF7E0FC07B0F4
:101D800000BD30B585B004460D460020009001909E
:101D900004208DF8080000208DF8090002208DF83D
:101DA0000A008DF80B408DF80C5069460548FFF786
:101DB000CFFC05B030BD10B500F0C8FE10BD00006E
:101DC000000C01400064004008B501210820FFF725
:101DD00023FB4FF44040ADF8000010208DF80300C5
:101DE00003208DF8020069460448FFF759F84FF4C4
:101DF00040410248FFF701F908BD0000000C014016
:101E0000F6490978012906D0022905D0032904D012
:101E1000042904D102E003E002E001E000E000BF99
:101E200000BF704770B586B0044620780006617820
:101E300040EA0140A17840EA0120E17840EA010649
:101E4000E6480078012806D0022835D0032834D08F
:101E5000042834D132E00296207900F00F008DF88A
:101E60000E0000208DF80D0004208DF80C00607924
:101E70008DF80F00A1798DF81010E1798DF811100F
:101E8000217A8DF81210617A8DF81310A17A8DF8ED
:101E90001410E17A8DF81510217B8DF8161001A928
:101EA000CF48FFF755FC054600BF2946CC48FFF751
:101EB000E2FC0028F9D003E002E001E000E000BF0E
:101EC00000BF06B070BD10B586B00446C3480078A8
:101ED000012806D0022847D0032847D0042849D13A
:101EE00046E00021BE48FFF731FD00283AD001AAA4
:101EF0000021BB48FFF739FD0298000E20700298C0
:101F0000000C60700298000AA0700298E0709DF8C2
:101F10000E10207961F303002071207900F00F008A
:101F2000082804DD207920F00F00083020719DF88A
:101F30000F0060719DF81010A1719DF81110E171F2
:101F40009DF8121021729DF8131061729DF8141003
:101F5000A1729DF81510E1729DF8161021730120F1
:101F600006B010BD0020FBE70120F9E70120F7E7EC
:101F70000120F5E70020F3E7704710B5044620780C
:101F800020F002002070207920F0F00020712079EC
:101F900000F00F00082804DD207920F00F00083041
:101FA00020712046FFF73EFF10BD10B58B4800782A
:101FB000012806D0022835D0032864D004287DD11A
:101FC00094E08848007818B9FFF7D6FF022010BDCA
:101FD00021E0854800788549097801EB8101844A30
:101FE00002EB8101C8708149097801EB810102EBA4
:101FF0008100FFF7C2FF7D480078401C7B490870D4
:1020000008460078032801DB002008707548007836
:10201000401E74490870734800780028D9DCFFF727
:10202000ABFF96E07348007818B9FFF7A5FF0220D0
:10203000CDE721E0704800787049097801EB810113
:102040006F4A02EB8101C8706C49097801EB81018C
:1020500002EB8100FFF791FF68480078401C674958
:10206000087008460078032801DB002008706148EA
:102070000078401E5F4908705E4800780028D9DC6F
:10208000FFF77AFF65E05F48007818B9FFF774FF43
:1020900002209CE723E05C4800785C49097801EB6A
:1020A00081015B4A02EB8101C8705849097801EB54
:1020B000810102EB8100FFF760FF00E047E0534839
:1020C0000078401C5149087008460078032801DB5D
:1020D000002008704B480078401E4A490870494863
:1020E00000780028D7DCFFF747FF32E04948007846
:1020F00018B9FFF741FF022069E721E04648007860
:102100004649097801EB8101454A02EB8101C8701B
:102110004249097801EB810102EB8100FFF72DFFB5
:102120003E480078401C3D49087008460078032866
:1021300001DB0020087037480078401E35490870E0
:10214000344800780028D9DCFFF716FF01E00220B0
:102150003DE700BF00203AE7F0B504460D46059E76
:1021600000213048007828B902202E4F38703846B8
:10217000867001E00220F0BD2B48046080F8F65024
:10218000A0F8F430002105E0575C2748001D4754B3
:10219000481C81B29942F7DB0020234F87F8FA00F0
:1021A00087F8FC00072093FBF0F087F8FB0007207E
:1021B00093FBF0F700FB173030B11B4890F8FB00A1
:1021C000401C194F87F8FB0040F2E240164FA7F879
:1021D000F800012087F8FD000020CCE7B7030020BD
:1021E00000640040C1030020B8030020BF030020AA
:1021F00028040020C7030020B9030020C5030020E5
:10220000A0040020CD030020BA030020CB0300204F
:1022100018050020D3030020BB030020D1030020B9
:1022200090050020D4030020E406002070B586B09D
:102230000446FE4D46E06869002842D1FC4880789B
:10224000FF2801D106B070BD04F47F40B0F5704F97
:1022500000D3F7E79DF8040020F01C0018308DF83B
:1022600004009DF8040020F001008DF80400E8202F
:102270008DF80500EE48C0788DF806009DF808003E
:1022800020F00F0008308DF80800EA4800788DF83B
:10229000070001208DF80900FF218DF80A108DF844
:1022A0000B108DF80C108DF80D108DF80E40210AD2
:1022B0008DF80F10210C8DF8101001A8FFF75DFEAE
:1022C000C0E76D69A868A042B5D1287BDA490978D2
:1022D0008842B0D1286908B128698047A8880828B1
:1022E0007DDDD54800780090AB88D14EF1782A6822
:1022F000A868FFF731FFD8B330468078FF2800D1B7
:10230000A0E79DF8040020F01C0018308DF80400B0
:102310009DF8040020F001008DF80400E8208DF8FD
:102320000500C348C0788DF806009DF8080020F02D
:102330000F0008308DF80800BE4800788DF80700BF
:1023400002208DF80900FF218DF80A108DF80B107E
:102350008DF80C108DF80D108DF80E40210A8DF8B7
:102360000F10210C8DF8101001A8FFF706FE69E789
:10237000FFE79DF8040020F01C0018308DF80400E1
:102380009DF8040020F001008DF80400E8208DF88D
:102390000500A7488078FF2802D18DF8060003E0E9
:1023A000A348C0788DF806009DF8080020F00F00C3
:1023B00008308DF808009F4800788DF8070000204D
:1023C0008DF80900FF218DF80A108DF80B108DF89B
:1023D0000C108DF80D108DF80E40210A00E008E079
:1023E0008DF80F10210C8DF8101001A8FFF7C5FD16
:1023F00088E09DF8040020F01C0018308DF80400DF
:102400009DF8040020F001008DF80400E8208DF80C
:102410000500884800788DF8070085488078FF28F7
:1024200004D004F47F40B0F5704F03D3FF208DF843
:10243000060003E07E48C0788DF806009DF808008D
:1024400020F00F0008308DF808007A4800788DF8E9
:10245000070000208DF80900FF218DF80A108DF883
:102460000B108DF80C108DF80D108DF80E40210A10
:102470008DF80F10210C8DF8101001A8FFF77DFDCD
:102480009DF8040020F01C0018308DF80400A868A6
:10249000000C9DF8041060F300018DF804102889E9
:1024A000000A8DF80500634800788DF80700604841
:1024B0008078FF2802D18DF8060003E05C48C078E0
:1024C0008DF8060028799DF8081060F303018DF857
:1024D0000810002000BF06E029680A5C0DF1090120
:1024E0000A54411CC8B2A9888142F5DC05E0FF22EC
:1024F0000DF109010A54411CC8B20828F7DB01A8F4
:10250000FFF73BFD00BF9DE601464878F02801DB60
:10251000002070474878F02804DA8878FF2801D135
:102520000020F6E744480078012806D002280FD0A2
:10253000032818D004282CD120E04878F02806DAA7
:1025400088783E4A1278904201D10020E1E721E0EC
:102550004878F02806DA8878394A1278904201D112
:102560000020D6E716E04878F02806DA8878354A61
:102570001278904201D10020CBE70BE04878F02898
:1025800006DA8878304A1278904201D10020C0E7FC
:1025900000E000BF00BF0220BBE710B500242448C4
:1025A000FFF791FC002870D02148FFF7ADFF00B184
:1025B00010BD1F484078EA2868D0EB2867D0EC2887
:1025C0007ED11B48007B4FF47F0101EA004118488F
:1025D000C07A4FF47F4202EA002001441448807A16
:1025E0000C181A48007800286DD1194890F8FE00A0
:1025F000002868D10E484079102863D10120134982
:1026000008700D48007848700948C078104981F872
:10261000F6000748007B110201EA00410448C07A35
:1026200002EA002001440248807A13E0CC05002031
:10263000D8030020B5030020B7030020B803002012
:10264000B9030020BA030020BB030020D4030020FC
:10265000E40500200844FE490860084690F8F800A8
:1026600018B1032081F8FE006CE2FA48C0794FF4FB
:102670007F4101EA0021F74880790844F02807D912
:102680000320F34981F8FE005CE25CE2DEE06CE0EE
:10269000F048C0794FF47F4101EA0021ED4880798C
:1026A0000844EB49A1F8F400EA48007A81F8FC00FC
:1026B00040F2E240A1F8FA00012081F8FE0041E278
:1026C000F8E000E0F7E0E448007802284CD1E34865
:1026D0000068A04248D1DF484079102806D0112870
:1026E00005D0132833D0FF283CD13AE03BE0DB484B
:1026F00090F8FD00022804D0D84890F8FD00042886
:1027000024D1D448807928B940F21A40D349A1F89D
:10271000F8001BE0CF48C17980790144CF4890F898
:10272000FB00401C814204DD0520CC4981F8FD00FE
:102730000CE0C8488079C94981F8FC00C548C079D7
:10274000401E81F8FA00032081F8FD000BE0C34829
:1027500090F8FD00042803D10620C04981F8FD004F
:1027600001E000E000BF00BFA5E0B94890F8FE001E
:1027700002286AD1B64890F8F600B649C97888426E
:1027800063D1B44881794079401EC0EBC002B048A3
:10279000001D8154AF48C2794079401EC0EBC00093
:1027A000401CAB49091D0A54AA48027A4079401ED0
:1027B000C0EBC000801C0A54A648427A4079401EF3
:1027C000C0EBC000C01C0A54A248827A4079401E67
:1027D000C0EBC000001D0A549E48C27A4079401EDA
:1027E000C0EBC000401D0A549A48027B4079401E4D
:1027F000C0EBC000801D0A5496484079091F91F82B
:10280000FD10884206DD924890F8FD00401C90497A
:1028100081F8FD0040F2EE208D49A1F8FA0091F810
:10282000FD0000EBD0714910A0EB410139B188499E
:1028300091F8FD10864A92F8FC20914204D10120C3
:10284000834981F8FE007DE17CE134E081488079B4
:10285000F02813DA7F48C0794FF4403101EA004193
:102860007C4880794FF47F4202EA0020084479498D
:10287000C96860F31F217748C16015E07548C079C9
:102880004FF4403101EA0041724880794FF47F42B1
:1028900002EA002001446F48407901446D48C06855
:1028A00061F31F206B49C8606A49C968080AFFF7CD
:1028B000BDFC47E100BF67484078F02815DA65485D
:1028C0000078C0F3400040046249097801F001013A
:1028D00000EB01405F49497800EB01215D48C06889
:1028E00061F31F205B49C86017E05A480078C0F3C5
:1028F000400040045749097801F0010100EB014014
:102900005449497800EB01205249897801445148E3
:10291000C06861F31F204F49C86051480078012802
:1029200006D002283ED0032878D0042875D1CCE008
:102930004C48007803282DDA4A480078032810DA3A
:1029400048480078401C4749087047480078401CB8
:10295000454908700846007803280FDB00200870FE
:102960000CE04248007820F0100010303F49087019
:102970000846007820F00E00801C08703A4909785B
:1029800001EB81013A4A02EB81001422314900F047
:1029900030FF06E03548007820F020002030334931
:1029A0000870CDE03348007803282DDA31480078EC
:1029B000032810DA2F480078401C2E4908702E4852
:1029C0000078401C2C4908700846007803280FDB6B
:1029D000002008700CE02548007820F0100010302E
:1029E000224908700846007820F00E00001D08708B
:1029F0002149097801EB8101204A02EB8100142270
:102A0000144900F0F6FE06E01848007820F0200097
:102A100020301649087093E000E090E018480078F4
:102A200003284ADA1648007803282DDA144800787B
:102A3000401C1349087013480078401C1149087065
:102A40000846007803282CDB0020087029E00000ED
:102A5000E4050020D8030020D4030020E406002071
:102A6000B7030020BE030020BD030020B6030020F2
:102A7000EC030020C4030020C303002064040020F2
:102A8000CA030020C9030020F848007820F0100095
:102A90001030F64908700846007820F00E00801DBE
:102AA0000870F349097801EB8101F24A02EB8100D9
:102AB0001422F14900F09DFE06E0EC48007820F079
:102AC00020002030E94908703AE0EC4800780328FB
:102AD0002DDAEA480078032810DAE8480078401C2C
:102AE000E6490870E6480078401CE5490870084649
:102AF000007803280FDB002008700CE0DB4800782A
:102B000020F010001030D94908700846007820F0F5
:102B10000E0008300870DA49097801EB8101D94AC2
:102B200002EB81001422D44900F063FE06E0CF4896
:102B3000007820F020002030CC49087000E000BF71
:102B400000BF00BF00BF00BF32E5704710B5FFF700
:102B5000FCFFFFF722FDFFF728FA00F0F0FC10BDA4
:102B600010B5FFF7F3FF10BD704770471420012127
:102B70008140C54A430942F8231000BF704700B5A1
:102B80000246C2480078012806D0022807D0032850
:102B900008D004280CD108E0BD48027009E0BD4807
:102BA000027006E0BC48027003E0BC48027000E01E
:102BB00000BF00BF1046FFF723F900BD70B5054602
:102BC0000C460026FFF7D0FF012C06D0022C25D0A2
:102BD000032C44D0042C7DD162E0B148007808B9C0
:102BE00001261AE0AF48007800EB8000AE4A02EB05
:102BF00080011422284600F0FCFDAA480078401C01
:102C0000A849087008460078032801DB00200870F6
:102C1000A3480078401EA249087066E0A3480078E7
:102C200008B901261AE0A248007800EB8000A14A0A
:102C300002EB80011422284600F0DBFD9C4800785E
:102C4000401C9B49087008460078032801DB0020DF
:102C5000087096480078401E9449087045E09648F0
:102C6000007808B901261AE09448007800EB80004B
:102C7000804A02EB80011422284600F0BAFD8F48FA
:102C80000078401C8D49087008460078032801DB55
:102C90000020087088480078401E8749087024E0AA
:102CA0007648007808B901261CE08548007800EBDA
:102CB0008000744A02EB80011422284600F099FD3E
:102CC0007F480078401C7E49087008460078032839
:102CD00003DB00E007E00020087068480078401E31
:102CE0006649087001E0022600BF00BFFFF738FF09
:102CF000304670BD70B504460D4629462046FFF7A4
:102D00005DFF70BD70B504460D460026FFF72DFF30
:102D1000012D06D0022D32D0032D5ED0042D75D1A9
:102D20008AE068480078032827DA66480078032894
:102D300010DA64480078401C6249087062480078E4
:102D4000401C6149087008460078032809DB002010
:102D5000087006E04548007820F00100401C434917
:102D600008705949097801EB8101584A02EB81004A
:102D70001422214600F03DFD00E00126CEE054483B
:102D80000078032827DA52480078032810DA5048E0
:102D90000078401C4E4908704E480078401C4D4950
:102DA000087008460078032809DB0020087006E058
:102DB0002E48007820F00100401C2C49087045493D
:102DC000097801EB8101444A02EB8100142221467B
:102DD00000F00FFD00E00126A0E040480078032845
:102DE00028DA3E480078032811DA3C480078401C75
:102DF0003A4908703A480078401C3949087008463A
:102E0000007803280ADB0020087007E085E01748F7
:102E1000007820F00100401C1449087030490978FE
:102E200001EB81012F4A02EB81001422214600F0C0
:102E3000E0FC00E0012671E02B48007803286ADA04
:102E400029480078032853DA27480078401C26498F
:102E5000087026480078401C24490870084600780D
:102E600003284CDB0020087049E00000B603002076
:102E7000C9030020DC040020D8030020D003002078
:102E8000CF0300205405002000E200E0B70300203B
:102E9000B8030020B9030020BA030020BB030020C0
:102EA000BE030020BC030020EC030020C40300206C
:102EB000C203002064040020CA030020C8030020CD
:102EC000CE030020C1030020C003002028040020FE
:102ED000C7030020C6030020A0040020CD0300206B
:102EE000CC03002018050020D3030020D2030020CB
:102EF000FE48007820F00100401CFC490870FC49A5
:102F0000097801EB8101FB4A02EB81001422214682
:102F100000F06FFC00E0012600E000BF00BFFFF7FB
:102F20002BF8FFF723FE304670BD70B504460D4602
:102F300029462046FFF7E6FE70BD0020EB490870E9
:102F4000ED490870ED490870ED490870ED490870C9
:102F5000FF20ED490870ED490870ED490870E4491B
:102F600008700020EB490870EB490870EB490870C5
:102F7000EB490870FF20EB490870EB490870EB49FA
:102F80000870EB4908700020EA490870EA490870A7
:102F9000EA490870EA490870EA490870EA49087085
:102FA000EA490870EA4908700120EA490870F420EB
:102FB000E9490870F720E94908700020E8490870DD
:102FC0000120E84908700020E7498860086008612E
:102FD000888008734861E549087048708870E44942
:102FE00081F8FC0081F8FB0081F8FA00A1F8F800F4
:102FF00081F8FD00DF4981F8FD0081F8FC00A1F8AF
:10300000FA0081F8FE007047704730B585B00024A3
:103010009DF8000020F01C001C308DF800009DF889
:10302000000020F001008DF80000EB208DF8010079
:10303000CF4890F8F6008DF802009DF8040020F0CB
:103040000F0008308DF80400C94890F8FC000028F3
:103050005ADDC74890F8FC00401EC54981F8FC00C5
:10306000084690F8FA00C0EBC005084690F8FA0050
:10307000401CC0B28DF8050000BF08E02919BC480B
:10308000001D425C0DF10500611C4254641C072CBC
:10309000F4DBB74890F8FA1090F8FB00401E81422C
:1030A00022D1B348B0F8F400C01FA8420EDAB048ED
:1030B000B0F8F400401BC41F06E0FF220DF105002C
:1030C00004F108014254641C002CF6DB0020A849DE
:1030D00081F8FC0081F8FA0040F2E240A1F8F80023
:1030E000042081F8FD0009E0A14890F8FA00401C96
:1030F0009F4981F8FA00032081F8FD009948017882
:103100006846FFF7FFFD0CE00020994981F8FC00BC
:1031100081F8FA0040F2E240A1F8F800042081F8BA
:10312000FD0005B030BD10B586B0914804689DF82B
:10313000040020F01C001C308DF804009DF80400F1
:1031400020F001008DF80400EC208DF8050088487F
:1031500090F8F6008DF806009DF8080020F00F00AA
:1031600008308DF8080010208DF80900804890F88C
:10317000F4108DF80A10B0F8F40001128DF80B105D
:103180007B4890F8FB108DF80C10FF218DF80D1086
:10319000210C8DF81010210A8DF80F108DF80E40BB
:1031A0007048017801A8FFF7ADFD40F2E240704998
:1031B000A1F8F800022081F8FD0006B010BD10B59E
:1031C00086B06B4804689DF8040020F01C001C3099
:1031D0008DF804009DF8040020F001008DF8040033
:1031E000EC208DF80500624890F8F6008DF8060096
:1031F0009DF8080020F00F0008308DF80800FF202F
:103200008DF80900FF218DF80A108DF80B108DF84C
:103210000C108DF80D10210C8DF81010210A8DF86E
:103220000F108DF80E404F48017801A8FFF76AFD96
:1032300006204F4981F8FD0006B010BD10B586B0DC
:103240004C4804689DF8040020F01C001C308DF8E8
:1032500004009DF8040020F001008DF80400EC202B
:103260008DF80500434890F8F6008DF806009DF8AB
:10327000080020F00F0008308DF80800FF208DF8BE
:103280000900FF218DF80A108DF80B108DF80C1035
:103290008DF80D10210C8DF81010210A8DF80F10EB
:1032A0008DF80E402F48017801A8FFF72BFD042070
:1032B000304981F8FE0006B010BD01462C4890F858
:1032C000FD00022804D02A4890F8FD00042859D1B6
:1032D0002748B0F8F80088424EDD2548B0F8F800DD
:1032E000401A234AA2F8F80000207047B6030020D5
:1032F000D203002090050020BF030020C50300205A
:10330000CB030020D1030020C0030020C60300200F
:10331000CC030020BC030020C2030020C80300200F
:10332000CE030020BD030020C3030020C9030020FA
:10333000CF030020C1030020C7030020CD030020DD
:10334000D3030020BE030020C4030020CA030020D2
:10335000D0030020B8030020B9030020BA030020E6
:10336000BB030020B7030020CC050020D4030020BD
:10337000E4060020E40500200020F74AA2F8F80047
:10338000012070470020FCE70146F44890F8FE0059
:10339000022813D1F148B0F8FA00884208DDEF485E
:1033A000B0F8FA00401AED4AA2F8FA00002070477F
:1033B0000020EA4AA2F8FA000120F8E70020F6E728
:1033C00010B586B0E54804689DF8040020F01C00A4
:1033D0001C308DF804009DF8040020F001008DF8E9
:1033E0000400EC208DF80500DC4890F8F6008DF81C
:1033F00006009DF8080020F00F0008308DF8080046
:10340000D64890F8F800D8B111208DF809000021B5
:103410008DF80A10FF218DF80B108DF80C108DF827
:103420000D10210C8DF81010210A8DF80F108DF859
:103430000E40CB48017801A8FFF764FC06B010BD30
:10344000C64890F8FC00C54991F8FD1088424EDD51
:10345000C24890F8FC00C14991F8FD10401A0128BB
:1034600021D111208DF8090001218DF80A10BB48E7
:1034700090F8FC108DF80B10FF218DF80C108DF8D2
:103480000D10210C8DF81010210A8DF80F108DF8F9
:103490000E40B348017801A8FFF734FC0220AF4981
:1034A00081F8FE00CAE711208DF8090002218DF88D
:1034B0000A10AA4890F8FD00401CC1B28DF80B100C
:1034C000FF218DF80C108DF80D10210C8DF81010C7
:1034D000210A8DF80F108DF80E40A148017801A83F
:1034E000FFF710FC02209D4981F8FE00A6E713209B
:1034F0008DF80900994890F8F4108DF80A10B0F88A
:10350000F400010A8DF80B10944890F8FC108DF827
:103510000C10FF218DF80D10210C8DF81010210AD0
:103520008DF80F108DF80E408D48017801A8FFF737
:10353000E9FB0420894981F8FE0000BF7EE710B551
:103540008848007818B187480078032800D110BD5A
:1035500084480078012834D1824840788049087036
:103560007E4890F8FE00052828D2DFE800F003042A
:103570000711170023E0FFF723FF20E00A20FFF7E1
:1035800003FF012803D10320744981F8FE0016E0EF
:10359000FFF754FE00207349487010E000206F4987
:1035A00081F8FD0081F8FC0040F2E240A1F8FA0049
:1035B000002081F8FE006B49087000E000BF00BFEA
:1035C000C5E76848007802283FD16648807864499A
:1035D0000870614890F8FD00072833D2DFE800F05A
:1035E00004050812151F22002DE0FFF79CFD2AE0BC
:1035F0000A20FFF762FE012803D10520564981F811
:10360000FD0020E0FFF701FD1DE00A20FFF755FE59
:10361000012803D10520504981F8FD0013E0FFF790
:10362000CEFD10E000204C4981F8FC0081F8FA0042
:1036300040F2E240A1F8F800002081F8FD0049497D
:10364000087000E000BF00BF81E700BF7FE710B552
:1036500002460B4600214348007830B93F480068D5
:1036600018B103203F4C207001E0022010BD3D48FE
:103670004078984208D03B480078032802D10020C7
:10368000384C20700220F1E79088344CB4F8F440B4
:10369000A04201DA0220E9E7002106E02F48001DE0
:1036A000405C14686054481C81B290888842F5DC04
:1036B0002A4890F8F60090712848B0F8F40010817C
:1036C00026480068D0600020244CA4F8F400206054
:1036D00024480078032802D10020224C20700020CA
:1036E000C4E770B586B004460D4616469DF8040042
:1036F00020F001008DF804009DF8040020F01C006B
:1037000018308DF804008DF806509DF8080020F060
:103710000F00C01C8DF80800EA208DF80500E0B20B
:103720008DF80900210A8DF80A10210C8DF80B1074
:1037300000BF314601A8FFF7E5FA0028F9D106B02D
:1037400070BD2DE9F04705460E4617469846DDF850
:103750002090054C0BE00000E4060020E40500206A
:10376000B7030020D4030020CC0500206469606901
:103770000028FBD1182000F00DF860616469256015
:10378000A680A760C4F8108084F80C9000206061C7
:10379000BDE8F08770B5064600F060F8056806F1F0
:1037A0000B0020F00704B4429CBF002070BD2B46E4
:1037B0006A68BAB11068A04210D304F108018842C7
:1037C0003CBF5068586007D35168101941601168B8
:1037D000091B016058601460101D70BD13465268CB
:1037E000002AE7D12146284600F040F80028DED123
:1037F00070BD10B5203AC0F00B80B1E81850203AE7
:10380000A0E81850B1E81850A0E81850BFF4F5AF80
:103810005FEA027C24BFB1E81850A0E8185044BF0A
:1038200018C918C0BDE810405FEA827C24BF51F877
:10383000043B40F8043B08BF7047D20728BF31F86B
:10384000023B48BF11F8012B28BF20F8023B48BFBC
:1038500000F8012B70477047704770470048704769
:10386000EC070020704770477047704738B5044632
:103870000A4600206946AFF30080002808BF38BD23
:1038800002460099204600F067F8012038BD01206B
:1038900000F07CB8F8B5AFF30080054600200C4678
:1038A000102000BF0646A819A0420DD9324669462D
:1038B0000020AFF30080070008BF00F067F8009811
:1038C000A04218BF0546C419FFF7C8FF05600746A8
:1038D000F01D20F007004619284600F00AF8B4420F
:1038E00008BFF8BDA21B31463868BDE8F84000F0BB
:1038F00033B800210160C0E9011070471020704703
:1039000070B50446051FFFF7A9FF0068002C14BF1F
:10391000446870BD002C18BFAC423CBF20466468B0
:10392000F8D301680A18AA4218BF456003D12A6873
:1039300005461144016028684119A1421CBF6C6012
:1039400070BD6168696021680844286070BD00002E
:1039500000487047E4070020034640688C46002872
:1039600018BF88423CBF03464068F8D31868184423
:10397000884207D00CF1030020F00700001D411A17
:10398000521A0146081D0A60FFF7BABF10B500F0D1
:1039900035F8BDE8104000F02CB870477546FFF7C9
:1039A000D7FFAE4605006946534620F0070085461E
:1039B00018B020B5FDF794F9BDE820404FF000069F
:1039C0004FF000074FF000084FF0000B21F0070107
:1039D000AC46ACE8C009ACE8C009ACE8C009ACE84A
:1039E000C0098D4670470446AFF300802046FCF7BF
:1039F0000AFC002801D000F029B8704710B5012852
:103A000005D0002103A000F027F8012010BD09A176
:103A1000F8E7000053494752544D454D3A204F7541
:103A200074206F662068656170206D656D6F7279B6
:103A3000000000003A2048656170206D656D6F726E
:103A40007920636F72727570746564000149182083
:103A5000ABBEFEE72600020070B505460C460A2004
:103A600000E06D1C00F011F835B128780028F8D17D
:103A700002E0641C00F009F814B120780028F8D1A5
:103A8000BDE870400A20AFF3008008B569468DF8A4
:103A900000000320ABBE08BD0000000000000000D5
:103AA000002F000000000700070000147F147F149F
:103AB00000242A7F2A120062640813230036495525
:103AC000225000000503000000001C2241000000FD
:103AD00041221C000014083E08140008083E080893
:103AE000000000A0600000080808080800006060EE
:103AF0000000002010080402003E5149453E00002D
:103B0000427F4000004261514946002141454B310E
:103B1000001814127F10002745454539003C4A49DA
:103B2000493000017109050300364949493600064C
:103B30004949291E000036360000000056360000B4
:103B4000000814224100001414141414000041222F
:103B5000140800020151090600324959513E007C07
:103B60001211127C007F49494936003E41414122F1
:103B7000007F4141221C007F49494941007F0909DA
:103B80000901003E4149497A007F0808087F00008A
:103B9000417F4100002040413F01007F0814224145
:103BA000007F40404040007F020C027F007F0408FD
:103BB000107F003E4141413E007F09090906003E59
:103BC0004151215E007F0919294600464949493182
:103BD0000001017F0101003F4040403F001F2040A5
:103BE000201F003F4038403F006314081463000763
:103BF0000870080700615149454300007F414100BA
:103C000000552A552A55000041417F000004020159
:103C10000204004040404040000001020400002037
:103C200054545478007F4844443800384444442075
:103C300000384444487F00385454541800087E0922
:103C400001020018A4A4A47C007F080404780000EA
:103C5000447D4000004080847D00007F10284400A7
:103C60000000417F4000007C04180478007C0804B8
:103C7000047800384444443800FC242424180018F4
:103C8000242418FC007C08040408004854545420E0
:103C900000043F444020003C4040207C001C204069
:103CA000201C003C4030403C004428102844001CAC
:103CB000A0A0A07C004464544C44141414141414A4
:103CC00000000000000000000000000000000000F4
:103CD000000000F800000000000000333000000089
:103CE00000100C06100C0600000000000000000090
:103CF00040C07840C0784000043F04043F04040002
:103D0000007088FC08300000001820FF211E000011
:103D1000F008F000E018000000211C031E211E0026
:103D200000F00888700000001E21232419272110AC
:103D300010160E000000000000000000000000004F
:103D4000000000E0180402000000000718204000F6
:103D500000020418E00000000040201807000000E6
:103D6000404080F0804040000202010F010202004A
:103D7000000000F0000000000101011F010101002E
:103D8000000000000000000080B070000000000093
:103D9000000000000000000000010101010101011C
:103DA00000000000000000000030300000000000B3
:103DB0000000000080601804006018060100000088
:103DC00000E010080810E000000F102020100F0085
:103DD000001010F8000000000020203F202000000C
:103DE0000070080808887000003028242221300064
:103DF00000300888884830000018202020110E006C
:103E00000000C02010F8000000070424243F240014
:103E100000F80888880808000019212020110E00E9
:103E200000E0108888180000000F112020110E00FB
:103E300000380808C83808000000003F00000000F3
:103E40000070880808887000001C222121221C00B4
:103E500000E010080810E0000000312222110F00DD
:103E6000000000C0C0000000000000303000000072
:103E700000000080000000000000806000000000E2
:103E800000008040201008000001020408102000FB
:103E90004040404040404000040404040404040046
:103EA00000081020408000000020100804020100DB
:103EB000007048080808F0000000003036010000DB
:103EC000C030C828E810E0000718272423140B008E
:103ED0000000C038E0000000203C23020227382008
:103EE00008F8888888700000203F202020110E00EC
:103EF000C0300808080838000718202020100800E3
:103F000008F808080810E000203F202020100F00CB
:103F100008F88888E8081000203F20202320180097
:103F200008F88888E8081000203F200003000000FF
:103F3000C03008080838000007182020221E0200A0
:103F400008F808000008F808203F210101213F205F
:103F5000000808F8080800000020203F202000008A
:103F600000000808F8080800C08080807F0000007A
:103F700008F888C028180800203F200126382000B3
:103F800008F8080000000000203F2020202030001A
:103F900008F8F800F8F80800203F003F003F200034
:103FA00008F830C00008F808203F200007183F003C
:103FB000E01008080810E0000F10202020100F006B
:103FC00008F808080808F000203F2101010100005E
:103FD000E01008080810E0000F18242438504F00A3
:103FE00008F8888888887000203F2000030C302063
:103FF00000708808080838000038202121221C00A1
:10400000180808F8080818000000203F20000000E9
:1040100008F808000008F808001F202020201F00D2
:104020000878880000C83808000007380E01000032
:10403000F80800F80008F800033C0700073C0300FC
:10404000081868808068180820302C03032C302062
:104050000838C800C83808000000203F20000000D1
:1040600010080808C8380800203826212020180029
:10407000000000FE020202000000007F40404000FD
:10408000000C30C000000000000000010638C00035
:1040900000020202FE000000004040407F000000DD
:1040A0000000040202020400000000000000000002
:1040B0000000000000000000808080808080808000
:1040C00000020204000000000000000000000000E8
:1040D00000008080808000000019242222223F20DE
:1040E00008F8008080000000003F112020110E0021
:1040F0000000008080800000000E112020201100B0
:10410000000000808088F800000E112020103F2061
:104110000000808080800000001F222222221300E5
:10412000008080F0888888180020203F2020000030
:104130000000808080808000006B949494936000E5
:1041400008F8008080800000203F210000203F20F0
:1041500000809898000000000020203F20200000F0
:10416000000000809898000000C08080807F0000E0
:1041700008F8000080808000203F24022D302000BD
:10418000000808F8000000000020203F2020000068
:104190008080808080808000203F20003F20003F82
:1041A0008080008080800000203F210000203F2090
:1041B0000000808080800000001F202020201F0041
:1041C000808000808000000080FFA12020110E0070
:1041D0000000008080808000000E112020A0FF8061
:1041E000808080008080800020203F21200001000E
:1041F0000000808080808000003324242424190063
:10420000008080E0808000000000001F202000006F
:104210008080000000808000001F202020103F20B0
:10422000808080000080808000010E300806010040
:1042300080800080008080800F300C030C300F00E5
:1042400000808000808080000020312E0E31200010
:10425000808080000080808080818E701806010040
:1042600000808080808080000021302C222130005E
:1042700000000000807C020200000000003F40407F
:1042800000000000FF00000000000000FF00000030
:104290000002027C800000000040403F000000005F
:1042A00000060101020204040000000000000000FA
:1042B000D042000800000020D80300006C01000874
:1042C00064440008D8030020700A0000C8010008F8
:1042D0001184A24A041814010203040607080910F5
:1042E00060028C20908E8888FF880102118025044E
:1042F000047E012BFC44010213FC1F40445464451E
:104300007E1D07147E45645444404BFF490102164C
:10431000FF2AF879397E0215F81B1F08012A7F2031
:1043200004119F80F03B808201080810E2A2928A6B
:10433000868280C049A50319807F3A04014AFC07A0
:1043400001124A20015A3F08011238088060F8071C
:1043500040300FC603110808220139F82AFFC609A8
:10436000101F111809100C2424A4642526060D1012
:104370002424140CBB1C404849011A7F040D124B25
:10438000484040201E4848C8784F060A124820413D
:104390000009150312122222528A063C106080A2E4
:1043A00019040312C0301F40404043407F061C7F69
:1043B00042410609103F1F1010FF109008FD1AFF20
:1043C000040910E10810110444827F0180804043F9
:1043D0002C1028468180801901080A11D030FF3046
:1043E000D0121C10101F3D080402019E0D11010285
:1043F0000408211116FE222222FE0712FE8282925A
:10440000A29E100880601F0242827F0F11FF402F82
:10441000102C438011000B1490884C57A424545442
:104420008C84180801018042221A07441D423E0173
:10443000018AF9E1000D14E4242CB4252624B42CBF
:1044400024E404180AFF02011E1212121E41860102
:104450001A2D010203040400092C060708090204AE
:04446000060800004A
:0400000508000131BD
:00000001FF
